{
  "_format": "hh-sol-artifact-1",
  "contractName": "BridgeL2SovereignChain",
  "sourceName": "contracts/v2/sovereignChains/BridgeL2SovereignChain.sol",
  "abi": [
    {
      "inputs": [],
      "stateMutability": "nonpayable",
      "type": "constructor"
    },
    {
      "inputs": [],
      "name": "AlreadyClaimed",
      "type": "error"
    },
    {
      "inputs": [],
      "name": "AmountDoesNotMatchMsgValue",
      "type": "error"
    },
    {
      "inputs": [],
      "name": "ClaimNotSet",
      "type": "error"
    },
    {
      "inputs": [],
      "name": "DestinationNetworkInvalid",
      "type": "error"
    },
    {
      "inputs": [],
      "name": "EmergencyStateNotAllowed",
      "type": "error"
    },
    {
      "inputs": [],
      "name": "EtherTransferFailed",
      "type": "error"
    },
    {
      "inputs": [],
      "name": "FailedTokenWrappedDeployment",
      "type": "error"
    },
    {
      "inputs": [],
      "name": "GasTokenNetworkMustBeZeroOnEther",
      "type": "error"
    },
    {
      "inputs": [],
      "name": "GlobalExitRootInvalid",
      "type": "error"
    },
    {
      "inputs": [],
      "name": "InputArraysLengthMismatch",
      "type": "error"
    },
    {
      "inputs": [],
      "name": "InvalidInitializeFunction",
      "type": "error"
    },
    {
      "inputs": [],
      "name": "InvalidSmtProof",
      "type": "error"
    },
    {
      "inputs": [],
      "name": "InvalidSovereignWETHAddressParams",
      "type": "error"
    },
    {
      "inputs": [],
      "name": "InvalidZeroAddress",
      "type": "error"
    },
    {
      "inputs": [
        {
          "internalType": "uint32",
          "name": "originNetwork",
          "type": "uint32"
        },
        {
          "internalType": "address",
          "name": "originTokenAddress",
          "type": "address"
        },
        {
          "internalType": "uint256",
          "name": "amount",
          "type": "uint256"
        },
        {
          "internalType": "uint256",
          "name": "localBalanceTreeAmount",
          "type": "uint256"
        }
      ],
      "name": "LocalBalanceTreeOverflow",
      "type": "error"
    },
    {
      "inputs": [
        {
          "internalType": "uint32",
          "name": "originNetwork",
          "type": "uint32"
        },
        {
          "internalType": "address",
          "name": "originTokenAddress",
          "type": "address"
        },
        {
          "internalType": "uint256",
          "name": "amount",
          "type": "uint256"
        },
        {
          "internalType": "uint256",
          "name": "localBalanceTreeAmount",
          "type": "uint256"
        }
      ],
      "name": "LocalBalanceTreeUnderflow",
      "type": "error"
    },
    {
      "inputs": [],
      "name": "MerkleTreeFull",
      "type": "error"
    },
    {
      "inputs": [],
      "name": "MessageFailed",
      "type": "error"
    },
    {
      "inputs": [],
      "name": "MsgValueNotZero",
      "type": "error"
    },
    {
      "inputs": [],
      "name": "NativeTokenIsEther",
      "type": "error"
    },
    {
      "inputs": [],
      "name": "NoValueInMessagesOnGasTokenNetworks",
      "type": "error"
    },
    {
      "inputs": [],
      "name": "NotValidAmount",
      "type": "error"
    },
    {
      "inputs": [],
      "name": "NotValidOwner",
      "type": "error"
    },
    {
      "inputs": [],
      "name": "NotValidSignature",
      "type": "error"
    },
    {
      "inputs": [],
      "name": "NotValidSpender",
      "type": "error"
    },
    {
      "inputs": [],
      "name": "OnlyBridgeManager",
      "type": "error"
    },
    {
      "inputs": [],
      "name": "OnlyEmergencyBridgePauser",
      "type": "error"
    },
    {
      "inputs": [],
      "name": "OnlyEmergencyState",
      "type": "error"
    },
    {
      "inputs": [],
      "name": "OnlyGlobalExitRootRemover",
      "type": "error"
    },
    {
      "inputs": [],
      "name": "OnlyNotEmergencyState",
      "type": "error"
    },
    {
      "inputs": [],
      "name": "OnlyPendingEmergencyBridgePauser",
      "type": "error"
    },
    {
      "inputs": [],
      "name": "OnlyRollupManager",
      "type": "error"
    },
    {
      "inputs": [],
      "name": "OriginNetworkInvalid",
      "type": "error"
    },
    {
      "inputs": [],
      "name": "TokenAlreadyMapped",
      "type": "error"
    },
    {
      "inputs": [],
      "name": "TokenAlreadyUpdated",
      "type": "error"
    },
    {
      "inputs": [],
      "name": "TokenNotMapped",
      "type": "error"
    },
    {
      "inputs": [],
      "name": "TokenNotRemapped",
      "type": "error"
    },
    {
      "inputs": [],
      "name": "WETHRemappingNotSupportedOnGasTokenNetworks",
      "type": "error"
    },
    {
      "anonymous": false,
      "inputs": [
        {
          "indexed": false,
          "internalType": "address",
          "name": "oldEmergencyBridgePauser",
          "type": "address"
        },
        {
          "indexed": false,
          "internalType": "address",
          "name": "newEmergencyBridgePauser",
          "type": "address"
        }
      ],
      "name": "AcceptEmergencyBridgePauserRole",
      "type": "event"
    },
    {
      "anonymous": false,
      "inputs": [
        {
          "indexed": false,
          "internalType": "uint8",
          "name": "leafType",
          "type": "uint8"
        },
        {
          "indexed": false,
          "internalType": "uint32",
          "name": "originNetwork",
          "type": "uint32"
        },
        {
          "indexed": false,
          "internalType": "address",
          "name": "originAddress",
          "type": "address"
        },
        {
          "indexed": false,
          "internalType": "uint32",
          "name": "destinationNetwork",
          "type": "uint32"
        },
        {
          "indexed": false,
          "internalType": "address",
          "name": "destinationAddress",
          "type": "address"
        },
        {
          "indexed": false,
          "internalType": "uint256",
          "name": "amount",
          "type": "uint256"
        },
        {
          "indexed": false,
          "internalType": "bytes",
          "name": "metadata",
          "type": "bytes"
        },
        {
          "indexed": false,
          "internalType": "uint32",
          "name": "depositCount",
          "type": "uint32"
        }
      ],
      "name": "BridgeEvent",
      "type": "event"
    },
    {
      "anonymous": false,
      "inputs": [
        {
          "indexed": false,
          "internalType": "uint256",
          "name": "globalIndex",
          "type": "uint256"
        },
        {
          "indexed": false,
          "internalType": "uint32",
          "name": "originNetwork",
          "type": "uint32"
        },
        {
          "indexed": false,
          "internalType": "address",
          "name": "originAddress",
          "type": "address"
        },
        {
          "indexed": false,
          "internalType": "address",
          "name": "destinationAddress",
          "type": "address"
        },
        {
          "indexed": false,
          "internalType": "uint256",
          "name": "amount",
          "type": "uint256"
        }
      ],
      "name": "ClaimEvent",
      "type": "event"
    },
    {
      "anonymous": false,
      "inputs": [],
      "name": "EmergencyStateActivated",
      "type": "event"
    },
    {
      "anonymous": false,
      "inputs": [],
      "name": "EmergencyStateDeactivated",
      "type": "event"
    },
    {
      "anonymous": false,
      "inputs": [
        {
          "indexed": false,
          "internalType": "uint8",
          "name": "version",
          "type": "uint8"
        }
      ],
      "name": "Initialized",
      "type": "event"
    },
    {
      "anonymous": false,
      "inputs": [
        {
          "indexed": false,
          "internalType": "address",
          "name": "sender",
          "type": "address"
        },
        {
          "indexed": false,
          "internalType": "address",
          "name": "legacyTokenAddress",
          "type": "address"
        },
        {
          "indexed": false,
          "internalType": "address",
          "name": "updatedTokenAddress",
          "type": "address"
        },
        {
          "indexed": false,
          "internalType": "uint256",
          "name": "amount",
          "type": "uint256"
        }
      ],
      "name": "MigrateLegacyToken",
      "type": "event"
    },
    {
      "anonymous": false,
      "inputs": [
        {
          "indexed": false,
          "internalType": "uint32",
          "name": "originNetwork",
          "type": "uint32"
        },
        {
          "indexed": false,
          "internalType": "address",
          "name": "originTokenAddress",
          "type": "address"
        },
        {
          "indexed": false,
          "internalType": "address",
          "name": "wrappedTokenAddress",
          "type": "address"
        },
        {
          "indexed": false,
          "internalType": "bytes",
          "name": "metadata",
          "type": "bytes"
        }
      ],
      "name": "NewWrappedToken",
      "type": "event"
    },
    {
      "anonymous": false,
      "inputs": [
        {
          "indexed": false,
          "internalType": "address",
          "name": "sovereignTokenAddress",
          "type": "address"
        }
      ],
      "name": "RemoveLegacySovereignTokenAddress",
      "type": "event"
    },
    {
      "anonymous": false,
      "inputs": [
        {
          "indexed": false,
          "internalType": "address",
          "name": "bridgeManager",
          "type": "address"
        }
      ],
      "name": "SetBridgeManager",
      "type": "event"
    },
    {
      "anonymous": false,
      "inputs": [
        {
          "indexed": false,
          "internalType": "bytes32",
          "name": "tokenInfoHash",
          "type": "bytes32"
        },
        {
          "indexed": false,
          "internalType": "uint256",
          "name": "amount",
          "type": "uint256"
        }
      ],
      "name": "SetInitialLocalBalanceTreeAmount",
      "type": "event"
    },
    {
      "anonymous": false,
      "inputs": [
        {
          "indexed": false,
          "internalType": "uint32",
          "name": "originNetwork",
          "type": "uint32"
        },
        {
          "indexed": false,
          "internalType": "address",
          "name": "originTokenAddress",
          "type": "address"
        },
        {
          "indexed": false,
          "internalType": "address",
          "name": "sovereignTokenAddress",
          "type": "address"
        },
        {
          "indexed": false,
          "internalType": "bool",
          "name": "isNotMintable",
          "type": "bool"
        }
      ],
      "name": "SetSovereignTokenAddress",
      "type": "event"
    },
    {
      "anonymous": false,
      "inputs": [
        {
          "indexed": false,
          "internalType": "address",
          "name": "sovereignWETHTokenAddress",
          "type": "address"
        },
        {
          "indexed": false,
          "internalType": "bool",
          "name": "isNotMintable",
          "type": "bool"
        }
      ],
      "name": "SetSovereignWETHAddress",
      "type": "event"
    },
    {
      "anonymous": false,
      "inputs": [
        {
          "indexed": false,
          "internalType": "address",
          "name": "currentEmergencyBridgePauser",
          "type": "address"
        },
        {
          "indexed": false,
          "internalType": "address",
          "name": "newEmergencyBridgePauser",
          "type": "address"
        }
      ],
      "name": "TransferEmergencyBridgePauserRole",
      "type": "event"
    },
    {
      "anonymous": false,
      "inputs": [
        {
          "indexed": false,
          "internalType": "bytes32",
          "name": "claimedGlobalIndex",
          "type": "bytes32"
        },
        {
          "indexed": false,
          "internalType": "bytes32",
          "name": "newClaimedGlobalIndexHashChain",
          "type": "bytes32"
        }
      ],
      "name": "UpdatedClaimedGlobalIndexHashChain",
      "type": "event"
    },
    {
      "anonymous": false,
      "inputs": [
        {
          "indexed": false,
          "internalType": "bytes32",
          "name": "unsetGlobalIndex",
          "type": "bytes32"
        },
        {
          "indexed": false,
          "internalType": "bytes32",
          "name": "newUnsetGlobalIndexHashChain",
          "type": "bytes32"
        }
      ],
      "name": "UpdatedUnsetGlobalIndexHashChain",
      "type": "event"
    },
    {
      "inputs": [],
      "name": "BASE_INIT_BYTECODE_WRAPPED_TOKEN",
      "outputs": [
        {
          "internalType": "bytes",
          "name": "",
          "type": "bytes"
        }
      ],
      "stateMutability": "view",
      "type": "function"
    },
    {
      "inputs": [],
      "name": "BRIDGE_SOVEREIGN_VERSION",
      "outputs": [
        {
          "internalType": "string",
          "name": "",
          "type": "string"
        }
      ],
      "stateMutability": "view",
      "type": "function"
    },
    {
      "inputs": [],
      "name": "BRIDGE_VERSION",
      "outputs": [
        {
          "internalType": "string",
          "name": "",
          "type": "string"
        }
      ],
      "stateMutability": "view",
      "type": "function"
    },
    {
      "inputs": [],
      "name": "WETHToken",
      "outputs": [
        {
          "internalType": "contract TokenWrapped",
          "name": "",
          "type": "address"
        }
      ],
      "stateMutability": "view",
      "type": "function"
    },
    {
      "inputs": [],
      "name": "acceptEmergencyBridgePauserRole",
      "outputs": [],
      "stateMutability": "nonpayable",
      "type": "function"
    },
    {
      "inputs": [],
      "name": "activateEmergencyState",
      "outputs": [],
      "stateMutability": "nonpayable",
      "type": "function"
    },
    {
      "inputs": [
        {
          "internalType": "uint32",
          "name": "destinationNetwork",
          "type": "uint32"
        },
        {
          "internalType": "address",
          "name": "destinationAddress",
          "type": "address"
        },
        {
          "internalType": "uint256",
          "name": "amount",
          "type": "uint256"
        },
        {
          "internalType": "address",
          "name": "token",
          "type": "address"
        },
        {
          "internalType": "bool",
          "name": "forceUpdateGlobalExitRoot",
          "type": "bool"
        },
        {
          "internalType": "bytes",
          "name": "permitData",
          "type": "bytes"
        }
      ],
      "name": "bridgeAsset",
      "outputs": [],
      "stateMutability": "payable",
      "type": "function"
    },
    {
      "inputs": [],
      "name": "bridgeManager",
      "outputs": [
        {
          "internalType": "address",
          "name": "",
          "type": "address"
        }
      ],
      "stateMutability": "view",
      "type": "function"
    },
    {
      "inputs": [
        {
          "internalType": "uint32",
          "name": "destinationNetwork",
          "type": "uint32"
        },
        {
          "internalType": "address",
          "name": "destinationAddress",
          "type": "address"
        },
        {
          "internalType": "bool",
          "name": "forceUpdateGlobalExitRoot",
          "type": "bool"
        },
        {
          "internalType": "bytes",
          "name": "metadata",
          "type": "bytes"
        }
      ],
      "name": "bridgeMessage",
      "outputs": [],
      "stateMutability": "payable",
      "type": "function"
    },
    {
      "inputs": [
        {
          "internalType": "uint32",
          "name": "destinationNetwork",
          "type": "uint32"
        },
        {
          "internalType": "address",
          "name": "destinationAddress",
          "type": "address"
        },
        {
          "internalType": "uint256",
          "name": "amountWETH",
          "type": "uint256"
        },
        {
          "internalType": "bool",
          "name": "forceUpdateGlobalExitRoot",
          "type": "bool"
        },
        {
          "internalType": "bytes",
          "name": "metadata",
          "type": "bytes"
        }
      ],
      "name": "bridgeMessageWETH",
      "outputs": [],
      "stateMutability": "nonpayable",
      "type": "function"
    },
    {
      "inputs": [
        {
          "internalType": "bytes32",
          "name": "leafHash",
          "type": "bytes32"
        },
        {
          "internalType": "bytes32[32]",
          "name": "smtProof",
          "type": "bytes32[32]"
        },
        {
          "internalType": "uint32",
          "name": "index",
          "type": "uint32"
        }
      ],
      "name": "calculateRoot",
      "outputs": [
        {
          "internalType": "bytes32",
          "name": "",
          "type": "bytes32"
        }
      ],
      "stateMutability": "pure",
      "type": "function"
    },
    {
      "inputs": [
        {
          "internalType": "uint32",
          "name": "originNetwork",
          "type": "uint32"
        },
        {
          "internalType": "address",
          "name": "originTokenAddress",
          "type": "address"
        },
        {
          "internalType": "address",
          "name": "token",
          "type": "address"
        }
      ],
      "name": "calculateTokenWrapperAddress",
      "outputs": [
        {
          "internalType": "address",
          "name": "",
          "type": "address"
        }
      ],
      "stateMutability": "view",
      "type": "function"
    },
    {
      "inputs": [
        {
          "internalType": "bytes32[32]",
          "name": "smtProofLocalExitRoot",
          "type": "bytes32[32]"
        },
        {
          "internalType": "bytes32[32]",
          "name": "smtProofRollupExitRoot",
          "type": "bytes32[32]"
        },
        {
          "internalType": "uint256",
          "name": "globalIndex",
          "type": "uint256"
        },
        {
          "internalType": "bytes32",
          "name": "mainnetExitRoot",
          "type": "bytes32"
        },
        {
          "internalType": "bytes32",
          "name": "rollupExitRoot",
          "type": "bytes32"
        },
        {
          "internalType": "uint32",
          "name": "originNetwork",
          "type": "uint32"
        },
        {
          "internalType": "address",
          "name": "originTokenAddress",
          "type": "address"
        },
        {
          "internalType": "uint32",
          "name": "destinationNetwork",
          "type": "uint32"
        },
        {
          "internalType": "address",
          "name": "destinationAddress",
          "type": "address"
        },
        {
          "internalType": "uint256",
          "name": "amount",
          "type": "uint256"
        },
        {
          "internalType": "bytes",
          "name": "metadata",
          "type": "bytes"
        }
      ],
      "name": "claimAsset",
      "outputs": [],
      "stateMutability": "nonpayable",
      "type": "function"
    },
    {
      "inputs": [
        {
          "internalType": "bytes32[32]",
          "name": "smtProofLocalExitRoot",
          "type": "bytes32[32]"
        },
        {
          "internalType": "bytes32[32]",
          "name": "smtProofRollupExitRoot",
          "type": "bytes32[32]"
        },
        {
          "internalType": "uint256",
          "name": "globalIndex",
          "type": "uint256"
        },
        {
          "internalType": "bytes32",
          "name": "mainnetExitRoot",
          "type": "bytes32"
        },
        {
          "internalType": "bytes32",
          "name": "rollupExitRoot",
          "type": "bytes32"
        },
        {
          "internalType": "uint32",
          "name": "originNetwork",
          "type": "uint32"
        },
        {
          "internalType": "address",
          "name": "originAddress",
          "type": "address"
        },
        {
          "internalType": "uint32",
          "name": "destinationNetwork",
          "type": "uint32"
        },
        {
          "internalType": "address",
          "name": "destinationAddress",
          "type": "address"
        },
        {
          "internalType": "uint256",
          "name": "amount",
          "type": "uint256"
        },
        {
          "internalType": "bytes",
          "name": "metadata",
          "type": "bytes"
        }
      ],
      "name": "claimMessage",
      "outputs": [],
      "stateMutability": "nonpayable",
      "type": "function"
    },
    {
      "inputs": [
        {
          "internalType": "uint256",
          "name": "",
          "type": "uint256"
        }
      ],
      "name": "claimedBitMap",
      "outputs": [
        {
          "internalType": "uint256",
          "name": "",
          "type": "uint256"
        }
      ],
      "stateMutability": "view",
      "type": "function"
    },
    {
      "inputs": [],
      "name": "claimedGlobalIndexHashChain",
      "outputs": [
        {
          "internalType": "bytes32",
          "name": "",
          "type": "bytes32"
        }
      ],
      "stateMutability": "view",
      "type": "function"
    },
    {
      "inputs": [],
      "name": "deactivateEmergencyState",
      "outputs": [],
      "stateMutability": "nonpayable",
      "type": "function"
    },
    {
      "inputs": [],
      "name": "depositCount",
      "outputs": [
        {
          "internalType": "uint256",
          "name": "",
          "type": "uint256"
        }
      ],
      "stateMutability": "view",
      "type": "function"
    },
    {
      "inputs": [],
      "name": "depositTokenAddress",
      "outputs": [
        {
          "internalType": "address",
          "name": "",
          "type": "address"
        }
      ],
      "stateMutability": "view",
      "type": "function"
    },
    {
      "inputs": [],
      "name": "depositTokenIdentifier",
      "outputs": [
        {
          "internalType": "string",
          "name": "",
          "type": "string"
        }
      ],
      "stateMutability": "view",
      "type": "function"
    },
    {
      "inputs": [],
      "name": "depositTokenNetwork",
      "outputs": [
        {
          "internalType": "uint32",
          "name": "",
          "type": "uint32"
        }
      ],
      "stateMutability": "view",
      "type": "function"
    },
    {
      "inputs": [],
      "name": "emergencyBridgePauser",
      "outputs": [
        {
          "internalType": "address",
          "name": "",
          "type": "address"
        }
      ],
      "stateMutability": "view",
      "type": "function"
    },
    {
      "inputs": [],
      "name": "gasTokenAddress",
      "outputs": [
        {
          "internalType": "address",
          "name": "",
          "type": "address"
        }
      ],
      "stateMutability": "view",
      "type": "function"
    },
    {
      "inputs": [],
      "name": "gasTokenMetadata",
      "outputs": [
        {
          "internalType": "bytes",
          "name": "",
          "type": "bytes"
        }
      ],
      "stateMutability": "view",
      "type": "function"
    },
    {
      "inputs": [],
      "name": "gasTokenNetwork",
      "outputs": [
        {
          "internalType": "uint32",
          "name": "",
          "type": "uint32"
        }
      ],
      "stateMutability": "view",
      "type": "function"
    },
    {
      "inputs": [
        {
          "internalType": "uint8",
          "name": "leafType",
          "type": "uint8"
        },
        {
          "internalType": "uint32",
          "name": "originNetwork",
          "type": "uint32"
        },
        {
          "internalType": "address",
          "name": "originAddress",
          "type": "address"
        },
        {
          "internalType": "uint32",
          "name": "destinationNetwork",
          "type": "uint32"
        },
        {
          "internalType": "address",
          "name": "destinationAddress",
          "type": "address"
        },
        {
          "internalType": "uint256",
          "name": "amount",
          "type": "uint256"
        },
        {
          "internalType": "bytes32",
          "name": "metadataHash",
          "type": "bytes32"
        }
      ],
      "name": "getLeafValue",
      "outputs": [
        {
          "internalType": "bytes32",
          "name": "",
          "type": "bytes32"
        }
      ],
      "stateMutability": "pure",
      "type": "function"
    },
    {
      "inputs": [],
      "name": "getRoot",
      "outputs": [
        {
          "internalType": "bytes32",
          "name": "",
          "type": "bytes32"
        }
      ],
      "stateMutability": "view",
      "type": "function"
    },
    {
      "inputs": [
        {
          "internalType": "address",
          "name": "token",
          "type": "address"
        }
      ],
      "name": "getTokenMetadata",
      "outputs": [
        {
          "internalType": "bytes",
          "name": "",
          "type": "bytes"
        }
      ],
      "stateMutability": "view",
      "type": "function"
    },
    {
      "inputs": [
        {
          "internalType": "uint32",
          "name": "originNetwork",
          "type": "uint32"
        },
        {
          "internalType": "address",
          "name": "originTokenAddress",
          "type": "address"
        }
      ],
      "name": "getTokenWrappedAddress",
      "outputs": [
        {
          "internalType": "address",
          "name": "",
          "type": "address"
        }
      ],
      "stateMutability": "view",
      "type": "function"
    },
    {
      "inputs": [],
      "name": "globalExitRootManager",
      "outputs": [
        {
          "internalType": "contract IBasePolygonZkEVMGlobalExitRoot",
          "name": "",
          "type": "address"
        }
      ],
      "stateMutability": "view",
      "type": "function"
    },
    {
      "inputs": [
        {
          "internalType": "bytes32[]",
          "name": "tokenInfoHash",
          "type": "bytes32[]"
        },
        {
          "internalType": "uint256[]",
          "name": "amount",
          "type": "uint256[]"
        },
        {
          "internalType": "address",
          "name": "_emergencyBridgePauser",
          "type": "address"
        }
      ],
      "name": "initialize",
      "outputs": [],
      "stateMutability": "nonpayable",
      "type": "function"
    },
    {
      "inputs": [
        {
          "internalType": "uint32",
          "name": "_networkID",
          "type": "uint32"
        },
        {
          "internalType": "address",
          "name": "_gasTokenAddress",
          "type": "address"
        },
        {
          "internalType": "uint32",
          "name": "_gasTokenNetwork",
          "type": "uint32"
        },
        {
          "internalType": "contract IBasePolygonZkEVMGlobalExitRoot",
          "name": "_globalExitRootManager",
          "type": "address"
        },
        {
          "internalType": "address",
          "name": "_polygonRollupManager",
          "type": "address"
        },
        {
          "internalType": "bytes",
          "name": "_gasTokenMetadata",
          "type": "bytes"
        },
        {
          "internalType": "address",
          "name": "_bridgeManager",
          "type": "address"
        },
        {
          "internalType": "address",
          "name": "_sovereignWETHAddress",
          "type": "address"
        },
        {
          "internalType": "bool",
          "name": "_sovereignWETHAddressIsNotMintable",
          "type": "bool"
        },
        {
          "internalType": "address",
          "name": "_emergencyBridgePauser",
          "type": "address"
        }
      ],
      "name": "initialize",
      "outputs": [],
      "stateMutability": "nonpayable",
      "type": "function"
    },
    {
      "inputs": [
        {
          "internalType": "uint32",
          "name": "",
          "type": "uint32"
        },
        {
          "internalType": "address",
          "name": "",
          "type": "address"
        },
        {
          "internalType": "uint32",
          "name": "",
          "type": "uint32"
        },
        {
          "internalType": "contract IBasePolygonZkEVMGlobalExitRoot",
          "name": "",
          "type": "address"
        },
        {
          "internalType": "address",
          "name": "",
          "type": "address"
        },
        {
          "internalType": "bytes",
          "name": "",
          "type": "bytes"
        }
      ],
      "name": "initialize",
      "outputs": [],
      "stateMutability": "nonpayable",
      "type": "function"
    },
    {
      "inputs": [
        {
          "internalType": "uint32",
          "name": "leafIndex",
          "type": "uint32"
        },
        {
          "internalType": "uint32",
          "name": "sourceBridgeNetwork",
          "type": "uint32"
        }
      ],
      "name": "isClaimed",
      "outputs": [
        {
          "internalType": "bool",
          "name": "",
          "type": "bool"
        }
      ],
      "stateMutability": "view",
      "type": "function"
    },
    {
      "inputs": [],
      "name": "isEmergencyState",
      "outputs": [
        {
          "internalType": "bool",
          "name": "",
          "type": "bool"
        }
      ],
      "stateMutability": "view",
      "type": "function"
    },
    {
      "inputs": [],
      "name": "lastUpdatedDepositCount",
      "outputs": [
        {
          "internalType": "uint32",
          "name": "",
          "type": "uint32"
        }
      ],
      "stateMutability": "view",
      "type": "function"
    },
    {
      "inputs": [
        {
          "internalType": "bytes32",
          "name": "tokenInfoHash",
          "type": "bytes32"
        }
      ],
      "name": "localBalanceTree",
      "outputs": [
        {
          "internalType": "uint256",
          "name": "amount",
          "type": "uint256"
        }
      ],
      "stateMutability": "view",
      "type": "function"
    },
    {
      "inputs": [
        {
          "internalType": "address",
          "name": "legacyTokenAddress",
          "type": "address"
        },
        {
          "internalType": "uint256",
          "name": "amount",
          "type": "uint256"
        },
        {
          "internalType": "bytes",
          "name": "permitData",
          "type": "bytes"
        }
      ],
      "name": "migrateLegacyToken",
      "outputs": [],
      "stateMutability": "nonpayable",
      "type": "function"
    },
    {
      "inputs": [],
      "name": "networkID",
      "outputs": [
        {
          "internalType": "uint32",
          "name": "",
          "type": "uint32"
        }
      ],
      "stateMutability": "view",
      "type": "function"
    },
    {
      "inputs": [],
      "name": "pendingEmergencyBridgePauser",
      "outputs": [
        {
          "internalType": "address",
          "name": "",
          "type": "address"
        }
      ],
      "stateMutability": "view",
      "type": "function"
    },
    {
      "inputs": [],
      "name": "polygonBridgeAccount",
      "outputs": [
        {
          "internalType": "string",
          "name": "",
          "type": "string"
        }
      ],
      "stateMutability": "view",
      "type": "function"
    },
    {
      "inputs": [],
      "name": "polygonRollupManager",
      "outputs": [
        {
          "internalType": "address",
          "name": "",
          "type": "address"
        }
      ],
      "stateMutability": "view",
      "type": "function"
    },
    {
      "inputs": [
        {
          "internalType": "uint32",
          "name": "originNetwork",
          "type": "uint32"
        },
        {
          "internalType": "address",
          "name": "originTokenAddress",
          "type": "address"
        },
        {
          "internalType": "string",
          "name": "name",
          "type": "string"
        },
        {
          "internalType": "string",
          "name": "symbol",
          "type": "string"
        },
        {
          "internalType": "uint8",
          "name": "decimals",
          "type": "uint8"
        }
      ],
      "name": "precalculatedWrapperAddress",
      "outputs": [
        {
          "internalType": "address",
          "name": "",
          "type": "address"
        }
      ],
      "stateMutability": "view",
      "type": "function"
    },
    {
      "inputs": [
        {
          "internalType": "address",
          "name": "legacySovereignTokenAddress",
          "type": "address"
        }
      ],
      "name": "removeLegacySovereignTokenAddress",
      "outputs": [],
      "stateMutability": "nonpayable",
      "type": "function"
    },
    {
      "inputs": [
        {
          "internalType": "address",
          "name": "_bridgeManager",
          "type": "address"
        }
      ],
      "name": "setBridgeManager",
      "outputs": [],
      "stateMutability": "nonpayable",
      "type": "function"
    },
    {
      "inputs": [
        {
          "internalType": "uint32[]",
          "name": "originNetworks",
          "type": "uint32[]"
        },
        {
          "internalType": "address[]",
          "name": "originTokenAddresses",
          "type": "address[]"
        },
        {
          "internalType": "address[]",
          "name": "sovereignTokenAddresses",
          "type": "address[]"
        },
        {
          "internalType": "bool[]",
          "name": "isNotMintable",
          "type": "bool[]"
        }
      ],
      "name": "setMultipleSovereignTokenAddress",
      "outputs": [],
      "stateMutability": "nonpayable",
      "type": "function"
    },
    {
      "inputs": [
        {
          "internalType": "address",
          "name": "sovereignWETHTokenAddress",
          "type": "address"
        },
        {
          "internalType": "bool",
          "name": "isNotMintable",
          "type": "bool"
        }
      ],
      "name": "setSovereignWETHAddress",
      "outputs": [],
      "stateMutability": "nonpayable",
      "type": "function"
    },
    {
      "inputs": [
        {
          "internalType": "bytes32",
          "name": "",
          "type": "bytes32"
        }
      ],
      "name": "tokenInfoToWrappedToken",
      "outputs": [
        {
          "internalType": "address",
          "name": "",
          "type": "address"
        }
      ],
      "stateMutability": "view",
      "type": "function"
    },
    {
      "inputs": [
        {
          "internalType": "address",
          "name": "newEmergencyBridgePauser",
          "type": "address"
        }
      ],
      "name": "transferEmergencyBridgePauserRole",
      "outputs": [],
      "stateMutability": "nonpayable",
      "type": "function"
    },
    {
      "inputs": [],
      "name": "unsetGlobalIndexHashChain",
      "outputs": [
        {
          "internalType": "bytes32",
          "name": "",
          "type": "bytes32"
        }
      ],
      "stateMutability": "view",
      "type": "function"
    },
    {
      "inputs": [
        {
          "internalType": "uint256[]",
          "name": "globalIndexes",
          "type": "uint256[]"
        }
      ],
      "name": "unsetMultipleClaims",
      "outputs": [],
      "stateMutability": "nonpayable",
      "type": "function"
    },
    {
      "inputs": [],
      "name": "updateGlobalExitRoot",
      "outputs": [],
      "stateMutability": "nonpayable",
      "type": "function"
    },
    {
      "inputs": [
        {
          "internalType": "bytes32",
          "name": "leafHash",
          "type": "bytes32"
        },
        {
          "internalType": "bytes32[32]",
          "name": "smtProof",
          "type": "bytes32[32]"
        },
        {
          "internalType": "uint32",
          "name": "index",
          "type": "uint32"
        },
        {
          "internalType": "bytes32",
          "name": "root",
          "type": "bytes32"
        }
      ],
      "name": "verifyMerkleProof",
      "outputs": [
        {
          "internalType": "bool",
          "name": "",
          "type": "bool"
        }
      ],
      "stateMutability": "pure",
      "type": "function"
    },
    {
      "inputs": [
        {
          "internalType": "address",
          "name": "wrappedAddress",
          "type": "address"
        }
      ],
      "name": "wrappedAddressIsNotMintable",
      "outputs": [
        {
          "internalType": "bool",
          "name": "isNotMintable",
          "type": "bool"
        }
      ],
      "stateMutability": "view",
      "type": "function"
    },
    {
      "inputs": [],
      "name": "wrappedTokenBytecodeStorer",
      "outputs": [
        {
          "internalType": "contract ITokenWrappedBridgeInitCode",
          "name": "",
          "type": "address"
        }
      ],
      "stateMutability": "view",
      "type": "function"
    },
    {
      "inputs": [
        {
          "internalType": "address",
          "name": "",
          "type": "address"
        }
      ],
      "name": "wrappedTokenToTokenInfo",
      "outputs": [
        {
          "internalType": "uint32",
          "name": "originNetwork",
          "type": "uint32"
        },
        {
          "internalType": "address",
          "name": "originTokenAddress",
          "type": "address"
        }
      ],
      "stateMutability": "view",
      "type": "function"
    }
  ],
  "bytecode": "0x60a060405234801561000f575f5ffd5b5060405161001c90610114565b604051809103905ff080158015610035573d5f5f3e3d5ffd5b506001600160a01b031660805261004a610057565b610052610057565b610121565b5f54610100900460ff16156100c25760405162461bcd60e51b815260206004820152602760248201527f496e697469616c697a61626c653a20636f6e747261637420697320696e697469604482015266616c697a696e6760c81b606482015260840160405180910390fd5b5f5460ff9081161015610112575f805460ff191660ff9081179091556040519081527f7f26b83ff96e1f2b6a682f133852f6798a09c465da95921460cefb38474024989060200160405180910390a15b565b611c6d8061635783390190565b6080516162176101405f395f818161055f015261112501526162175ff3fe60806040526004361061035b575f3560e01c806383f24403116101bd578063cc461632116100f2578063e88f043611610092578063f5efcd791161006d578063f5efcd7914610a7d578063f67566e414610649578063f811bff714610a9c578063fb57083414610abb575f5ffd5b8063e88f043614610a1f578063eabd372a14610a33578063ee25560b14610a52575f5ffd5b8063ced1a671116100cd578063ced1a67114610999578063d02103ca146109b8578063d9cb3aec146109e0578063dbc1697614610a0b575f5ffd5b8063cc46163214610948578063ccaa2d1114610967578063cd58657914610986575f5ffd5b8063b8b284d01161015d578063bf130d7f11610138578063bf130d7f146108bd578063c00f14ab146108dc578063c0f49163146108fb578063c964d87314610929575f5ffd5b8063b8b284d01461085a578063bab161bf14610879578063be5831c71461089a575f5ffd5b8063aaa13cc211610198578063aaa13cc2146107b5578063b0b37920146107d4578063b207ad96146107f3578063b45869621461083b575f5ffd5b806383f24403146107635780638ed7e3f214610782578063a7f6105a146107a1575f5ffd5b80633c351e1011610293578063691ee4ce116102335780637843298b1161020e5780637843298b146106e857806379e2cf971461070757806381b1c1741461071b57806383c43a551461074f575f5ffd5b8063691ee4ce1461069157806369e3ab12146106b45780636ee84b23146106d3575f5ffd5b80634b2f336d1161026e5780634b2f336d146105f757806357cfbee3146106165780635ca1e1651461063557806365d6f65414610649575f5ffd5b80633c351e10146105815780633cbc795b146105a05780633e197043146105d8575f5ffd5b806323dc9e37116102fe5780632dfdf0b5116102d95780632dfdf0b5146104b25780632f84c690146104c7578063318aee3d146104e6578063381fef6d1461054e575f5ffd5b806323dc9e371461045f578063240ff3781461047e57806327aef4e814610491575f5ffd5b806315064c961161033957806315064c96146103e05780631d081d8c146104095780632072f6c51461042c57806322e95f2c14610440575f5ffd5b806303e6e1161461035f578063136a2c60146103a057806314cc01a0146103c1575b5f5ffd5b34801561036a575f5ffd5b5060aa546103839061010090046001600160a01b031681565b6040516001600160a01b0390911681526020015b60405180910390f35b3480156103ab575f5ffd5b506103bf6103ba366004614c2f565b610ada565b005b3480156103cc575f5ffd5b5060a554610383906001600160a01b031681565b3480156103eb575f5ffd5b506068546103f99060ff1681565b6040519015158152602001610397565b348015610414575f5ffd5b5061041e60a75481565b604051908152602001610397565b348015610437575f5ffd5b506103bf610c6a565b34801561044b575f5ffd5b5061038361045a366004614cfa565b610c9f565b34801561046a575f5ffd5b50606d54610383906001600160a01b031681565b6103bf61048c366004614d8c565b610d09565b34801561049c575f5ffd5b506104a5610d92565b6040516103979190614e4e565b3480156104bd575f5ffd5b5061041e60535481565b3480156104d2575f5ffd5b5060a654610383906001600160a01b031681565b3480156104f1575f5ffd5b5061052a610500366004614e60565b606b6020525f908152604090205463ffffffff81169064010000000090046001600160a01b031682565b6040805163ffffffff90931683526001600160a01b03909116602083015201610397565b348015610559575f5ffd5b506103837f000000000000000000000000000000000000000000000000000000000000000081565b34801561058c575f5ffd5b50606f54610383906001600160a01b031681565b3480156105ab575f5ffd5b50606f546105c390600160a01b900463ffffffff1681565b60405163ffffffff9091168152602001610397565b3480156105e3575f5ffd5b5061041e6105f2366004614e89565b610e1e565b348015610602575f5ffd5b50607154610383906001600160a01b031681565b348015610621575f5ffd5b506103bf610630366004614fd5565b610ec7565b348015610640575f5ffd5b5061041e610fb3565b348015610654575f5ffd5b506104a56040518060400160405280600981526020017f616c2d76302e332e30000000000000000000000000000000000000000000000081525081565b34801561069c575f5ffd5b50606d546105c390600160a01b900463ffffffff1681565b3480156106bf575f5ffd5b506103bf6106ce366004614e60565b611032565b3480156106de575f5ffd5b5061041e60a85481565b3480156106f3575f5ffd5b506103836107023660046150ec565b6110d5565b348015610712575f5ffd5b506103bf611100565b348015610726575f5ffd5b50610383610735366004615132565b606a6020525f90815260409020546001600160a01b031681565b34801561075a575f5ffd5b506104a5611121565b34801561076e575f5ffd5b5061041e61077d36600461515a565b6111aa565b34801561078d575f5ffd5b50606c54610383906001600160a01b031681565b3480156107ac575f5ffd5b506104a5611237565b3480156107c0575f5ffd5b506103836107cf36600461520c565b611244565b3480156107df575f5ffd5b506103bf6107ee3660046152a7565b61136f565b3480156107fe575f5ffd5b506104a56040518060400160405280600d81526020017f6465706f7369742d746f6b656e0000000000000000000000000000000000000081525081565b348015610846575f5ffd5b506103bf610855366004614e60565b61151c565b348015610865575f5ffd5b506103bf6108743660046152ff565b6116cb565b348015610884575f5ffd5b506068546105c390610100900463ffffffff1681565b3480156108a5575f5ffd5b506068546105c390600160c81b900463ffffffff1681565b3480156108c8575f5ffd5b506103bf6108d736600461537d565b611762565b3480156108e7575f5ffd5b506104a56108f6366004614e60565b611846565b348015610906575f5ffd5b506103f9610915366004614e60565b60a46020525f908152604090205460ff1681565b348015610934575f5ffd5b506103bf6109433660046153ea565b61188b565b348015610953575f5ffd5b506103f961096236600461545f565b611a74565b348015610972575f5ffd5b506103bf610981366004615490565b611ac5565b6103bf61099436600461556f565b611fa4565b3480156109a4575f5ffd5b506103bf6109b33660046155ff565b61249b565b3480156109c3575f5ffd5b50606854610383906501000000000090046001600160a01b031681565b3480156109eb575f5ffd5b5061041e6109fa366004615132565b60a96020525f908152604090205481565b348015610a16575f5ffd5b506103bf6128d3565b348015610a2a575f5ffd5b506103bf612906565b348015610a3e575f5ffd5b506103bf610a4d366004614e60565b6129ce565b348015610a5d575f5ffd5b5061041e610a6c366004615132565b60696020525f908152604090205481565b348015610a88575f5ffd5b506103bf610a97366004615490565b612a6e565b348015610aa7575f5ffd5b506103bf610ab63660046156d5565b612ce7565b348015610ac6575f5ffd5b506103f9610ad5366004615765565b612dbb565b606854604080517f91eb796d000000000000000000000000000000000000000000000000000000008152905133926501000000000090046001600160a01b0316916391eb796d9160048083019260209291908290030181865afa158015610b43573d5f5f3e3d5ffd5b505050506040513d601f19601f82011682018060405250810190610b6791906157aa565b6001600160a01b031614610ba7576040517fa34ddeb100000000000000000000000000000000000000000000000000000000815260040160405180910390fd5b5f5b8151811015610c66575f828281518110610bc557610bc56157c5565b602002602001015190505f5f6801000000000000000083165f14610beb57829150610c02565b602083901c610bfb8160016157ed565b9150839250505b610c0c8282612dd4565b60a8545f90815260208490526040902060a88190556040805185815260208101929092527fc80e0aca446a59735359a7ae46124b57c47b892827642779bc6dafc84ba90b03910160405180910390a1505050600101610ba9565b5050565b60a6546001600160a01b03163314610c9557604051631344c5df60e11b815260040160405180910390fd5b610c9d612e5f565b565b6040805160e084901b6001600160e01b031916602080830191909152606084901b6bffffffffffffffffffffffff1916602483015282516018818403018152603890920183528151918101919091205f908152606a90915220546001600160a01b03165b92915050565b60685460ff1615610d2d57604051630bc011ff60e21b815260040160405180910390fd5b3415801590610d4657506071546001600160a01b031615155b15610d7d576040517f6f625c4000000000000000000000000000000000000000000000000000000000815260040160405180910390fd5b610d8b858534868686612eba565b5050505050565b60708054610d9f90615809565b80601f0160208091040260200160405190810160405280929190818152602001828054610dcb90615809565b8015610e165780601f10610ded57610100808354040283529160200191610e16565b820191905f5260205f20905b815481529060010190602001808311610df957829003601f168201915b505050505081565b6040517fff0000000000000000000000000000000000000000000000000000000000000060f889901b1660208201526001600160e01b031960e088811b821660218401526bffffffffffffffffffffffff19606089811b821660258601529188901b909216603984015285901b16603d82015260518101839052607181018290525f90609101604051602081830303815290604052805190602001209050979650505050505050565b60a5546001600160a01b03163314610ef2576040516357b738d160e11b815260040160405180910390fd5b82518451141580610f0557508151845114155b80610f1257508051845114155b15610f305760405163434f49f560e11b815260040160405180910390fd5b5f5b8251811015610d8b57610fab858281518110610f5057610f506157c5565b6020026020010151858381518110610f6a57610f6a6157c5565b6020026020010151858481518110610f8457610f846157c5565b6020026020010151858581518110610f9e57610f9e6157c5565b6020026020010151612f96565b600101610f32565b6053545f90819081805b6020811015611029578083901c60011660010361100257610ffb60338260208110610fea57610fea6157c5565b0154855f9182526020526040902090565b9350611012565b5f84815260208390526040902093505b5f8281526020839052604090209150600101610fbd565b50919392505050565b60a6546001600160a01b0316331461105d57604051631344c5df60e11b815260040160405180910390fd5b60aa805474ffffffffffffffffffffffffffffffffffffffff0019166101006001600160a01b038481169182029290921790925560a6546040805191909216815260208101929092527fb27de219766f47b82684842855ba6130b6dbf288ac66d1c3509e7bf17f4e925a91015b60405180910390a150565b5f6110f684846110e4856131ac565b6110ed86613296565b6107cf87613377565b90505b9392505050565b605354606854600160c81b900463ffffffff161015610c9d57610c9d613444565b60607f00000000000000000000000000000000000000000000000000000000000000006001600160a01b03166383c43a556040518163ffffffff1660e01b81526004015f60405180830381865afa15801561117e573d5f5f3e3d5ffd5b505050506040513d5f823e601f3d908101601f191682016040526111a5919081019061586f565b905090565b5f83815b602081101561122e57600163ffffffff8516821c811690036111fa576111f38582602081106111df576111df6157c5565b6020020135835f9182526020526040902090565b9150611226565b61122382868360208110611210576112106157c5565b60200201355f9182526020526040902090565b91505b6001016111ae565b50949350505050565b606e8054610d9f90615809565b6040516001600160e01b031960e087901b1660208201526bffffffffffffffffffffffff19606086901b1660248201525f9081906038016040516020818303038152906040528051906020012090505f60ff60f81b30836112a3611121565b8989896040516020016112b8939291906158b4565b60408051601f19818403018152908290526112d692916020016158ec565b6040516020818303038152906040528051906020012060405160200161134b94939291907fff0000000000000000000000000000000000000000000000000000000000000094909416845260609290921b6bffffffffffffffffffffffff191660018401526015830152603582015260550190565b60408051808303601f19018152919052805160209091012098975050505050505050565b801561138157611381848484846134f2565b6001600160a01b038085165f908152606b602090815260409182902082518084019093525463ffffffff811683526401000000009004909216918101829052906113f7576040517f828d566300000000000000000000000000000000000000000000000000000000815260040160405180910390fd5b5f606a5f835f0151846020015160405160200161143f92919060e09290921b6001600160e01b031916825260601b6bffffffffffffffffffffffff1916600482015260180190565b60408051601f198184030181529181528151602092830120835290820192909252015f20546001600160a01b039081169150861681036114ab576040517fe273c4a100000000000000000000000000000000000000000000000000000000815260040160405180910390fd5b5f6114b68787613820565b90506114c38233836139b8565b604080513381526001600160a01b0389811660208301528416818301526060810183905290517fb7f8fd4d1faf9b2929dc269f59c53e3a2bccc44e9950f33a568fcbcb37eb69a99181900360800190a150505050505050565b60a5546001600160a01b03163314611547576040516357b738d160e11b815260040160405180910390fd5b6001600160a01b038082165f908152606b6020908152604080832081518083018352905463ffffffff8116808352640100000000909104909516818401819052915190946115c2939092910160e09290921b6001600160e01b031916825260601b6bffffffffffffffffffffffff1916600482015260180190565b60408051601f1981840301815291815281516020928301205f818152606a9093529120549091506001600160a01b0316158061161657505f818152606a60205260409020546001600160a01b038481169116145b1561164d576040517fe0c897a700000000000000000000000000000000000000000000000000000000815260040160405180910390fd5b6001600160a01b0383165f818152606b60209081526040808320805477ffffffffffffffffffffffffffffffffffffffffffffffff1916905560a4825291829020805460ff1916905590519182527fc2ae0bd0ec0fd0352bfe5bacac49637af342c1e40f1b80a7f74440dc7fe3f063910160405180910390a1505050565b60685460ff16156116ef57604051630bc011ff60e21b815260040160405180910390fd5b6071546001600160a01b0316611731576040517fdde3cda700000000000000000000000000000000000000000000000000000000815260040160405180910390fd5b6071545f90611749906001600160a01b031686613820565b9050611759878783878787612eba565b50505050505050565b60a5546001600160a01b0316331461178d576040516357b738d160e11b815260040160405180910390fd5b606f546001600160a01b03166117cf576040517f9968e22600000000000000000000000000000000000000000000000000000000815260040160405180910390fd5b607180546001600160a01b0319166001600160a01b0384169081179091555f81815260a46020908152604091829020805460ff19168515159081179091558251938452908301527fc7318b7ed6ba4f2908a3de396d8ab49b1dadb55db5b55123247a401f29ff8d8291015b60405180910390a15050565b6060611851826131ac565b61185a83613296565b61186384613377565b604051602001611875939291906158b4565b6040516020818303038152906040529050919050565b5f5460aa805460ff191660ff808416919091179091556002916101009004161580156118bd57505f5460ff8083169116105b6119255760405162461bcd60e51b815260206004820152602e60248201527f496e697469616c697a61626c653a20636f6e747261637420697320616c72656160448201526d191e481a5b9a5d1a585b1a5e995960921b60648201526084015b60405180910390fd5b5f805461ffff191660ff8084169190911761010017825560aa5416900361195f5760405163f57ac68360e01b815260040160405180910390fd5b84831461197f5760405163434f49f560e11b815260040160405180910390fd5b5f5b858110156119cb576119c387878381811061199e5761199e6157c5565b905060200201358686848181106119b7576119b76157c5565b90506020020135613a8a565b600101611981565b5060a680546001600160a01b0319166001600160a01b038416908117909155604080515f815260208101929092527f85d2bdfbe58cd81abf8199c13ce2509204be4aba8603b9d29f52c4e13e7bb793910160405180910390a1611a2c613ad1565b5f805461ff001916905560405160ff821681527f7f26b83ff96e1f2b6a682f133852f6798a09c465da95921460cefb38474024989060200160405180910390a1505050505050565b5f80611a8b64010000000063ffffffff851661591a565b611a9b9063ffffffff8616615931565b600881901c5f90815260696020526040902054600160ff9092169190911b90811614949350505050565b60685460ff1615611ae957604051630bc011ff60e21b815260040160405180910390fd5b611af1613b43565b60685463ffffffff8681166101009092041614611b21576040516302caf51760e11b815260040160405180910390fd5b611b4c8c8c8c8c8c5f8d8d8d8d8d8d8d604051611b3f929190615944565b6040518091039020613b9c565b6001600160a01b038616158015611b67575063ffffffff8716155b15611c5e576071546001600160a01b0316611c42575f6001600160a01b03851684825b6040519080825280601f01601f191660200182016040528015611bb4576020820181803683370190505b50604051611bc29190615953565b5f6040518083038185875af1925050503d805f8114611bfc576040519150601f19603f3d011682016040523d82523d5f602084013e611c01565b606091505b5050905080611c3c576040517f6747a28800000000000000000000000000000000000000000000000000000000815260040160405180910390fd5b50611f31565b607154611c59906001600160a01b031685856139b8565b611f31565b606d546001600160a01b038781169116148015611c8c5750606d5463ffffffff888116600160a01b90920416145b15611ce75760685463ffffffff8881166101009092041614611f3157611c598483838080601f0160208091040260200160405190810160405280939291908181526020018383808284375f92019190915250613c5b92505050565b606f546001600160a01b038781169116148015611d155750606f5463ffffffff888116600160a01b90920416145b15611d2c575f6001600160a01b0385168482611b8a565b60685463ffffffff610100909104811690881603611d5857611c596001600160a01b0387168585613d06565b6040516001600160e01b031960e089901b1660208201526bffffffffffffffffffffffff19606088901b1660248201525f9060380160408051601f1981840301815291815281516020928301205f818152606a9093529120549091506001600160a01b031680611f23575f611e028386868080601f0160208091040260200160405190810160405280939291908181526020018383808284375f92019190915250613d8292505050565b9050611e0f8188886139b8565b80606a5f8581526020019081526020015f205f6101000a8154816001600160a01b0302191690836001600160a01b0316021790555060405180604001604052808b63ffffffff1681526020018a6001600160a01b0316815250606b5f836001600160a01b03166001600160a01b031681526020019081526020015f205f820151815f015f6101000a81548163ffffffff021916908363ffffffff1602179055506020820151815f0160046101000a8154816001600160a01b0302191690836001600160a01b031602179055509050507f490e59a1701b938786ac72570a1efeac994a3dbe96e2e883e19e902ace6e6a398a8a838888604051611f15959493929190615996565b60405180910390a150611f2e565b611f2e8187876139b8565b50505b604080518b815263ffffffff891660208201526001600160a01b0388811682840152861660608201526080810185905290517f1df3f2a973a00d6635911755c260704e95e8a5876997546798770f76396fda4d9181900360a00190a1611f9660018055565b505050505050505050505050565b60685460ff1615611fc857604051630bc011ff60e21b815260040160405180910390fd5b611fd0613b43565b60685463ffffffff610100909104811690881603612001576040516302caf51760e11b815260040160405180910390fd5b5f806060876001600160a01b0388166120fd5788341461204d576040517fb89240f500000000000000000000000000000000000000000000000000000000815260040160405180910390fd5b606f54607080546001600160a01b0383169650600160a01b90920463ffffffff1694509061207a90615809565b80601f01602080910402602001604051908101604052809291908181526020018280546120a690615809565b80156120f15780601f106120c8576101008083540402835291602001916120f1565b820191905f5260205f20905b8154815290600101906020018083116120d457829003601f168201915b50505050509150612423565b606d546001600160a01b039081169089160361223e5734156121325760405163798ee6f160e01b815260040160405180910390fd5b6060851561214d57612146868801886159d3565b9050612207565b60405162461bcd60e51b815260206004820152606e60248201527f546865206f7065726174696f6e206964206f662074686520686f6c642c20726560448201527f717569726564206265666f7265206272696467696e6720746f20616e6f74686560648201527f72206e6574776f726b2c206d7573742062652070726573656e7420696e20746860848201527f65207065726d697420646174612e00000000000000000000000000000000000060a482015260c40161191c565b61221289828c613e07565b606d546068546001600160a01b039091169650610100900463ffffffff16945092508991506124239050565b341561225d5760405163798ee6f160e01b815260040160405180910390fd5b841561226f5761226f888a88886134f2565b6071546001600160a01b03908116908916036122965761228f888a613820565b9050612423565b6001600160a01b038089165f908152606b602090815260409182902082518084019093525463ffffffff811683526401000000009004909216918101829052901515806122e95750805163ffffffff1615155b1561230b576122f8898b613820565b6020820151825190965094509150612416565b6040516370a0823160e01b81523060048201525f906001600160a01b038b16906370a0823190602401602060405180830381865afa15801561234f573d5f5f3e3d5ffd5b505050506040513d601f19601f820116820180604052508101906123739190615a05565b905061238a6001600160a01b038b1633308e61411e565b6040516370a0823160e01b81523060048201525f906001600160a01b038c16906370a0823190602401602060405180830381865afa1580156123ce573d5f5f3e3d5ffd5b505050506040513d601f19601f820116820180604052508101906123f29190615a05565b90506123fe8282615a1c565b6068548c9850610100900463ffffffff169650935050505b61241f89611846565b9250505b7f501781209a1f8899323b96b4ef08b168df93e0a90c673d1e4cce39366cb62f9b5f84868e8e8688605354604051612462989796959493929190615a2f565b60405180910390a16124805f84868e8e86888051906020012061416f565b861561248e5761248e613444565b5050505061175960018055565b5f5460aa805460ff191660ff808416919091179091556002916101009004161580156124cd57505f5460ff8083169116105b6125305760405162461bcd60e51b815260206004820152602e60248201527f496e697469616c697a61626c653a20636f6e747261637420697320616c72656160448201526d191e481a5b9a5d1a585b1a5e995960921b606482015260840161191c565b5f805461ffff191660ff808416919091176101001790915560aa54161561256a5760405163f57ac68360e01b815260040160405180910390fd5b8a606860016101000a81548163ffffffff021916908363ffffffff16021790555087606860056101000a8154816001600160a01b0302191690836001600160a01b0316021790555086606c5f6101000a8154816001600160a01b0302191690836001600160a01b031602179055508460a55f6101000a8154816001600160a01b0302191690836001600160a01b031602179055508160a65f6101000a8154816001600160a01b0302191690836001600160a01b031602179055507f85d2bdfbe58cd81abf8199c13ce2509204be4aba8603b9d29f52c4e13e7bb7935f60a65f9054906101000a90046001600160a01b031660405161267e9291906001600160a01b0392831681529116602082015260400190565b60405180910390a16001600160a01b038a166127095763ffffffff8916156126d2576040517f1a874c1200000000000000000000000000000000000000000000000000000000815260040160405180910390fd5b6001600160a01b0384161515806126e65750825b1561270457604051630e6e237560e11b815260040160405180910390fd5b61287e565b606f805463ffffffff8b16600160a01b0277ffffffffffffffffffffffffffffffffffffffffffffffff199091166001600160a01b038d161717905560706127518782615ae7565b506001600160a01b0384166128465782151560010361278357604051630e6e237560e11b815260040160405180910390fd5b6128215f5f1b601260405160200161280d91906060808252600d908201527f5772617070656420457468657200000000000000000000000000000000000000608082015260a0602082018190526004908201527f574554480000000000000000000000000000000000000000000000000000000060c082015260ff91909116604082015260e00190565b604051602081830303815290604052613d82565b607180546001600160a01b0319166001600160a01b039290921691909117905561287e565b607180546001600160a01b0319166001600160a01b0386169081179091555f90815260a460205260409020805460ff19168415151790555b612886613ad1565b5f805461ff001916905560405160ff821681527f7f26b83ff96e1f2b6a682f133852f6798a09c465da95921460cefb38474024989060200160405180910390a15050505050505050505050565b60a6546001600160a01b031633146128fe57604051631344c5df60e11b815260040160405180910390fd5b610c9d6141a7565b60aa5461010090046001600160a01b0316331461294f576040517f7bb0100f00000000000000000000000000000000000000000000000000000000815260040160405180910390fd5b60a6805460aa80546001600160a01b03610100820481166001600160a01b03198516811790955574ffffffffffffffffffffffffffffffffffffffff0019909116909155604080519190921680825260208201939093527f85d2bdfbe58cd81abf8199c13ce2509204be4aba8603b9d29f52c4e13e7bb79391016110ca565b60a5546001600160a01b031633146129f9576040516357b738d160e11b815260040160405180910390fd5b6001600160a01b038116612a205760405163f6b2911f60e01b815260040160405180910390fd5b60a580546001600160a01b0319166001600160a01b0383169081179091556040519081527f32cf74f8a6d5f88593984d2cd52be5592bfa6884f5896175801a5069ef09cd67906020016110ca565b60685460ff1615612a9257604051630bc011ff60e21b815260040160405180910390fd5b60685463ffffffff8681166101009092041614612ac2576040516302caf51760e11b815260040160405180910390fd5b612ae18c8c8c8c8c60018d8d8d8d8d8d8d604051611b3f929190615944565b6071545f906001600160a01b0316612b9457846001600160a01b031684888a8686604051602401612b159493929190615ba2565b60408051601f198184030181529181526020820180516001600160e01b0316630c035af960e11b17905251612b4a9190615953565b5f6040518083038185875af1925050503d805f8114612b84576040519150601f19603f3d011682016040523d82523d5f602084013e612b89565b606091505b505080915050612c45565b607154612bab906001600160a01b031686866139b8565b846001600160a01b031687898585604051602401612bcc9493929190615ba2565b60408051601f198184030181529181526020820180516001600160e01b0316630c035af960e11b17905251612c019190615953565b5f604051808303815f865af19150503d805f8114612c3a576040519150601f19603f3d011682016040523d82523d5f602084013e612c3f565b606091505b50909150505b80612c7c576040517f37e391c300000000000000000000000000000000000000000000000000000000815260040160405180910390fd5b604080518c815263ffffffff8a1660208201526001600160a01b0389811682840152871660608201526080810186905290517f1df3f2a973a00d6635911755c260704e95e8a5876997546798770f76396fda4d9181900360a00190a150505050505050505050505050565b5f54610100900460ff1615808015612d0557505f54600160ff909116105b80612d1e5750303b158015612d1e57505f5460ff166001145b612d815760405162461bcd60e51b815260206004820152602e60248201527f496e697469616c697a61626c653a20636f6e747261637420697320616c72656160448201526d191e481a5b9a5d1a585b1a5e995960921b606482015260840161191c565b5f805460ff191660011790558015612da2575f805461ff0019166101001790555b60405163f57ac68360e01b815260040160405180910390fd5b5f81612dc88686866111aa565b1490505b949350505050565b5f612dea64010000000063ffffffff841661591a565b612dfa9063ffffffff8516615931565b600881901c5f8181526069602052604090208054600160ff851690811b918218928390559394509192919080821615611759576040517f318dafb800000000000000000000000000000000000000000000000000000000815260040160405180910390fd5b60685460ff1615612e8357604051630bc011ff60e21b815260040160405180910390fd5b6068805460ff191660011790556040517f2261efe5aef6fedc1fd1550b25facc9181745623049c7901287030b9ad1a5497905f90a1565b60685463ffffffff610100909104811690871603612eeb576040516302caf51760e11b815260040160405180910390fd5b7f501781209a1f8899323b96b4ef08b168df93e0a90c673d1e4cce39366cb62f9b6001606860019054906101000a900463ffffffff16338989898888605354604051612f3f99989796959493929190615bd0565b60405180910390a1612f806001606860019054906101000a900463ffffffff16338989898888604051612f73929190615944565b604051809103902061416f565b8215612f8e57612f8e613444565b505050505050565b6001600160a01b0383161580612fb357506001600160a01b038216155b15612fd15760405163f6b2911f60e01b815260040160405180910390fd5b60685463ffffffff61010090910481169085160361301b576040517f658b23ad00000000000000000000000000000000000000000000000000000000815260040160405180910390fd5b6001600160a01b038281165f908152606b602052604090205464010000000090041615613074576040517f5eaf7bac00000000000000000000000000000000000000000000000000000000815260040160405180910390fd5b6040516001600160e01b031960e086901b1660208201526bffffffffffffffffffffffff19606085901b1660248201525f9060380160408051808303601f1901815282825280516020918201205f818152606a835283812080546001600160a01b0319166001600160a01b038a8116918217909255868601865263ffffffff8c81168089528c8416878a01818152848752606b89528987209a518b549151941677ffffffffffffffffffffffffffffffffffffffffffffffff199091161764010000000093909516929092029390931790975560a4855291859020805460ff191689151590811790915585519182529381019590955292840192909252606083015291507fdbe8a5da6a7a916d9adfda9160167a0f8a3da415ee6610e810e753853597fce79060800160405180910390a15050505050565b60408051600481526024810182526020810180516001600160e01b03167f06fdde030000000000000000000000000000000000000000000000000000000017905290516060915f9182916001600160a01b0386169161320b9190615953565b5f60405180830381855afa9150503d805f8114613243576040519150601f19603f3d011682016040523d82523d5f602084013e613248565b606091505b50915091508161328d576040518060400160405280600781526020017f4e4f5f4e414d4500000000000000000000000000000000000000000000000000815250612dcc565b612dcc81614217565b60408051600481526024810182526020810180516001600160e01b03167f95d89b410000000000000000000000000000000000000000000000000000000017905290516060915f9182916001600160a01b038616916132f59190615953565b5f60405180830381855afa9150503d805f811461332d576040519150601f19603f3d011682016040523d82523d5f602084013e613332565b606091505b50915091508161328d576040518060400160405280600981526020017f4e4f5f53594d424f4c0000000000000000000000000000000000000000000000815250612dcc565b60408051600481526024810182526020810180516001600160e01b03167f313ce5670000000000000000000000000000000000000000000000000000000017905290515f91829182916001600160a01b038616916133d59190615953565b5f60405180830381855afa9150503d805f811461340d576040519150601f19603f3d011682016040523d82523d5f602084013e613412565b606091505b5091509150818015613425575080516020145b613430576012612dcc565b80806020019051810190612dcc9190615c46565b6053546068805463ffffffff909216600160c81b027fffffff00000000ffffffffffffffffffffffffffffffffffffffffffffffffff90921691909117908190556001600160a01b0365010000000000909104166333d6247d6134a5610fb3565b6040518263ffffffff1660e01b81526004016134c391815260200190565b5f604051808303815f87803b1580156134da575f5ffd5b505af11580156134ec573d5f5f3e3d5ffd5b50505050565b5f6135006004828486615c61565b61350991615c88565b90507f2afa5331000000000000000000000000000000000000000000000000000000006001600160e01b0319821601613688575f808080808080613550896004818d615c61565b81019061355d9190615cbd565b96509650965096509650965096508a85146135a4576040517f03fffc4b00000000000000000000000000000000000000000000000000000000815260040160405180910390fd5b604080516001600160a01b0389811660248301528881166044830152606482018890526084820187905260ff861660a483015260c4820185905260e48083018590528351808403909101815261010490920183526020820180516001600160e01b03167fd505accf000000000000000000000000000000000000000000000000000000001790529151918e169161363b9190615953565b5f604051808303815f865af19150503d805f8114613674576040519150601f19603f3d011682016040523d82523d5f602084013e613679565b606091505b50505050505050505050610d8b565b6001600160e01b031981167f8fcbaf0c00000000000000000000000000000000000000000000000000000000146136eb576040517fe282c0ba00000000000000000000000000000000000000000000000000000000815260040160405180910390fd5b5f808080808080806137008a6004818e615c61565b81019061370d9190615d0c565b975097509750975097509750975097508c6001600160a01b0316638fcbaf0c60e01b89898989898989896040516024016137929897969594939291906001600160a01b039889168152969097166020870152604086019490945260608501929092521515608084015260ff1660a083015260c082015260e08101919091526101000190565b60408051601f198184030181529181526020820180516001600160e01b03166001600160e01b03199094169390931790925290516137d09190615953565b5f604051808303815f865af19150503d805f8114613809576040519150601f19603f3d011682016040523d82523d5f602084013e61380e565b606091505b50505050505050505050505050505050565b6001600160a01b0382165f90815260a4602052604081205460ff161561393c576040516370a0823160e01b81523060048201525f906001600160a01b038516906370a0823190602401602060405180830381865afa158015613884573d5f5f3e3d5ffd5b505050506040513d601f19601f820116820180604052508101906138a89190615a05565b90506138bf6001600160a01b03851633308661411e565b6040516370a0823160e01b81523060048201525f906001600160a01b038616906370a0823190602401602060405180830381865afa158015613903573d5f5f3e3d5ffd5b505050506040513d601f19601f820116820180604052508101906139279190615a05565b90506139338282615a1c565b92505050610d03565b6040517f9dc29fac000000000000000000000000000000000000000000000000000000008152336004820152602481018390526001600160a01b03841690639dc29fac906044015f604051808303815f87803b15801561399a575f5ffd5b505af11580156139ac573d5f5f3e3d5ffd5b50505050819050610d03565b6001600160a01b0382166139df5760405163f6b2911f60e01b815260040160405180910390fd5b6001600160a01b0383165f90815260a4602052604090205460ff1615613a1857613a136001600160a01b0384168383613d06565b505050565b6040517f40c10f190000000000000000000000000000000000000000000000000000000081526001600160a01b038381166004830152602482018390528416906340c10f19906044015f604051808303815f87803b158015613a78575f5ffd5b505af1158015611759573d5f5f3e3d5ffd5b5f82815260a9602090815260409182902083905581518481529081018390527f2277ec68451dc01bd131765a9858d6de94d7e11220704d8ac1718fdb8de07cb2910161183a565b5f54610100900460ff16613b3b5760405162461bcd60e51b815260206004820152602b60248201527f496e697469616c697a61626c653a20636f6e7472616374206973206e6f74206960448201526a6e697469616c697a696e6760a81b606482015260840161191c565b610c9d6143dd565b600260015403613b955760405162461bcd60e51b815260206004820152601f60248201527f5265656e7472616e637947756172643a207265656e7472616e742063616c6c00604482015260640161191c565b6002600155565b5f613bac88888888888888610e1e565b9050613bbc8d8d8d8d8d86614447565b60a754613be490613bd68d845f9182526020526040902090565b5f9182526020526040902090565b60a7819055604080518d815260208101929092527f3e5936f910a78eb5181813a939c8d4c3e4d85f87943f659380d82ac6221b0e92910160405180910390a160ff8816613c3657613c368787856145b1565b5f1960ff891601613c4c57613c4c5f5f856145b1565b50505050505050505050505050565b5f5f5f5f5f5f5f5f88806020019051810190613c779190615da8565b97509750975097509750975097509750896001600160a01b0316636eaf982f89888a886040518563ffffffff1660e01b8152600401613cb99493929190615e86565b6020604051808303815f875af1158015613cd5573d5f5f3e3d5ffd5b505050506040513d601f19601f82011682018060405250810190613cf99190615ede565b5050505050505050505050565b6040516001600160a01b038316602482015260448101829052613a139084907fa9059cbb00000000000000000000000000000000000000000000000000000000906064015b60408051601f198184030181529190526020810180516001600160e01b03166001600160e01b0319909316929092179091526146cb565b5f5f613d8c611121565b83604051602001613d9e9291906158ec565b6040516020818303038152906040529050838151602083015ff591506001600160a01b038216613dfa576040517fbefb092000000000000000000000000000000000000000000000000000000000815260040160405180910390fd5b5092915050565b60018055565b60605f5f5f5f5f5f5f8a6001600160a01b031663e1838cd28b6040518263ffffffff1660e01b8152600401613e3c9190614e4e565b5f60405180830381865afa158015613e56573d5f5f3e3d5ffd5b505050506040513d5f823e601f3d908101601f19168201604052613e7d9190810190615ef9565b9650965096509650965096509650606e604051602001613e9d9190615fae565b6040516020818303038152906040528051906020012086604051602001613ec49190615953565b6040516020818303038152906040528051906020012014613f995760405162461bcd60e51b815260206004820152606360248201527f54686520686f6c642c207265717569726564206265666f72652062726964676960448201527f6e6720746f20616e6f74686572206e6574776f726b2c206d757374206861766560648201527f2074686520627269646765206163636f756e742061732062656e65666963696160848201527f72792e000000000000000000000000000000000000000000000000000000000060a482015260c40161191c565b83891461405a5760405162461bcd60e51b815260206004820152607260248201527f54686520686f6c642c207265717569726564206265666f72652062726964676960448201527f6e6720746f20616e6f74686572206e6574776f726b2c206d757374206265207060648201527f6c6163656420666f72207468652073616d6520616d6f756e742061732067697660848201527f656e20696e2074686520726571756573742e000000000000000000000000000060a482015260c40161191c565b6040517fa79cf1850000000000000000000000000000000000000000000000000000000081526001600160a01b038c169063a79cf1859061409f908d90600401614e4e565b6020604051808303815f875af11580156140bb573d5f5f3e3d5ffd5b505050506040513d601f19601f820116820180604052508101906140df9190615ede565b5089878787878787876040516020016140ff98979695949392919061601f565b6040516020818303038152906040529750505050505050509392505050565b6040516001600160a01b03808516602483015283166044820152606481018290526134ec9085907f23b872dd0000000000000000000000000000000000000000000000000000000090608401613d4b565b61417e878787878787876147af565b60ff8716614191576141918686846147c6565b5f1960ff881601611759576117595f5f846147c6565b60685460ff166141e3576040517f5386698100000000000000000000000000000000000000000000000000000000815260040160405180910390fd5b6068805460ff191690556040517f1e5e34eea33501aecf2ebec9fe0e884a40804275ea7fe10b2ba084c8374308b3905f90a1565b606060408251106142365781806020019051810190610d039190616095565b815160200361439f575f5b602081108015614288575082818151811061425e5761425e6157c5565b01602001517fff000000000000000000000000000000000000000000000000000000000000001615155b1561429f5780614297816160c7565b915050614241565b805f036142e157505060408051808201909152601281527f4e4f545f56414c49445f454e434f44494e4700000000000000000000000000006020820152919050565b5f8167ffffffffffffffff8111156142fb576142fb614bc7565b6040519080825280601f01601f191660200182016040528015614325576020820181803683370190505b5090505f5b8281101561439757848181518110614344576143446157c5565b602001015160f81c60f81b828281518110614361576143616157c5565b60200101907effffffffffffffffffffffffffffffffffffffffffffffffffffffffffffff191690815f1a90535060010161432a565b509392505050565b505060408051808201909152601281527f4e4f545f56414c49445f454e434f44494e470000000000000000000000000000602082015290565b919050565b5f54610100900460ff16613e015760405162461bcd60e51b815260206004820152602b60248201527f496e697469616c697a61626c653a20636f6e7472616374206973206e6f74206960448201526a6e697469616c697a696e6760a81b606482015260840161191c565b6068545f906501000000000090046001600160a01b031663257b363261447686865f9182526020526040902090565b6040518263ffffffff1660e01b815260040161449491815260200190565b6020604051808303815f875af11580156144b0573d5f5f3e3d5ffd5b505050506040513d601f19601f820116820180604052508101906144d49190615a05565b9050805f0361450e576040517e2f6fad00000000000000000000000000000000000000000000000000000000815260040160405180910390fd5b5f806801000000000000000087161561455257869150614530848a8489612dbb565b61454d576040516338105f3b60e21b815260040160405180910390fd5b61459c565b602087901c6145628160016157ed565b915087925061457d614575868c866111aa565b8a8389612dbb565b61459a576040516338105f3b60e21b815260040160405180910390fd5b505b6145a682826148ca565b505050505050505050565b60685463ffffffff6101009091048116908416036145ce57505050565b6040516001600160e01b031960e085901b1660208201526bffffffffffffffffffffffff19606084901b1660248201525f9060380160408051601f1981840301815291815281516020928301205f81815260a9909352912054909150614635905f19615a1c565b8211156146a3575f81815260a96020526040908190205490517f23d7213300000000000000000000000000000000000000000000000000000000815263ffffffff861660048201526001600160a01b038516602482015260448101849052606481019190915260840161191c565b5f81815260a96020526040812080548492906146c0908490615931565b909155505050505050565b5f61471f826040518060400160405280602081526020017f5361666545524332303a206c6f772d6c6576656c2063616c6c206661696c6564815250856001600160a01b03166149569092919063ffffffff16565b805190915015613a13578080602001905181019061473d9190615ede565b613a135760405162461bcd60e51b815260206004820152602a60248201527f5361666545524332303a204552433230206f7065726174696f6e20646964206e60448201527f6f74207375636365656400000000000000000000000000000000000000000000606482015260840161191c565b6117596147c188888888888888610e1e565b614964565b60685463ffffffff6101009091048116908416036147e357505050565b6040516001600160e01b031960e085901b1660208201526bffffffffffffffffffffffff19606084901b1660248201525f9060380160408051601f1981840301815291815281516020928301205f81815260a99093529120549091508211156148ad575f81815260a96020526040908190205490517f14603c0100000000000000000000000000000000000000000000000000000000815263ffffffff861660048201526001600160a01b038516602482015260448101849052606481019190915260840161191c565b5f81815260a96020526040812080548492906146c0908490615a1c565b5f6148e064010000000063ffffffff841661591a565b6148f09063ffffffff8516615931565b600881901c5f8181526069602052604081208054600160ff861690811b91821892839055949550929392918183169003611759576040517f646cf55800000000000000000000000000000000000000000000000000000000815260040160405180910390fd5b60606110f684845f85614a3c565b806001614973602060026161c2565b61497d9190615a1c565b605354106149b7576040517fef5ccf6600000000000000000000000000000000000000000000000000000000815260040160405180910390fd5b5f60535f81546149c6906160c7565b918290555090505f5b6020811015614a33578082901c600116600103614a025782603382602081106149fa576149fa6157c5565b015550505050565b614a2960338260208110614a1857614a186157c5565b0154845f9182526020526040902090565b92506001016149cf565b50613a136161cd565b606082471015614ab45760405162461bcd60e51b815260206004820152602660248201527f416464726573733a20696e73756666696369656e742062616c616e636520666f60448201527f722063616c6c0000000000000000000000000000000000000000000000000000606482015260840161191c565b5f5f866001600160a01b03168587604051614acf9190615953565b5f6040518083038185875af1925050503d805f8114614b09576040519150601f19603f3d011682016040523d82523d5f602084013e614b0e565b606091505b5091509150614b1f87838387614b2a565b979650505050505050565b60608315614b985782515f03614b91576001600160a01b0385163b614b915760405162461bcd60e51b815260206004820152601d60248201527f416464726573733a2063616c6c20746f206e6f6e2d636f6e7472616374000000604482015260640161191c565b5081612dcc565b612dcc8383815115614bad5781518083602001fd5b8060405162461bcd60e51b815260040161191c9190614e4e565b634e487b7160e01b5f52604160045260245ffd5b604051601f8201601f1916810167ffffffffffffffff81118282101715614c0457614c04614bc7565b604052919050565b5f67ffffffffffffffff821115614c2557614c25614bc7565b5060051b60200190565b5f60208284031215614c3f575f5ffd5b813567ffffffffffffffff811115614c55575f5ffd5b8201601f81018413614c65575f5ffd5b8035614c78614c7382614c0c565b614bdb565b8082825260208201915060208360051b850101925086831115614c99575f5ffd5b6020840193505b82841015614cbb578335825260209384019390910190614ca0565b9695505050505050565b803563ffffffff811681146143d8575f5ffd5b6001600160a01b0381168114614cec575f5ffd5b50565b80356143d881614cd8565b5f5f60408385031215614d0b575f5ffd5b614d1483614cc5565b91506020830135614d2481614cd8565b809150509250929050565b8015158114614cec575f5ffd5b80356143d881614d2f565b5f5f83601f840112614d57575f5ffd5b50813567ffffffffffffffff811115614d6e575f5ffd5b602083019150836020828501011115614d85575f5ffd5b9250929050565b5f5f5f5f5f60808688031215614da0575f5ffd5b614da986614cc5565b94506020860135614db981614cd8565b93506040860135614dc981614d2f565b9250606086013567ffffffffffffffff811115614de4575f5ffd5b614df088828901614d47565b969995985093965092949392505050565b5f5b83811015614e1b578181015183820152602001614e03565b50505f910152565b5f8151808452614e3a816020860160208601614e01565b601f01601f19169290920160200192915050565b602081525f6110f96020830184614e23565b5f60208284031215614e70575f5ffd5b81356110f981614cd8565b60ff81168114614cec575f5ffd5b5f5f5f5f5f5f5f60e0888a031215614e9f575f5ffd5b8735614eaa81614e7b565b9650614eb860208901614cc5565b95506040880135614ec881614cd8565b9450614ed660608901614cc5565b93506080880135614ee681614cd8565b9699959850939692959460a0840135945060c09093013592915050565b5f82601f830112614f12575f5ffd5b8135614f20614c7382614c0c565b8082825260208201915060208360051b860101925085831115614f41575f5ffd5b602085015b83811015614f67578035614f5981614cd8565b835260209283019201614f46565b5095945050505050565b5f82601f830112614f80575f5ffd5b8135614f8e614c7382614c0c565b8082825260208201915060208360051b860101925085831115614faf575f5ffd5b602085015b83811015614f67578035614fc781614d2f565b835260209283019201614fb4565b5f5f5f5f60808587031215614fe8575f5ffd5b843567ffffffffffffffff811115614ffe575f5ffd5b8501601f8101871361500e575f5ffd5b803561501c614c7382614c0c565b8082825260208201915060208360051b85010192508983111561503d575f5ffd5b6020840193505b828410156150665761505584614cc5565b825260209384019390910190615044565b9650505050602085013567ffffffffffffffff811115615084575f5ffd5b61509087828801614f03565b935050604085013567ffffffffffffffff8111156150ac575f5ffd5b6150b887828801614f03565b925050606085013567ffffffffffffffff8111156150d4575f5ffd5b6150e087828801614f71565b91505092959194509250565b5f5f5f606084860312156150fe575f5ffd5b61510784614cc5565b9250602084013561511781614cd8565b9150604084013561512781614cd8565b809150509250925092565b5f60208284031215615142575f5ffd5b5035919050565b806104008101831015610d03575f5ffd5b5f5f5f610440848603121561516d575f5ffd5b8335925061517e8560208601615149565b915061518d6104208501614cc5565b90509250925092565b5f67ffffffffffffffff8211156151af576151af614bc7565b50601f01601f191660200190565b5f82601f8301126151cc575f5ffd5b8135602083015f6151df614c7384615196565b90508281528583830111156151f2575f5ffd5b828260208301375f92810160200192909252509392505050565b5f5f5f5f5f60a08688031215615220575f5ffd5b61522986614cc5565b9450602086013561523981614cd8565b9350604086013567ffffffffffffffff811115615254575f5ffd5b615260888289016151bd565b935050606086013567ffffffffffffffff81111561527c575f5ffd5b615288888289016151bd565b925050608086013561529981614e7b565b809150509295509295909350565b5f5f5f5f606085870312156152ba575f5ffd5b84356152c581614cd8565b935060208501359250604085013567ffffffffffffffff8111156152e7575f5ffd5b6152f387828801614d47565b95989497509550505050565b5f5f5f5f5f5f60a08789031215615314575f5ffd5b61531d87614cc5565b9550602087013561532d81614cd8565b945060408701359350606087013561534481614d2f565b9250608087013567ffffffffffffffff81111561535f575f5ffd5b61536b89828a01614d47565b979a9699509497509295939492505050565b5f5f6040838503121561538e575f5ffd5b823561539981614cd8565b91506020830135614d2481614d2f565b5f5f83601f8401126153b9575f5ffd5b50813567ffffffffffffffff8111156153d0575f5ffd5b6020830191508360208260051b8501011115614d85575f5ffd5b5f5f5f5f5f606086880312156153fe575f5ffd5b853567ffffffffffffffff811115615414575f5ffd5b615420888289016153a9565b909650945050602086013567ffffffffffffffff81111561543f575f5ffd5b61544b888289016153a9565b909450925050604086013561529981614cd8565b5f5f60408385031215615470575f5ffd5b61547983614cc5565b915061548760208401614cc5565b90509250929050565b5f5f5f5f5f5f5f5f5f5f5f5f6109208d8f0312156154ac575f5ffd5b6154b68e8e615149565b9b506154c68e6104008f01615149565b9a506108008d013599506108208d013598506108408d013597506154ed6108608e01614cc5565b96506154fd6108808e0135614cd8565b6108808d013595506155126108a08e01614cc5565b94506108c08d013561552381614cd8565b93506108e08d0135925067ffffffffffffffff6109008e01351115615546575f5ffd5b6155578e6109008f01358f01614d47565b81935080925050509295989b509295989b509295989b565b5f5f5f5f5f5f5f60c0888a031215615585575f5ffd5b61558e88614cc5565b9650602088013561559e81614cd8565b95506040880135945060608801356155b581614cd8565b935060808801356155c581614d2f565b925060a088013567ffffffffffffffff8111156155e0575f5ffd5b6155ec8a828b01614d47565b989b979a50959850939692959293505050565b5f5f5f5f5f5f5f5f5f5f6101408b8d031215615619575f5ffd5b6156228b614cc5565b995060208b013561563281614cd8565b985061564060408c01614cc5565b975060608b013561565081614cd8565b965060808b013561566081614cd8565b955060a08b013567ffffffffffffffff81111561567b575f5ffd5b6156878d828e016151bd565b95505060c08b013561569881614cd8565b93506156a660e08c01614cef565b92506156b56101008c01614d3c565b91506156c46101208c01614cef565b90509295989b9194979a5092959850565b5f5f5f5f5f5f60c087890312156156ea575f5ffd5b6156f387614cc5565b9550602087013561570381614cd8565b945061571160408801614cc5565b9350606087013561572181614cd8565b9250608087013561573181614cd8565b915060a087013567ffffffffffffffff81111561574c575f5ffd5b61575889828a016151bd565b9150509295509295509295565b5f5f5f5f6104608587031215615779575f5ffd5b8435935061578a8660208701615149565b92506157996104208601614cc5565b939692955092936104400135925050565b5f602082840312156157ba575f5ffd5b81516110f981614cd8565b634e487b7160e01b5f52603260045260245ffd5b634e487b7160e01b5f52601160045260245ffd5b63ffffffff8181168382160190811115610d0357610d036157d9565b600181811c9082168061581d57607f821691505b60208210810361583b57634e487b7160e01b5f52602260045260245ffd5b50919050565b5f61584e614c7384615196565b9050828152838383011115615861575f5ffd5b6110f9836020830184614e01565b5f6020828403121561587f575f5ffd5b815167ffffffffffffffff811115615895575f5ffd5b8201601f810184136158a5575f5ffd5b612dcc84825160208401615841565b606081525f6158c66060830186614e23565b82810360208401526158d88186614e23565b91505060ff83166040830152949350505050565b5f83516158fd818460208801614e01565b835190830190615911818360208801614e01565b01949350505050565b8082028115828204841417610d0357610d036157d9565b80820180821115610d0357610d036157d9565b818382375f9101908152919050565b5f8251615964818460208701614e01565b9190910192915050565b81835281816020850137505f828201602090810191909152601f909101601f19169091010190565b63ffffffff861681526001600160a01b03851660208201526001600160a01b0384166040820152608060608201525f614b1f60808301848661596e565b5f602082840312156159e3575f5ffd5b813567ffffffffffffffff8111156159f9575f5ffd5b612dcc848285016151bd565b5f60208284031215615a15575f5ffd5b5051919050565b81810381811115610d0357610d036157d9565b60ff8916815263ffffffff881660208201526001600160a01b038716604082015263ffffffff861660608201526001600160a01b03851660808201528360a082015261010060c08201525f615a88610100830185614e23565b905063ffffffff831660e08301529998505050505050505050565b601f821115613a1357805f5260205f20601f840160051c81016020851015615ac85750805b601f840160051c820191505b81811015610d8b575f8155600101615ad4565b815167ffffffffffffffff811115615b0157615b01614bc7565b615b1581615b0f8454615809565b84615aa3565b6020601f821160018114615b47575f8315615b305750848201515b5f19600385901b1c1916600184901b178455610d8b565b5f84815260208120601f198516915b82811015615b765787850151825560209485019460019092019101615b56565b5084821015615b9357868401515f19600387901b60f8161c191681555b50505050600190811b01905550565b6001600160a01b038516815263ffffffff84166020820152606060408201525f614cbb60608301848661596e565b60ff8a16815263ffffffff891660208201526001600160a01b038816604082015263ffffffff871660608201526001600160a01b03861660808201528460a082015261010060c08201525f615c2a6101008301858761596e565b905063ffffffff831660e08301529a9950505050505050505050565b5f60208284031215615c56575f5ffd5b81516110f981614e7b565b5f5f85851115615c6f575f5ffd5b83861115615c7b575f5ffd5b5050820193919092039150565b80356001600160e01b03198116906004841015613dfa576001600160e01b0319808560040360031b1b82161691505092915050565b5f5f5f5f5f5f5f60e0888a031215615cd3575f5ffd5b8735615cde81614cd8565b96506020880135615cee81614cd8565b955060408801359450606088013593506080880135614ee681614e7b565b5f5f5f5f5f5f5f5f610100898b031215615d24575f5ffd5b8835615d2f81614cd8565b97506020890135615d3f81614cd8565b965060408901359550606089013594506080890135615d5d81614d2f565b935060a0890135615d6d81614e7b565b979a969950949793969295929450505060c08201359160e0013590565b5f82601f830112615d99575f5ffd5b6110f983835160208501615841565b5f5f5f5f5f5f5f5f610100898b031215615dc0575f5ffd5b885167ffffffffffffffff811115615dd6575f5ffd5b615de28b828c01615d8a565b985050602089015167ffffffffffffffff811115615dfe575f5ffd5b615e0a8b828c01615d8a565b975050604089015167ffffffffffffffff811115615e26575f5ffd5b615e328b828c01615d8a565b965050606089015167ffffffffffffffff811115615e4e575f5ffd5b615e5a8b828c01615d8a565b60808b015160a08c015160c08d015160e0909d01519b9e9a9d50989b919a909991975095509350505050565b60a081525f615e9860a0830187614e23565b8281036020840152615eaa8187614e23565b90508281036040840152615ebe8186614e23565b606084019490945250508082036080909101525f81526020019392505050565b5f60208284031215615eee575f5ffd5b81516110f981614d2f565b5f5f5f5f5f5f5f60e0888a031215615f0f575f5ffd5b875167ffffffffffffffff811115615f25575f5ffd5b615f318a828b01615d8a565b975050602088015167ffffffffffffffff811115615f4d575f5ffd5b615f598a828b01615d8a565b965050604088015167ffffffffffffffff811115615f75575f5ffd5b615f818a828b01615d8a565b60608a015160808b015160a08c015160c0909c01519a9d999c50919a909991989097509095509350505050565b5f5f8354615fbb81615809565b600182168015615fd25760018114615fe757616014565b60ff1983168652811515820286019350616014565b865f5260205f205f5b8381101561600c57815488820152600190910190602001615ff0565b505081860193505b509195945050505050565b61010081525f61603361010083018b614e23565b8281036020840152616045818b614e23565b90508281036040840152616059818a614e23565b9050828103606084015261606d8189614e23565b9150508560808301528460a08301528360c08301528260e08301529998505050505050505050565b5f602082840312156160a5575f5ffd5b815167ffffffffffffffff8111156160bb575f5ffd5b612dcc84828501615d8a565b5f600182016160d8576160d86157d9565b5060010190565b6001815b600184111561611a578085048111156160fe576160fe6157d9565b600184161561610c57908102905b60019390931c9280026160e3565b935093915050565b5f8261613057506001610d03565b8161613c57505f610d03565b8160018114616152576002811461615c57616178565b6001915050610d03565b60ff84111561616d5761616d6157d9565b50506001821b610d03565b5060208310610133831016604e8410600b841016171561619b575081810a610d03565b6161a75f1984846160df565b805f19048211156161ba576161ba6157d9565b029392505050565b5f6110f98383616122565b634e487b7160e01b5f52600160045260245ffdfea26469706673582212203fa866d8f6ed06bcda529f7918056de001f9ddf42916acb6ac2354fbcd8f217b64736f6c634300081c00336080604052348015600e575f5ffd5b50611c518061001c5f395ff3fe608060405234801561000f575f5ffd5b5060043610610029575f3560e01c806383c43a551461002d575b5f5ffd5b61003561004b565b604051610042919061006a565b60405180910390f35b60405180611ba00160405280611b6681526020016100b6611b66913981565b602081525f82518060208401525f5b818110156100965760208186018101516040868401015201610079565b505f604082850101526040601f19601f8301168401019150509291505056fe6101006040523480156200001257600080fd5b5060405162001b6638038062001b6683398101604081905262000035916200028d565b82826003620000458382620003a1565b506004620000548282620003a1565b50503360c0525060ff811660e052466080819052620000739062000080565b60a052506200046d915050565b60007f8b73c3c69bb8fe3d512ecc4cf759cc79239f7b179b0ffacaa9a75d522b39400f620000ad6200012e565b805160209182012060408051808201825260018152603160f81b90840152805192830193909352918101919091527fc89efdaa54c0f20c7adf612882df0950f5a951637e0307cdcb4c672f298b8bc66060820152608081018390523060a082015260c001604051602081830303815290604052805190602001209050919050565b6060600380546200013f9062000312565b80601f01602080910402602001604051908101604052809291908181526020018280546200016d9062000312565b8015620001be5780601f106200019257610100808354040283529160200191620001be565b820191906000526020600020905b815481529060010190602001808311620001a057829003601f168201915b5050505050905090565b634e487b7160e01b600052604160045260246000fd5b600082601f830112620001f057600080fd5b81516001600160401b03808211156200020d576200020d620001c8565b604051601f8301601f19908116603f01168101908282118183101715620002385762000238620001c8565b816040528381526020925086838588010111156200025557600080fd5b600091505b838210156200027957858201830151818301840152908201906200025a565b600093810190920192909252949350505050565b600080600060608486031215620002a357600080fd5b83516001600160401b0380821115620002bb57600080fd5b620002c987838801620001de565b94506020860151915080821115620002e057600080fd5b50620002ef86828701620001de565b925050604084015160ff811681146200030757600080fd5b809150509250925092565b600181811c908216806200032757607f821691505b6020821081036200034857634e487b7160e01b600052602260045260246000fd5b50919050565b601f8211156200039c57600081815260208120601f850160051c81016020861015620003775750805b601f850160051c820191505b81811015620003985782815560010162000383565b5050505b505050565b81516001600160401b03811115620003bd57620003bd620001c8565b620003d581620003ce845462000312565b846200034e565b602080601f8311600181146200040d5760008415620003f45750858301515b600019600386901b1c1916600185901b17855562000398565b600085815260208120601f198616915b828110156200043e578886015182559484019460019091019084016200041d565b50858210156200045d5787850151600019600388901b60f8161c191681555b5050505050600190811b01905550565b60805160a05160c05160e0516116aa620004bc6000396000610237015260008181610307015281816105c001526106a70152600061053a015260008181610379015261050401526116aa6000f3fe608060405234801561001057600080fd5b50600436106101775760003560e01c806370a08231116100d8578063a457c2d71161008c578063d505accf11610066578063d505accf1461039b578063dd62ed3e146103ae578063ffa1ad74146103f457600080fd5b8063a457c2d71461034e578063a9059cbb14610361578063cd0d00961461037457600080fd5b806395d89b41116100bd57806395d89b41146102e75780639dc29fac146102ef578063a3c573eb1461030257600080fd5b806370a08231146102915780637ecebe00146102c757600080fd5b806330adf81f1161012f5780633644e515116101145780633644e51514610261578063395093511461026957806340c10f191461027c57600080fd5b806330adf81f14610209578063313ce5671461023057600080fd5b806318160ddd1161016057806318160ddd146101bd57806320606b70146101cf57806323b872dd146101f657600080fd5b806306fdde031461017c578063095ea7b31461019a575b600080fd5b610184610430565b60405161019191906113e4565b60405180910390f35b6101ad6101a8366004611479565b6104c2565b6040519015158152602001610191565b6002545b604051908152602001610191565b6101c17f8b73c3c69bb8fe3d512ecc4cf759cc79239f7b179b0ffacaa9a75d522b39400f81565b6101ad6102043660046114a3565b6104dc565b6101c17f6e71edae12b1b97f4d1f60370fef10105fa2faae0126114a169c64845d6126c981565b60405160ff7f0000000000000000000000000000000000000000000000000000000000000000168152602001610191565b6101c1610500565b6101ad610277366004611479565b61055c565b61028f61028a366004611479565b6105a8565b005b6101c161029f3660046114df565b73ffffffffffffffffffffffffffffffffffffffff1660009081526020819052604090205490565b6101c16102d53660046114df565b60056020526000908152604090205481565b610184610680565b61028f6102fd366004611479565b61068f565b6103297f000000000000000000000000000000000000000000000000000000000000000081565b60405173ffffffffffffffffffffffffffffffffffffffff9091168152602001610191565b6101ad61035c366004611479565b61075e565b6101ad61036f366004611479565b61082f565b6101c17f000000000000000000000000000000000000000000000000000000000000000081565b61028f6103a9366004611501565b61083d565b6101c16103bc366004611574565b73ffffffffffffffffffffffffffffffffffffffff918216600090815260016020908152604080832093909416825291909152205490565b6101846040518060400160405280600181526020017f310000000000000000000000000000000000000000000000000000000000000081525081565b60606003805461043f906115a7565b80601f016020809104026020016040519081016040528092919081815260200182805461046b906115a7565b80156104b85780601f1061048d576101008083540402835291602001916104b8565b820191906000526020600020905b81548152906001019060200180831161049b57829003601f168201915b5050505050905090565b6000336104d0818585610b73565b60019150505b92915050565b6000336104ea858285610d27565b6104f5858585610dfe565b506001949350505050565b60007f00000000000000000000000000000000000000000000000000000000000000004614610537576105324661106d565b905090565b507f000000000000000000000000000000000000000000000000000000000000000090565b33600081815260016020908152604080832073ffffffffffffffffffffffffffffffffffffffff871684529091528120549091906104d090829086906105a3908790611629565b610b73565b3373ffffffffffffffffffffffffffffffffffffffff7f00000000000000000000000000000000000000000000000000000000000000001614610672576040517f08c379a000000000000000000000000000000000000000000000000000000000815260206004820152603060248201527f546f6b656e577261707065643a3a6f6e6c794272696467653a204e6f7420506f60448201527f6c79676f6e5a6b45564d4272696467650000000000000000000000000000000060648201526084015b60405180910390fd5b61067c8282611135565b5050565b60606004805461043f906115a7565b3373ffffffffffffffffffffffffffffffffffffffff7f00000000000000000000000000000000000000000000000000000000000000001614610754576040517f08c379a000000000000000000000000000000000000000000000000000000000815260206004820152603060248201527f546f6b656e577261707065643a3a6f6e6c794272696467653a204e6f7420506f60448201527f6c79676f6e5a6b45564d427269646765000000000000000000000000000000006064820152608401610669565b61067c8282611228565b33600081815260016020908152604080832073ffffffffffffffffffffffffffffffffffffffff8716845290915281205490919083811015610822576040517f08c379a000000000000000000000000000000000000000000000000000000000815260206004820152602560248201527f45524332303a2064656372656173656420616c6c6f77616e63652062656c6f7760448201527f207a65726f0000000000000000000000000000000000000000000000000000006064820152608401610669565b6104f58286868403610b73565b6000336104d0818585610dfe565b834211156108cc576040517f08c379a0000000000000000000000000000000000000000000000000000000008152602060048201526024808201527f546f6b656e577261707065643a3a7065726d69743a204578706972656420706560448201527f726d6974000000000000000000000000000000000000000000000000000000006064820152608401610669565b73ffffffffffffffffffffffffffffffffffffffff8716600090815260056020526040812080547f6e71edae12b1b97f4d1f60370fef10105fa2faae0126114a169c64845d6126c9918a918a918a9190866109268361163c565b9091555060408051602081019690965273ffffffffffffffffffffffffffffffffffffffff94851690860152929091166060840152608083015260a082015260c0810186905260e0016040516020818303038152906040528051906020012090506000610991610500565b6040517f19010000000000000000000000000000000000000000000000000000000000006020820152602281019190915260428101839052606201604080517fffffffffffffffffffffffffffffffffffffffffffffffffffffffffffffffe08184030181528282528051602091820120600080855291840180845281905260ff89169284019290925260608301879052608083018690529092509060019060a0016020604051602081039080840390855afa158015610a55573d6000803e3d6000fd5b50506040517fffffffffffffffffffffffffffffffffffffffffffffffffffffffffffffffe0015191505073ffffffffffffffffffffffffffffffffffffffff811615801590610ad057508973ffffffffffffffffffffffffffffffffffffffff168173ffffffffffffffffffffffffffffffffffffffff16145b610b5c576040517f08c379a000000000000000000000000000000000000000000000000000000000815260206004820152602760248201527f546f6b656e577261707065643a3a7065726d69743a20496e76616c696420736960448201527f676e6174757265000000000000000000000000000000000000000000000000006064820152608401610669565b610b678a8a8a610b73565b50505050505050505050565b73ffffffffffffffffffffffffffffffffffffffff8316610c15576040517f08c379a0000000000000000000000000000000000000000000000000000000008152602060048201526024808201527f45524332303a20617070726f76652066726f6d20746865207a65726f2061646460448201527f72657373000000000000000000000000000000000000000000000000000000006064820152608401610669565b73ffffffffffffffffffffffffffffffffffffffff8216610cb8576040517f08c379a000000000000000000000000000000000000000000000000000000000815260206004820152602260248201527f45524332303a20617070726f766520746f20746865207a65726f20616464726560448201527f73730000000000000000000000000000000000000000000000000000000000006064820152608401610669565b73ffffffffffffffffffffffffffffffffffffffff83811660008181526001602090815260408083209487168084529482529182902085905590518481527f8c5be1e5ebec7d5bd14f71427d1e84f3dd0314c0f7b2291e5b200ac8c7c3b92591015b60405180910390a3505050565b73ffffffffffffffffffffffffffffffffffffffff8381166000908152600160209081526040808320938616835292905220547fffffffffffffffffffffffffffffffffffffffffffffffffffffffffffffffff8114610df85781811015610deb576040517f08c379a000000000000000000000000000000000000000000000000000000000815260206004820152601d60248201527f45524332303a20696e73756666696369656e7420616c6c6f77616e63650000006044820152606401610669565b610df88484848403610b73565b50505050565b73ffffffffffffffffffffffffffffffffffffffff8316610ea1576040517f08c379a000000000000000000000000000000000000000000000000000000000815260206004820152602560248201527f45524332303a207472616e736665722066726f6d20746865207a65726f20616460448201527f64726573730000000000000000000000000000000000000000000000000000006064820152608401610669565b73ffffffffffffffffffffffffffffffffffffffff8216610f44576040517f08c379a000000000000000000000000000000000000000000000000000000000815260206004820152602360248201527f45524332303a207472616e7366657220746f20746865207a65726f206164647260448201527f65737300000000000000000000000000000000000000000000000000000000006064820152608401610669565b73ffffffffffffffffffffffffffffffffffffffff831660009081526020819052604090205481811015610ffa576040517f08c379a000000000000000000000000000000000000000000000000000000000815260206004820152602660248201527f45524332303a207472616e7366657220616d6f756e742065786365656473206260448201527f616c616e636500000000000000000000000000000000000000000000000000006064820152608401610669565b73ffffffffffffffffffffffffffffffffffffffff848116600081815260208181526040808320878703905593871680835291849020805487019055925185815290927fddf252ad1be2c89b69c2b068fc378daa952ba7f163c4a11628f55a4df523b3ef910160405180910390a3610df8565b60007f8b73c3c69bb8fe3d512ecc4cf759cc79239f7b179b0ffacaa9a75d522b39400f611098610430565b8051602091820120604080518082018252600181527f310000000000000000000000000000000000000000000000000000000000000090840152805192830193909352918101919091527fc89efdaa54c0f20c7adf612882df0950f5a951637e0307cdcb4c672f298b8bc66060820152608081018390523060a082015260c001604051602081830303815290604052805190602001209050919050565b73ffffffffffffffffffffffffffffffffffffffff82166111b2576040517f08c379a000000000000000000000000000000000000000000000000000000000815260206004820152601f60248201527f45524332303a206d696e7420746f20746865207a65726f2061646472657373006044820152606401610669565b80600260008282546111c49190611629565b909155505073ffffffffffffffffffffffffffffffffffffffff8216600081815260208181526040808320805486019055518481527fddf252ad1be2c89b69c2b068fc378daa952ba7f163c4a11628f55a4df523b3ef910160405180910390a35050565b73ffffffffffffffffffffffffffffffffffffffff82166112cb576040517f08c379a000000000000000000000000000000000000000000000000000000000815260206004820152602160248201527f45524332303a206275726e2066726f6d20746865207a65726f2061646472657360448201527f73000000000000000000000000000000000000000000000000000000000000006064820152608401610669565b73ffffffffffffffffffffffffffffffffffffffff821660009081526020819052604090205481811015611381576040517f08c379a000000000000000000000000000000000000000000000000000000000815260206004820152602260248201527f45524332303a206275726e20616d6f756e7420657863656564732062616c616e60448201527f63650000000000000000000000000000000000000000000000000000000000006064820152608401610669565b73ffffffffffffffffffffffffffffffffffffffff83166000818152602081815260408083208686039055600280548790039055518581529192917fddf252ad1be2c89b69c2b068fc378daa952ba7f163c4a11628f55a4df523b3ef9101610d1a565b600060208083528351808285015260005b81811015611411578581018301518582016040015282016113f5565b5060006040828601015260407fffffffffffffffffffffffffffffffffffffffffffffffffffffffffffffffe0601f8301168501019250505092915050565b803573ffffffffffffffffffffffffffffffffffffffff8116811461147457600080fd5b919050565b6000806040838503121561148c57600080fd5b61149583611450565b946020939093013593505050565b6000806000606084860312156114b857600080fd5b6114c184611450565b92506114cf60208501611450565b9150604084013590509250925092565b6000602082840312156114f157600080fd5b6114fa82611450565b9392505050565b600080600080600080600060e0888a03121561151c57600080fd5b61152588611450565b965061153360208901611450565b95506040880135945060608801359350608088013560ff8116811461155757600080fd5b9699959850939692959460a0840135945060c09093013592915050565b6000806040838503121561158757600080fd5b61159083611450565b915061159e60208401611450565b90509250929050565b600181811c908216806115bb57607f821691505b6020821081036115f4577f4e487b7100000000000000000000000000000000000000000000000000000000600052602260045260246000fd5b50919050565b7f4e487b7100000000000000000000000000000000000000000000000000000000600052601160045260246000fd5b808201808211156104d6576104d66115fa565b60007fffffffffffffffffffffffffffffffffffffffffffffffffffffffffffffffff820361166d5761166d6115fa565b506001019056fea26469706673582212208d88fee561cff7120d381c345cfc534cef8229a272dc5809d4bbb685ad67141164736f6c63430008110033a2646970667358221220e2e0b7899260251baf2cfa7cf6126f1d0a5731b4f1051ae5b437d90ddbc6867164736f6c634300081c0033",
  "linkReferences": {},
  "deployedLinkReferences": {}
}