{
  "_format": "hh-sol-artifact-1",
  "contractName": "PolygonZkEVMBridgeV2",
  "sourceName": "contracts/v2/PolygonZkEVMBridgeV2.sol",
  "abi": [
    {
      "inputs": [],
      "stateMutability": "nonpayable",
      "type": "constructor"
    },
    {
      "inputs": [],
      "name": "AlreadyClaimed",
      "type": "error"
    },
    {
      "inputs": [],
      "name": "AmountDoesNotMatchMsgValue",
      "type": "error"
    },
    {
      "inputs": [],
      "name": "DestinationNetworkInvalid",
      "type": "error"
    },
    {
      "inputs": [],
      "name": "EtherTransferFailed",
      "type": "error"
    },
    {
      "inputs": [],
      "name": "FailedTokenWrappedDeployment",
      "type": "error"
    },
    {
      "inputs": [],
      "name": "GasTokenNetworkMustBeZeroOnEther",
      "type": "error"
    },
    {
      "inputs": [],
      "name": "GlobalExitRootInvalid",
      "type": "error"
    },
    {
      "inputs": [],
      "name": "InvalidSmtProof",
      "type": "error"
    },
    {
      "inputs": [],
      "name": "MerkleTreeFull",
      "type": "error"
    },
    {
      "inputs": [],
      "name": "MessageFailed",
      "type": "error"
    },
    {
      "inputs": [],
      "name": "MsgValueNotZero",
      "type": "error"
    },
    {
      "inputs": [],
      "name": "NativeTokenIsEther",
      "type": "error"
    },
    {
      "inputs": [],
      "name": "NoValueInMessagesOnGasTokenNetworks",
      "type": "error"
    },
    {
      "inputs": [],
      "name": "NotValidAmount",
      "type": "error"
    },
    {
      "inputs": [],
      "name": "NotValidOwner",
      "type": "error"
    },
    {
      "inputs": [],
      "name": "NotValidSignature",
      "type": "error"
    },
    {
      "inputs": [],
      "name": "NotValidSpender",
      "type": "error"
    },
    {
      "inputs": [],
      "name": "OnlyEmergencyState",
      "type": "error"
    },
    {
      "inputs": [],
      "name": "OnlyNotEmergencyState",
      "type": "error"
    },
    {
      "inputs": [],
      "name": "OnlyRollupManager",
      "type": "error"
    },
    {
      "anonymous": false,
      "inputs": [
        {
          "indexed": false,
          "internalType": "uint8",
          "name": "leafType",
          "type": "uint8"
        },
        {
          "indexed": false,
          "internalType": "uint32",
          "name": "originNetwork",
          "type": "uint32"
        },
        {
          "indexed": false,
          "internalType": "address",
          "name": "originAddress",
          "type": "address"
        },
        {
          "indexed": false,
          "internalType": "uint32",
          "name": "destinationNetwork",
          "type": "uint32"
        },
        {
          "indexed": false,
          "internalType": "address",
          "name": "destinationAddress",
          "type": "address"
        },
        {
          "indexed": false,
          "internalType": "uint256",
          "name": "amount",
          "type": "uint256"
        },
        {
          "indexed": false,
          "internalType": "bytes",
          "name": "metadata",
          "type": "bytes"
        },
        {
          "indexed": false,
          "internalType": "uint32",
          "name": "depositCount",
          "type": "uint32"
        }
      ],
      "name": "BridgeEvent",
      "type": "event"
    },
    {
      "anonymous": false,
      "inputs": [
        {
          "indexed": false,
          "internalType": "uint256",
          "name": "globalIndex",
          "type": "uint256"
        },
        {
          "indexed": false,
          "internalType": "uint32",
          "name": "originNetwork",
          "type": "uint32"
        },
        {
          "indexed": false,
          "internalType": "address",
          "name": "originAddress",
          "type": "address"
        },
        {
          "indexed": false,
          "internalType": "address",
          "name": "destinationAddress",
          "type": "address"
        },
        {
          "indexed": false,
          "internalType": "uint256",
          "name": "amount",
          "type": "uint256"
        }
      ],
      "name": "ClaimEvent",
      "type": "event"
    },
    {
      "anonymous": false,
      "inputs": [],
      "name": "EmergencyStateActivated",
      "type": "event"
    },
    {
      "anonymous": false,
      "inputs": [],
      "name": "EmergencyStateDeactivated",
      "type": "event"
    },
    {
      "anonymous": false,
      "inputs": [
        {
          "indexed": false,
          "internalType": "uint8",
          "name": "version",
          "type": "uint8"
        }
      ],
      "name": "Initialized",
      "type": "event"
    },
    {
      "anonymous": false,
      "inputs": [
        {
          "indexed": false,
          "internalType": "uint32",
          "name": "originNetwork",
          "type": "uint32"
        },
        {
          "indexed": false,
          "internalType": "address",
          "name": "originTokenAddress",
          "type": "address"
        },
        {
          "indexed": false,
          "internalType": "address",
          "name": "wrappedTokenAddress",
          "type": "address"
        },
        {
          "indexed": false,
          "internalType": "bytes",
          "name": "metadata",
          "type": "bytes"
        }
      ],
      "name": "NewWrappedToken",
      "type": "event"
    },
    {
      "inputs": [],
      "name": "BASE_INIT_BYTECODE_WRAPPED_TOKEN",
      "outputs": [
        {
          "internalType": "bytes",
          "name": "",
          "type": "bytes"
        }
      ],
      "stateMutability": "view",
      "type": "function"
    },
    {
      "inputs": [],
      "name": "WETHToken",
      "outputs": [
        {
          "internalType": "contract TokenWrapped",
          "name": "",
          "type": "address"
        }
      ],
      "stateMutability": "view",
      "type": "function"
    },
    {
      "inputs": [],
      "name": "activateEmergencyState",
      "outputs": [],
      "stateMutability": "nonpayable",
      "type": "function"
    },
    {
      "inputs": [],
      "name": "atc",
      "outputs": [
        {
          "internalType": "contract Token",
          "name": "",
          "type": "address"
        }
      ],
      "stateMutability": "view",
      "type": "function"
    },
    {
      "inputs": [],
      "name": "atcAccount",
      "outputs": [
        {
          "internalType": "string",
          "name": "",
          "type": "string"
        }
      ],
      "stateMutability": "view",
      "type": "function"
    },
    {
      "inputs": [
        {
          "internalType": "uint32",
          "name": "destinationNetwork",
          "type": "uint32"
        },
        {
          "internalType": "address",
          "name": "destinationAddress",
          "type": "address"
        },
        {
          "internalType": "uint256",
          "name": "amount",
          "type": "uint256"
        },
        {
          "internalType": "address",
          "name": "token",
          "type": "address"
        },
        {
          "internalType": "bool",
          "name": "forceUpdateGlobalExitRoot",
          "type": "bool"
        },
        {
          "internalType": "bytes",
          "name": "permitData",
          "type": "bytes"
        }
      ],
      "name": "bridgeAT",
      "outputs": [],
      "stateMutability": "payable",
      "type": "function"
    },
    {
      "inputs": [
        {
          "internalType": "uint32",
          "name": "destinationNetwork",
          "type": "uint32"
        },
        {
          "internalType": "address",
          "name": "destinationAddress",
          "type": "address"
        },
        {
          "internalType": "uint256",
          "name": "amount",
          "type": "uint256"
        },
        {
          "internalType": "address",
          "name": "token",
          "type": "address"
        },
        {
          "internalType": "bool",
          "name": "forceUpdateGlobalExitRoot",
          "type": "bool"
        },
        {
          "internalType": "bytes",
          "name": "permitData",
          "type": "bytes"
        }
      ],
      "name": "bridgeAsset",
      "outputs": [],
      "stateMutability": "payable",
      "type": "function"
    },
    {
      "inputs": [
        {
          "internalType": "uint32",
          "name": "destinationNetwork",
          "type": "uint32"
        },
        {
          "internalType": "address",
          "name": "destinationAddress",
          "type": "address"
        },
        {
          "internalType": "bool",
          "name": "forceUpdateGlobalExitRoot",
          "type": "bool"
        },
        {
          "internalType": "bytes",
          "name": "metadata",
          "type": "bytes"
        }
      ],
      "name": "bridgeMessage",
      "outputs": [],
      "stateMutability": "payable",
      "type": "function"
    },
    {
      "inputs": [
        {
          "internalType": "uint32",
          "name": "destinationNetwork",
          "type": "uint32"
        },
        {
          "internalType": "address",
          "name": "destinationAddress",
          "type": "address"
        },
        {
          "internalType": "uint256",
          "name": "amountWETH",
          "type": "uint256"
        },
        {
          "internalType": "bool",
          "name": "forceUpdateGlobalExitRoot",
          "type": "bool"
        },
        {
          "internalType": "bytes",
          "name": "metadata",
          "type": "bytes"
        }
      ],
      "name": "bridgeMessageWETH",
      "outputs": [],
      "stateMutability": "nonpayable",
      "type": "function"
    },
    {
      "inputs": [
        {
          "internalType": "bytes32",
          "name": "leafHash",
          "type": "bytes32"
        },
        {
          "internalType": "bytes32[32]",
          "name": "smtProof",
          "type": "bytes32[32]"
        },
        {
          "internalType": "uint32",
          "name": "index",
          "type": "uint32"
        }
      ],
      "name": "calculateRoot",
      "outputs": [
        {
          "internalType": "bytes32",
          "name": "",
          "type": "bytes32"
        }
      ],
      "stateMutability": "pure",
      "type": "function"
    },
    {
      "inputs": [
        {
          "internalType": "uint32",
          "name": "originNetwork",
          "type": "uint32"
        },
        {
          "internalType": "address",
          "name": "originTokenAddress",
          "type": "address"
        },
        {
          "internalType": "address",
          "name": "token",
          "type": "address"
        }
      ],
      "name": "calculateTokenWrapperAddress",
      "outputs": [
        {
          "internalType": "address",
          "name": "",
          "type": "address"
        }
      ],
      "stateMutability": "view",
      "type": "function"
    },
    {
      "inputs": [
        {
          "internalType": "bytes32[32]",
          "name": "smtProofLocalExitRoot",
          "type": "bytes32[32]"
        },
        {
          "internalType": "bytes32[32]",
          "name": "smtProofRollupExitRoot",
          "type": "bytes32[32]"
        },
        {
          "internalType": "uint256",
          "name": "globalIndex",
          "type": "uint256"
        },
        {
          "internalType": "bytes32",
          "name": "mainnetExitRoot",
          "type": "bytes32"
        },
        {
          "internalType": "bytes32",
          "name": "rollupExitRoot",
          "type": "bytes32"
        },
        {
          "internalType": "uint32",
          "name": "originNetwork",
          "type": "uint32"
        },
        {
          "internalType": "address",
          "name": "originTokenAddress",
          "type": "address"
        },
        {
          "internalType": "uint32",
          "name": "destinationNetwork",
          "type": "uint32"
        },
        {
          "internalType": "address",
          "name": "destinationAddress",
          "type": "address"
        },
        {
          "internalType": "uint256",
          "name": "amount",
          "type": "uint256"
        },
        {
          "internalType": "bytes",
          "name": "metadata",
          "type": "bytes"
        }
      ],
      "name": "claimAT",
      "outputs": [],
      "stateMutability": "nonpayable",
      "type": "function"
    },
    {
      "inputs": [
        {
          "internalType": "bytes32[32]",
          "name": "smtProofLocalExitRoot",
          "type": "bytes32[32]"
        },
        {
          "internalType": "bytes32[32]",
          "name": "smtProofRollupExitRoot",
          "type": "bytes32[32]"
        },
        {
          "internalType": "uint256",
          "name": "globalIndex",
          "type": "uint256"
        },
        {
          "internalType": "bytes32",
          "name": "mainnetExitRoot",
          "type": "bytes32"
        },
        {
          "internalType": "bytes32",
          "name": "rollupExitRoot",
          "type": "bytes32"
        },
        {
          "internalType": "uint32",
          "name": "originNetwork",
          "type": "uint32"
        },
        {
          "internalType": "address",
          "name": "originTokenAddress",
          "type": "address"
        },
        {
          "internalType": "uint32",
          "name": "destinationNetwork",
          "type": "uint32"
        },
        {
          "internalType": "address",
          "name": "destinationAddress",
          "type": "address"
        },
        {
          "internalType": "uint256",
          "name": "amount",
          "type": "uint256"
        },
        {
          "internalType": "bytes",
          "name": "metadata",
          "type": "bytes"
        }
      ],
      "name": "claimAsset",
      "outputs": [],
      "stateMutability": "nonpayable",
      "type": "function"
    },
    {
      "inputs": [
        {
          "internalType": "bytes32[32]",
          "name": "smtProofLocalExitRoot",
          "type": "bytes32[32]"
        },
        {
          "internalType": "bytes32[32]",
          "name": "smtProofRollupExitRoot",
          "type": "bytes32[32]"
        },
        {
          "internalType": "uint256",
          "name": "globalIndex",
          "type": "uint256"
        },
        {
          "internalType": "bytes32",
          "name": "mainnetExitRoot",
          "type": "bytes32"
        },
        {
          "internalType": "bytes32",
          "name": "rollupExitRoot",
          "type": "bytes32"
        },
        {
          "internalType": "uint32",
          "name": "originNetwork",
          "type": "uint32"
        },
        {
          "internalType": "address",
          "name": "originAddress",
          "type": "address"
        },
        {
          "internalType": "uint32",
          "name": "destinationNetwork",
          "type": "uint32"
        },
        {
          "internalType": "address",
          "name": "destinationAddress",
          "type": "address"
        },
        {
          "internalType": "uint256",
          "name": "amount",
          "type": "uint256"
        },
        {
          "internalType": "bytes",
          "name": "metadata",
          "type": "bytes"
        }
      ],
      "name": "claimMessage",
      "outputs": [],
      "stateMutability": "nonpayable",
      "type": "function"
    },
    {
      "inputs": [
        {
          "internalType": "uint256",
          "name": "",
          "type": "uint256"
        }
      ],
      "name": "claimedBitMap",
      "outputs": [
        {
          "internalType": "uint256",
          "name": "",
          "type": "uint256"
        }
      ],
      "stateMutability": "view",
      "type": "function"
    },
    {
      "inputs": [],
      "name": "deactivateEmergencyState",
      "outputs": [],
      "stateMutability": "nonpayable",
      "type": "function"
    },
    {
      "inputs": [],
      "name": "depositCount",
      "outputs": [
        {
          "internalType": "uint256",
          "name": "",
          "type": "uint256"
        }
      ],
      "stateMutability": "view",
      "type": "function"
    },
    {
      "inputs": [],
      "name": "gasTokenAddress",
      "outputs": [
        {
          "internalType": "address",
          "name": "",
          "type": "address"
        }
      ],
      "stateMutability": "view",
      "type": "function"
    },
    {
      "inputs": [],
      "name": "gasTokenMetadata",
      "outputs": [
        {
          "internalType": "bytes",
          "name": "",
          "type": "bytes"
        }
      ],
      "stateMutability": "view",
      "type": "function"
    },
    {
      "inputs": [],
      "name": "gasTokenNetwork",
      "outputs": [
        {
          "internalType": "uint32",
          "name": "",
          "type": "uint32"
        }
      ],
      "stateMutability": "view",
      "type": "function"
    },
    {
      "inputs": [
        {
          "internalType": "uint8",
          "name": "leafType",
          "type": "uint8"
        },
        {
          "internalType": "uint32",
          "name": "originNetwork",
          "type": "uint32"
        },
        {
          "internalType": "address",
          "name": "originAddress",
          "type": "address"
        },
        {
          "internalType": "uint32",
          "name": "destinationNetwork",
          "type": "uint32"
        },
        {
          "internalType": "address",
          "name": "destinationAddress",
          "type": "address"
        },
        {
          "internalType": "uint256",
          "name": "amount",
          "type": "uint256"
        },
        {
          "internalType": "bytes32",
          "name": "metadataHash",
          "type": "bytes32"
        }
      ],
      "name": "getLeafValue",
      "outputs": [
        {
          "internalType": "bytes32",
          "name": "",
          "type": "bytes32"
        }
      ],
      "stateMutability": "pure",
      "type": "function"
    },
    {
      "inputs": [],
      "name": "getRoot",
      "outputs": [
        {
          "internalType": "bytes32",
          "name": "",
          "type": "bytes32"
        }
      ],
      "stateMutability": "view",
      "type": "function"
    },
    {
      "inputs": [
        {
          "internalType": "address",
          "name": "token",
          "type": "address"
        }
      ],
      "name": "getTokenMetadata",
      "outputs": [
        {
          "internalType": "bytes",
          "name": "",
          "type": "bytes"
        }
      ],
      "stateMutability": "view",
      "type": "function"
    },
    {
      "inputs": [
        {
          "internalType": "uint32",
          "name": "originNetwork",
          "type": "uint32"
        },
        {
          "internalType": "address",
          "name": "originTokenAddress",
          "type": "address"
        }
      ],
      "name": "getTokenWrappedAddress",
      "outputs": [
        {
          "internalType": "address",
          "name": "",
          "type": "address"
        }
      ],
      "stateMutability": "view",
      "type": "function"
    },
    {
      "inputs": [],
      "name": "globalExitRootManager",
      "outputs": [
        {
          "internalType": "contract IBasePolygonZkEVMGlobalExitRoot",
          "name": "",
          "type": "address"
        }
      ],
      "stateMutability": "view",
      "type": "function"
    },
    {
      "inputs": [
        {
          "internalType": "uint32",
          "name": "_networkID",
          "type": "uint32"
        },
        {
          "internalType": "address",
          "name": "_gasTokenAddress",
          "type": "address"
        },
        {
          "internalType": "uint32",
          "name": "_gasTokenNetwork",
          "type": "uint32"
        },
        {
          "internalType": "contract IBasePolygonZkEVMGlobalExitRoot",
          "name": "_globalExitRootManager",
          "type": "address"
        },
        {
          "internalType": "address",
          "name": "_polygonRollupManager",
          "type": "address"
        },
        {
          "internalType": "bytes",
          "name": "_gasTokenMetadata",
          "type": "bytes"
        }
      ],
      "name": "initialize",
      "outputs": [],
      "stateMutability": "nonpayable",
      "type": "function"
    },
    {
      "inputs": [
        {
          "internalType": "uint32",
          "name": "leafIndex",
          "type": "uint32"
        },
        {
          "internalType": "uint32",
          "name": "sourceBridgeNetwork",
          "type": "uint32"
        }
      ],
      "name": "isClaimed",
      "outputs": [
        {
          "internalType": "bool",
          "name": "",
          "type": "bool"
        }
      ],
      "stateMutability": "view",
      "type": "function"
    },
    {
      "inputs": [],
      "name": "isEmergencyState",
      "outputs": [
        {
          "internalType": "bool",
          "name": "",
          "type": "bool"
        }
      ],
      "stateMutability": "view",
      "type": "function"
    },
    {
      "inputs": [],
      "name": "isL2",
      "outputs": [
        {
          "internalType": "bool",
          "name": "",
          "type": "bool"
        }
      ],
      "stateMutability": "view",
      "type": "function"
    },
    {
      "inputs": [],
      "name": "lastUpdatedDepositCount",
      "outputs": [
        {
          "internalType": "uint32",
          "name": "",
          "type": "uint32"
        }
      ],
      "stateMutability": "view",
      "type": "function"
    },
    {
      "inputs": [],
      "name": "networkID",
      "outputs": [
        {
          "internalType": "uint32",
          "name": "",
          "type": "uint32"
        }
      ],
      "stateMutability": "view",
      "type": "function"
    },
    {
      "inputs": [],
      "name": "polygonRollupManager",
      "outputs": [
        {
          "internalType": "address",
          "name": "",
          "type": "address"
        }
      ],
      "stateMutability": "view",
      "type": "function"
    },
    {
      "inputs": [
        {
          "internalType": "uint32",
          "name": "originNetwork",
          "type": "uint32"
        },
        {
          "internalType": "address",
          "name": "originTokenAddress",
          "type": "address"
        },
        {
          "internalType": "string",
          "name": "name",
          "type": "string"
        },
        {
          "internalType": "string",
          "name": "symbol",
          "type": "string"
        },
        {
          "internalType": "uint8",
          "name": "decimals",
          "type": "uint8"
        }
      ],
      "name": "precalculatedWrapperAddress",
      "outputs": [
        {
          "internalType": "address",
          "name": "",
          "type": "address"
        }
      ],
      "stateMutability": "view",
      "type": "function"
    },
    {
      "inputs": [
        {
          "internalType": "bytes32",
          "name": "",
          "type": "bytes32"
        }
      ],
      "name": "tokenInfoToWrappedToken",
      "outputs": [
        {
          "internalType": "address",
          "name": "",
          "type": "address"
        }
      ],
      "stateMutability": "view",
      "type": "function"
    },
    {
      "inputs": [],
      "name": "updateGlobalExitRoot",
      "outputs": [],
      "stateMutability": "nonpayable",
      "type": "function"
    },
    {
      "inputs": [
        {
          "internalType": "bytes32",
          "name": "leafHash",
          "type": "bytes32"
        },
        {
          "internalType": "bytes32[32]",
          "name": "smtProof",
          "type": "bytes32[32]"
        },
        {
          "internalType": "uint32",
          "name": "index",
          "type": "uint32"
        },
        {
          "internalType": "bytes32",
          "name": "root",
          "type": "bytes32"
        }
      ],
      "name": "verifyMerkleProof",
      "outputs": [
        {
          "internalType": "bool",
          "name": "",
          "type": "bool"
        }
      ],
      "stateMutability": "pure",
      "type": "function"
    },
    {
      "inputs": [
        {
          "internalType": "address",
          "name": "",
          "type": "address"
        }
      ],
      "name": "wrappedTokenToTokenInfo",
      "outputs": [
        {
          "internalType": "uint32",
          "name": "originNetwork",
          "type": "uint32"
        },
        {
          "internalType": "address",
          "name": "originTokenAddress",
          "type": "address"
        }
      ],
      "stateMutability": "view",
      "type": "function"
    }
  ],
  "bytecode": "0x608060405234801562000010575f80fd5b506200001b62000021565b620000e0565b5f54610100900460ff16156200008d5760405162461bcd60e51b815260206004820152602760248201527f496e697469616c697a61626c653a20636f6e747261637420697320696e697469604482015266616c697a696e6760c81b606482015260840160405180910390fd5b5f5460ff9081161015620000de575f805460ff191660ff9081179091556040519081527f7f26b83ff96e1f2b6a682f133852f6798a09c465da95921460cefb38474024989060200160405180910390a15b565b615aac80620000ee5f395ff3fe60806040526004361061025c575f3560e01c806383c43a551161014b578063c00f14ab116100c6578063dbc169761161007c578063f5efcd7911610062578063f5efcd79146106d7578063f811bff7146106f6578063fb57083414610715575f80fd5b8063dbc1697614610698578063ee25560b146106ac575f80fd5b8063ccaa2d11116100ac578063ccaa2d111461063e578063cd5865791461065d578063d02103ca14610670575f80fd5b8063c00f14ab14610600578063cc4616321461061f575f80fd5b8063aaa13cc21161011b578063b8b284d011610101578063b8b284d01461059d578063bab161bf146105bc578063be5831c7146105dd575f80fd5b8063aaa13cc21461055f578063af907b621461057e575f80fd5b806383c43a55146104fa57806383f244031461050e5780638ed7e3f21461052d5780639d211f241461054c575f80fd5b80633c351e10116101db5780635ca1e165116101ab5780637843298b116101915780637843298b1461049357806379e2cf97146104b257806381b1c174146104c6575f80fd5b80635ca1e1651461046657806376348f711461047a575f80fd5b80633c351e10146103d15780633cbc795b146103f05780633e197043146104285780634b2f336d14610447575f80fd5b806322e95f2c1161023057806327aef4e81161021657806327aef4e8146103325780632dfdf0b514610346578063318aee3d14610369575f80fd5b806322e95f2c146102e8578063240ff3781461031f575f80fd5b80623efb051461026057806315064c961461028a5780631bf1aee7146102b35780632072f6c5146102d4575b5f80fd5b34801561026b575f80fd5b50610274610734565b604051610281919061316d565b60405180910390f35b348015610295575f80fd5b506068546102a39060ff1681565b6040519015158152602001610281565b3480156102be575f80fd5b506102d26102cd366004613206565b6107c0565b005b3480156102df575f80fd5b506102d261080c565b3480156102f3575f80fd5b506103076103023660046132ea565b610841565b6040516001600160a01b039091168152602001610281565b6102d261032d36600461332c565b6108ab565b34801561033d575f80fd5b50610274610934565b348015610351575f80fd5b5061035b60535481565b604051908152602001610281565b348015610374575f80fd5b506103ad6103833660046133a1565b606b6020525f908152604090205463ffffffff81169064010000000090046001600160a01b031682565b6040805163ffffffff90931683526001600160a01b03909116602083015201610281565b3480156103dc575f80fd5b50606d54610307906001600160a01b031681565b3480156103fb575f80fd5b50606d5461041390600160a01b900463ffffffff1681565b60405163ffffffff9091168152602001610281565b348015610433575f80fd5b5061035b6104423660046133ca565b610941565b348015610452575f80fd5b50606f54610307906001600160a01b031681565b348015610471575f80fd5b5061035b6109ea565b348015610485575f80fd5b506072546102a39060ff1681565b34801561049e575f80fd5b506103076104ad366004613444565b610ac6565b3480156104bd575f80fd5b506102d2610aef565b3480156104d1575f80fd5b506103076104e036600461348a565b606a6020525f90815260409020546001600160a01b031681565b348015610505575f80fd5b50610274610b10565b348015610519575f80fd5b5061035b6105283660046134a1565b610b2f565b348015610538575f80fd5b50606c54610307906001600160a01b031681565b6102d261055a3660046134dd565b610c04565b34801561056a575f80fd5b50610307610579366004613632565b610c42565b348015610589575f80fd5b50607054610307906001600160a01b031681565b3480156105a8575f80fd5b506102d26105b73660046136c8565b610d81565b3480156105c7575f80fd5b5060685461041390610100900463ffffffff1681565b3480156105e8575f80fd5b5060685461041390600160c81b900463ffffffff1681565b34801561060b575f80fd5b5061027461061a3660046133a1565b610e5c565b34801561062a575f80fd5b506102a3610639366004613746565b610ea1565b348015610649575f80fd5b506102d2610658366004613206565b610f29565b6102d261066b3660046134dd565b61145a565b34801561067b575f80fd5b50606854610307906501000000000090046001600160a01b031681565b3480156106a3575f80fd5b506102d26118bd565b3480156106b7575f80fd5b5061035b6106c636600461348a565b60696020525f908152604090205481565b3480156106e2575f80fd5b506102d26106f1366004613206565b6118f0565b348015610701575f80fd5b506102d2610710366004613777565b611bb6565b348015610720575f80fd5b506102a361072f36600461381a565b611ed1565b607180546107419061385f565b80601f016020809104026020016040519081016040528092919081815260200182805461076d9061385f565b80156107b85780601f1061078f576101008083540402835291602001916107b8565b820191905f5260205f20905b81548152906001019060200180831161079b57829003601f168201915b505050505081565b60685460ff16156107e457604051630bc011ff60e21b815260040160405180910390fd5b60725460ff166107fe576107fe8c8c8c8c8c8c8c8c8c8c8c8c5b505050505050505050505050565b606c546001600160a01b0316331461083757604051631736745960e31b815260040160405180910390fd5b61083f611ee8565b565b6040805160e084901b6001600160e01b031916602080830191909152606084901b6bffffffffffffffffffffffff1916602483015282516018818403018152603890920183528151918101919091205f908152606a90915220546001600160a01b03165b92915050565b60685460ff16156108cf57604051630bc011ff60e21b815260040160405180910390fd5b34158015906108e85750606f546001600160a01b031615155b1561091f576040517f6f625c4000000000000000000000000000000000000000000000000000000000815260040160405180910390fd5b61092d858534868686611f43565b5050505050565b606e80546107419061385f565b6040517fff0000000000000000000000000000000000000000000000000000000000000060f889901b1660208201526001600160e01b031960e088811b821660218401526bffffffffffffffffffffffff19606089811b821660258601529188901b909216603984015285901b16603d82015260518101839052607181018290525f90609101604051602081830303815290604052805190602001209050979650505050505050565b6053545f90819081805b6020811015610abd578083901c600116600103610a515760338160208110610a1e57610a1e613897565b01546040805160208101929092528101859052606001604051602081830303815290604052805190602001209350610a7e565b60408051602081018690529081018390526060016040516020818303038152906040528051906020012093505b60408051602081018490529081018390526060016040516020818303038152906040528051906020012091508080610ab5906138bf565b9150506109f4565b50919392505050565b5f610ae78484610ad58561200d565b610ade866120f7565b610579876121d8565b949350505050565b605354606854600160c81b900463ffffffff16101561083f5761083f6122a5565b60405180611ba00160405280611b668152602001613f11611b66913981565b5f83815b6020811015610bfb57600163ffffffff8516821c81169003610b9e57848160208110610b6157610b61613897565b602002013582604051602001610b81929190918252602082015260400190565b604051602081830303815290604052805190602001209150610be9565b81858260208110610bb157610bb1613897565b6020020135604051602001610bd0929190918252602082015260400190565b6040516020818303038152906040528051906020012091505b80610bf3816138bf565b915050610b33565b50949350505050565b60685460ff1615610c2857604051630bc011ff60e21b815260040160405180910390fd5b610c30612353565b610c3960018055565b50505050505050565b6040516001600160e01b031960e087901b1660208201526bffffffffffffffffffffffff19606086901b1660248201525f9081906038016040516020818303038152906040528051906020012090505f60ff60f81b308360405180611ba00160405280611b668152602001613f11611b669139898989604051602001610cca939291906138d7565b60408051601f1981840301815290829052610ce8929160200161390f565b60405160208183030381529060405280519060200120604051602001610d5d94939291907fff0000000000000000000000000000000000000000000000000000000000000094909416845260609290921b6bffffffffffffffffffffffff191660018401526015830152603582015260550190565b60408051808303601f19018152919052805160209091012098975050505050505050565b60685460ff1615610da557604051630bc011ff60e21b815260040160405180910390fd5b606f546001600160a01b0316610de7576040517fdde3cda700000000000000000000000000000000000000000000000000000000815260040160405180910390fd5b606f54604051632770a7eb60e21b8152336004820152602481018690526001600160a01b0390911690639dc29fac906044015f604051808303815f87803b158015610e30575f80fd5b505af1158015610e42573d5f803e3d5ffd5b50505050610e54868686868686611f43565b505050505050565b6060610e678261200d565b610e70836120f7565b610e79846121d8565b604051602001610e8b939291906138d7565b6040516020818303038152906040529050919050565b6068545f908190610100900463ffffffff16158015610ec6575063ffffffff83166001145b15610ed8575063ffffffff8316610f00565b610eed64010000000063ffffffff851661393d565b610efd9063ffffffff8616613954565b90505b600881901c5f90815260696020526040902054600160ff9092169190911b908116149392505050565b60685460ff1615610f4d57604051630bc011ff60e21b815260040160405180910390fd5b60685463ffffffff8681166101009092041614610f7d576040516302caf51760e11b815260040160405180910390fd5b610fb08c8c8c8c8c610fab5f8e8e8e8e8e8e8e604051610f9e929190613967565b6040518091039020610941565b6123b2565b6001600160a01b0386166110fa57606f546001600160a01b0316611094575f6001600160a01b03851684825b6040519080825280601f01601f191660200182016040528015611006576020820181803683370190505b506040516110149190613976565b5f6040518083038185875af1925050503d805f811461104e576040519150601f19603f3d011682016040523d82523d5f602084013e611053565b606091505b505090508061108e576040517f6747a28800000000000000000000000000000000000000000000000000000000815260040160405180910390fd5b506113f0565b606f546040516340c10f1960e01b81526001600160a01b03868116600483015260248201869052909116906340c10f19906044015f604051808303815f87803b1580156110df575f80fd5b505af11580156110f1573d5f803e3d5ffd5b505050506113f0565b606d546001600160a01b0387811691161480156111285750606d5463ffffffff888116600160a01b90920416145b1561113f575f6001600160a01b0385168482610fdc565b60685463ffffffff6101009091048116908816036111705761116b6001600160a01b0387168585612544565b6113f0565b6040516001600160e01b031960e089901b1660208201526bffffffffffffffffffffffff19606088901b1660248201525f9060380160408051601f1981840301815291815281516020928301205f818152606a9093529120549091506001600160a01b03168061138f575f61121a8386868080601f0160208091040260200160405190810160405280939291908181526020018383808284375f920191909152506125c592505050565b6040516340c10f1960e01b81526001600160a01b03898116600483015260248201899052919250908216906340c10f19906044015f604051808303815f87803b158015611265575f80fd5b505af1158015611277573d5f803e3d5ffd5b5050505080606a5f8581526020019081526020015f205f6101000a8154816001600160a01b0302191690836001600160a01b0316021790555060405180604001604052808b63ffffffff1681526020018a6001600160a01b0316815250606b5f836001600160a01b03166001600160a01b031681526020019081526020015f205f820151815f015f6101000a81548163ffffffff021916908363ffffffff1602179055506020820151815f0160046101000a8154816001600160a01b0302191690836001600160a01b031602179055509050507f490e59a1701b938786ac72570a1efeac994a3dbe96e2e883e19e902ace6e6a398a8a8388886040516113819594939291906139b9565b60405180910390a1506113ed565b6040516340c10f1960e01b81526001600160a01b038781166004830152602482018790528216906340c10f19906044015f604051808303815f87803b1580156113d6575f80fd5b505af11580156113e8573d5f803e3d5ffd5b505050505b50505b604080518b815263ffffffff891660208201526001600160a01b0388811682840152861660608201526080810185905290517f1df3f2a973a00d6635911755c260704e95e8a5876997546798770f76396fda4d9181900360a00190a1505050505050505050505050565b60685460ff161561147e57604051630bc011ff60e21b815260040160405180910390fd5b611486612353565b60685463ffffffff6101009091048116908816036114b7576040516302caf51760e11b815260040160405180910390fd5b5f806060876001600160a01b0388166115b357883414611503576040517fb89240f500000000000000000000000000000000000000000000000000000000815260040160405180910390fd5b606d54606e80546001600160a01b0383169650600160a01b90920463ffffffff169450906115309061385f565b80601f016020809104026020016040519081016040528092919081815260200182805461155c9061385f565b80156115a75780601f1061157e576101008083540402835291602001916115a7565b820191905f5260205f20905b81548152906001019060200180831161158a57829003601f168201915b5050505050915061183d565b34156115eb576040517f798ee6f100000000000000000000000000000000000000000000000000000000815260040160405180910390fd5b606f546001600160a01b039081169089160361166157604051632770a7eb60e21b8152336004820152602481018a90526001600160a01b03891690639dc29fac906044015f604051808303815f87803b158015611646575f80fd5b505af1158015611658573d5f803e3d5ffd5b5050505061183d565b6001600160a01b038089165f908152606b602090815260409182902082518084019093525463ffffffff811683526401000000009004909216918101829052901561171357604051632770a7eb60e21b8152336004820152602481018b90526001600160a01b038a1690639dc29fac906044015f604051808303815f87803b1580156116eb575f80fd5b505af11580156116fd573d5f803e3d5ffd5b5050505080602001519450805f01519350611830565b851561172557611725898b8989612658565b6040516370a0823160e01b81523060048201525f906001600160a01b038b16906370a0823190602401602060405180830381865afa158015611769573d5f803e3d5ffd5b505050506040513d601f19601f8201168201806040525081019061178d91906139f1565b90506117a46001600160a01b038b1633308e6129f7565b6040516370a0823160e01b81523060048201525f906001600160a01b038c16906370a0823190602401602060405180830381865afa1580156117e8573d5f803e3d5ffd5b505050506040513d601f19601f8201168201806040525081019061180c91906139f1565b90506118188282613a08565b6068548c9850610100900463ffffffff169650935050505b61183989610e5c565b9250505b7f501781209a1f8899323b96b4ef08b168df93e0a90c673d1e4cce39366cb62f9b5f84868e8e868860535460405161187c989796959493929190613a1b565b60405180910390a16118a261189d5f85878f8f878980519060200120610941565b612a48565b86156118b0576118b06122a5565b50505050610c3960018055565b606c546001600160a01b031633146118e857604051631736745960e31b815260040160405180910390fd5b61083f612b43565b60685460ff161561191457604051630bc011ff60e21b815260040160405180910390fd5b60685463ffffffff8681166101009092041614611944576040516302caf51760e11b815260040160405180910390fd5b6119668c8c8c8c8c610fab60018e8e8e8e8e8e8e604051610f9e929190613967565b606f545f906001600160a01b0316611a1957846001600160a01b031684888a868660405160240161199a9493929190613a84565b60408051601f198184030181529181526020820180516001600160e01b0316630c035af960e11b179052516119cf9190613976565b5f6040518083038185875af1925050503d805f8114611a09576040519150601f19603f3d011682016040523d82523d5f602084013e611a0e565b606091505b505080915050611b14565b606f546040516340c10f1960e01b81526001600160a01b03878116600483015260248201879052909116906340c10f19906044015f604051808303815f87803b158015611a64575f80fd5b505af1158015611a76573d5f803e3d5ffd5b50505050846001600160a01b031687898585604051602401611a9b9493929190613a84565b60408051601f198184030181529181526020820180516001600160e01b0316630c035af960e11b17905251611ad09190613976565b5f604051808303815f865af19150503d805f8114611b09576040519150601f19603f3d011682016040523d82523d5f602084013e611b0e565b606091505b50909150505b80611b4b576040517f37e391c300000000000000000000000000000000000000000000000000000000815260040160405180910390fd5b604080518c815263ffffffff8a1660208201526001600160a01b0389811682840152871660608201526080810186905290517f1df3f2a973a00d6635911755c260704e95e8a5876997546798770f76396fda4d9181900360a00190a150505050505050505050505050565b5f54610100900460ff1615808015611bd457505f54600160ff909116105b80611bed5750303b158015611bed57505f5460ff166001145b611c645760405162461bcd60e51b815260206004820152602e60248201527f496e697469616c697a61626c653a20636f6e747261637420697320616c72656160448201527f647920696e697469616c697a656400000000000000000000000000000000000060648201526084015b60405180910390fd5b5f805460ff191660011790558015611c85575f805461ff0019166101001790555b606880547fffffffffffffff000000000000000000000000000000000000000000000000ff1661010063ffffffff8a16027fffffffffffffff0000000000000000000000000000000000000000ffffffffff1617650100000000006001600160a01b038781169190910291909117909155606c805473ffffffffffffffffffffffffffffffffffffffff19168583161790558616611d605763ffffffff851615611d5b576040517f1a874c1200000000000000000000000000000000000000000000000000000000815260040160405180910390fd5b611e7c565b606d805463ffffffff8716600160a01b027fffffffffffffffff0000000000000000000000000000000000000000000000009091166001600160a01b03891617179055606e611daf8382613b01565b50611e4e5f801b6012604051602001611e3a91906060808252600d908201527f5772617070656420457468657200000000000000000000000000000000000000608082015260a0602082018190526004908201527f574554480000000000000000000000000000000000000000000000000000000060c082015260ff91909116604082015260e00190565b6040516020818303038152906040526125c5565b606f805473ffffffffffffffffffffffffffffffffffffffff19166001600160a01b03929092169190911790555b611e84612bb3565b8015610c39575f805461ff0019169055604051600181527f7f26b83ff96e1f2b6a682f133852f6798a09c465da95921460cefb38474024989060200160405180910390a150505050505050565b5f81611ede868686610b2f565b1495945050505050565b60685460ff1615611f0c57604051630bc011ff60e21b815260040160405180910390fd5b6068805460ff191660011790556040517f2261efe5aef6fedc1fd1550b25facc9181745623049c7901287030b9ad1a5497905f90a1565b60685463ffffffff610100909104811690871603611f74576040516302caf51760e11b815260040160405180910390fd5b7f501781209a1f8899323b96b4ef08b168df93e0a90c673d1e4cce39366cb62f9b6001606860019054906101000a900463ffffffff16338989898888605354604051611fc899989796959493929190613bbd565b60405180910390a1611fff61189d6001606860019054906101000a900463ffffffff16338a8a8a8989604051610f9e929190613967565b8215610e5457610e546122a5565b60408051600481526024810182526020810180516001600160e01b03167f06fdde030000000000000000000000000000000000000000000000000000000017905290516060915f9182916001600160a01b0386169161206c9190613976565b5f60405180830381855afa9150503d805f81146120a4576040519150601f19603f3d011682016040523d82523d5f602084013e6120a9565b606091505b5091509150816120ee576040518060400160405280600781526020017f4e4f5f4e414d4500000000000000000000000000000000000000000000000000815250610ae7565b610ae781612c25565b60408051600481526024810182526020810180516001600160e01b03167f95d89b410000000000000000000000000000000000000000000000000000000017905290516060915f9182916001600160a01b038616916121569190613976565b5f60405180830381855afa9150503d805f811461218e576040519150601f19603f3d011682016040523d82523d5f602084013e612193565b606091505b5091509150816120ee576040518060400160405280600981526020017f4e4f5f53594d424f4c0000000000000000000000000000000000000000000000815250610ae7565b60408051600481526024810182526020810180516001600160e01b03167f313ce5670000000000000000000000000000000000000000000000000000000017905290515f91829182916001600160a01b038616916122369190613976565b5f60405180830381855afa9150503d805f811461226e576040519150601f19603f3d011682016040523d82523d5f602084013e612273565b606091505b5091509150818015612286575080516020145b612291576012610ae7565b80806020019051810190610ae79190613c28565b6053546068805463ffffffff909216600160c81b027fffffff00000000ffffffffffffffffffffffffffffffffffffffffffffffffff90921691909117908190556001600160a01b0365010000000000909104166333d6247d6123066109ea565b6040518263ffffffff1660e01b815260040161232491815260200190565b5f604051808303815f87803b15801561233b575f80fd5b505af115801561234d573d5f803e3d5ffd5b50505050565b6002600154036123a55760405162461bcd60e51b815260206004820152601f60248201527f5265656e7472616e637947756172643a207265656e7472616e742063616c6c006044820152606401611c5b565b6002600155565b60018055565b606854604080516020808201879052818301869052825180830384018152606083019384905280519101207f257b36320000000000000000000000000000000000000000000000000000000090925260648101919091525f916501000000000090046001600160a01b03169063257b3632906084016020604051808303815f875af1158015612443573d5f803e3d5ffd5b505050506040513d601f19601f8201168201806040525081019061246791906139f1565b9050805f036124a1576040517e2f6fad00000000000000000000000000000000000000000000000000000000815260040160405180910390fd5b5f80680100000000000000008716156124e5578691506124c3848a8489611ed1565b6124e0576040516338105f3b60e21b815260040160405180910390fd5b61252f565b602087901c6124f5816001613c43565b9150879250612510612508868c86610b2f565b8a8389611ed1565b61252d576040516338105f3b60e21b815260040160405180910390fd5b505b6125398282612df5565b505050505050505050565b6040516001600160a01b0383166024820152604481018290526125c09084907fa9059cbb00000000000000000000000000000000000000000000000000000000906064015b60408051601f198184030181529190526020810180516001600160e01b03166001600160e01b031990931692909217909152612eb5565b505050565b5f8060405180611ba00160405280611b668152602001613f11611b669139836040516020016125f592919061390f565b6040516020818303038152906040529050838151602083015ff591506001600160a01b038216612651576040517fbefb092000000000000000000000000000000000000000000000000000000000815260040160405180910390fd5b5092915050565b5f6126666004828486613c60565b61266f91613c87565b90507f2afa5331000000000000000000000000000000000000000000000000000000006001600160e01b0319821601612849575f8080808080806126b6896004818d613c60565b8101906126c39190613cb7565b9650965096509650965096509650336001600160a01b0316876001600160a01b0316146127035760405163912ecce760e01b815260040160405180910390fd5b6001600160a01b038616301461272c5760405163750643af60e01b815260040160405180910390fd5b8a8514612765576040517f03fffc4b00000000000000000000000000000000000000000000000000000000815260040160405180910390fd5b604080516001600160a01b0389811660248301528881166044830152606482018890526084820187905260ff861660a483015260c4820185905260e48083018590528351808403909101815261010490920183526020820180516001600160e01b03167fd505accf000000000000000000000000000000000000000000000000000000001790529151918e16916127fc9190613976565b5f604051808303815f865af19150503d805f8114612835576040519150601f19603f3d011682016040523d82523d5f602084013e61283a565b606091505b5050505050505050505061092d565b6001600160e01b031981166323f2ebc360e21b14612893576040517fe282c0ba00000000000000000000000000000000000000000000000000000000815260040160405180910390fd5b5f808080808080806128a88a6004818e613c60565b8101906128b59190613d06565b97509750975097509750975097509750336001600160a01b0316886001600160a01b0316146128f75760405163912ecce760e01b815260040160405180910390fd5b6001600160a01b03871630146129205760405163750643af60e01b815260040160405180910390fd5b604080516001600160a01b038a811660248301528981166044830152606482018990526084820188905286151560a483015260ff861660c483015260e482018590526101048083018590528351808403909101815261012490920183526020820180516001600160e01b03166323f2ebc360e21b1790529151918f16916129a79190613976565b5f604051808303815f865af19150503d805f81146129e0576040519150601f19603f3d011682016040523d82523d5f602084013e6129e5565b606091505b50505050505050505050505050505050565b6040516001600160a01b038085166024830152831660448201526064810182905261234d9085907f23b872dd0000000000000000000000000000000000000000000000000000000090608401612589565b806001612a5760206002613e64565b612a619190613a08565b60535410612a9b576040517fef5ccf6600000000000000000000000000000000000000000000000000000000815260040160405180910390fd5b5f60535f8154612aaa906138bf565b918290555090505f5b6020811015612b3a578082901c600116600103612ae6578260338260208110612ade57612ade613897565b015550505050565b60338160208110612af957612af9613897565b015460408051602081019290925281018490526060016040516020818303038152906040528051906020012092508080612b32906138bf565b915050612ab3565b506125c0613e6f565b60685460ff16612b7f576040517f5386698100000000000000000000000000000000000000000000000000000000815260040160405180910390fd5b6068805460ff191690556040517f1e5e34eea33501aecf2ebec9fe0e884a40804275ea7fe10b2ba084c8374308b3905f90a1565b5f54610100900460ff16612c1d5760405162461bcd60e51b815260206004820152602b60248201527f496e697469616c697a61626c653a20636f6e7472616374206973206e6f74206960448201526a6e697469616c697a696e6760a81b6064820152608401611c5b565b61083f612f99565b60606040825110612c4457818060200190518101906108a59190613e83565b8151602003612db7575f5b602081108015612c965750828181518110612c6c57612c6c613897565b01602001517fff000000000000000000000000000000000000000000000000000000000000001615155b15612cad5780612ca5816138bf565b915050612c4f565b805f03612cef57505060408051808201909152601281527f4e4f545f56414c49445f454e434f44494e4700000000000000000000000000006020820152919050565b5f8167ffffffffffffffff811115612d0957612d0961356d565b6040519080825280601f01601f191660200182016040528015612d33576020820181803683370190505b5090505f5b82811015612daf57848181518110612d5257612d52613897565b602001015160f81c60f81b828281518110612d6f57612d6f613897565b60200101907effffffffffffffffffffffffffffffffffffffffffffffffffffffffffffff191690815f1a90535080612da7816138bf565b915050612d38565b509392505050565b505060408051808201909152601281527f4e4f545f56414c49445f454e434f44494e470000000000000000000000000000602082015290565b919050565b6068545f90610100900463ffffffff16158015612e18575063ffffffff82166001145b15612e2a575063ffffffff8216612e52565b612e3f64010000000063ffffffff841661393d565b612e4f9063ffffffff8516613954565b90505b600881901c5f8181526069602052604081208054600160ff861690811b91821892839055929091908183169003610c39576040517f646cf55800000000000000000000000000000000000000000000000000000000815260040160405180910390fd5b5f612f09826040518060400160405280602081526020017f5361666545524332303a206c6f772d6c6576656c2063616c6c206661696c6564815250856001600160a01b03166130039092919063ffffffff16565b8051909150156125c05780806020019051810190612f279190613ef5565b6125c05760405162461bcd60e51b815260206004820152602a60248201527f5361666545524332303a204552433230206f7065726174696f6e20646964206e60448201527f6f742073756363656564000000000000000000000000000000000000000000006064820152608401611c5b565b5f54610100900460ff166123ac5760405162461bcd60e51b815260206004820152602b60248201527f496e697469616c697a61626c653a20636f6e7472616374206973206e6f74206960448201526a6e697469616c697a696e6760a81b6064820152608401611c5b565b6060610ae784845f85855f80866001600160a01b031685876040516130289190613976565b5f6040518083038185875af1925050503d805f8114613062576040519150601f19603f3d011682016040523d82523d5f602084013e613067565b606091505b509150915061307887838387613083565b979650505050505050565b606083156130f15782515f036130ea576001600160a01b0385163b6130ea5760405162461bcd60e51b815260206004820152601d60248201527f416464726573733a2063616c6c20746f206e6f6e2d636f6e74726163740000006044820152606401611c5b565b5081610ae7565b610ae783838151156131065781518083602001fd5b8060405162461bcd60e51b8152600401611c5b919061316d565b5f5b8381101561313a578181015183820152602001613122565b50505f910152565b5f8151808452613159816020860160208601613120565b601f01601f19169290920160200192915050565b602081525f61317f6020830184613142565b9392505050565b8061040081018310156108a5575f80fd5b803563ffffffff81168114612df0575f80fd5b6001600160a01b03811681146131be575f80fd5b50565b5f8083601f8401126131d1575f80fd5b50813567ffffffffffffffff8111156131e8575f80fd5b6020830191508360208285010111156131ff575f80fd5b9250929050565b5f805f805f805f805f805f806109208d8f031215613222575f80fd5b61322c8e8e613186565b9b5061323c8e6104008f01613186565b9a506108008d013599506108208d013598506108408d013597506132636108608e01613197565b96506132736108808e01356131aa565b6108808d013595506132886108a08e01613197565b94506132986108c08e01356131aa565b6108c08d013593506108e08d0135925067ffffffffffffffff6109008e013511156132c1575f80fd5b6132d28e6109008f01358f016131c1565b81935080925050509295989b509295989b509295989b565b5f80604083850312156132fb575f80fd5b61330483613197565b91506020830135613314816131aa565b809150509250929050565b80151581146131be575f80fd5b5f805f805f60808688031215613340575f80fd5b61334986613197565b94506020860135613359816131aa565b935060408601356133698161331f565b9250606086013567ffffffffffffffff811115613384575f80fd5b613390888289016131c1565b969995985093965092949392505050565b5f602082840312156133b1575f80fd5b813561317f816131aa565b60ff811681146131be575f80fd5b5f805f805f805f60e0888a0312156133e0575f80fd5b87356133eb816133bc565b96506133f960208901613197565b95506040880135613409816131aa565b945061341760608901613197565b93506080880135613427816131aa565b9699959850939692959460a0840135945060c09093013592915050565b5f805f60608486031215613456575f80fd5b61345f84613197565b9250602084013561346f816131aa565b9150604084013561347f816131aa565b809150509250925092565b5f6020828403121561349a575f80fd5b5035919050565b5f805f61044084860312156134b4575f80fd5b833592506134c58560208601613186565b91506134d46104208501613197565b90509250925092565b5f805f805f805f60c0888a0312156134f3575f80fd5b6134fc88613197565b9650602088013561350c816131aa565b9550604088013594506060880135613523816131aa565b935060808801356135338161331f565b925060a088013567ffffffffffffffff81111561354e575f80fd5b61355a8a828b016131c1565b989b979a50959850939692959293505050565b634e487b7160e01b5f52604160045260245ffd5b604051601f8201601f1916810167ffffffffffffffff811182821017156135aa576135aa61356d565b604052919050565b5f67ffffffffffffffff8211156135cb576135cb61356d565b50601f01601f191660200190565b5f6135eb6135e6846135b2565b613581565b90508281528383830111156135fe575f80fd5b828260208301375f602084830101529392505050565b5f82601f830112613623575f80fd5b61317f838335602085016135d9565b5f805f805f60a08688031215613646575f80fd5b61364f86613197565b9450602086013561365f816131aa565b9350604086013567ffffffffffffffff8082111561367b575f80fd5b61368789838a01613614565b9450606088013591508082111561369c575f80fd5b506136a988828901613614565b92505060808601356136ba816133bc565b809150509295509295909350565b5f805f805f8060a087890312156136dd575f80fd5b6136e687613197565b955060208701356136f6816131aa565b945060408701359350606087013561370d8161331f565b9250608087013567ffffffffffffffff811115613728575f80fd5b61373489828a016131c1565b979a9699509497509295939492505050565b5f8060408385031215613757575f80fd5b61376083613197565b915061376e60208401613197565b90509250929050565b5f805f805f8060c0878903121561378c575f80fd5b61379587613197565b955060208701356137a5816131aa565b94506137b360408801613197565b935060608701356137c3816131aa565b925060808701356137d3816131aa565b915060a087013567ffffffffffffffff8111156137ee575f80fd5b8701601f810189136137fe575f80fd5b61380d898235602084016135d9565b9150509295509295509295565b5f805f80610460858703121561382e575f80fd5b8435935061383f8660208701613186565b925061384e6104208601613197565b939692955092936104400135925050565b600181811c9082168061387357607f821691505b60208210810361389157634e487b7160e01b5f52602260045260245ffd5b50919050565b634e487b7160e01b5f52603260045260245ffd5b634e487b7160e01b5f52601160045260245ffd5b5f600182016138d0576138d06138ab565b5060010190565b606081525f6138e96060830186613142565b82810360208401526138fb8186613142565b91505060ff83166040830152949350505050565b5f8351613920818460208801613120565b835190830190613934818360208801613120565b01949350505050565b80820281158282048414176108a5576108a56138ab565b808201808211156108a5576108a56138ab565b818382375f9101908152919050565b5f8251613987818460208701613120565b9190910192915050565b81835281816020850137505f828201602090810191909152601f909101601f19169091010190565b63ffffffff861681525f6001600160a01b03808716602084015280861660408401525060806060830152613078608083018486613991565b5f60208284031215613a01575f80fd5b5051919050565b818103818111156108a5576108a56138ab565b5f61010060ff8b16835263ffffffff808b1660208501526001600160a01b03808b166040860152818a1660608601528089166080860152508660a08501528160c0850152613a6b82850187613142565b925080851660e085015250509998505050505050505050565b6001600160a01b038516815263ffffffff84166020820152606060408201525f613ab2606083018486613991565b9695505050505050565b601f8211156125c0575f81815260208120601f850160051c81016020861015613ae25750805b601f850160051c820191505b81811015610e5457828155600101613aee565b815167ffffffffffffffff811115613b1b57613b1b61356d565b613b2f81613b29845461385f565b84613abc565b602080601f831160018114613b62575f8415613b4b5750858301515b5f19600386901b1c1916600185901b178555610e54565b5f85815260208120601f198616915b82811015613b9057888601518255948401946001909101908401613b71565b5085821015613bad57878501515f19600388901b60f8161c191681555b5050505050600190811b01905550565b5f61010060ff8c16835263ffffffff808c1660208501526001600160a01b03808c166040860152818b166060860152808a166080860152508760a08501528160c0850152613c0e8285018789613991565b925080851660e085015250509a9950505050505050505050565b5f60208284031215613c38575f80fd5b815161317f816133bc565b63ffffffff818116838216019080821115612651576126516138ab565b5f8085851115613c6e575f80fd5b83861115613c7a575f80fd5b5050820193919092039150565b6001600160e01b03198135818116916004851015613caf5780818660040360031b1b83161692505b505092915050565b5f805f805f805f60e0888a031215613ccd575f80fd5b8735613cd8816131aa565b96506020880135613ce8816131aa565b955060408801359450606088013593506080880135613427816133bc565b5f805f805f805f80610100898b031215613d1e575f80fd5b8835613d29816131aa565b97506020890135613d39816131aa565b965060408901359550606089013594506080890135613d578161331f565b935060a0890135613d67816133bc565b979a969950949793969295929450505060c08201359160e0013590565b600181815b80851115613dbe57815f1904821115613da457613da46138ab565b80851615613db157918102915b93841c9390800290613d89565b509250929050565b5f82613dd4575060016108a5565b81613de057505f6108a5565b8160018114613df65760028114613e0057613e1c565b60019150506108a5565b60ff841115613e1157613e116138ab565b50506001821b6108a5565b5060208310610133831016604e8410600b8410161715613e3f575081810a6108a5565b613e498383613d84565b805f1904821115613e5c57613e5c6138ab565b029392505050565b5f61317f8383613dc6565b634e487b7160e01b5f52600160045260245ffd5b5f60208284031215613e93575f80fd5b815167ffffffffffffffff811115613ea9575f80fd5b8201601f81018413613eb9575f80fd5b8051613ec76135e6826135b2565b818152856020838501011115613edb575f80fd5b613eec826020830160208601613120565b95945050505050565b5f60208284031215613f05575f80fd5b815161317f8161331f56fe6101006040523480156200001257600080fd5b5060405162001b6638038062001b6683398101604081905262000035916200028d565b82826003620000458382620003a1565b506004620000548282620003a1565b50503360c0525060ff811660e052466080819052620000739062000080565b60a052506200046d915050565b60007f8b73c3c69bb8fe3d512ecc4cf759cc79239f7b179b0ffacaa9a75d522b39400f620000ad6200012e565b805160209182012060408051808201825260018152603160f81b90840152805192830193909352918101919091527fc89efdaa54c0f20c7adf612882df0950f5a951637e0307cdcb4c672f298b8bc66060820152608081018390523060a082015260c001604051602081830303815290604052805190602001209050919050565b6060600380546200013f9062000312565b80601f01602080910402602001604051908101604052809291908181526020018280546200016d9062000312565b8015620001be5780601f106200019257610100808354040283529160200191620001be565b820191906000526020600020905b815481529060010190602001808311620001a057829003601f168201915b5050505050905090565b634e487b7160e01b600052604160045260246000fd5b600082601f830112620001f057600080fd5b81516001600160401b03808211156200020d576200020d620001c8565b604051601f8301601f19908116603f01168101908282118183101715620002385762000238620001c8565b816040528381526020925086838588010111156200025557600080fd5b600091505b838210156200027957858201830151818301840152908201906200025a565b600093810190920192909252949350505050565b600080600060608486031215620002a357600080fd5b83516001600160401b0380821115620002bb57600080fd5b620002c987838801620001de565b94506020860151915080821115620002e057600080fd5b50620002ef86828701620001de565b925050604084015160ff811681146200030757600080fd5b809150509250925092565b600181811c908216806200032757607f821691505b6020821081036200034857634e487b7160e01b600052602260045260246000fd5b50919050565b601f8211156200039c57600081815260208120601f850160051c81016020861015620003775750805b601f850160051c820191505b81811015620003985782815560010162000383565b5050505b505050565b81516001600160401b03811115620003bd57620003bd620001c8565b620003d581620003ce845462000312565b846200034e565b602080601f8311600181146200040d5760008415620003f45750858301515b600019600386901b1c1916600185901b17855562000398565b600085815260208120601f198616915b828110156200043e578886015182559484019460019091019084016200041d565b50858210156200045d5787850151600019600388901b60f8161c191681555b5050505050600190811b01905550565b60805160a05160c05160e0516116aa620004bc6000396000610237015260008181610307015281816105c001526106a70152600061053a015260008181610379015261050401526116aa6000f3fe608060405234801561001057600080fd5b50600436106101775760003560e01c806370a08231116100d8578063a457c2d71161008c578063d505accf11610066578063d505accf1461039b578063dd62ed3e146103ae578063ffa1ad74146103f457600080fd5b8063a457c2d71461034e578063a9059cbb14610361578063cd0d00961461037457600080fd5b806395d89b41116100bd57806395d89b41146102e75780639dc29fac146102ef578063a3c573eb1461030257600080fd5b806370a08231146102915780637ecebe00146102c757600080fd5b806330adf81f1161012f5780633644e515116101145780633644e51514610261578063395093511461026957806340c10f191461027c57600080fd5b806330adf81f14610209578063313ce5671461023057600080fd5b806318160ddd1161016057806318160ddd146101bd57806320606b70146101cf57806323b872dd146101f657600080fd5b806306fdde031461017c578063095ea7b31461019a575b600080fd5b610184610430565b60405161019191906113e4565b60405180910390f35b6101ad6101a8366004611479565b6104c2565b6040519015158152602001610191565b6002545b604051908152602001610191565b6101c17f8b73c3c69bb8fe3d512ecc4cf759cc79239f7b179b0ffacaa9a75d522b39400f81565b6101ad6102043660046114a3565b6104dc565b6101c17f6e71edae12b1b97f4d1f60370fef10105fa2faae0126114a169c64845d6126c981565b60405160ff7f0000000000000000000000000000000000000000000000000000000000000000168152602001610191565b6101c1610500565b6101ad610277366004611479565b61055c565b61028f61028a366004611479565b6105a8565b005b6101c161029f3660046114df565b73ffffffffffffffffffffffffffffffffffffffff1660009081526020819052604090205490565b6101c16102d53660046114df565b60056020526000908152604090205481565b610184610680565b61028f6102fd366004611479565b61068f565b6103297f000000000000000000000000000000000000000000000000000000000000000081565b60405173ffffffffffffffffffffffffffffffffffffffff9091168152602001610191565b6101ad61035c366004611479565b61075e565b6101ad61036f366004611479565b61082f565b6101c17f000000000000000000000000000000000000000000000000000000000000000081565b61028f6103a9366004611501565b61083d565b6101c16103bc366004611574565b73ffffffffffffffffffffffffffffffffffffffff918216600090815260016020908152604080832093909416825291909152205490565b6101846040518060400160405280600181526020017f310000000000000000000000000000000000000000000000000000000000000081525081565b60606003805461043f906115a7565b80601f016020809104026020016040519081016040528092919081815260200182805461046b906115a7565b80156104b85780601f1061048d576101008083540402835291602001916104b8565b820191906000526020600020905b81548152906001019060200180831161049b57829003601f168201915b5050505050905090565b6000336104d0818585610b73565b60019150505b92915050565b6000336104ea858285610d27565b6104f5858585610dfe565b506001949350505050565b60007f00000000000000000000000000000000000000000000000000000000000000004614610537576105324661106d565b905090565b507f000000000000000000000000000000000000000000000000000000000000000090565b33600081815260016020908152604080832073ffffffffffffffffffffffffffffffffffffffff871684529091528120549091906104d090829086906105a3908790611629565b610b73565b3373ffffffffffffffffffffffffffffffffffffffff7f00000000000000000000000000000000000000000000000000000000000000001614610672576040517f08c379a000000000000000000000000000000000000000000000000000000000815260206004820152603060248201527f546f6b656e577261707065643a3a6f6e6c794272696467653a204e6f7420506f60448201527f6c79676f6e5a6b45564d4272696467650000000000000000000000000000000060648201526084015b60405180910390fd5b61067c8282611135565b5050565b60606004805461043f906115a7565b3373ffffffffffffffffffffffffffffffffffffffff7f00000000000000000000000000000000000000000000000000000000000000001614610754576040517f08c379a000000000000000000000000000000000000000000000000000000000815260206004820152603060248201527f546f6b656e577261707065643a3a6f6e6c794272696467653a204e6f7420506f60448201527f6c79676f6e5a6b45564d427269646765000000000000000000000000000000006064820152608401610669565b61067c8282611228565b33600081815260016020908152604080832073ffffffffffffffffffffffffffffffffffffffff8716845290915281205490919083811015610822576040517f08c379a000000000000000000000000000000000000000000000000000000000815260206004820152602560248201527f45524332303a2064656372656173656420616c6c6f77616e63652062656c6f7760448201527f207a65726f0000000000000000000000000000000000000000000000000000006064820152608401610669565b6104f58286868403610b73565b6000336104d0818585610dfe565b834211156108cc576040517f08c379a0000000000000000000000000000000000000000000000000000000008152602060048201526024808201527f546f6b656e577261707065643a3a7065726d69743a204578706972656420706560448201527f726d6974000000000000000000000000000000000000000000000000000000006064820152608401610669565b73ffffffffffffffffffffffffffffffffffffffff8716600090815260056020526040812080547f6e71edae12b1b97f4d1f60370fef10105fa2faae0126114a169c64845d6126c9918a918a918a9190866109268361163c565b9091555060408051602081019690965273ffffffffffffffffffffffffffffffffffffffff94851690860152929091166060840152608083015260a082015260c0810186905260e0016040516020818303038152906040528051906020012090506000610991610500565b6040517f19010000000000000000000000000000000000000000000000000000000000006020820152602281019190915260428101839052606201604080517fffffffffffffffffffffffffffffffffffffffffffffffffffffffffffffffe08184030181528282528051602091820120600080855291840180845281905260ff89169284019290925260608301879052608083018690529092509060019060a0016020604051602081039080840390855afa158015610a55573d6000803e3d6000fd5b50506040517fffffffffffffffffffffffffffffffffffffffffffffffffffffffffffffffe0015191505073ffffffffffffffffffffffffffffffffffffffff811615801590610ad057508973ffffffffffffffffffffffffffffffffffffffff168173ffffffffffffffffffffffffffffffffffffffff16145b610b5c576040517f08c379a000000000000000000000000000000000000000000000000000000000815260206004820152602760248201527f546f6b656e577261707065643a3a7065726d69743a20496e76616c696420736960448201527f676e6174757265000000000000000000000000000000000000000000000000006064820152608401610669565b610b678a8a8a610b73565b50505050505050505050565b73ffffffffffffffffffffffffffffffffffffffff8316610c15576040517f08c379a0000000000000000000000000000000000000000000000000000000008152602060048201526024808201527f45524332303a20617070726f76652066726f6d20746865207a65726f2061646460448201527f72657373000000000000000000000000000000000000000000000000000000006064820152608401610669565b73ffffffffffffffffffffffffffffffffffffffff8216610cb8576040517f08c379a000000000000000000000000000000000000000000000000000000000815260206004820152602260248201527f45524332303a20617070726f766520746f20746865207a65726f20616464726560448201527f73730000000000000000000000000000000000000000000000000000000000006064820152608401610669565b73ffffffffffffffffffffffffffffffffffffffff83811660008181526001602090815260408083209487168084529482529182902085905590518481527f8c5be1e5ebec7d5bd14f71427d1e84f3dd0314c0f7b2291e5b200ac8c7c3b92591015b60405180910390a3505050565b73ffffffffffffffffffffffffffffffffffffffff8381166000908152600160209081526040808320938616835292905220547fffffffffffffffffffffffffffffffffffffffffffffffffffffffffffffffff8114610df85781811015610deb576040517f08c379a000000000000000000000000000000000000000000000000000000000815260206004820152601d60248201527f45524332303a20696e73756666696369656e7420616c6c6f77616e63650000006044820152606401610669565b610df88484848403610b73565b50505050565b73ffffffffffffffffffffffffffffffffffffffff8316610ea1576040517f08c379a000000000000000000000000000000000000000000000000000000000815260206004820152602560248201527f45524332303a207472616e736665722066726f6d20746865207a65726f20616460448201527f64726573730000000000000000000000000000000000000000000000000000006064820152608401610669565b73ffffffffffffffffffffffffffffffffffffffff8216610f44576040517f08c379a000000000000000000000000000000000000000000000000000000000815260206004820152602360248201527f45524332303a207472616e7366657220746f20746865207a65726f206164647260448201527f65737300000000000000000000000000000000000000000000000000000000006064820152608401610669565b73ffffffffffffffffffffffffffffffffffffffff831660009081526020819052604090205481811015610ffa576040517f08c379a000000000000000000000000000000000000000000000000000000000815260206004820152602660248201527f45524332303a207472616e7366657220616d6f756e742065786365656473206260448201527f616c616e636500000000000000000000000000000000000000000000000000006064820152608401610669565b73ffffffffffffffffffffffffffffffffffffffff848116600081815260208181526040808320878703905593871680835291849020805487019055925185815290927fddf252ad1be2c89b69c2b068fc378daa952ba7f163c4a11628f55a4df523b3ef910160405180910390a3610df8565b60007f8b73c3c69bb8fe3d512ecc4cf759cc79239f7b179b0ffacaa9a75d522b39400f611098610430565b8051602091820120604080518082018252600181527f310000000000000000000000000000000000000000000000000000000000000090840152805192830193909352918101919091527fc89efdaa54c0f20c7adf612882df0950f5a951637e0307cdcb4c672f298b8bc66060820152608081018390523060a082015260c001604051602081830303815290604052805190602001209050919050565b73ffffffffffffffffffffffffffffffffffffffff82166111b2576040517f08c379a000000000000000000000000000000000000000000000000000000000815260206004820152601f60248201527f45524332303a206d696e7420746f20746865207a65726f2061646472657373006044820152606401610669565b80600260008282546111c49190611629565b909155505073ffffffffffffffffffffffffffffffffffffffff8216600081815260208181526040808320805486019055518481527fddf252ad1be2c89b69c2b068fc378daa952ba7f163c4a11628f55a4df523b3ef910160405180910390a35050565b73ffffffffffffffffffffffffffffffffffffffff82166112cb576040517f08c379a000000000000000000000000000000000000000000000000000000000815260206004820152602160248201527f45524332303a206275726e2066726f6d20746865207a65726f2061646472657360448201527f73000000000000000000000000000000000000000000000000000000000000006064820152608401610669565b73ffffffffffffffffffffffffffffffffffffffff821660009081526020819052604090205481811015611381576040517f08c379a000000000000000000000000000000000000000000000000000000000815260206004820152602260248201527f45524332303a206275726e20616d6f756e7420657863656564732062616c616e60448201527f63650000000000000000000000000000000000000000000000000000000000006064820152608401610669565b73ffffffffffffffffffffffffffffffffffffffff83166000818152602081815260408083208686039055600280548790039055518581529192917fddf252ad1be2c89b69c2b068fc378daa952ba7f163c4a11628f55a4df523b3ef9101610d1a565b600060208083528351808285015260005b81811015611411578581018301518582016040015282016113f5565b5060006040828601015260407fffffffffffffffffffffffffffffffffffffffffffffffffffffffffffffffe0601f8301168501019250505092915050565b803573ffffffffffffffffffffffffffffffffffffffff8116811461147457600080fd5b919050565b6000806040838503121561148c57600080fd5b61149583611450565b946020939093013593505050565b6000806000606084860312156114b857600080fd5b6114c184611450565b92506114cf60208501611450565b9150604084013590509250925092565b6000602082840312156114f157600080fd5b6114fa82611450565b9392505050565b600080600080600080600060e0888a03121561151c57600080fd5b61152588611450565b965061153360208901611450565b95506040880135945060608801359350608088013560ff8116811461155757600080fd5b9699959850939692959460a0840135945060c09093013592915050565b6000806040838503121561158757600080fd5b61159083611450565b915061159e60208401611450565b90509250929050565b600181811c908216806115bb57607f821691505b6020821081036115f4577f4e487b7100000000000000000000000000000000000000000000000000000000600052602260045260246000fd5b50919050565b7f4e487b7100000000000000000000000000000000000000000000000000000000600052601160045260246000fd5b808201808211156104d6576104d66115fa565b60007fffffffffffffffffffffffffffffffffffffffffffffffffffffffffffffffff820361166d5761166d6115fa565b506001019056fea26469706673582212208d88fee561cff7120d381c345cfc534cef8229a272dc5809d4bbb685ad67141164736f6c63430008110033a26469706673582212202f24815dc0cb601d7a79b2d75822740f808fe7ed17f5e67e8ac4daaa65aadfa164736f6c63430008140033",
  "linkReferences": {},
  "deployedLinkReferences": {}
}