{
  "_format": "hh-sol-artifact-1",
  "contractName": "PolygonZkEVMBridgeV2",
  "sourceName": "contracts/v2/PolygonZkEVMBridgeV2.sol",
  "abi": [
    {
      "inputs": [],
      "stateMutability": "nonpayable",
      "type": "constructor"
    },
    {
      "inputs": [],
      "name": "AlreadyClaimed",
      "type": "error"
    },
    {
      "inputs": [],
      "name": "AmountDoesNotMatchMsgValue",
      "type": "error"
    },
    {
      "inputs": [],
      "name": "DestinationNetworkInvalid",
      "type": "error"
    },
    {
      "inputs": [],
      "name": "EtherTransferFailed",
      "type": "error"
    },
    {
      "inputs": [],
      "name": "FailedTokenWrappedDeployment",
      "type": "error"
    },
    {
      "inputs": [],
      "name": "GasTokenNetworkMustBeZeroOnEther",
      "type": "error"
    },
    {
      "inputs": [],
      "name": "GlobalExitRootInvalid",
      "type": "error"
    },
    {
      "inputs": [],
      "name": "InvalidSmtProof",
      "type": "error"
    },
    {
      "inputs": [],
      "name": "MerkleTreeFull",
      "type": "error"
    },
    {
      "inputs": [],
      "name": "MessageFailed",
      "type": "error"
    },
    {
      "inputs": [],
      "name": "MsgValueNotZero",
      "type": "error"
    },
    {
      "inputs": [],
      "name": "NativeTokenIsEther",
      "type": "error"
    },
    {
      "inputs": [],
      "name": "NoValueInMessagesOnGasTokenNetworks",
      "type": "error"
    },
    {
      "inputs": [],
      "name": "NotValidAmount",
      "type": "error"
    },
    {
      "inputs": [],
      "name": "NotValidOwner",
      "type": "error"
    },
    {
      "inputs": [],
      "name": "NotValidSignature",
      "type": "error"
    },
    {
      "inputs": [],
      "name": "NotValidSpender",
      "type": "error"
    },
    {
      "inputs": [],
      "name": "OnlyEmergencyState",
      "type": "error"
    },
    {
      "inputs": [],
      "name": "OnlyNotEmergencyState",
      "type": "error"
    },
    {
      "inputs": [],
      "name": "OnlyRollupManager",
      "type": "error"
    },
    {
      "anonymous": false,
      "inputs": [
        {
          "indexed": false,
          "internalType": "uint8",
          "name": "leafType",
          "type": "uint8"
        },
        {
          "indexed": false,
          "internalType": "uint32",
          "name": "originNetwork",
          "type": "uint32"
        },
        {
          "indexed": false,
          "internalType": "address",
          "name": "originAddress",
          "type": "address"
        },
        {
          "indexed": false,
          "internalType": "uint32",
          "name": "destinationNetwork",
          "type": "uint32"
        },
        {
          "indexed": false,
          "internalType": "address",
          "name": "destinationAddress",
          "type": "address"
        },
        {
          "indexed": false,
          "internalType": "uint256",
          "name": "amount",
          "type": "uint256"
        },
        {
          "indexed": false,
          "internalType": "bytes",
          "name": "metadata",
          "type": "bytes"
        },
        {
          "indexed": false,
          "internalType": "uint32",
          "name": "depositCount",
          "type": "uint32"
        }
      ],
      "name": "BridgeEvent",
      "type": "event"
    },
    {
      "anonymous": false,
      "inputs": [
        {
          "indexed": false,
          "internalType": "uint256",
          "name": "globalIndex",
          "type": "uint256"
        },
        {
          "indexed": false,
          "internalType": "uint32",
          "name": "originNetwork",
          "type": "uint32"
        },
        {
          "indexed": false,
          "internalType": "address",
          "name": "originAddress",
          "type": "address"
        },
        {
          "indexed": false,
          "internalType": "address",
          "name": "destinationAddress",
          "type": "address"
        },
        {
          "indexed": false,
          "internalType": "uint256",
          "name": "amount",
          "type": "uint256"
        }
      ],
      "name": "ClaimEvent",
      "type": "event"
    },
    {
      "anonymous": false,
      "inputs": [],
      "name": "EmergencyStateActivated",
      "type": "event"
    },
    {
      "anonymous": false,
      "inputs": [],
      "name": "EmergencyStateDeactivated",
      "type": "event"
    },
    {
      "anonymous": false,
      "inputs": [
        {
          "indexed": false,
          "internalType": "uint8",
          "name": "version",
          "type": "uint8"
        }
      ],
      "name": "Initialized",
      "type": "event"
    },
    {
      "anonymous": false,
      "inputs": [
        {
          "indexed": false,
          "internalType": "uint32",
          "name": "originNetwork",
          "type": "uint32"
        },
        {
          "indexed": false,
          "internalType": "address",
          "name": "originTokenAddress",
          "type": "address"
        },
        {
          "indexed": false,
          "internalType": "address",
          "name": "wrappedTokenAddress",
          "type": "address"
        },
        {
          "indexed": false,
          "internalType": "bytes",
          "name": "metadata",
          "type": "bytes"
        }
      ],
      "name": "NewWrappedToken",
      "type": "event"
    },
    {
      "inputs": [],
      "name": "BASE_INIT_BYTECODE_WRAPPED_TOKEN",
      "outputs": [
        {
          "internalType": "bytes",
          "name": "",
          "type": "bytes"
        }
      ],
      "stateMutability": "view",
      "type": "function"
    },
    {
      "inputs": [],
      "name": "BRIDGE_VERSION",
      "outputs": [
        {
          "internalType": "string",
          "name": "",
          "type": "string"
        }
      ],
      "stateMutability": "view",
      "type": "function"
    },
    {
      "inputs": [],
      "name": "WETHToken",
      "outputs": [
        {
          "internalType": "contract TokenWrapped",
          "name": "",
          "type": "address"
        }
      ],
      "stateMutability": "view",
      "type": "function"
    },
    {
      "inputs": [],
      "name": "activateEmergencyState",
      "outputs": [],
      "stateMutability": "nonpayable",
      "type": "function"
    },
    {
      "inputs": [
        {
          "internalType": "uint32",
          "name": "destinationNetwork",
          "type": "uint32"
        },
        {
          "internalType": "address",
          "name": "destinationAddress",
          "type": "address"
        },
        {
          "internalType": "uint256",
          "name": "amount",
          "type": "uint256"
        },
        {
          "internalType": "address",
          "name": "token",
          "type": "address"
        },
        {
          "internalType": "bool",
          "name": "forceUpdateGlobalExitRoot",
          "type": "bool"
        },
        {
          "internalType": "bytes",
          "name": "permitData",
          "type": "bytes"
        }
      ],
      "name": "bridgeAsset",
      "outputs": [],
      "stateMutability": "payable",
      "type": "function"
    },
    {
      "inputs": [
        {
          "internalType": "uint32",
          "name": "destinationNetwork",
          "type": "uint32"
        },
        {
          "internalType": "address",
          "name": "destinationAddress",
          "type": "address"
        },
        {
          "internalType": "bool",
          "name": "forceUpdateGlobalExitRoot",
          "type": "bool"
        },
        {
          "internalType": "bytes",
          "name": "metadata",
          "type": "bytes"
        }
      ],
      "name": "bridgeMessage",
      "outputs": [],
      "stateMutability": "payable",
      "type": "function"
    },
    {
      "inputs": [
        {
          "internalType": "uint32",
          "name": "destinationNetwork",
          "type": "uint32"
        },
        {
          "internalType": "address",
          "name": "destinationAddress",
          "type": "address"
        },
        {
          "internalType": "uint256",
          "name": "amountWETH",
          "type": "uint256"
        },
        {
          "internalType": "bool",
          "name": "forceUpdateGlobalExitRoot",
          "type": "bool"
        },
        {
          "internalType": "bytes",
          "name": "metadata",
          "type": "bytes"
        }
      ],
      "name": "bridgeMessageWETH",
      "outputs": [],
      "stateMutability": "nonpayable",
      "type": "function"
    },
    {
      "inputs": [
        {
          "internalType": "bytes32",
          "name": "leafHash",
          "type": "bytes32"
        },
        {
          "internalType": "bytes32[32]",
          "name": "smtProof",
          "type": "bytes32[32]"
        },
        {
          "internalType": "uint32",
          "name": "index",
          "type": "uint32"
        }
      ],
      "name": "calculateRoot",
      "outputs": [
        {
          "internalType": "bytes32",
          "name": "",
          "type": "bytes32"
        }
      ],
      "stateMutability": "pure",
      "type": "function"
    },
    {
      "inputs": [
        {
          "internalType": "uint32",
          "name": "originNetwork",
          "type": "uint32"
        },
        {
          "internalType": "address",
          "name": "originTokenAddress",
          "type": "address"
        },
        {
          "internalType": "address",
          "name": "token",
          "type": "address"
        }
      ],
      "name": "calculateTokenWrapperAddress",
      "outputs": [
        {
          "internalType": "address",
          "name": "",
          "type": "address"
        }
      ],
      "stateMutability": "view",
      "type": "function"
    },
    {
      "inputs": [
        {
          "internalType": "bytes32[32]",
          "name": "smtProofLocalExitRoot",
          "type": "bytes32[32]"
        },
        {
          "internalType": "bytes32[32]",
          "name": "smtProofRollupExitRoot",
          "type": "bytes32[32]"
        },
        {
          "internalType": "uint256",
          "name": "globalIndex",
          "type": "uint256"
        },
        {
          "internalType": "bytes32",
          "name": "mainnetExitRoot",
          "type": "bytes32"
        },
        {
          "internalType": "bytes32",
          "name": "rollupExitRoot",
          "type": "bytes32"
        },
        {
          "internalType": "uint32",
          "name": "originNetwork",
          "type": "uint32"
        },
        {
          "internalType": "address",
          "name": "originTokenAddress",
          "type": "address"
        },
        {
          "internalType": "uint32",
          "name": "destinationNetwork",
          "type": "uint32"
        },
        {
          "internalType": "address",
          "name": "destinationAddress",
          "type": "address"
        },
        {
          "internalType": "uint256",
          "name": "amount",
          "type": "uint256"
        },
        {
          "internalType": "bytes",
          "name": "metadata",
          "type": "bytes"
        }
      ],
      "name": "claimAsset",
      "outputs": [],
      "stateMutability": "nonpayable",
      "type": "function"
    },
    {
      "inputs": [
        {
          "internalType": "bytes32[32]",
          "name": "smtProofLocalExitRoot",
          "type": "bytes32[32]"
        },
        {
          "internalType": "bytes32[32]",
          "name": "smtProofRollupExitRoot",
          "type": "bytes32[32]"
        },
        {
          "internalType": "uint256",
          "name": "globalIndex",
          "type": "uint256"
        },
        {
          "internalType": "bytes32",
          "name": "mainnetExitRoot",
          "type": "bytes32"
        },
        {
          "internalType": "bytes32",
          "name": "rollupExitRoot",
          "type": "bytes32"
        },
        {
          "internalType": "uint32",
          "name": "originNetwork",
          "type": "uint32"
        },
        {
          "internalType": "address",
          "name": "originAddress",
          "type": "address"
        },
        {
          "internalType": "uint32",
          "name": "destinationNetwork",
          "type": "uint32"
        },
        {
          "internalType": "address",
          "name": "destinationAddress",
          "type": "address"
        },
        {
          "internalType": "uint256",
          "name": "amount",
          "type": "uint256"
        },
        {
          "internalType": "bytes",
          "name": "metadata",
          "type": "bytes"
        }
      ],
      "name": "claimMessage",
      "outputs": [],
      "stateMutability": "nonpayable",
      "type": "function"
    },
    {
      "inputs": [
        {
          "internalType": "uint256",
          "name": "",
          "type": "uint256"
        }
      ],
      "name": "claimedBitMap",
      "outputs": [
        {
          "internalType": "uint256",
          "name": "",
          "type": "uint256"
        }
      ],
      "stateMutability": "view",
      "type": "function"
    },
    {
      "inputs": [],
      "name": "deactivateEmergencyState",
      "outputs": [],
      "stateMutability": "nonpayable",
      "type": "function"
    },
    {
      "inputs": [],
      "name": "depositCount",
      "outputs": [
        {
          "internalType": "uint256",
          "name": "",
          "type": "uint256"
        }
      ],
      "stateMutability": "view",
      "type": "function"
    },
    {
      "inputs": [],
      "name": "depositTokenAddress",
      "outputs": [
        {
          "internalType": "address",
          "name": "",
          "type": "address"
        }
      ],
      "stateMutability": "view",
      "type": "function"
    },
    {
      "inputs": [],
      "name": "depositTokenIdentifier",
      "outputs": [
        {
          "internalType": "string",
          "name": "",
          "type": "string"
        }
      ],
      "stateMutability": "view",
      "type": "function"
    },
    {
      "inputs": [],
      "name": "depositTokenNetwork",
      "outputs": [
        {
          "internalType": "uint32",
          "name": "",
          "type": "uint32"
        }
      ],
      "stateMutability": "view",
      "type": "function"
    },
    {
      "inputs": [],
      "name": "gasTokenAddress",
      "outputs": [
        {
          "internalType": "address",
          "name": "",
          "type": "address"
        }
      ],
      "stateMutability": "view",
      "type": "function"
    },
    {
      "inputs": [],
      "name": "gasTokenMetadata",
      "outputs": [
        {
          "internalType": "bytes",
          "name": "",
          "type": "bytes"
        }
      ],
      "stateMutability": "view",
      "type": "function"
    },
    {
      "inputs": [],
      "name": "gasTokenNetwork",
      "outputs": [
        {
          "internalType": "uint32",
          "name": "",
          "type": "uint32"
        }
      ],
      "stateMutability": "view",
      "type": "function"
    },
    {
      "inputs": [
        {
          "internalType": "uint8",
          "name": "leafType",
          "type": "uint8"
        },
        {
          "internalType": "uint32",
          "name": "originNetwork",
          "type": "uint32"
        },
        {
          "internalType": "address",
          "name": "originAddress",
          "type": "address"
        },
        {
          "internalType": "uint32",
          "name": "destinationNetwork",
          "type": "uint32"
        },
        {
          "internalType": "address",
          "name": "destinationAddress",
          "type": "address"
        },
        {
          "internalType": "uint256",
          "name": "amount",
          "type": "uint256"
        },
        {
          "internalType": "bytes32",
          "name": "metadataHash",
          "type": "bytes32"
        }
      ],
      "name": "getLeafValue",
      "outputs": [
        {
          "internalType": "bytes32",
          "name": "",
          "type": "bytes32"
        }
      ],
      "stateMutability": "pure",
      "type": "function"
    },
    {
      "inputs": [],
      "name": "getRoot",
      "outputs": [
        {
          "internalType": "bytes32",
          "name": "",
          "type": "bytes32"
        }
      ],
      "stateMutability": "view",
      "type": "function"
    },
    {
      "inputs": [
        {
          "internalType": "address",
          "name": "token",
          "type": "address"
        }
      ],
      "name": "getTokenMetadata",
      "outputs": [
        {
          "internalType": "bytes",
          "name": "",
          "type": "bytes"
        }
      ],
      "stateMutability": "view",
      "type": "function"
    },
    {
      "inputs": [
        {
          "internalType": "uint32",
          "name": "originNetwork",
          "type": "uint32"
        },
        {
          "internalType": "address",
          "name": "originTokenAddress",
          "type": "address"
        }
      ],
      "name": "getTokenWrappedAddress",
      "outputs": [
        {
          "internalType": "address",
          "name": "",
          "type": "address"
        }
      ],
      "stateMutability": "view",
      "type": "function"
    },
    {
      "inputs": [],
      "name": "globalExitRootManager",
      "outputs": [
        {
          "internalType": "contract IBasePolygonZkEVMGlobalExitRoot",
          "name": "",
          "type": "address"
        }
      ],
      "stateMutability": "view",
      "type": "function"
    },
    {
      "inputs": [
        {
          "internalType": "uint32",
          "name": "_networkID",
          "type": "uint32"
        },
        {
          "internalType": "address",
          "name": "_gasTokenAddress",
          "type": "address"
        },
        {
          "internalType": "uint32",
          "name": "_gasTokenNetwork",
          "type": "uint32"
        },
        {
          "internalType": "contract IBasePolygonZkEVMGlobalExitRoot",
          "name": "_globalExitRootManager",
          "type": "address"
        },
        {
          "internalType": "address",
          "name": "_polygonRollupManager",
          "type": "address"
        },
        {
          "internalType": "bytes",
          "name": "_gasTokenMetadata",
          "type": "bytes"
        }
      ],
      "name": "initialize",
      "outputs": [],
      "stateMutability": "nonpayable",
      "type": "function"
    },
    {
      "inputs": [
        {
          "internalType": "uint32",
          "name": "leafIndex",
          "type": "uint32"
        },
        {
          "internalType": "uint32",
          "name": "sourceBridgeNetwork",
          "type": "uint32"
        }
      ],
      "name": "isClaimed",
      "outputs": [
        {
          "internalType": "bool",
          "name": "",
          "type": "bool"
        }
      ],
      "stateMutability": "view",
      "type": "function"
    },
    {
      "inputs": [],
      "name": "isEmergencyState",
      "outputs": [
        {
          "internalType": "bool",
          "name": "",
          "type": "bool"
        }
      ],
      "stateMutability": "view",
      "type": "function"
    },
    {
      "inputs": [],
      "name": "lastUpdatedDepositCount",
      "outputs": [
        {
          "internalType": "uint32",
          "name": "",
          "type": "uint32"
        }
      ],
      "stateMutability": "view",
      "type": "function"
    },
    {
      "inputs": [],
      "name": "networkID",
      "outputs": [
        {
          "internalType": "uint32",
          "name": "",
          "type": "uint32"
        }
      ],
      "stateMutability": "view",
      "type": "function"
    },
    {
      "inputs": [],
      "name": "polygonBridgeAccount",
      "outputs": [
        {
          "internalType": "string",
          "name": "",
          "type": "string"
        }
      ],
      "stateMutability": "view",
      "type": "function"
    },
    {
      "inputs": [],
      "name": "polygonRollupManager",
      "outputs": [
        {
          "internalType": "address",
          "name": "",
          "type": "address"
        }
      ],
      "stateMutability": "view",
      "type": "function"
    },
    {
      "inputs": [
        {
          "internalType": "uint32",
          "name": "originNetwork",
          "type": "uint32"
        },
        {
          "internalType": "address",
          "name": "originTokenAddress",
          "type": "address"
        },
        {
          "internalType": "string",
          "name": "name",
          "type": "string"
        },
        {
          "internalType": "string",
          "name": "symbol",
          "type": "string"
        },
        {
          "internalType": "uint8",
          "name": "decimals",
          "type": "uint8"
        }
      ],
      "name": "precalculatedWrapperAddress",
      "outputs": [
        {
          "internalType": "address",
          "name": "",
          "type": "address"
        }
      ],
      "stateMutability": "view",
      "type": "function"
    },
    {
      "inputs": [
        {
          "internalType": "bytes32",
          "name": "",
          "type": "bytes32"
        }
      ],
      "name": "tokenInfoToWrappedToken",
      "outputs": [
        {
          "internalType": "address",
          "name": "",
          "type": "address"
        }
      ],
      "stateMutability": "view",
      "type": "function"
    },
    {
      "inputs": [],
      "name": "updateGlobalExitRoot",
      "outputs": [],
      "stateMutability": "nonpayable",
      "type": "function"
    },
    {
      "inputs": [
        {
          "internalType": "bytes32",
          "name": "leafHash",
          "type": "bytes32"
        },
        {
          "internalType": "bytes32[32]",
          "name": "smtProof",
          "type": "bytes32[32]"
        },
        {
          "internalType": "uint32",
          "name": "index",
          "type": "uint32"
        },
        {
          "internalType": "bytes32",
          "name": "root",
          "type": "bytes32"
        }
      ],
      "name": "verifyMerkleProof",
      "outputs": [
        {
          "internalType": "bool",
          "name": "",
          "type": "bool"
        }
      ],
      "stateMutability": "pure",
      "type": "function"
    },
    {
      "inputs": [],
      "name": "wrappedTokenBytecodeStorer",
      "outputs": [
        {
          "internalType": "contract ITokenWrappedBridgeInitCode",
          "name": "",
          "type": "address"
        }
      ],
      "stateMutability": "view",
      "type": "function"
    },
    {
      "inputs": [
        {
          "internalType": "address",
          "name": "",
          "type": "address"
        }
      ],
      "name": "wrappedTokenToTokenInfo",
      "outputs": [
        {
          "internalType": "uint32",
          "name": "originNetwork",
          "type": "uint32"
        },
        {
          "internalType": "address",
          "name": "originTokenAddress",
          "type": "address"
        }
      ],
      "stateMutability": "view",
      "type": "function"
    }
  ],
  "bytecode": "0x60a060405234801561000f575f5ffd5b5060405161001c9061010c565b604051809103905ff080158015610035573d5f5f3e3d5ffd5b506001600160a01b031660805261004a61004f565b610119565b5f54610100900460ff16156100ba5760405162461bcd60e51b815260206004820152602760248201527f496e697469616c697a61626c653a20636f6e747261637420697320696e697469604482015266616c697a696e6760c81b606482015260840160405180910390fd5b5f5460ff908116101561010a575f805460ff191660ff9081179091556040519081527f7f26b83ff96e1f2b6a682f133852f6798a09c465da95921460cefb38474024989060200160405180910390a15b565b611c6d8061485783390190565b60805161471f6101385f395f81816103e50152610b02015261471f5ff3fe608060405260043610610277575f3560e01c806383c43a551161014b578063c00f14ab116100c6578063dbc169761161007c578063f5efcd7911610062578063f5efcd7914610779578063f811bff714610798578063fb570834146107b7575f5ffd5b8063dbc169761461073a578063ee25560b1461074e575f5ffd5b8063ccaa2d11116100ac578063ccaa2d11146106e0578063cd586579146106ff578063d02103ca14610712575f5ffd5b8063c00f14ab146106a2578063cc461632146106c1575f5ffd5b8063aaa13cc21161011b578063b8b284d011610101578063b8b284d01461063f578063bab161bf1461065e578063be5831c71461067f575f5ffd5b8063aaa13cc2146105e8578063b207ad9614610607575f5ffd5b806383c43a551461058257806383f24403146105965780638ed7e3f2146105b5578063a7f6105a146105d4575f5ffd5b80633c351e10116101f557806365d6f654116101ab5780637843298b116101915780637843298b1461051b57806379e2cf971461053a57806381b1c1741461054e575f5ffd5b806365d6f654146104b0578063691ee4ce146104f8575f5ffd5b80633e197043116101db5780633e1970431461045e5780634b2f336d1461047d5780635ca1e1651461049c575f5ffd5b80633c351e10146104075780633cbc795b14610426575f5ffd5b8063240ff3781161024a5780632dfdf0b5116102305780632dfdf0b514610349578063318aee3d1461036c578063381fef6d146103d4575f5ffd5b8063240ff3781461031557806327aef4e814610328575f5ffd5b806315064c961461027b5780632072f6c5146102a957806322e95f2c146102bf57806323dc9e37146102f6575b5f5ffd5b348015610286575f5ffd5b506068546102949060ff1681565b60405190151581526020015b60405180910390f35b3480156102b4575f5ffd5b506102bd6107d6565b005b3480156102ca575f5ffd5b506102de6102d93660046135b5565b61080b565b6040516001600160a01b0390911681526020016102a0565b348015610301575f5ffd5b50606d546102de906001600160a01b031681565b6102bd61032336600461363c565b610875565b348015610333575f5ffd5b5061033c6108fe565b6040516102a091906136fe565b348015610354575f5ffd5b5061035e60535481565b6040519081526020016102a0565b348015610377575f5ffd5b506103b0610386366004613710565b606b6020525f908152604090205463ffffffff81169064010000000090046001600160a01b031682565b6040805163ffffffff90931683526001600160a01b039091166020830152016102a0565b3480156103df575f5ffd5b506102de7f000000000000000000000000000000000000000000000000000000000000000081565b348015610412575f5ffd5b50606f546102de906001600160a01b031681565b348015610431575f5ffd5b50606f5461044990600160a01b900463ffffffff1681565b60405163ffffffff90911681526020016102a0565b348015610469575f5ffd5b5061035e610478366004613739565b61098a565b348015610488575f5ffd5b506071546102de906001600160a01b031681565b3480156104a7575f5ffd5b5061035e610a33565b3480156104bb575f5ffd5b5061033c6040518060400160405280600981526020017f616c2d76302e332e30000000000000000000000000000000000000000000000081525081565b348015610503575f5ffd5b50606d5461044990600160a01b900463ffffffff1681565b348015610526575f5ffd5b506102de6105353660046137b3565b610ab2565b348015610545575f5ffd5b506102bd610add565b348015610559575f5ffd5b506102de6105683660046137f9565b606a6020525f90815260409020546001600160a01b031681565b34801561058d575f5ffd5b5061033c610afe565b3480156105a1575f5ffd5b5061035e6105b0366004613821565b610b87565b3480156105c0575f5ffd5b50606c546102de906001600160a01b031681565b3480156105df575f5ffd5b5061033c610c14565b3480156105f3575f5ffd5b506102de610602366004613922565b610c21565b348015610612575f5ffd5b5061033c6040518060400160405280600d81526020016c3232b837b9b4ba16ba37b5b2b760991b81525081565b34801561064a575f5ffd5b506102bd6106593660046139bd565b610d4c565b348015610669575f5ffd5b5060685461044990610100900463ffffffff1681565b34801561068a575f5ffd5b5060685461044990600160c81b900463ffffffff1681565b3480156106ad575f5ffd5b5061033c6106bc366004613710565b610de3565b3480156106cc575f5ffd5b506102946106db366004613a3b565b610e28565b3480156106eb575f5ffd5b506102bd6106fa366004613a6c565b610eb0565b6102bd61070d366004613b4b565b61138f565b34801561071d575f5ffd5b506068546102de906501000000000090046001600160a01b031681565b348015610745575f5ffd5b506102bd61188b565b348015610759575f5ffd5b5061035e6107683660046137f9565b60696020525f908152604090205481565b348015610784575f5ffd5b506102bd610793366004613a6c565b6118be565b3480156107a3575f5ffd5b506102bd6107b2366004613bdb565b611b37565b3480156107c2575f5ffd5b506102946107d1366004613c7e565b611ee6565b606c546001600160a01b0316331461080157604051631736745960e31b815260040160405180910390fd5b610809611eff565b565b6040805160e084901b6001600160e01b031916602080830191909152606084901b6bffffffffffffffffffffffff1916602483015282516018818403018152603890920183528151918101919091205f908152606a90915220546001600160a01b03165b92915050565b60685460ff161561089957604051630bc011ff60e21b815260040160405180910390fd5b34158015906108b257506071546001600160a01b031615155b156108e9576040517f6f625c4000000000000000000000000000000000000000000000000000000000815260040160405180910390fd5b6108f7858534868686611f5a565b5050505050565b6070805461090b90613cc3565b80601f016020809104026020016040519081016040528092919081815260200182805461093790613cc3565b80156109825780601f1061095957610100808354040283529160200191610982565b820191905f5260205f20905b81548152906001019060200180831161096557829003601f168201915b505050505081565b6040517fff0000000000000000000000000000000000000000000000000000000000000060f889901b1660208201526001600160e01b031960e088811b821660218401526bffffffffffffffffffffffff19606089811b821660258601529188901b909216603984015285901b16603d82015260518101839052607181018290525f90609101604051602081830303815290604052805190602001209050979650505050505050565b6053545f90819081805b6020811015610aa9578083901c600116600103610a8257610a7b60338260208110610a6a57610a6a613cfb565b0154855f9182526020526040902090565b9350610a92565b5f84815260208390526040902093505b5f8281526020839052604090209150600101610a3d565b50919392505050565b5f610ad38484610ac185612036565b610aca86612120565b61060287612201565b90505b9392505050565b605354606854600160c81b900463ffffffff161015610809576108096122ce565b60607f00000000000000000000000000000000000000000000000000000000000000006001600160a01b03166383c43a556040518163ffffffff1660e01b81526004015f60405180830381865afa158015610b5b573d5f5f3e3d5ffd5b505050506040513d5f823e601f3d908101601f19168201604052610b829190810190613d3d565b905090565b5f83815b6020811015610c0b57600163ffffffff8516821c81169003610bd757610bd0858260208110610bbc57610bbc613cfb565b6020020135835f9182526020526040902090565b9150610c03565b610c0082868360208110610bed57610bed613cfb565b60200201355f9182526020526040902090565b91505b600101610b8b565b50949350505050565b606e805461090b90613cc3565b6040516001600160e01b031960e087901b1660208201526bffffffffffffffffffffffff19606086901b1660248201525f9081906038016040516020818303038152906040528051906020012090505f60ff60f81b3083610c80610afe565b898989604051602001610c9593929190613d82565b60408051601f1981840301815290829052610cb39291602001613dba565b60405160208183030381529060405280519060200120604051602001610d2894939291907fff0000000000000000000000000000000000000000000000000000000000000094909416845260609290921b6bffffffffffffffffffffffff191660018401526015830152603582015260550190565b60408051808303601f19018152919052805160209091012098975050505050505050565b60685460ff1615610d7057604051630bc011ff60e21b815260040160405180910390fd5b6071546001600160a01b0316610db2576040517fdde3cda700000000000000000000000000000000000000000000000000000000815260040160405180910390fd5b6071545f90610dca906001600160a01b03168661237c565b9050610dda878783878787611f5a565b50505050505050565b6060610dee82612036565b610df783612120565b610e0084612201565b604051602001610e1293929190613d82565b6040516020818303038152906040529050919050565b6068545f908190610100900463ffffffff16158015610e4d575063ffffffff83166001145b15610e5f575063ffffffff8316610e87565b610e7464010000000063ffffffff8516613dfc565b610e849063ffffffff8616613e13565b90505b600881901c5f90815260696020526040902054600160ff9092169190911b908116149392505050565b60685460ff1615610ed457604051630bc011ff60e21b815260040160405180910390fd5b610edc6123f9565b60685463ffffffff8681166101009092041614610f0c576040516302caf51760e11b815260040160405180910390fd5b610f378c8c8c8c8c5f8d8d8d8d8d8d8d604051610f2a929190613e26565b6040518091039020612452565b6001600160a01b038616158015610f52575063ffffffff8716155b15611049576071546001600160a01b031661102d575f6001600160a01b03851684825b6040519080825280601f01601f191660200182016040528015610f9f576020820181803683370190505b50604051610fad9190613e35565b5f6040518083038185875af1925050503d805f8114610fe7576040519150601f19603f3d011682016040523d82523d5f602084013e610fec565b606091505b5050905080611027576040517f6747a28800000000000000000000000000000000000000000000000000000000815260040160405180910390fd5b5061131c565b607154611044906001600160a01b0316858561246e565b61131c565b606d546001600160a01b0387811691161480156110775750606d5463ffffffff888116600160a01b90920416145b156110d25760685463ffffffff888116610100909204161461131c576110448483838080601f0160208091040260200160405190810160405280939291908181526020018383808284375f920191909152506124e092505050565b606f546001600160a01b0387811691161480156111005750606f5463ffffffff888116600160a01b90920416145b15611117575f6001600160a01b0385168482610f75565b60685463ffffffff610100909104811690881603611143576110446001600160a01b038716858561258b565b6040516001600160e01b031960e089901b1660208201526bffffffffffffffffffffffff19606088901b1660248201525f9060380160408051601f1981840301815291815281516020928301205f818152606a9093529120549091506001600160a01b03168061130e575f6111ed8386868080601f0160208091040260200160405190810160405280939291908181526020018383808284375f9201919091525061260c92505050565b90506111fa81888861246e565b80606a5f8581526020019081526020015f205f6101000a8154816001600160a01b0302191690836001600160a01b0316021790555060405180604001604052808b63ffffffff1681526020018a6001600160a01b0316815250606b5f836001600160a01b03166001600160a01b031681526020019081526020015f205f820151815f015f6101000a81548163ffffffff021916908363ffffffff1602179055506020820151815f0160046101000a8154816001600160a01b0302191690836001600160a01b031602179055509050507f490e59a1701b938786ac72570a1efeac994a3dbe96e2e883e19e902ace6e6a398a8a838888604051611300959493929190613e78565b60405180910390a150611319565b61131981878761246e565b50505b604080518b815263ffffffff891660208201526001600160a01b0388811682840152861660608201526080810185905290517f1df3f2a973a00d6635911755c260704e95e8a5876997546798770f76396fda4d9181900360a00190a161138160018055565b505050505050505050505050565b60685460ff16156113b357604051630bc011ff60e21b815260040160405180910390fd5b6113bb6123f9565b60685463ffffffff6101009091048116908816036113ec576040516302caf51760e11b815260040160405180910390fd5b5f806060876001600160a01b0388166114e857883414611438576040517fb89240f500000000000000000000000000000000000000000000000000000000815260040160405180910390fd5b606f54607080546001600160a01b0383169650600160a01b90920463ffffffff1694509061146590613cc3565b80601f016020809104026020016040519081016040528092919081815260200182805461149190613cc3565b80156114dc5780601f106114b3576101008083540402835291602001916114dc565b820191905f5260205f20905b8154815290600101906020018083116114bf57829003601f168201915b50505050509150611813565b606d546001600160a01b039081169089160361162e57341561151d5760405163798ee6f160e01b815260040160405180910390fd5b606085156115385761153186880188613eb5565b90506115f7565b60405162461bcd60e51b815260206004820152606e60248201527f546865206f7065726174696f6e206964206f662074686520686f6c642c20726560448201527f717569726564206265666f7265206272696467696e6720746f20616e6f74686560648201527f72206e6574776f726b2c206d7573742062652070726573656e7420696e20746860848201527f65207065726d697420646174612e00000000000000000000000000000000000060a482015260c4015b60405180910390fd5b61160289828c612691565b606d546068546001600160a01b039091169650610100900463ffffffff16945092508991506118139050565b341561164d5760405163798ee6f160e01b815260040160405180910390fd5b841561165f5761165f888a88886129a8565b6071546001600160a01b03908116908916036116865761167f888a61237c565b9050611813565b6001600160a01b038089165f908152606b602090815260409182902082518084019093525463ffffffff811683526401000000009004909216918101829052901515806116d95750805163ffffffff1615155b156116fb576116e8898b61237c565b6020820151825190965094509150611806565b6040516370a0823160e01b81523060048201525f906001600160a01b038b16906370a0823190602401602060405180830381865afa15801561173f573d5f5f3e3d5ffd5b505050506040513d601f19601f820116820180604052508101906117639190613ee7565b905061177a6001600160a01b038b1633308e612d0e565b6040516370a0823160e01b81523060048201525f906001600160a01b038c16906370a0823190602401602060405180830381865afa1580156117be573d5f5f3e3d5ffd5b505050506040513d601f19601f820116820180604052508101906117e29190613ee7565b90506117ee8282613efe565b6068548c9850610100900463ffffffff169650935050505b61180f89610de3565b9250505b7f501781209a1f8899323b96b4ef08b168df93e0a90c673d1e4cce39366cb62f9b5f84868e8e8688605354604051611852989796959493929190613f11565b60405180910390a16118705f84868e8e868880519060200120612d5f565b861561187e5761187e6122ce565b50505050610dda60018055565b606c546001600160a01b031633146118b657604051631736745960e31b815260040160405180910390fd5b610809612d76565b60685460ff16156118e257604051630bc011ff60e21b815260040160405180910390fd5b60685463ffffffff8681166101009092041614611912576040516302caf51760e11b815260040160405180910390fd5b6119318c8c8c8c8c60018d8d8d8d8d8d8d604051610f2a929190613e26565b6071545f906001600160a01b03166119e457846001600160a01b031684888a86866040516024016119659493929190613f85565b60408051601f198184030181529181526020820180516001600160e01b0316630c035af960e11b1790525161199a9190613e35565b5f6040518083038185875af1925050503d805f81146119d4576040519150601f19603f3d011682016040523d82523d5f602084013e6119d9565b606091505b505080915050611a95565b6071546119fb906001600160a01b0316868661246e565b846001600160a01b031687898585604051602401611a1c9493929190613f85565b60408051601f198184030181529181526020820180516001600160e01b0316630c035af960e11b17905251611a519190613e35565b5f604051808303815f865af19150503d805f8114611a8a576040519150601f19603f3d011682016040523d82523d5f602084013e611a8f565b606091505b50909150505b80611acc576040517f37e391c300000000000000000000000000000000000000000000000000000000815260040160405180910390fd5b604080518c815263ffffffff8a1660208201526001600160a01b0389811682840152871660608201526080810186905290517f1df3f2a973a00d6635911755c260704e95e8a5876997546798770f76396fda4d9181900360a00190a150505050505050505050505050565b5f54610100900460ff1615808015611b5557505f54600160ff909116105b80611b6e5750303b158015611b6e57505f5460ff166001145b611be05760405162461bcd60e51b815260206004820152602e60248201527f496e697469616c697a61626c653a20636f6e747261637420697320616c72656160448201527f647920696e697469616c697a656400000000000000000000000000000000000060648201526084016115ee565b5f805460ff191660011790558015611c01575f805461ff0019166101001790555b606880547fffffffffffffff000000000000000000000000000000000000000000000000ff1661010063ffffffff8a16027fffffffffffffff0000000000000000000000000000000000000000ffffffffff1617650100000000006001600160a01b038781169190910291909117909155606c805473ffffffffffffffffffffffffffffffffffffffff19168583161790558616611cdc5763ffffffff851615611cd7576040517f1a874c1200000000000000000000000000000000000000000000000000000000815260040160405180910390fd5b611e91565b60408051808201909152600d81526c3232b837b9b4ba16ba37b5b2b760991b6020918201528251908301207f13b87e1c6e402993102067ab4fcbed7aab57bd8335960ec53c998699699f2e3b01611d7557606d805463ffffffff8716600160a01b027fffffffffffffffff0000000000000000000000000000000000000000000000009091166001600160a01b03891617179055611e91565b606f805463ffffffff8716600160a01b027fffffffffffffffff0000000000000000000000000000000000000000000000009091166001600160a01b038916171790556070611dc48382614001565b50611e635f5f1b6012604051602001611e4f91906060808252600d908201527f5772617070656420457468657200000000000000000000000000000000000000608082015260a0602082018190526004908201527f574554480000000000000000000000000000000000000000000000000000000060c082015260ff91909116604082015260e00190565b60405160208183030381529060405261260c565b6071805473ffffffffffffffffffffffffffffffffffffffff19166001600160a01b03929092169190911790555b611e99612de6565b8015610dda575f805461ff0019169055604051600181527f7f26b83ff96e1f2b6a682f133852f6798a09c465da95921460cefb38474024989060200160405180910390a150505050505050565b5f81611ef3868686610b87565b1490505b949350505050565b60685460ff1615611f2357604051630bc011ff60e21b815260040160405180910390fd5b6068805460ff191660011790556040517f2261efe5aef6fedc1fd1550b25facc9181745623049c7901287030b9ad1a5497905f90a1565b60685463ffffffff610100909104811690871603611f8b576040516302caf51760e11b815260040160405180910390fd5b7f501781209a1f8899323b96b4ef08b168df93e0a90c673d1e4cce39366cb62f9b6001606860019054906101000a900463ffffffff16338989898888605354604051611fdf999897969594939291906140bc565b60405180910390a16120206001606860019054906101000a900463ffffffff16338989898888604051612013929190613e26565b6040518091039020612d5f565b821561202e5761202e6122ce565b505050505050565b60408051600481526024810182526020810180516001600160e01b03167f06fdde030000000000000000000000000000000000000000000000000000000017905290516060915f9182916001600160a01b038616916120959190613e35565b5f60405180830381855afa9150503d805f81146120cd576040519150601f19603f3d011682016040523d82523d5f602084013e6120d2565b606091505b509150915081612117576040518060400160405280600781526020017f4e4f5f4e414d4500000000000000000000000000000000000000000000000000815250611ef7565b611ef781612e58565b60408051600481526024810182526020810180516001600160e01b03167f95d89b410000000000000000000000000000000000000000000000000000000017905290516060915f9182916001600160a01b0386169161217f9190613e35565b5f60405180830381855afa9150503d805f81146121b7576040519150601f19603f3d011682016040523d82523d5f602084013e6121bc565b606091505b509150915081612117576040518060400160405280600981526020017f4e4f5f53594d424f4c0000000000000000000000000000000000000000000000815250611ef7565b60408051600481526024810182526020810180516001600160e01b03167f313ce5670000000000000000000000000000000000000000000000000000000017905290515f91829182916001600160a01b0386169161225f9190613e35565b5f60405180830381855afa9150503d805f8114612297576040519150601f19603f3d011682016040523d82523d5f602084013e61229c565b606091505b50915091508180156122af575080516020145b6122ba576012611ef7565b80806020019051810190611ef79190614132565b6053546068805463ffffffff909216600160c81b027fffffff00000000ffffffffffffffffffffffffffffffffffffffffffffffffff90921691909117908190556001600160a01b0365010000000000909104166333d6247d61232f610a33565b6040518263ffffffff1660e01b815260040161234d91815260200190565b5f604051808303815f87803b158015612364575f5ffd5b505af1158015612376573d5f5f3e3d5ffd5b50505050565b6040517f9dc29fac000000000000000000000000000000000000000000000000000000008152336004820152602481018290525f906001600160a01b03841690639dc29fac906044015f604051808303815f87803b1580156123dc575f5ffd5b505af11580156123ee573d5f5f3e3d5ffd5b509395945050505050565b60026001540361244b5760405162461bcd60e51b815260206004820152601f60248201527f5265656e7472616e637947756172643a207265656e7472616e742063616c6c0060448201526064016115ee565b6002600155565b6113818c8c8c8c8c6124698d8d8d8d8d8d8d61098a565b61301e565b6040517f40c10f190000000000000000000000000000000000000000000000000000000081526001600160a01b038381166004830152602482018390528416906340c10f19906044015f604051808303815f87803b1580156124ce575f5ffd5b505af1158015610dda573d5f5f3e3d5ffd5b5f5f5f5f5f5f5f5f888060200190518101906124fc919061416b565b97509750975097509750975097509750896001600160a01b0316636eaf982f89888a886040518563ffffffff1660e01b815260040161253e9493929190614249565b6020604051808303815f875af115801561255a573d5f5f3e3d5ffd5b505050506040513d601f19601f8201168201806040525081019061257e91906142a1565b5050505050505050505050565b6040516001600160a01b0383166024820152604481018290526126079084907fa9059cbb00000000000000000000000000000000000000000000000000000000906064015b60408051601f198184030181529190526020810180516001600160e01b03166001600160e01b031990931692909217909152613188565b505050565b5f5f612616610afe565b83604051602001612628929190613dba565b6040516020818303038152906040529050838151602083015ff591506001600160a01b038216612684576040517fbefb092000000000000000000000000000000000000000000000000000000000815260040160405180910390fd5b5092915050565b60018055565b60605f5f5f5f5f5f5f8a6001600160a01b031663e1838cd28b6040518263ffffffff1660e01b81526004016126c691906136fe565b5f60405180830381865afa1580156126e0573d5f5f3e3d5ffd5b505050506040513d5f823e601f3d908101601f1916820160405261270791908101906142bc565b9650965096509650965096509650606e6040516020016127279190614371565b604051602081830303815290604052805190602001208660405160200161274e9190613e35565b60405160208183030381529060405280519060200120146128235760405162461bcd60e51b815260206004820152606360248201527f54686520686f6c642c207265717569726564206265666f72652062726964676960448201527f6e6720746f20616e6f74686572206e6574776f726b2c206d757374206861766560648201527f2074686520627269646765206163636f756e742061732062656e65666963696160848201527f72792e000000000000000000000000000000000000000000000000000000000060a482015260c4016115ee565b8389146128e45760405162461bcd60e51b815260206004820152607260248201527f54686520686f6c642c207265717569726564206265666f72652062726964676960448201527f6e6720746f20616e6f74686572206e6574776f726b2c206d757374206265207060648201527f6c6163656420666f72207468652073616d6520616d6f756e742061732067697660848201527f656e20696e2074686520726571756573742e000000000000000000000000000060a482015260c4016115ee565b6040517fa79cf1850000000000000000000000000000000000000000000000000000000081526001600160a01b038c169063a79cf18590612929908d906004016136fe565b6020604051808303815f875af1158015612945573d5f5f3e3d5ffd5b505050506040513d601f19601f8201168201806040525081019061296991906142a1565b5089878787878787876040516020016129899897969594939291906143e2565b6040516020818303038152906040529750505050505050509392505050565b5f6129b66004828486614458565b6129bf9161447f565b90507f2afa5331000000000000000000000000000000000000000000000000000000006001600160e01b0319821601612b60575f808080808080612a06896004818d614458565b810190612a1391906144b4565b9650965096509650965096509650336001600160a01b0316876001600160a01b031614612a535760405163912ecce760e01b815260040160405180910390fd5b6001600160a01b0386163014612a7c5760405163750643af60e01b815260040160405180910390fd5b604080516001600160a01b0389811660248301528881166044830152606482018890526084820187905260ff861660a483015260c4820185905260e48083018590528351808403909101815261010490920183526020820180516001600160e01b03167fd505accf000000000000000000000000000000000000000000000000000000001790529151918e1691612b139190613e35565b5f604051808303815f865af19150503d805f8114612b4c576040519150601f19603f3d011682016040523d82523d5f602084013e612b51565b606091505b505050505050505050506108f7565b6001600160e01b031981166323f2ebc360e21b14612baa576040517fe282c0ba00000000000000000000000000000000000000000000000000000000815260040160405180910390fd5b5f80808080808080612bbf8a6004818e614458565b810190612bcc9190614503565b97509750975097509750975097509750336001600160a01b0316886001600160a01b031614612c0e5760405163912ecce760e01b815260040160405180910390fd5b6001600160a01b0387163014612c375760405163750643af60e01b815260040160405180910390fd5b604080516001600160a01b038a811660248301528981166044830152606482018990526084820188905286151560a483015260ff861660c483015260e482018590526101048083018590528351808403909101815261012490920183526020820180516001600160e01b03166323f2ebc360e21b1790529151918f1691612cbe9190613e35565b5f604051808303815f865af19150503d805f8114612cf7576040519150601f19603f3d011682016040523d82523d5f602084013e612cfc565b606091505b50505050505050505050505050505050565b6040516001600160a01b03808516602483015283166044820152606481018290526123769085907f23b872dd00000000000000000000000000000000000000000000000000000000906084016125d0565b610dda612d718888888888888861098a565b61326c565b60685460ff16612db2576040517f5386698100000000000000000000000000000000000000000000000000000000815260040160405180910390fd5b6068805460ff191690556040517f1e5e34eea33501aecf2ebec9fe0e884a40804275ea7fe10b2ba084c8374308b3905f90a1565b5f54610100900460ff16612e505760405162461bcd60e51b815260206004820152602b60248201527f496e697469616c697a61626c653a20636f6e7472616374206973206e6f74206960448201526a6e697469616c697a696e6760a81b60648201526084016115ee565b610809613344565b60606040825110612e77578180602001905181019061086f9190614581565b8151602003612fe0575f5b602081108015612ec95750828181518110612e9f57612e9f613cfb565b01602001517fff000000000000000000000000000000000000000000000000000000000000001615155b15612ee05780612ed8816145b3565b915050612e82565b805f03612f2257505060408051808201909152601281527f4e4f545f56414c49445f454e434f44494e4700000000000000000000000000006020820152919050565b5f8167ffffffffffffffff811115612f3c57612f3c61385d565b6040519080825280601f01601f191660200182016040528015612f66576020820181803683370190505b5090505f5b82811015612fd857848181518110612f8557612f85613cfb565b602001015160f81c60f81b828281518110612fa257612fa2613cfb565b60200101907effffffffffffffffffffffffffffffffffffffffffffffffffffffffffffff191690815f1a905350600101612f6b565b509392505050565b505060408051808201909152601281527f4e4f545f56414c49445f454e434f44494e470000000000000000000000000000602082015290565b919050565b6068545f906501000000000090046001600160a01b031663257b363261304d86865f9182526020526040902090565b6040518263ffffffff1660e01b815260040161306b91815260200190565b6020604051808303815f875af1158015613087573d5f5f3e3d5ffd5b505050506040513d601f19601f820116820180604052508101906130ab9190613ee7565b9050805f036130e5576040517e2f6fad00000000000000000000000000000000000000000000000000000000815260040160405180910390fd5b5f806801000000000000000087161561312957869150613107848a8489611ee6565b613124576040516338105f3b60e21b815260040160405180910390fd5b613173565b602087901c6131398160016145cb565b915087925061315461314c868c86610b87565b8a8389611ee6565b613171576040516338105f3b60e21b815260040160405180910390fd5b505b61317d82826133ae565b505050505050505050565b5f6131dc826040518060400160405280602081526020017f5361666545524332303a206c6f772d6c6576656c2063616c6c206661696c6564815250856001600160a01b031661346e9092919063ffffffff16565b80519091501561260757808060200190518101906131fa91906142a1565b6126075760405162461bcd60e51b815260206004820152602a60248201527f5361666545524332303a204552433230206f7065726174696f6e20646964206e60448201527f6f7420737563636565640000000000000000000000000000000000000000000060648201526084016115ee565b80600161327b602060026146ca565b6132859190613efe565b605354106132bf576040517fef5ccf6600000000000000000000000000000000000000000000000000000000815260040160405180910390fd5b5f60535f81546132ce906145b3565b918290555090505f5b602081101561333b578082901c60011660010361330a57826033826020811061330257613302613cfb565b015550505050565b6133316033826020811061332057613320613cfb565b0154845f9182526020526040902090565b92506001016132d7565b506126076146d5565b5f54610100900460ff1661268b5760405162461bcd60e51b815260206004820152602b60248201527f496e697469616c697a61626c653a20636f6e7472616374206973206e6f74206960448201526a6e697469616c697a696e6760a81b60648201526084016115ee565b6068545f90610100900463ffffffff161580156133d1575063ffffffff82166001145b156133e3575063ffffffff821661340b565b6133f864010000000063ffffffff8416613dfc565b6134089063ffffffff8516613e13565b90505b600881901c5f8181526069602052604081208054600160ff861690811b91821892839055929091908183169003610dda576040517f646cf55800000000000000000000000000000000000000000000000000000000815260040160405180910390fd5b6060610ad384845f85855f5f866001600160a01b031685876040516134939190613e35565b5f6040518083038185875af1925050503d805f81146134cd576040519150601f19603f3d011682016040523d82523d5f602084013e6134d2565b606091505b50915091506134e3878383876134ee565b979650505050505050565b6060831561355c5782515f03613555576001600160a01b0385163b6135555760405162461bcd60e51b815260206004820152601d60248201527f416464726573733a2063616c6c20746f206e6f6e2d636f6e747261637400000060448201526064016115ee565b5081611ef7565b611ef783838151156135715781518083602001fd5b8060405162461bcd60e51b81526004016115ee91906136fe565b803563ffffffff81168114613019575f5ffd5b6001600160a01b03811681146135b2575f5ffd5b50565b5f5f604083850312156135c6575f5ffd5b6135cf8361358b565b915060208301356135df8161359e565b809150509250929050565b80151581146135b2575f5ffd5b5f5f83601f840112613607575f5ffd5b50813567ffffffffffffffff81111561361e575f5ffd5b602083019150836020828501011115613635575f5ffd5b9250929050565b5f5f5f5f5f60808688031215613650575f5ffd5b6136598661358b565b945060208601356136698161359e565b93506040860135613679816135ea565b9250606086013567ffffffffffffffff811115613694575f5ffd5b6136a0888289016135f7565b969995985093965092949392505050565b5f5b838110156136cb5781810151838201526020016136b3565b50505f910152565b5f81518084526136ea8160208601602086016136b1565b601f01601f19169290920160200192915050565b602081525f610ad660208301846136d3565b5f60208284031215613720575f5ffd5b8135610ad68161359e565b60ff811681146135b2575f5ffd5b5f5f5f5f5f5f5f60e0888a03121561374f575f5ffd5b873561375a8161372b565b96506137686020890161358b565b955060408801356137788161359e565b94506137866060890161358b565b935060808801356137968161359e565b9699959850939692959460a0840135945060c09093013592915050565b5f5f5f606084860312156137c5575f5ffd5b6137ce8461358b565b925060208401356137de8161359e565b915060408401356137ee8161359e565b809150509250925092565b5f60208284031215613809575f5ffd5b5035919050565b80610400810183101561086f575f5ffd5b5f5f5f6104408486031215613834575f5ffd5b833592506138458560208601613810565b9150613854610420850161358b565b90509250925092565b634e487b7160e01b5f52604160045260245ffd5b604051601f8201601f1916810167ffffffffffffffff8111828210171561389a5761389a61385d565b604052919050565b5f67ffffffffffffffff8211156138bb576138bb61385d565b50601f01601f191660200190565b5f6138db6138d6846138a2565b613871565b90508281528383830111156138ee575f5ffd5b828260208301375f602084830101529392505050565b5f82601f830112613913575f5ffd5b610ad6838335602085016138c9565b5f5f5f5f5f60a08688031215613936575f5ffd5b61393f8661358b565b9450602086013561394f8161359e565b9350604086013567ffffffffffffffff81111561396a575f5ffd5b61397688828901613904565b935050606086013567ffffffffffffffff811115613992575f5ffd5b61399e88828901613904565b92505060808601356139af8161372b565b809150509295509295909350565b5f5f5f5f5f5f60a087890312156139d2575f5ffd5b6139db8761358b565b955060208701356139eb8161359e565b9450604087013593506060870135613a02816135ea565b9250608087013567ffffffffffffffff811115613a1d575f5ffd5b613a2989828a016135f7565b979a9699509497509295939492505050565b5f5f60408385031215613a4c575f5ffd5b613a558361358b565b9150613a636020840161358b565b90509250929050565b5f5f5f5f5f5f5f5f5f5f5f5f6109208d8f031215613a88575f5ffd5b613a928e8e613810565b9b50613aa28e6104008f01613810565b9a506108008d013599506108208d013598506108408d01359750613ac96108608e0161358b565b9650613ad96108808e013561359e565b6108808d01359550613aee6108a08e0161358b565b94506108c08d0135613aff8161359e565b93506108e08d0135925067ffffffffffffffff6109008e01351115613b22575f5ffd5b613b338e6109008f01358f016135f7565b81935080925050509295989b509295989b509295989b565b5f5f5f5f5f5f5f60c0888a031215613b61575f5ffd5b613b6a8861358b565b96506020880135613b7a8161359e565b9550604088013594506060880135613b918161359e565b93506080880135613ba1816135ea565b925060a088013567ffffffffffffffff811115613bbc575f5ffd5b613bc88a828b016135f7565b989b979a50959850939692959293505050565b5f5f5f5f5f5f60c08789031215613bf0575f5ffd5b613bf98761358b565b95506020870135613c098161359e565b9450613c176040880161358b565b93506060870135613c278161359e565b92506080870135613c378161359e565b915060a087013567ffffffffffffffff811115613c52575f5ffd5b8701601f81018913613c62575f5ffd5b613c71898235602084016138c9565b9150509295509295509295565b5f5f5f5f6104608587031215613c92575f5ffd5b84359350613ca38660208701613810565b9250613cb2610420860161358b565b939692955092936104400135925050565b600181811c90821680613cd757607f821691505b602082108103613cf557634e487b7160e01b5f52602260045260245ffd5b50919050565b634e487b7160e01b5f52603260045260245ffd5b5f613d1c6138d6846138a2565b9050828152838383011115613d2f575f5ffd5b610ad68360208301846136b1565b5f60208284031215613d4d575f5ffd5b815167ffffffffffffffff811115613d63575f5ffd5b8201601f81018413613d73575f5ffd5b611ef784825160208401613d0f565b606081525f613d9460608301866136d3565b8281036020840152613da681866136d3565b91505060ff83166040830152949350505050565b5f8351613dcb8184602088016136b1565b835190830190613ddf8183602088016136b1565b01949350505050565b634e487b7160e01b5f52601160045260245ffd5b808202811582820484141761086f5761086f613de8565b8082018082111561086f5761086f613de8565b818382375f9101908152919050565b5f8251613e468184602087016136b1565b9190910192915050565b81835281816020850137505f828201602090810191909152601f909101601f19169091010190565b63ffffffff861681526001600160a01b03851660208201526001600160a01b0384166040820152608060608201525f6134e3608083018486613e50565b5f60208284031215613ec5575f5ffd5b813567ffffffffffffffff811115613edb575f5ffd5b611ef784828501613904565b5f60208284031215613ef7575f5ffd5b5051919050565b8181038181111561086f5761086f613de8565b60ff8916815263ffffffff881660208201526001600160a01b038716604082015263ffffffff861660608201526001600160a01b03851660808201528360a082015261010060c08201525f613f6a6101008301856136d3565b905063ffffffff831660e08301529998505050505050505050565b6001600160a01b038516815263ffffffff84166020820152606060408201525f613fb3606083018486613e50565b9695505050505050565b601f82111561260757805f5260205f20601f840160051c81016020851015613fe25750805b601f840160051c820191505b818110156108f7575f8155600101613fee565b815167ffffffffffffffff81111561401b5761401b61385d565b61402f816140298454613cc3565b84613fbd565b6020601f821160018114614061575f831561404a5750848201515b5f19600385901b1c1916600184901b1784556108f7565b5f84815260208120601f198516915b828110156140905787850151825560209485019460019092019101614070565b50848210156140ad57868401515f19600387901b60f8161c191681555b50505050600190811b01905550565b60ff8a16815263ffffffff891660208201526001600160a01b038816604082015263ffffffff871660608201526001600160a01b03861660808201528460a082015261010060c08201525f61411661010083018587613e50565b905063ffffffff831660e08301529a9950505050505050505050565b5f60208284031215614142575f5ffd5b8151610ad68161372b565b5f82601f83011261415c575f5ffd5b610ad683835160208501613d0f565b5f5f5f5f5f5f5f5f610100898b031215614183575f5ffd5b885167ffffffffffffffff811115614199575f5ffd5b6141a58b828c0161414d565b985050602089015167ffffffffffffffff8111156141c1575f5ffd5b6141cd8b828c0161414d565b975050604089015167ffffffffffffffff8111156141e9575f5ffd5b6141f58b828c0161414d565b965050606089015167ffffffffffffffff811115614211575f5ffd5b61421d8b828c0161414d565b60808b015160a08c015160c08d015160e0909d01519b9e9a9d50989b919a909991975095509350505050565b60a081525f61425b60a08301876136d3565b828103602084015261426d81876136d3565b9050828103604084015261428181866136d3565b606084019490945250508082036080909101525f81526020019392505050565b5f602082840312156142b1575f5ffd5b8151610ad6816135ea565b5f5f5f5f5f5f5f60e0888a0312156142d2575f5ffd5b875167ffffffffffffffff8111156142e8575f5ffd5b6142f48a828b0161414d565b975050602088015167ffffffffffffffff811115614310575f5ffd5b61431c8a828b0161414d565b965050604088015167ffffffffffffffff811115614338575f5ffd5b6143448a828b0161414d565b60608a015160808b015160a08c015160c0909c01519a9d999c50919a909991989097509095509350505050565b5f5f835461437e81613cc3565b60018216801561439557600181146143aa576143d7565b60ff19831686528115158202860193506143d7565b865f5260205f205f5b838110156143cf578154888201526001909101906020016143b3565b505081860193505b509195945050505050565b61010081525f6143f661010083018b6136d3565b8281036020840152614408818b6136d3565b9050828103604084015261441c818a6136d3565b9050828103606084015261443081896136d3565b9150508560808301528460a08301528360c08301528260e08301529998505050505050505050565b5f5f85851115614466575f5ffd5b83861115614472575f5ffd5b5050820193919092039150565b80356001600160e01b03198116906004841015612684576001600160e01b0319808560040360031b1b82161691505092915050565b5f5f5f5f5f5f5f60e0888a0312156144ca575f5ffd5b87356144d58161359e565b965060208801356144e58161359e565b9550604088013594506060880135935060808801356137968161372b565b5f5f5f5f5f5f5f5f610100898b03121561451b575f5ffd5b88356145268161359e565b975060208901356145368161359e565b965060408901359550606089013594506080890135614554816135ea565b935060a08901356145648161372b565b979a969950949793969295929450505060c08201359160e0013590565b5f60208284031215614591575f5ffd5b815167ffffffffffffffff8111156145a7575f5ffd5b611ef78482850161414d565b5f600182016145c4576145c4613de8565b5060010190565b63ffffffff818116838216019081111561086f5761086f613de8565b6001815b60018411156146225780850481111561460657614606613de8565b600184161561461457908102905b60019390931c9280026145eb565b935093915050565b5f826146385750600161086f565b8161464457505f61086f565b816001811461465a576002811461466457614680565b600191505061086f565b60ff84111561467557614675613de8565b50506001821b61086f565b5060208310610133831016604e8410600b84101617156146a3575081810a61086f565b6146af5f1984846145e7565b805f19048211156146c2576146c2613de8565b029392505050565b5f610ad6838361462a565b634e487b7160e01b5f52600160045260245ffdfea2646970667358221220e93da8c806a60bad4575b74f5de1fb1163455dd12494be368fd58513bf5db09664736f6c634300081c00336080604052348015600e575f5ffd5b50611c518061001c5f395ff3fe608060405234801561000f575f5ffd5b5060043610610029575f3560e01c806383c43a551461002d575b5f5ffd5b61003561004b565b604051610042919061006a565b60405180910390f35b60405180611ba00160405280611b6681526020016100b6611b66913981565b602081525f82518060208401525f5b818110156100965760208186018101516040868401015201610079565b505f604082850101526040601f19601f8301168401019150509291505056fe6101006040523480156200001257600080fd5b5060405162001b6638038062001b6683398101604081905262000035916200028d565b82826003620000458382620003a1565b506004620000548282620003a1565b50503360c0525060ff811660e052466080819052620000739062000080565b60a052506200046d915050565b60007f8b73c3c69bb8fe3d512ecc4cf759cc79239f7b179b0ffacaa9a75d522b39400f620000ad6200012e565b805160209182012060408051808201825260018152603160f81b90840152805192830193909352918101919091527fc89efdaa54c0f20c7adf612882df0950f5a951637e0307cdcb4c672f298b8bc66060820152608081018390523060a082015260c001604051602081830303815290604052805190602001209050919050565b6060600380546200013f9062000312565b80601f01602080910402602001604051908101604052809291908181526020018280546200016d9062000312565b8015620001be5780601f106200019257610100808354040283529160200191620001be565b820191906000526020600020905b815481529060010190602001808311620001a057829003601f168201915b5050505050905090565b634e487b7160e01b600052604160045260246000fd5b600082601f830112620001f057600080fd5b81516001600160401b03808211156200020d576200020d620001c8565b604051601f8301601f19908116603f01168101908282118183101715620002385762000238620001c8565b816040528381526020925086838588010111156200025557600080fd5b600091505b838210156200027957858201830151818301840152908201906200025a565b600093810190920192909252949350505050565b600080600060608486031215620002a357600080fd5b83516001600160401b0380821115620002bb57600080fd5b620002c987838801620001de565b94506020860151915080821115620002e057600080fd5b50620002ef86828701620001de565b925050604084015160ff811681146200030757600080fd5b809150509250925092565b600181811c908216806200032757607f821691505b6020821081036200034857634e487b7160e01b600052602260045260246000fd5b50919050565b601f8211156200039c57600081815260208120601f850160051c81016020861015620003775750805b601f850160051c820191505b81811015620003985782815560010162000383565b5050505b505050565b81516001600160401b03811115620003bd57620003bd620001c8565b620003d581620003ce845462000312565b846200034e565b602080601f8311600181146200040d5760008415620003f45750858301515b600019600386901b1c1916600185901b17855562000398565b600085815260208120601f198616915b828110156200043e578886015182559484019460019091019084016200041d565b50858210156200045d5787850151600019600388901b60f8161c191681555b5050505050600190811b01905550565b60805160a05160c05160e0516116aa620004bc6000396000610237015260008181610307015281816105c001526106a70152600061053a015260008181610379015261050401526116aa6000f3fe608060405234801561001057600080fd5b50600436106101775760003560e01c806370a08231116100d8578063a457c2d71161008c578063d505accf11610066578063d505accf1461039b578063dd62ed3e146103ae578063ffa1ad74146103f457600080fd5b8063a457c2d71461034e578063a9059cbb14610361578063cd0d00961461037457600080fd5b806395d89b41116100bd57806395d89b41146102e75780639dc29fac146102ef578063a3c573eb1461030257600080fd5b806370a08231146102915780637ecebe00146102c757600080fd5b806330adf81f1161012f5780633644e515116101145780633644e51514610261578063395093511461026957806340c10f191461027c57600080fd5b806330adf81f14610209578063313ce5671461023057600080fd5b806318160ddd1161016057806318160ddd146101bd57806320606b70146101cf57806323b872dd146101f657600080fd5b806306fdde031461017c578063095ea7b31461019a575b600080fd5b610184610430565b60405161019191906113e4565b60405180910390f35b6101ad6101a8366004611479565b6104c2565b6040519015158152602001610191565b6002545b604051908152602001610191565b6101c17f8b73c3c69bb8fe3d512ecc4cf759cc79239f7b179b0ffacaa9a75d522b39400f81565b6101ad6102043660046114a3565b6104dc565b6101c17f6e71edae12b1b97f4d1f60370fef10105fa2faae0126114a169c64845d6126c981565b60405160ff7f0000000000000000000000000000000000000000000000000000000000000000168152602001610191565b6101c1610500565b6101ad610277366004611479565b61055c565b61028f61028a366004611479565b6105a8565b005b6101c161029f3660046114df565b73ffffffffffffffffffffffffffffffffffffffff1660009081526020819052604090205490565b6101c16102d53660046114df565b60056020526000908152604090205481565b610184610680565b61028f6102fd366004611479565b61068f565b6103297f000000000000000000000000000000000000000000000000000000000000000081565b60405173ffffffffffffffffffffffffffffffffffffffff9091168152602001610191565b6101ad61035c366004611479565b61075e565b6101ad61036f366004611479565b61082f565b6101c17f000000000000000000000000000000000000000000000000000000000000000081565b61028f6103a9366004611501565b61083d565b6101c16103bc366004611574565b73ffffffffffffffffffffffffffffffffffffffff918216600090815260016020908152604080832093909416825291909152205490565b6101846040518060400160405280600181526020017f310000000000000000000000000000000000000000000000000000000000000081525081565b60606003805461043f906115a7565b80601f016020809104026020016040519081016040528092919081815260200182805461046b906115a7565b80156104b85780601f1061048d576101008083540402835291602001916104b8565b820191906000526020600020905b81548152906001019060200180831161049b57829003601f168201915b5050505050905090565b6000336104d0818585610b73565b60019150505b92915050565b6000336104ea858285610d27565b6104f5858585610dfe565b506001949350505050565b60007f00000000000000000000000000000000000000000000000000000000000000004614610537576105324661106d565b905090565b507f000000000000000000000000000000000000000000000000000000000000000090565b33600081815260016020908152604080832073ffffffffffffffffffffffffffffffffffffffff871684529091528120549091906104d090829086906105a3908790611629565b610b73565b3373ffffffffffffffffffffffffffffffffffffffff7f00000000000000000000000000000000000000000000000000000000000000001614610672576040517f08c379a000000000000000000000000000000000000000000000000000000000815260206004820152603060248201527f546f6b656e577261707065643a3a6f6e6c794272696467653a204e6f7420506f60448201527f6c79676f6e5a6b45564d4272696467650000000000000000000000000000000060648201526084015b60405180910390fd5b61067c8282611135565b5050565b60606004805461043f906115a7565b3373ffffffffffffffffffffffffffffffffffffffff7f00000000000000000000000000000000000000000000000000000000000000001614610754576040517f08c379a000000000000000000000000000000000000000000000000000000000815260206004820152603060248201527f546f6b656e577261707065643a3a6f6e6c794272696467653a204e6f7420506f60448201527f6c79676f6e5a6b45564d427269646765000000000000000000000000000000006064820152608401610669565b61067c8282611228565b33600081815260016020908152604080832073ffffffffffffffffffffffffffffffffffffffff8716845290915281205490919083811015610822576040517f08c379a000000000000000000000000000000000000000000000000000000000815260206004820152602560248201527f45524332303a2064656372656173656420616c6c6f77616e63652062656c6f7760448201527f207a65726f0000000000000000000000000000000000000000000000000000006064820152608401610669565b6104f58286868403610b73565b6000336104d0818585610dfe565b834211156108cc576040517f08c379a0000000000000000000000000000000000000000000000000000000008152602060048201526024808201527f546f6b656e577261707065643a3a7065726d69743a204578706972656420706560448201527f726d6974000000000000000000000000000000000000000000000000000000006064820152608401610669565b73ffffffffffffffffffffffffffffffffffffffff8716600090815260056020526040812080547f6e71edae12b1b97f4d1f60370fef10105fa2faae0126114a169c64845d6126c9918a918a918a9190866109268361163c565b9091555060408051602081019690965273ffffffffffffffffffffffffffffffffffffffff94851690860152929091166060840152608083015260a082015260c0810186905260e0016040516020818303038152906040528051906020012090506000610991610500565b6040517f19010000000000000000000000000000000000000000000000000000000000006020820152602281019190915260428101839052606201604080517fffffffffffffffffffffffffffffffffffffffffffffffffffffffffffffffe08184030181528282528051602091820120600080855291840180845281905260ff89169284019290925260608301879052608083018690529092509060019060a0016020604051602081039080840390855afa158015610a55573d6000803e3d6000fd5b50506040517fffffffffffffffffffffffffffffffffffffffffffffffffffffffffffffffe0015191505073ffffffffffffffffffffffffffffffffffffffff811615801590610ad057508973ffffffffffffffffffffffffffffffffffffffff168173ffffffffffffffffffffffffffffffffffffffff16145b610b5c576040517f08c379a000000000000000000000000000000000000000000000000000000000815260206004820152602760248201527f546f6b656e577261707065643a3a7065726d69743a20496e76616c696420736960448201527f676e6174757265000000000000000000000000000000000000000000000000006064820152608401610669565b610b678a8a8a610b73565b50505050505050505050565b73ffffffffffffffffffffffffffffffffffffffff8316610c15576040517f08c379a0000000000000000000000000000000000000000000000000000000008152602060048201526024808201527f45524332303a20617070726f76652066726f6d20746865207a65726f2061646460448201527f72657373000000000000000000000000000000000000000000000000000000006064820152608401610669565b73ffffffffffffffffffffffffffffffffffffffff8216610cb8576040517f08c379a000000000000000000000000000000000000000000000000000000000815260206004820152602260248201527f45524332303a20617070726f766520746f20746865207a65726f20616464726560448201527f73730000000000000000000000000000000000000000000000000000000000006064820152608401610669565b73ffffffffffffffffffffffffffffffffffffffff83811660008181526001602090815260408083209487168084529482529182902085905590518481527f8c5be1e5ebec7d5bd14f71427d1e84f3dd0314c0f7b2291e5b200ac8c7c3b92591015b60405180910390a3505050565b73ffffffffffffffffffffffffffffffffffffffff8381166000908152600160209081526040808320938616835292905220547fffffffffffffffffffffffffffffffffffffffffffffffffffffffffffffffff8114610df85781811015610deb576040517f08c379a000000000000000000000000000000000000000000000000000000000815260206004820152601d60248201527f45524332303a20696e73756666696369656e7420616c6c6f77616e63650000006044820152606401610669565b610df88484848403610b73565b50505050565b73ffffffffffffffffffffffffffffffffffffffff8316610ea1576040517f08c379a000000000000000000000000000000000000000000000000000000000815260206004820152602560248201527f45524332303a207472616e736665722066726f6d20746865207a65726f20616460448201527f64726573730000000000000000000000000000000000000000000000000000006064820152608401610669565b73ffffffffffffffffffffffffffffffffffffffff8216610f44576040517f08c379a000000000000000000000000000000000000000000000000000000000815260206004820152602360248201527f45524332303a207472616e7366657220746f20746865207a65726f206164647260448201527f65737300000000000000000000000000000000000000000000000000000000006064820152608401610669565b73ffffffffffffffffffffffffffffffffffffffff831660009081526020819052604090205481811015610ffa576040517f08c379a000000000000000000000000000000000000000000000000000000000815260206004820152602660248201527f45524332303a207472616e7366657220616d6f756e742065786365656473206260448201527f616c616e636500000000000000000000000000000000000000000000000000006064820152608401610669565b73ffffffffffffffffffffffffffffffffffffffff848116600081815260208181526040808320878703905593871680835291849020805487019055925185815290927fddf252ad1be2c89b69c2b068fc378daa952ba7f163c4a11628f55a4df523b3ef910160405180910390a3610df8565b60007f8b73c3c69bb8fe3d512ecc4cf759cc79239f7b179b0ffacaa9a75d522b39400f611098610430565b8051602091820120604080518082018252600181527f310000000000000000000000000000000000000000000000000000000000000090840152805192830193909352918101919091527fc89efdaa54c0f20c7adf612882df0950f5a951637e0307cdcb4c672f298b8bc66060820152608081018390523060a082015260c001604051602081830303815290604052805190602001209050919050565b73ffffffffffffffffffffffffffffffffffffffff82166111b2576040517f08c379a000000000000000000000000000000000000000000000000000000000815260206004820152601f60248201527f45524332303a206d696e7420746f20746865207a65726f2061646472657373006044820152606401610669565b80600260008282546111c49190611629565b909155505073ffffffffffffffffffffffffffffffffffffffff8216600081815260208181526040808320805486019055518481527fddf252ad1be2c89b69c2b068fc378daa952ba7f163c4a11628f55a4df523b3ef910160405180910390a35050565b73ffffffffffffffffffffffffffffffffffffffff82166112cb576040517f08c379a000000000000000000000000000000000000000000000000000000000815260206004820152602160248201527f45524332303a206275726e2066726f6d20746865207a65726f2061646472657360448201527f73000000000000000000000000000000000000000000000000000000000000006064820152608401610669565b73ffffffffffffffffffffffffffffffffffffffff821660009081526020819052604090205481811015611381576040517f08c379a000000000000000000000000000000000000000000000000000000000815260206004820152602260248201527f45524332303a206275726e20616d6f756e7420657863656564732062616c616e60448201527f63650000000000000000000000000000000000000000000000000000000000006064820152608401610669565b73ffffffffffffffffffffffffffffffffffffffff83166000818152602081815260408083208686039055600280548790039055518581529192917fddf252ad1be2c89b69c2b068fc378daa952ba7f163c4a11628f55a4df523b3ef9101610d1a565b600060208083528351808285015260005b81811015611411578581018301518582016040015282016113f5565b5060006040828601015260407fffffffffffffffffffffffffffffffffffffffffffffffffffffffffffffffe0601f8301168501019250505092915050565b803573ffffffffffffffffffffffffffffffffffffffff8116811461147457600080fd5b919050565b6000806040838503121561148c57600080fd5b61149583611450565b946020939093013593505050565b6000806000606084860312156114b857600080fd5b6114c184611450565b92506114cf60208501611450565b9150604084013590509250925092565b6000602082840312156114f157600080fd5b6114fa82611450565b9392505050565b600080600080600080600060e0888a03121561151c57600080fd5b61152588611450565b965061153360208901611450565b95506040880135945060608801359350608088013560ff8116811461155757600080fd5b9699959850939692959460a0840135945060c09093013592915050565b6000806040838503121561158757600080fd5b61159083611450565b915061159e60208401611450565b90509250929050565b600181811c908216806115bb57607f821691505b6020821081036115f4577f4e487b7100000000000000000000000000000000000000000000000000000000600052602260045260246000fd5b50919050565b7f4e487b7100000000000000000000000000000000000000000000000000000000600052601160045260246000fd5b808201808211156104d6576104d66115fa565b60007fffffffffffffffffffffffffffffffffffffffffffffffffffffffffffffffff820361166d5761166d6115fa565b506001019056fea26469706673582212208d88fee561cff7120d381c345cfc534cef8229a272dc5809d4bbb685ad67141164736f6c63430008110033a2646970667358221220e2e0b7899260251baf2cfa7cf6126f1d0a5731b4f1051ae5b437d90ddbc6867164736f6c634300081c0033",
  "linkReferences": {},
  "deployedLinkReferences": {}
}