{
  "_format": "hh-sol-artifact-1",
  "contractName": "PolygonZkEVMGlobalExitRoot",
  "sourceName": "contracts/PolygonZkEVMGlobalExitRoot.sol",
  "abi": [
    {
      "inputs": [
        {
          "internalType": "address",
          "name": "_rollupAddress",
          "type": "address"
        },
        {
          "internalType": "address",
          "name": "_bridgeAddress",
          "type": "address"
        }
      ],
      "stateMutability": "nonpayable",
      "type": "constructor"
    },
    {
      "inputs": [],
      "name": "GlobalExitRootAlreadySet",
      "type": "error"
    },
    {
      "inputs": [],
      "name": "GlobalExitRootNotFound",
      "type": "error"
    },
    {
      "inputs": [],
      "name": "InvalidZeroAddress",
      "type": "error"
    },
    {
      "inputs": [],
      "name": "OnlyAllowedContracts",
      "type": "error"
    },
    {
      "inputs": [],
      "name": "OnlyGlobalExitRootRemover",
      "type": "error"
    },
    {
      "inputs": [],
      "name": "OnlyGlobalExitRootUpdater",
      "type": "error"
    },
    {
      "inputs": [],
      "name": "OnlyPendingGlobalExitRootRemover",
      "type": "error"
    },
    {
      "inputs": [],
      "name": "OnlyPendingGlobalExitRootUpdater",
      "type": "error"
    },
    {
      "anonymous": false,
      "inputs": [
        {
          "indexed": true,
          "internalType": "bytes32",
          "name": "mainnetExitRoot",
          "type": "bytes32"
        },
        {
          "indexed": true,
          "internalType": "bytes32",
          "name": "rollupExitRoot",
          "type": "bytes32"
        }
      ],
      "name": "UpdateGlobalExitRoot",
      "type": "event"
    },
    {
      "inputs": [],
      "name": "bridgeAddress",
      "outputs": [
        {
          "internalType": "address",
          "name": "",
          "type": "address"
        }
      ],
      "stateMutability": "view",
      "type": "function"
    },
    {
      "inputs": [],
      "name": "getLastGlobalExitRoot",
      "outputs": [
        {
          "internalType": "bytes32",
          "name": "",
          "type": "bytes32"
        }
      ],
      "stateMutability": "view",
      "type": "function"
    },
    {
      "inputs": [
        {
          "internalType": "bytes32",
          "name": "",
          "type": "bytes32"
        }
      ],
      "name": "globalExitRootMap",
      "outputs": [
        {
          "internalType": "uint256",
          "name": "",
          "type": "uint256"
        }
      ],
      "stateMutability": "view",
      "type": "function"
    },
    {
      "inputs": [],
      "name": "lastMainnetExitRoot",
      "outputs": [
        {
          "internalType": "bytes32",
          "name": "",
          "type": "bytes32"
        }
      ],
      "stateMutability": "view",
      "type": "function"
    },
    {
      "inputs": [],
      "name": "lastRollupExitRoot",
      "outputs": [
        {
          "internalType": "bytes32",
          "name": "",
          "type": "bytes32"
        }
      ],
      "stateMutability": "view",
      "type": "function"
    },
    {
      "inputs": [],
      "name": "rollupAddress",
      "outputs": [
        {
          "internalType": "address",
          "name": "",
          "type": "address"
        }
      ],
      "stateMutability": "view",
      "type": "function"
    },
    {
      "inputs": [
        {
          "internalType": "bytes32",
          "name": "newRoot",
          "type": "bytes32"
        }
      ],
      "name": "updateExitRoot",
      "outputs": [],
      "stateMutability": "nonpayable",
      "type": "function"
    }
  ],
  "bytecode": "0x60c060405234801561000f575f5ffd5b506040516103a33803806103a383398101604081905261002e91610060565b6001600160a01b0391821660a05216608052610091565b80516001600160a01b038116811461005b575f5ffd5b919050565b5f5f60408385031215610071575f5ffd5b61007a83610045565b915061008860208401610045565b90509250929050565b60805160a0516102e46100bf5f395f818160e301526101b601525f818161012f015261016d01526102e45ff3fe608060405234801561000f575f5ffd5b506004361061007a575f3560e01c806333d6247d1161005857806333d6247d146100c15780633ed691ef146100d65780635ec6a8df146100de578063a3c573eb1461012a575f5ffd5b806301fd90441461007e578063257b363214610099578063319cf735146100b8575b5f5ffd5b6100865f5481565b6040519081526020015b60405180910390f35b6100866100a7366004610297565b60026020525f908152604090205481565b61008660015481565b6100d46100cf366004610297565b610151565b005b61008661027b565b6101057f000000000000000000000000000000000000000000000000000000000000000081565b60405173ffffffffffffffffffffffffffffffffffffffff9091168152602001610090565b6101057f000000000000000000000000000000000000000000000000000000000000000081565b5f5460015473ffffffffffffffffffffffffffffffffffffffff7f000000000000000000000000000000000000000000000000000000000000000016330361019f575060018290558161021a565b73ffffffffffffffffffffffffffffffffffffffff7f00000000000000000000000000000000000000000000000000000000000000001633036101e8575f83905582915061021a565b6040517fb49365dd00000000000000000000000000000000000000000000000000000000815260040160405180910390fd5b5f818152602083815260408083208084526002909252822054909103610275575f8181526002602052604080822042905551849184917f61014378f82a0d809aefaf87a8ac9505b89c321808287a6e7810f29304c1fce39190a35b50505050565b5f6102926001545f545f9182526020526040902090565b905090565b5f602082840312156102a7575f5ffd5b503591905056fea2646970667358221220b33a6bf65fbe7e10f510c5825f0140c7da707d448bb2fae9adf168e73c97db8564736f6c634300081c0033",
  "linkReferences": {},
  "deployedLinkReferences": {}
}