{
  "_format": "hh-sol-artifact-1",
  "contractName": "PolygonZkEVMBridgeV2",
  "sourceName": "contracts/v2/PolygonZkEVMBridgeV2.sol",
  "abi": [
    {
      "inputs": [],
      "stateMutability": "nonpayable",
      "type": "constructor"
    },
    {
      "inputs": [],
      "name": "AlreadyClaimed",
      "type": "error"
    },
    {
      "inputs": [],
      "name": "AmountDoesNotMatchMsgValue",
      "type": "error"
    },
    {
      "inputs": [],
      "name": "DestinationNetworkInvalid",
      "type": "error"
    },
    {
      "inputs": [],
      "name": "EtherTransferFailed",
      "type": "error"
    },
    {
      "inputs": [],
      "name": "FailedTokenWrappedDeployment",
      "type": "error"
    },
    {
      "inputs": [],
      "name": "GasTokenNetworkMustBeZeroOnEther",
      "type": "error"
    },
    {
      "inputs": [],
      "name": "GlobalExitRootInvalid",
      "type": "error"
    },
    {
      "inputs": [],
      "name": "InvalidSmtProof",
      "type": "error"
    },
    {
      "inputs": [],
      "name": "MerkleTreeFull",
      "type": "error"
    },
    {
      "inputs": [],
      "name": "MessageFailed",
      "type": "error"
    },
    {
      "inputs": [],
      "name": "MsgValueNotZero",
      "type": "error"
    },
    {
      "inputs": [],
      "name": "NativeTokenIsEther",
      "type": "error"
    },
    {
      "inputs": [],
      "name": "NoValueInMessagesOnGasTokenNetworks",
      "type": "error"
    },
    {
      "inputs": [],
      "name": "NotValidAmount",
      "type": "error"
    },
    {
      "inputs": [],
      "name": "NotValidOwner",
      "type": "error"
    },
    {
      "inputs": [],
      "name": "NotValidSignature",
      "type": "error"
    },
    {
      "inputs": [],
      "name": "NotValidSpender",
      "type": "error"
    },
    {
      "inputs": [],
      "name": "NotValidToken",
      "type": "error"
    },
    {
      "inputs": [],
      "name": "OnlyEmergencyState",
      "type": "error"
    },
    {
      "inputs": [],
      "name": "OnlyNotEmergencyState",
      "type": "error"
    },
    {
      "inputs": [],
      "name": "OnlyRollupManager",
      "type": "error"
    },
    {
      "anonymous": false,
      "inputs": [
        {
          "indexed": false,
          "internalType": "uint8",
          "name": "leafType",
          "type": "uint8"
        },
        {
          "indexed": false,
          "internalType": "uint32",
          "name": "originNetwork",
          "type": "uint32"
        },
        {
          "indexed": false,
          "internalType": "address",
          "name": "originAddress",
          "type": "address"
        },
        {
          "indexed": false,
          "internalType": "uint32",
          "name": "destinationNetwork",
          "type": "uint32"
        },
        {
          "indexed": false,
          "internalType": "address",
          "name": "destinationAddress",
          "type": "address"
        },
        {
          "indexed": false,
          "internalType": "uint256",
          "name": "amount",
          "type": "uint256"
        },
        {
          "indexed": false,
          "internalType": "bytes",
          "name": "metadata",
          "type": "bytes"
        },
        {
          "indexed": false,
          "internalType": "uint32",
          "name": "depositCount",
          "type": "uint32"
        }
      ],
      "name": "BridgeEvent",
      "type": "event"
    },
    {
      "anonymous": false,
      "inputs": [
        {
          "indexed": false,
          "internalType": "uint256",
          "name": "globalIndex",
          "type": "uint256"
        },
        {
          "indexed": false,
          "internalType": "uint32",
          "name": "originNetwork",
          "type": "uint32"
        },
        {
          "indexed": false,
          "internalType": "address",
          "name": "originAddress",
          "type": "address"
        },
        {
          "indexed": false,
          "internalType": "address",
          "name": "destinationAddress",
          "type": "address"
        },
        {
          "indexed": false,
          "internalType": "uint256",
          "name": "amount",
          "type": "uint256"
        }
      ],
      "name": "ClaimEvent",
      "type": "event"
    },
    {
      "anonymous": false,
      "inputs": [],
      "name": "EmergencyStateActivated",
      "type": "event"
    },
    {
      "anonymous": false,
      "inputs": [],
      "name": "EmergencyStateDeactivated",
      "type": "event"
    },
    {
      "anonymous": false,
      "inputs": [
        {
          "indexed": false,
          "internalType": "uint8",
          "name": "version",
          "type": "uint8"
        }
      ],
      "name": "Initialized",
      "type": "event"
    },
    {
      "anonymous": false,
      "inputs": [
        {
          "indexed": false,
          "internalType": "uint32",
          "name": "originNetwork",
          "type": "uint32"
        },
        {
          "indexed": false,
          "internalType": "address",
          "name": "originTokenAddress",
          "type": "address"
        },
        {
          "indexed": false,
          "internalType": "address",
          "name": "wrappedTokenAddress",
          "type": "address"
        },
        {
          "indexed": false,
          "internalType": "bytes",
          "name": "metadata",
          "type": "bytes"
        }
      ],
      "name": "NewWrappedToken",
      "type": "event"
    },
    {
      "inputs": [],
      "name": "BASE_INIT_BYTECODE_WRAPPED_TOKEN",
      "outputs": [
        {
          "internalType": "bytes",
          "name": "",
          "type": "bytes"
        }
      ],
      "stateMutability": "view",
      "type": "function"
    },
    {
      "inputs": [],
      "name": "WETHToken",
      "outputs": [
        {
          "internalType": "contract TokenWrapped",
          "name": "",
          "type": "address"
        }
      ],
      "stateMutability": "view",
      "type": "function"
    },
    {
      "inputs": [],
      "name": "activateEmergencyState",
      "outputs": [],
      "stateMutability": "nonpayable",
      "type": "function"
    },
    {
      "inputs": [],
      "name": "atc",
      "outputs": [
        {
          "internalType": "contract Token",
          "name": "",
          "type": "address"
        }
      ],
      "stateMutability": "view",
      "type": "function"
    },
    {
      "inputs": [],
      "name": "atcAccount",
      "outputs": [
        {
          "internalType": "string",
          "name": "",
          "type": "string"
        }
      ],
      "stateMutability": "view",
      "type": "function"
    },
    {
      "inputs": [
        {
          "internalType": "uint32",
          "name": "destinationNetwork",
          "type": "uint32"
        },
        {
          "internalType": "address",
          "name": "destinationAddress",
          "type": "address"
        },
        {
          "internalType": "uint256",
          "name": "amount",
          "type": "uint256"
        },
        {
          "internalType": "address",
          "name": "token",
          "type": "address"
        },
        {
          "internalType": "bool",
          "name": "forceUpdateGlobalExitRoot",
          "type": "bool"
        },
        {
          "internalType": "bytes",
          "name": "permitData",
          "type": "bytes"
        }
      ],
      "name": "bridgeAT",
      "outputs": [],
      "stateMutability": "payable",
      "type": "function"
    },
    {
      "inputs": [
        {
          "internalType": "uint32",
          "name": "destinationNetwork",
          "type": "uint32"
        },
        {
          "internalType": "address",
          "name": "destinationAddress",
          "type": "address"
        },
        {
          "internalType": "uint256",
          "name": "amount",
          "type": "uint256"
        },
        {
          "internalType": "address",
          "name": "token",
          "type": "address"
        },
        {
          "internalType": "bool",
          "name": "forceUpdateGlobalExitRoot",
          "type": "bool"
        },
        {
          "internalType": "bytes",
          "name": "permitData",
          "type": "bytes"
        }
      ],
      "name": "bridgeAsset",
      "outputs": [],
      "stateMutability": "payable",
      "type": "function"
    },
    {
      "inputs": [
        {
          "internalType": "uint32",
          "name": "destinationNetwork",
          "type": "uint32"
        },
        {
          "internalType": "address",
          "name": "destinationAddress",
          "type": "address"
        },
        {
          "internalType": "bool",
          "name": "forceUpdateGlobalExitRoot",
          "type": "bool"
        },
        {
          "internalType": "bytes",
          "name": "metadata",
          "type": "bytes"
        }
      ],
      "name": "bridgeMessage",
      "outputs": [],
      "stateMutability": "payable",
      "type": "function"
    },
    {
      "inputs": [
        {
          "internalType": "uint32",
          "name": "destinationNetwork",
          "type": "uint32"
        },
        {
          "internalType": "address",
          "name": "destinationAddress",
          "type": "address"
        },
        {
          "internalType": "uint256",
          "name": "amountWETH",
          "type": "uint256"
        },
        {
          "internalType": "bool",
          "name": "forceUpdateGlobalExitRoot",
          "type": "bool"
        },
        {
          "internalType": "bytes",
          "name": "metadata",
          "type": "bytes"
        }
      ],
      "name": "bridgeMessageWETH",
      "outputs": [],
      "stateMutability": "nonpayable",
      "type": "function"
    },
    {
      "inputs": [
        {
          "internalType": "bytes32",
          "name": "leafHash",
          "type": "bytes32"
        },
        {
          "internalType": "bytes32[32]",
          "name": "smtProof",
          "type": "bytes32[32]"
        },
        {
          "internalType": "uint32",
          "name": "index",
          "type": "uint32"
        }
      ],
      "name": "calculateRoot",
      "outputs": [
        {
          "internalType": "bytes32",
          "name": "",
          "type": "bytes32"
        }
      ],
      "stateMutability": "pure",
      "type": "function"
    },
    {
      "inputs": [
        {
          "internalType": "uint32",
          "name": "originNetwork",
          "type": "uint32"
        },
        {
          "internalType": "address",
          "name": "originTokenAddress",
          "type": "address"
        },
        {
          "internalType": "address",
          "name": "token",
          "type": "address"
        }
      ],
      "name": "calculateTokenWrapperAddress",
      "outputs": [
        {
          "internalType": "address",
          "name": "",
          "type": "address"
        }
      ],
      "stateMutability": "view",
      "type": "function"
    },
    {
      "inputs": [
        {
          "internalType": "bytes32[32]",
          "name": "smtProofLocalExitRoot",
          "type": "bytes32[32]"
        },
        {
          "internalType": "bytes32[32]",
          "name": "smtProofRollupExitRoot",
          "type": "bytes32[32]"
        },
        {
          "internalType": "uint256",
          "name": "globalIndex",
          "type": "uint256"
        },
        {
          "internalType": "bytes32",
          "name": "mainnetExitRoot",
          "type": "bytes32"
        },
        {
          "internalType": "bytes32",
          "name": "rollupExitRoot",
          "type": "bytes32"
        },
        {
          "internalType": "uint32",
          "name": "originNetwork",
          "type": "uint32"
        },
        {
          "internalType": "address",
          "name": "originTokenAddress",
          "type": "address"
        },
        {
          "internalType": "uint32",
          "name": "destinationNetwork",
          "type": "uint32"
        },
        {
          "internalType": "address",
          "name": "destinationAddress",
          "type": "address"
        },
        {
          "internalType": "uint256",
          "name": "amount",
          "type": "uint256"
        },
        {
          "internalType": "bytes",
          "name": "metadata",
          "type": "bytes"
        }
      ],
      "name": "claimAT",
      "outputs": [],
      "stateMutability": "nonpayable",
      "type": "function"
    },
    {
      "inputs": [
        {
          "internalType": "bytes32[32]",
          "name": "smtProofLocalExitRoot",
          "type": "bytes32[32]"
        },
        {
          "internalType": "bytes32[32]",
          "name": "smtProofRollupExitRoot",
          "type": "bytes32[32]"
        },
        {
          "internalType": "uint256",
          "name": "globalIndex",
          "type": "uint256"
        },
        {
          "internalType": "bytes32",
          "name": "mainnetExitRoot",
          "type": "bytes32"
        },
        {
          "internalType": "bytes32",
          "name": "rollupExitRoot",
          "type": "bytes32"
        },
        {
          "internalType": "uint32",
          "name": "originNetwork",
          "type": "uint32"
        },
        {
          "internalType": "address",
          "name": "originTokenAddress",
          "type": "address"
        },
        {
          "internalType": "uint32",
          "name": "destinationNetwork",
          "type": "uint32"
        },
        {
          "internalType": "address",
          "name": "destinationAddress",
          "type": "address"
        },
        {
          "internalType": "uint256",
          "name": "amount",
          "type": "uint256"
        },
        {
          "internalType": "bytes",
          "name": "metadata",
          "type": "bytes"
        }
      ],
      "name": "claimAsset",
      "outputs": [],
      "stateMutability": "nonpayable",
      "type": "function"
    },
    {
      "inputs": [
        {
          "internalType": "bytes32[32]",
          "name": "smtProofLocalExitRoot",
          "type": "bytes32[32]"
        },
        {
          "internalType": "bytes32[32]",
          "name": "smtProofRollupExitRoot",
          "type": "bytes32[32]"
        },
        {
          "internalType": "uint256",
          "name": "globalIndex",
          "type": "uint256"
        },
        {
          "internalType": "bytes32",
          "name": "mainnetExitRoot",
          "type": "bytes32"
        },
        {
          "internalType": "bytes32",
          "name": "rollupExitRoot",
          "type": "bytes32"
        },
        {
          "internalType": "uint32",
          "name": "originNetwork",
          "type": "uint32"
        },
        {
          "internalType": "address",
          "name": "originAddress",
          "type": "address"
        },
        {
          "internalType": "uint32",
          "name": "destinationNetwork",
          "type": "uint32"
        },
        {
          "internalType": "address",
          "name": "destinationAddress",
          "type": "address"
        },
        {
          "internalType": "uint256",
          "name": "amount",
          "type": "uint256"
        },
        {
          "internalType": "bytes",
          "name": "metadata",
          "type": "bytes"
        }
      ],
      "name": "claimMessage",
      "outputs": [],
      "stateMutability": "nonpayable",
      "type": "function"
    },
    {
      "inputs": [
        {
          "internalType": "uint256",
          "name": "",
          "type": "uint256"
        }
      ],
      "name": "claimedBitMap",
      "outputs": [
        {
          "internalType": "uint256",
          "name": "",
          "type": "uint256"
        }
      ],
      "stateMutability": "view",
      "type": "function"
    },
    {
      "inputs": [],
      "name": "deactivateEmergencyState",
      "outputs": [],
      "stateMutability": "nonpayable",
      "type": "function"
    },
    {
      "inputs": [],
      "name": "depositCount",
      "outputs": [
        {
          "internalType": "uint256",
          "name": "",
          "type": "uint256"
        }
      ],
      "stateMutability": "view",
      "type": "function"
    },
    {
      "inputs": [],
      "name": "gasTokenAddress",
      "outputs": [
        {
          "internalType": "address",
          "name": "",
          "type": "address"
        }
      ],
      "stateMutability": "view",
      "type": "function"
    },
    {
      "inputs": [],
      "name": "gasTokenMetadata",
      "outputs": [
        {
          "internalType": "bytes",
          "name": "",
          "type": "bytes"
        }
      ],
      "stateMutability": "view",
      "type": "function"
    },
    {
      "inputs": [],
      "name": "gasTokenNetwork",
      "outputs": [
        {
          "internalType": "uint32",
          "name": "",
          "type": "uint32"
        }
      ],
      "stateMutability": "view",
      "type": "function"
    },
    {
      "inputs": [
        {
          "internalType": "uint8",
          "name": "leafType",
          "type": "uint8"
        },
        {
          "internalType": "uint32",
          "name": "originNetwork",
          "type": "uint32"
        },
        {
          "internalType": "address",
          "name": "originAddress",
          "type": "address"
        },
        {
          "internalType": "uint32",
          "name": "destinationNetwork",
          "type": "uint32"
        },
        {
          "internalType": "address",
          "name": "destinationAddress",
          "type": "address"
        },
        {
          "internalType": "uint256",
          "name": "amount",
          "type": "uint256"
        },
        {
          "internalType": "bytes32",
          "name": "metadataHash",
          "type": "bytes32"
        }
      ],
      "name": "getLeafValue",
      "outputs": [
        {
          "internalType": "bytes32",
          "name": "",
          "type": "bytes32"
        }
      ],
      "stateMutability": "pure",
      "type": "function"
    },
    {
      "inputs": [],
      "name": "getRoot",
      "outputs": [
        {
          "internalType": "bytes32",
          "name": "",
          "type": "bytes32"
        }
      ],
      "stateMutability": "view",
      "type": "function"
    },
    {
      "inputs": [
        {
          "internalType": "address",
          "name": "token",
          "type": "address"
        }
      ],
      "name": "getTokenMetadata",
      "outputs": [
        {
          "internalType": "bytes",
          "name": "",
          "type": "bytes"
        }
      ],
      "stateMutability": "view",
      "type": "function"
    },
    {
      "inputs": [
        {
          "internalType": "uint32",
          "name": "originNetwork",
          "type": "uint32"
        },
        {
          "internalType": "address",
          "name": "originTokenAddress",
          "type": "address"
        }
      ],
      "name": "getTokenWrappedAddress",
      "outputs": [
        {
          "internalType": "address",
          "name": "",
          "type": "address"
        }
      ],
      "stateMutability": "view",
      "type": "function"
    },
    {
      "inputs": [],
      "name": "globalExitRootManager",
      "outputs": [
        {
          "internalType": "contract IBasePolygonZkEVMGlobalExitRoot",
          "name": "",
          "type": "address"
        }
      ],
      "stateMutability": "view",
      "type": "function"
    },
    {
      "inputs": [
        {
          "internalType": "uint32",
          "name": "_networkID",
          "type": "uint32"
        },
        {
          "internalType": "address",
          "name": "_gasTokenAddress",
          "type": "address"
        },
        {
          "internalType": "uint32",
          "name": "_gasTokenNetwork",
          "type": "uint32"
        },
        {
          "internalType": "contract IBasePolygonZkEVMGlobalExitRoot",
          "name": "_globalExitRootManager",
          "type": "address"
        },
        {
          "internalType": "address",
          "name": "_polygonRollupManager",
          "type": "address"
        },
        {
          "internalType": "bytes",
          "name": "_gasTokenMetadata",
          "type": "bytes"
        }
      ],
      "name": "initialize",
      "outputs": [],
      "stateMutability": "nonpayable",
      "type": "function"
    },
    {
      "inputs": [
        {
          "internalType": "uint32",
          "name": "leafIndex",
          "type": "uint32"
        },
        {
          "internalType": "uint32",
          "name": "sourceBridgeNetwork",
          "type": "uint32"
        }
      ],
      "name": "isClaimed",
      "outputs": [
        {
          "internalType": "bool",
          "name": "",
          "type": "bool"
        }
      ],
      "stateMutability": "view",
      "type": "function"
    },
    {
      "inputs": [],
      "name": "isEmergencyState",
      "outputs": [
        {
          "internalType": "bool",
          "name": "",
          "type": "bool"
        }
      ],
      "stateMutability": "view",
      "type": "function"
    },
    {
      "inputs": [],
      "name": "lastUpdatedDepositCount",
      "outputs": [
        {
          "internalType": "uint32",
          "name": "",
          "type": "uint32"
        }
      ],
      "stateMutability": "view",
      "type": "function"
    },
    {
      "inputs": [],
      "name": "networkID",
      "outputs": [
        {
          "internalType": "uint32",
          "name": "",
          "type": "uint32"
        }
      ],
      "stateMutability": "view",
      "type": "function"
    },
    {
      "inputs": [],
      "name": "polygonRollupManager",
      "outputs": [
        {
          "internalType": "address",
          "name": "",
          "type": "address"
        }
      ],
      "stateMutability": "view",
      "type": "function"
    },
    {
      "inputs": [
        {
          "internalType": "uint32",
          "name": "originNetwork",
          "type": "uint32"
        },
        {
          "internalType": "address",
          "name": "originTokenAddress",
          "type": "address"
        },
        {
          "internalType": "string",
          "name": "name",
          "type": "string"
        },
        {
          "internalType": "string",
          "name": "symbol",
          "type": "string"
        },
        {
          "internalType": "uint8",
          "name": "decimals",
          "type": "uint8"
        }
      ],
      "name": "precalculatedWrapperAddress",
      "outputs": [
        {
          "internalType": "address",
          "name": "",
          "type": "address"
        }
      ],
      "stateMutability": "view",
      "type": "function"
    },
    {
      "inputs": [
        {
          "internalType": "bytes32",
          "name": "",
          "type": "bytes32"
        }
      ],
      "name": "tokenInfoToWrappedToken",
      "outputs": [
        {
          "internalType": "address",
          "name": "",
          "type": "address"
        }
      ],
      "stateMutability": "view",
      "type": "function"
    },
    {
      "inputs": [],
      "name": "updateGlobalExitRoot",
      "outputs": [],
      "stateMutability": "nonpayable",
      "type": "function"
    },
    {
      "inputs": [
        {
          "internalType": "bytes32",
          "name": "leafHash",
          "type": "bytes32"
        },
        {
          "internalType": "bytes32[32]",
          "name": "smtProof",
          "type": "bytes32[32]"
        },
        {
          "internalType": "uint32",
          "name": "index",
          "type": "uint32"
        },
        {
          "internalType": "bytes32",
          "name": "root",
          "type": "bytes32"
        }
      ],
      "name": "verifyMerkleProof",
      "outputs": [
        {
          "internalType": "bool",
          "name": "",
          "type": "bool"
        }
      ],
      "stateMutability": "pure",
      "type": "function"
    },
    {
      "inputs": [
        {
          "internalType": "address",
          "name": "",
          "type": "address"
        }
      ],
      "name": "wrappedTokenToTokenInfo",
      "outputs": [
        {
          "internalType": "uint32",
          "name": "originNetwork",
          "type": "uint32"
        },
        {
          "internalType": "address",
          "name": "originTokenAddress",
          "type": "address"
        }
      ],
      "stateMutability": "view",
      "type": "function"
    }
  ],
  "bytecode": "0x60806040523480156200001157600080fd5b506200001c62000022565b620000e4565b600054610100900460ff16156200008f5760405162461bcd60e51b815260206004820152602760248201527f496e697469616c697a61626c653a20636f6e747261637420697320696e697469604482015266616c697a696e6760c81b606482015260840160405180910390fd5b60005460ff9081161015620000e2576000805460ff191660ff9081179091556040519081527f7f26b83ff96e1f2b6a682f133852f6798a09c465da95921460cefb38474024989060200160405180910390a15b565b61683b80620000f46000396000f3fe60806040526004361061024e5760003560e01c806383f2440311610138578063cc461632116100b0578063dbc169761161007f578063f5efcd7911610064578063f5efcd79146106d2578063f811bff7146106f2578063fb5708341461071257600080fd5b8063dbc1697614610690578063ee25560b146106a557600080fd5b8063cc46163214610614578063ccaa2d1114610634578063cd58657914610654578063d02103ca1461066757600080fd5b8063af907b6211610107578063bab161bf116100ec578063bab161bf146105ae578063be5831c7146105d0578063c00f14ab146105f457600080fd5b8063af907b621461056e578063b8b284d01461058e57600080fd5b806383f24403146104fb5780638ed7e3f21461051b5780639d211f241461053b578063aaa13cc21461054e57600080fd5b80633c351e10116101cb5780635ca1e1651161019a57806379e2cf971161017f57806379e2cf971461049b57806381b1c174146104b057806383c43a55146104e657600080fd5b80635ca1e165146104665780637843298b1461047b57600080fd5b80633c351e10146103cd5780633cbc795b146103ed5780633e197043146104265780634b2f336d1461044657600080fd5b806322e95f2c1161022257806327aef4e81161020757806327aef4e81461032a5780632dfdf0b51461033f578063318aee3d1461036357600080fd5b806322e95f2c146102df578063240ff3781461031757600080fd5b80623efb051461025357806315064c961461027e5780631bf1aee7146102a85780632072f6c5146102ca575b600080fd5b34801561025f57600080fd5b50610268610732565b6040516102759190613ab0565b60405180910390f35b34801561028a57600080fd5b506068546102989060ff1681565b6040519015158152602001610275565b3480156102b457600080fd5b506102c86102c3366004613b51565b6107c0565b005b3480156102d657600080fd5b506102c861082a565b3480156102eb57600080fd5b506102ff6102fa366004613c3d565b61085f565b6040516001600160a01b039091168152602001610275565b6102c8610325366004613c82565b6108ca565b34801561033657600080fd5b50610268610953565b34801561034b57600080fd5b5061035560535481565b604051908152602001610275565b34801561036f57600080fd5b506103a961037e366004613cfc565b606b6020526000908152604090205463ffffffff81169064010000000090046001600160a01b031682565b6040805163ffffffff90931683526001600160a01b03909116602083015201610275565b3480156103d957600080fd5b50606d546102ff906001600160a01b031681565b3480156103f957600080fd5b50606d5461041190600160a01b900463ffffffff1681565b60405163ffffffff9091168152602001610275565b34801561043257600080fd5b50610355610441366004613d28565b610960565b34801561045257600080fd5b50606f546102ff906001600160a01b031681565b34801561047257600080fd5b50610355610a0a565b34801561048757600080fd5b506102ff610496366004613da7565b610ae7565b3480156104a757600080fd5b506102c8610b11565b3480156104bc57600080fd5b506102ff6104cb366004613df0565b606a602052600090815260409020546001600160a01b031681565b3480156104f257600080fd5b50610268610b32565b34801561050757600080fd5b50610355610516366004613e09565b610b51565b34801561052757600080fd5b50606c546102ff906001600160a01b031681565b6102c8610549366004613e48565b610c27565b34801561055a57600080fd5b506102ff610569366004613fab565b610c93565b34801561057a57600080fd5b506070546102ff906001600160a01b031681565b34801561059a57600080fd5b506102c86105a9366004614047565b610dd4565b3480156105ba57600080fd5b5060685461041190610100900463ffffffff1681565b3480156105dc57600080fd5b5060685461041190600160c81b900463ffffffff1681565b34801561060057600080fd5b5061026861060f366004613cfc565b610eb4565b34801561062057600080fd5b5061029861062f3660046140ca565b610ef9565b34801561064057600080fd5b506102c861064f366004613b51565b610f83565b6102c8610662366004613e48565b6114d6565b34801561067357600080fd5b506068546102ff906501000000000090046001600160a01b031681565b34801561069c57600080fd5b506102c8611937565b3480156106b157600080fd5b506103556106c0366004613df0565b60696020526000908152604090205481565b3480156106de57600080fd5b506102c86106ed366004613b51565b61196a565b3480156106fe57600080fd5b506102c861070d3660046140fd565b611c3d565b34801561071e57600080fd5b5061029861072d3660046141a6565b611f5f565b6071805461073f906141ee565b80601f016020809104026020016040519081016040528092919081815260200182805461076b906141ee565b80156107b85780601f1061078d576101008083540402835291602001916107b8565b820191906000526020600020905b81548152906001019060200180831161079b57829003601f168201915b505050505081565b60685460ff16156107e457604051630bc011ff60e21b815260040160405180910390fd5b60725460ff1615610808576108038c8c8c8c8c8c8c8c8c8c8c8c611f77565b61081c565b61081c8c8c8c8c8c8c8c8c8c8c8c8c61218f565b505050505050505050505050565b606c546001600160a01b0316331461085557604051631736745960e31b815260040160405180910390fd5b61085d612270565b565b6040805160e084901b6001600160e01b031916602080830191909152606084901b6bffffffffffffffffffffffff1916602483015282516018818403018152603890920183528151918101919091206000908152606a90915220546001600160a01b03165b92915050565b60685460ff16156108ee57604051630bc011ff60e21b815260040160405180910390fd5b34158015906109075750606f546001600160a01b031615155b1561093e576040517f6f625c4000000000000000000000000000000000000000000000000000000000815260040160405180910390fd5b61094c8585348686866122cc565b5050505050565b606e805461073f906141ee565b6040517fff0000000000000000000000000000000000000000000000000000000000000060f889901b1660208201526001600160e01b031960e088811b821660218401526bffffffffffffffffffffffff19606089811b821660258601529188901b909216603984015285901b16603d8201526051810183905260718101829052600090609101604051602081830303815290604052805190602001209050979650505050505050565b605354600090819081805b6020811015610ade578083901c600116600103610a725760338160208110610a3f57610a3f614228565b01546040805160208101929092528101859052606001604051602081830303815290604052805190602001209350610a9f565b60408051602081018690529081018390526060016040516020818303038152906040528051906020012093505b60408051602081018490529081018390526060016040516020818303038152906040528051906020012091508080610ad690614254565b915050610a15565b50919392505050565b6000610b098484610af785612396565b610b0086612484565b61056987612569565b949350505050565b605354606854600160c81b900463ffffffff16101561085d5761085d61263a565b60405180611ba00160405280611b668152602001614ca0611b66913981565b600083815b6020811015610c1e57600163ffffffff8516821c81169003610bc157848160208110610b8457610b84614228565b602002013582604051602001610ba4929190918252602082015260400190565b604051602081830303815290604052805190602001209150610c0c565b81858260208110610bd457610bd4614228565b6020020135604051602001610bf3929190918252602082015260400190565b6040516020818303038152906040528051906020012091505b80610c1681614254565b915050610b56565b50949350505050565b60685460ff1615610c4b57604051630bc011ff60e21b815260040160405180910390fd5b610c536126ed565b60725460ff1615610c7257610c6d87878787878787612746565b610c81565b610c818787878787878761296e565b610c8a60018055565b50505050505050565b6040516001600160e01b031960e087901b1660208201526bffffffffffffffffffffffff19606086901b1660248201526000908190603801604051602081830303815290604052805190602001209050600060ff60f81b308360405180611ba00160405280611b668152602001614ca0611b669139898989604051602001610d1d9392919061426d565b60408051601f1981840301815290829052610d3b92916020016142a6565b60405160208183030381529060405280519060200120604051602001610db094939291907fff0000000000000000000000000000000000000000000000000000000000000094909416845260609290921b6bffffffffffffffffffffffff191660018401526015830152603582015260550190565b60408051808303601f19018152919052805160209091012098975050505050505050565b60685460ff1615610df857604051630bc011ff60e21b815260040160405180910390fd5b606f546001600160a01b0316610e3a576040517fdde3cda700000000000000000000000000000000000000000000000000000000815260040160405180910390fd5b606f54604051632770a7eb60e21b8152336004820152602481018690526001600160a01b0390911690639dc29fac90604401600060405180830381600087803b158015610e8657600080fd5b505af1158015610e9a573d6000803e3d6000fd5b50505050610eac8686868686866122cc565b505050505050565b6060610ebf82612396565b610ec883612484565b610ed184612569565b604051602001610ee39392919061426d565b6040516020818303038152906040529050919050565b6068546000908190610100900463ffffffff16158015610f1f575063ffffffff83166001145b15610f31575063ffffffff8316610f59565b610f4664010000000063ffffffff85166142d5565b610f569063ffffffff86166142ec565b90505b600881901c600090815260696020526040902054600160ff9092169190911b908116149392505050565b60685460ff1615610fa757604051630bc011ff60e21b815260040160405180910390fd5b60685463ffffffff8681166101009092041614610fd7576040516302caf51760e11b815260040160405180910390fd5b61100b8c8c8c8c8c61100660008e8e8e8e8e8e8e604051610ff99291906142ff565b6040518091039020610960565b612cfd565b6001600160a01b03861661115e57606f546001600160a01b03166110f35760006001600160a01b03851684825b6040519080825280601f01601f191660200182016040528015611062576020820181803683370190505b50604051611070919061430f565b60006040518083038185875af1925050503d80600081146110ad576040519150601f19603f3d011682016040523d82523d6000602084013e6110b2565b606091505b50509050806110ed576040517f6747a28800000000000000000000000000000000000000000000000000000000815260040160405180910390fd5b5061146c565b606f546040516340c10f1960e01b81526001600160a01b03868116600483015260248201869052909116906340c10f1990604401600060405180830381600087803b15801561114157600080fd5b505af1158015611155573d6000803e3d6000fd5b5050505061146c565b606d546001600160a01b03878116911614801561118c5750606d5463ffffffff888116600160a01b90920416145b156111a45760006001600160a01b0385168482611038565b60685463ffffffff6101009091048116908816036111d5576111d06001600160a01b0387168585612e95565b61146c565b6040516001600160e01b031960e089901b1660208201526bffffffffffffffffffffffff19606088901b16602482015260009060380160408051601f1981840301815291815281516020928301206000818152606a9093529120549091506001600160a01b0316806114065760006112838386868080601f016020809104026020016040519081016040528093929190818152602001838380828437600092019190915250612f1692505050565b6040516340c10f1960e01b81526001600160a01b03898116600483015260248201899052919250908216906340c10f1990604401600060405180830381600087803b1580156112d157600080fd5b505af11580156112e5573d6000803e3d6000fd5b5050505080606a600085815260200190815260200160002060006101000a8154816001600160a01b0302191690836001600160a01b0316021790555060405180604001604052808b63ffffffff1681526020018a6001600160a01b0316815250606b6000836001600160a01b03166001600160a01b0316815260200190815260200160002060008201518160000160006101000a81548163ffffffff021916908363ffffffff16021790555060208201518160000160046101000a8154816001600160a01b0302191690836001600160a01b031602179055509050507f490e59a1701b938786ac72570a1efeac994a3dbe96e2e883e19e902ace6e6a398a8a8388886040516113f8959493929190614354565b60405180910390a150611469565b6040516340c10f1960e01b81526001600160a01b038781166004830152602482018790528216906340c10f1990604401600060405180830381600087803b15801561145057600080fd5b505af1158015611464573d6000803e3d6000fd5b505050505b50505b604080518b815263ffffffff891660208201526001600160a01b0388811682840152861660608201526080810185905290517f1df3f2a973a00d6635911755c260704e95e8a5876997546798770f76396fda4d9181900360a00190a1505050505050505050505050565b60685460ff16156114fa57604051630bc011ff60e21b815260040160405180910390fd5b6115026126ed565b60685463ffffffff610100909104811690881603611533576040516302caf51760e11b815260040160405180910390fd5b6000806060876001600160a01b03881661163257883414611580576040517fb89240f500000000000000000000000000000000000000000000000000000000815260040160405180910390fd5b606d54606e80546001600160a01b0383169650600160a01b90920463ffffffff169450906115ad906141ee565b80601f01602080910402602001604051908101604052809291908181526020018280546115d9906141ee565b80156116265780601f106115fb57610100808354040283529160200191611626565b820191906000526020600020905b81548152906001019060200180831161160957829003601f168201915b505050505091506118b5565b34156116515760405163798ee6f160e01b815260040160405180910390fd5b606f546001600160a01b03908116908916036116cc57604051632770a7eb60e21b8152336004820152602481018a90526001600160a01b03891690639dc29fac90604401600060405180830381600087803b1580156116af57600080fd5b505af11580156116c3573d6000803e3d6000fd5b505050506118b5565b6001600160a01b038089166000908152606b602090815260409182902082518084019093525463ffffffff811683526401000000009004909216918101829052901561178557604051632770a7eb60e21b8152336004820152602481018b90526001600160a01b038a1690639dc29fac90604401600060405180830381600087803b15801561175a57600080fd5b505af115801561176e573d6000803e3d6000fd5b5050505080602001519450806000015193506118a8565b851561179757611797898b8989612fab565b6040516370a0823160e01b81523060048201526000906001600160a01b038b16906370a0823190602401602060405180830381865afa1580156117de573d6000803e3d6000fd5b505050506040513d601f19601f82011682018060405250810190611802919061438d565b90506118196001600160a01b038b1633308e613323565b6040516370a0823160e01b81523060048201526000906001600160a01b038c16906370a0823190602401602060405180830381865afa158015611860573d6000803e3d6000fd5b505050506040513d601f19601f82011682018060405250810190611884919061438d565b905061189082826143a6565b6068548c9850610100900463ffffffff169650935050505b6118b189610eb4565b9250505b7f501781209a1f8899323b96b4ef08b168df93e0a90c673d1e4cce39366cb62f9b600084868e8e86886053546040516118f59897969594939291906143b9565b60405180910390a161191c611917600085878f8f878980519060200120610960565b613374565b861561192a5761192a61263a565b50505050610c8a60018055565b606c546001600160a01b0316331461196257604051631736745960e31b815260040160405180910390fd5b61085d613472565b60685460ff161561198e57604051630bc011ff60e21b815260040160405180910390fd5b60685463ffffffff86811661010090920416146119be576040516302caf51760e11b815260040160405180910390fd5b6119e08c8c8c8c8c61100660018e8e8e8e8e8e8e604051610ff99291906142ff565b606f546000906001600160a01b0316611a9757846001600160a01b031684888a8686604051602401611a159493929190614423565b60408051601f198184030181529181526020820180516001600160e01b0316630c035af960e11b17905251611a4a919061430f565b60006040518083038185875af1925050503d8060008114611a87576040519150601f19603f3d011682016040523d82523d6000602084013e611a8c565b606091505b505080915050611b9b565b606f546040516340c10f1960e01b81526001600160a01b03878116600483015260248201879052909116906340c10f1990604401600060405180830381600087803b158015611ae557600080fd5b505af1158015611af9573d6000803e3d6000fd5b50505050846001600160a01b031687898585604051602401611b1e9493929190614423565b60408051601f198184030181529181526020820180516001600160e01b0316630c035af960e11b17905251611b53919061430f565b6000604051808303816000865af19150503d8060008114611b90576040519150601f19603f3d011682016040523d82523d6000602084013e611b95565b606091505b50909150505b80611bd2576040517f37e391c300000000000000000000000000000000000000000000000000000000815260040160405180910390fd5b604080518c815263ffffffff8a1660208201526001600160a01b0389811682840152871660608201526080810186905290517f1df3f2a973a00d6635911755c260704e95e8a5876997546798770f76396fda4d9181900360a00190a150505050505050505050505050565b600054610100900460ff1615808015611c5d5750600054600160ff909116105b80611c775750303b158015611c77575060005460ff166001145b611cee5760405162461bcd60e51b815260206004820152602e60248201527f496e697469616c697a61626c653a20636f6e747261637420697320616c72656160448201527f647920696e697469616c697a656400000000000000000000000000000000000060648201526084015b60405180910390fd5b6000805460ff191660011790558015611d11576000805461ff0019166101001790555b606880547fffffffffffffff000000000000000000000000000000000000000000000000ff1661010063ffffffff8a16027fffffffffffffff0000000000000000000000000000000000000000ffffffffff1617650100000000006001600160a01b038781169190910291909117909155606c805473ffffffffffffffffffffffffffffffffffffffff19168583161790558616611dec5763ffffffff851615611de7576040517f1a874c1200000000000000000000000000000000000000000000000000000000815260040160405180910390fd5b611f09565b606d805463ffffffff8716600160a01b027fffffffffffffffff0000000000000000000000000000000000000000000000009091166001600160a01b03891617179055606e611e3b83826144a2565b50611edb6000801b6012604051602001611ec791906060808252600d908201527f5772617070656420457468657200000000000000000000000000000000000000608082015260a0602082018190526004908201527f574554480000000000000000000000000000000000000000000000000000000060c082015260ff91909116604082015260e00190565b604051602081830303815290604052612f16565b606f805473ffffffffffffffffffffffffffffffffffffffff19166001600160a01b03929092169190911790555b611f116134e3565b8015610c8a576000805461ff0019169055604051600181527f7f26b83ff96e1f2b6a682f133852f6798a09c465da95921460cefb38474024989060200160405180910390a150505050505050565b600081611f6d868686610b51565b1495945050505050565b60685463ffffffff8681166101009092041614611fa7576040516302caf51760e11b815260040160405180910390fd5b6001600160a01b0384163014611fd0576040516302caf51760e11b815260040160405180910390fd5b611ff28c8c8c8c8c61100660008e8e8e8e8e8e8e604051610ff99291906142ff565b6000808061200284860186614562565b925092509250607160405160200161201a91906145ea565b6040516020818303038152906040528051906020012081604051602001612041919061430f565b60405160208183030381529060405280519060200120146120755760405163912ecce760e01b815260040160405180910390fd5b6070546040805160208082018f905282518083039091018152818301928390527f2da1d60a000000000000000000000000000000000000000000000000000000009092526001600160a01b0390921691632da1d60a916120de91879187918c9190604401614660565b6020604051808303816000875af11580156120fd573d6000803e3d6000fd5b505050506040513d601f19601f82011682018060405250810190612121919061469f565b50604080518e815263ffffffff8c1660208201526001600160a01b038b811682840152891660608201526080810188905290517f1df3f2a973a00d6635911755c260704e95e8a5876997546798770f76396fda4d9181900360a00190a1505050505050505050505050505050565b60685463ffffffff86811661010090920416146121bf576040516302caf51760e11b815260040160405180910390fd5b6001600160a01b03841630146121e8576040516302caf51760e11b815260040160405180910390fd5b61220a8c8c8c8c8c61100660008e8e8e8e8e8e8e604051610ff99291906142ff565b6000808061221a84860186614562565b9250925092506070546040517f6eaf982f0000000000000000000000000000000000000000000000000000000081526001600160a01b0390911690636eaf982f906120de90869060719087908c90600401614739565b60685460ff161561229457604051630bc011ff60e21b815260040160405180910390fd5b6068805460ff191660011790556040517f2261efe5aef6fedc1fd1550b25facc9181745623049c7901287030b9ad1a549790600090a1565b60685463ffffffff6101009091048116908716036122fd576040516302caf51760e11b815260040160405180910390fd5b7f501781209a1f8899323b96b4ef08b168df93e0a90c673d1e4cce39366cb62f9b6001606860019054906101000a900463ffffffff163389898988886053546040516123519998979695949392919061479b565b60405180910390a16123886119176001606860019054906101000a900463ffffffff16338a8a8a8989604051610ff99291906142ff565b8215610eac57610eac61263a565b60408051600481526024810182526020810180516001600160e01b03167f06fdde0300000000000000000000000000000000000000000000000000000000179052905160609160009182916001600160a01b038616916123f6919061430f565b600060405180830381855afa9150503d8060008114612431576040519150601f19603f3d011682016040523d82523d6000602084013e612436565b606091505b50915091508161247b576040518060400160405280600781526020017f4e4f5f4e414d4500000000000000000000000000000000000000000000000000815250610b09565b610b0981613556565b60408051600481526024810182526020810180516001600160e01b03167f95d89b4100000000000000000000000000000000000000000000000000000000179052905160609160009182916001600160a01b038616916124e4919061430f565b600060405180830381855afa9150503d806000811461251f576040519150601f19603f3d011682016040523d82523d6000602084013e612524565b606091505b50915091508161247b576040518060400160405280600981526020017f4e4f5f53594d424f4c0000000000000000000000000000000000000000000000815250610b09565b60408051600481526024810182526020810180516001600160e01b03167f313ce567000000000000000000000000000000000000000000000000000000001790529051600091829182916001600160a01b038616916125c8919061430f565b600060405180830381855afa9150503d8060008114612603576040519150601f19603f3d011682016040523d82523d6000602084013e612608565b606091505b509150915081801561261b575080516020145b612626576012610b09565b80806020019051810190610b099190614807565b6053546068805463ffffffff909216600160c81b027fffffff00000000ffffffffffffffffffffffffffffffffffffffffffffffffff90921691909117908190556001600160a01b0365010000000000909104166333d6247d61269b610a0a565b6040518263ffffffff1660e01b81526004016126b991815260200190565b600060405180830381600087803b1580156126d357600080fd5b505af11580156126e7573d6000803e3d6000fd5b50505050565b60026001540361273f5760405162461bcd60e51b815260206004820152601f60248201527f5265656e7472616e637947756172643a207265656e7472616e742063616c6c006044820152606401611ce5565b6002600155565b60685463ffffffff610100909104811690881603612777576040516302caf51760e11b815260040160405180910390fd5b6070546068546001600160a01b039182169161010090910463ffffffff1690606090889088166127ba5760405163ee17566b60e01b815260040160405180910390fd5b34156127d95760405163798ee6f160e01b815260040160405180910390fd5b6070546001600160a01b03908116908916036128d85760006127fd86880188614824565b905060006040518060400160405280600b81526020017f67656e65726174652d6d650000000000000000000000000000000000000000008152509050896001600160a01b0316630146543082848e6040518463ffffffff1660e01b815260040161286993929190614859565b6020604051808303816000875af1158015612888573d6000803e3d6000fd5b505050506040513d601f19601f820116820180604052508101906128ac919061469f565b5080826040516020016128c09291906142a6565b604051602081830303815290604052935050506128f1565b60405163ee17566b60e01b815260040160405180910390fd5b7f501781209a1f8899323b96b4ef08b168df93e0a90c673d1e4cce39366cb62f9b600084868e8e86886053546040516129319897969594939291906143b9565b60405180910390a1612953611917600085878f8f878980519060200120610960565b86156129615761296161263a565b5050505050505050505050565b60685463ffffffff61010090910481169088160361299f576040516302caf51760e11b815260040160405180910390fd5b6070546068546001600160a01b039182169161010090910463ffffffff1690606090889088166129e25760405163ee17566b60e01b815260040160405180910390fd5b3415612a015760405163798ee6f160e01b815260040160405180910390fd5b6000859003612a2357604051637141605d60e11b815260040160405180910390fd5b6070546001600160a01b03908116908916036128d857876000612a4887890189614824565b905060008060008060008060008060008a6001600160a01b031663e1838cd28b6040518263ffffffff1660e01b8152600401612a849190613ab0565b600060405180830381865afa158015612aa1573d6000803e3d6000fd5b505050506040513d6000823e601f3d908101601f19168201604052612ac991908101906148ec565b9850985098509850985098509850985098506071604051602001612aed91906145ea565b6040516020818303038152906040528051906020012088604051602001612b14919061430f565b60408051601f198184030190525250604051638349b14b60e01b81526000906001600160a01b038d1690638349b14b90612b53906071906004016149ca565b602060405180830381865afa158015612b70573d6000803e3d6000fd5b505050506040513d601f19601f82011682018060405250810190612b94919061438d565b6040517fa79cf1850000000000000000000000000000000000000000000000000000000081529091506001600160a01b038d169063a79cf18590612bdc908e90600401613ab0565b6020604051808303816000875af1158015612bfb573d6000803e3d6000fd5b505050506040513d601f19601f82011682018060405250810190612c1f919061469f565b50604051638349b14b60e01b81526000906001600160a01b038e1690638349b14b90612c50906071906004016149ca565b602060405180830381865afa158015612c6d573d6000803e3d6000fd5b505050506040513d601f19601f82011682018060405250810190612c91919061438d565b9050612c9d82826143a6565b9d508d8814612cbf576040516303fffc4b60e01b815260040160405180910390fd5b8b8b8b604051602001612cd4939291906149dd565b6040516020818303038152906040529e50505050505050505050505050506128f1565b60018055565b606854604080516020808201879052818301869052825180830384018152606083019384905280519101207f257b36320000000000000000000000000000000000000000000000000000000090925260648101919091526000916501000000000090046001600160a01b03169063257b3632906084016020604051808303816000875af1158015612d92573d6000803e3d6000fd5b505050506040513d601f19601f82011682018060405250810190612db6919061438d565b905080600003612df1576040517e2f6fad00000000000000000000000000000000000000000000000000000000815260040160405180910390fd5b60008068010000000000000000871615612e3657869150612e14848a8489611f5f565b612e31576040516338105f3b60e21b815260040160405180910390fd5b612e80565b602087901c612e46816001614a16565b9150879250612e61612e59868c86610b51565b8a8389611f5f565b612e7e576040516338105f3b60e21b815260040160405180910390fd5b505b612e8a828261372b565b505050505050505050565b6040516001600160a01b038316602482015260448101829052612f119084907fa9059cbb00000000000000000000000000000000000000000000000000000000906064015b60408051601f198184030181529190526020810180516001600160e01b03166001600160e01b0319909316929092179091526137ed565b505050565b60008060405180611ba00160405280611b668152602001614ca0611b66913983604051602001612f479291906142a6565b6040516020818303038152906040529050838151602083016000f591506001600160a01b038216612fa4576040517fbefb092000000000000000000000000000000000000000000000000000000000815260040160405180910390fd5b5092915050565b6000612fba6004828486614a33565b612fc391614a5d565b90507f2afa5331000000000000000000000000000000000000000000000000000000006001600160e01b031982160161318957600080808080808061300b896004818d614a33565b8101906130189190614a8d565b9650965096509650965096509650336001600160a01b0316876001600160a01b0316146130585760405163912ecce760e01b815260040160405180910390fd5b6001600160a01b03861630146130815760405163750643af60e01b815260040160405180910390fd5b8a85146130a1576040516303fffc4b60e01b815260040160405180910390fd5b604080516001600160a01b0389811660248301528881166044830152606482018890526084820187905260ff861660a483015260c4820185905260e48083018590528351808403909101815261010490920183526020820180516001600160e01b03167fd505accf000000000000000000000000000000000000000000000000000000001790529151918e1691613138919061430f565b6000604051808303816000865af19150503d8060008114613175576040519150601f19603f3d011682016040523d82523d6000602084013e61317a565b606091505b5050505050505050505061094c565b6001600160e01b031981166323f2ebc360e21b146131ba57604051637141605d60e11b815260040160405180910390fd5b6000808080808080806131d08a6004818e614a33565b8101906131dd9190614ae1565b97509750975097509750975097509750336001600160a01b0316886001600160a01b03161461321f5760405163912ecce760e01b815260040160405180910390fd5b6001600160a01b03871630146132485760405163750643af60e01b815260040160405180910390fd5b604080516001600160a01b038a811660248301528981166044830152606482018990526084820188905286151560a483015260ff861660c483015260e482018590526101048083018590528351808403909101815261012490920183526020820180516001600160e01b03166323f2ebc360e21b1790529151918f16916132cf919061430f565b6000604051808303816000865af19150503d806000811461330c576040519150601f19603f3d011682016040523d82523d6000602084013e613311565b606091505b50505050505050505050505050505050565b6040516001600160a01b03808516602483015283166044820152606481018290526126e79085907f23b872dd0000000000000000000000000000000000000000000000000000000090608401612eda565b80600161338360206002614c48565b61338d91906143a6565b605354106133c7576040517fef5ccf6600000000000000000000000000000000000000000000000000000000815260040160405180910390fd5b60006053600081546133d890614254565b9182905550905060005b6020811015613469578082901c60011660010361341557826033826020811061340d5761340d614228565b015550505050565b6033816020811061342857613428614228565b01546040805160208101929092528101849052606001604051602081830303815290604052805190602001209250808061346190614254565b9150506133e2565b50612f11614c54565b60685460ff166134ae576040517f5386698100000000000000000000000000000000000000000000000000000000815260040160405180910390fd5b6068805460ff191690556040517f1e5e34eea33501aecf2ebec9fe0e884a40804275ea7fe10b2ba084c8374308b390600090a1565b600054610100900460ff1661354e5760405162461bcd60e51b815260206004820152602b60248201527f496e697469616c697a61626c653a20636f6e7472616374206973206e6f74206960448201526a6e697469616c697a696e6760a81b6064820152608401611ce5565b61085d6138d2565b6060604082511061357557818060200190518101906108c49190614c6a565b81516020036136ed5760005b6020811080156135c8575082818151811061359e5761359e614228565b01602001517fff000000000000000000000000000000000000000000000000000000000000001615155b156135df57806135d781614254565b915050613581565b8060000361362257505060408051808201909152601281527f4e4f545f56414c49445f454e434f44494e4700000000000000000000000000006020820152919050565b60008167ffffffffffffffff81111561363d5761363d613ede565b6040519080825280601f01601f191660200182016040528015613667576020820181803683370190505b50905060005b828110156136e55784818151811061368757613687614228565b602001015160f81c60f81b8282815181106136a4576136a4614228565b60200101907effffffffffffffffffffffffffffffffffffffffffffffffffffffffffffff1916908160001a905350806136dd81614254565b91505061366d565b509392505050565b505060408051808201909152601281527f4e4f545f56414c49445f454e434f44494e470000000000000000000000000000602082015290565b919050565b606854600090610100900463ffffffff1615801561374f575063ffffffff82166001145b15613761575063ffffffff8216613789565b61377664010000000063ffffffff84166142d5565b6137869063ffffffff85166142ec565b90505b600881901c60008181526069602052604081208054600160ff861690811b91821892839055929091908183169003610c8a576040517f646cf55800000000000000000000000000000000000000000000000000000000815260040160405180910390fd5b6000613842826040518060400160405280602081526020017f5361666545524332303a206c6f772d6c6576656c2063616c6c206661696c6564815250856001600160a01b031661393d9092919063ffffffff16565b805190915015612f115780806020019051810190613860919061469f565b612f115760405162461bcd60e51b815260206004820152602a60248201527f5361666545524332303a204552433230206f7065726174696f6e20646964206e60448201527f6f742073756363656564000000000000000000000000000000000000000000006064820152608401611ce5565b600054610100900460ff16612cf75760405162461bcd60e51b815260206004820152602b60248201527f496e697469616c697a61626c653a20636f6e7472616374206973206e6f74206960448201526a6e697469616c697a696e6760a81b6064820152608401611ce5565b6060610b09848460008585600080866001600160a01b03168587604051613964919061430f565b60006040518083038185875af1925050503d80600081146139a1576040519150601f19603f3d011682016040523d82523d6000602084013e6139a6565b606091505b50915091506139b7878383876139c2565b979650505050505050565b60608315613a31578251600003613a2a576001600160a01b0385163b613a2a5760405162461bcd60e51b815260206004820152601d60248201527f416464726573733a2063616c6c20746f206e6f6e2d636f6e74726163740000006044820152606401611ce5565b5081610b09565b610b098383815115613a465781518083602001fd5b8060405162461bcd60e51b8152600401611ce59190613ab0565b60005b83811015613a7b578181015183820152602001613a63565b50506000910152565b60008151808452613a9c816020860160208601613a60565b601f01601f19169290920160200192915050565b602081526000613ac36020830184613a84565b9392505050565b8061040081018310156108c457600080fd5b803563ffffffff8116811461372657600080fd5b6001600160a01b0381168114613b0557600080fd5b50565b60008083601f840112613b1a57600080fd5b50813567ffffffffffffffff811115613b3257600080fd5b602083019150836020828501011115613b4a57600080fd5b9250929050565b6000806000806000806000806000806000806109208d8f031215613b7457600080fd5b613b7e8e8e613aca565b9b50613b8e8e6104008f01613aca565b9a506108008d013599506108208d013598506108408d01359750613bb56108608e01613adc565b9650613bc56108808e0135613af0565b6108808d01359550613bda6108a08e01613adc565b9450613bea6108c08e0135613af0565b6108c08d013593506108e08d0135925067ffffffffffffffff6109008e01351115613c1457600080fd5b613c258e6109008f01358f01613b08565b81935080925050509295989b509295989b509295989b565b60008060408385031215613c5057600080fd5b613c5983613adc565b91506020830135613c6981613af0565b809150509250929050565b8015158114613b0557600080fd5b600080600080600060808688031215613c9a57600080fd5b613ca386613adc565b94506020860135613cb381613af0565b93506040860135613cc381613c74565b9250606086013567ffffffffffffffff811115613cdf57600080fd5b613ceb88828901613b08565b969995985093965092949392505050565b600060208284031215613d0e57600080fd5b8135613ac381613af0565b60ff81168114613b0557600080fd5b600080600080600080600060e0888a031215613d4357600080fd5b8735613d4e81613d19565b9650613d5c60208901613adc565b95506040880135613d6c81613af0565b9450613d7a60608901613adc565b93506080880135613d8a81613af0565b9699959850939692959460a0840135945060c09093013592915050565b600080600060608486031215613dbc57600080fd5b613dc584613adc565b92506020840135613dd581613af0565b91506040840135613de581613af0565b809150509250925092565b600060208284031215613e0257600080fd5b5035919050565b60008060006104408486031215613e1f57600080fd5b83359250613e308560208601613aca565b9150613e3f6104208501613adc565b90509250925092565b600080600080600080600060c0888a031215613e6357600080fd5b613e6c88613adc565b96506020880135613e7c81613af0565b9550604088013594506060880135613e9381613af0565b93506080880135613ea381613c74565b925060a088013567ffffffffffffffff811115613ebf57600080fd5b613ecb8a828b01613b08565b989b979a50959850939692959293505050565b634e487b7160e01b600052604160045260246000fd5b604051601f8201601f1916810167ffffffffffffffff81118282101715613f1d57613f1d613ede565b604052919050565b600067ffffffffffffffff821115613f3f57613f3f613ede565b50601f01601f191660200190565b6000613f60613f5b84613f25565b613ef4565b9050828152838383011115613f7457600080fd5b828260208301376000602084830101529392505050565b600082601f830112613f9c57600080fd5b613ac383833560208501613f4d565b600080600080600060a08688031215613fc357600080fd5b613fcc86613adc565b94506020860135613fdc81613af0565b9350604086013567ffffffffffffffff80821115613ff957600080fd5b61400589838a01613f8b565b9450606088013591508082111561401b57600080fd5b5061402888828901613f8b565b925050608086013561403981613d19565b809150509295509295909350565b60008060008060008060a0878903121561406057600080fd5b61406987613adc565b9550602087013561407981613af0565b945060408701359350606087013561409081613c74565b9250608087013567ffffffffffffffff8111156140ac57600080fd5b6140b889828a01613b08565b979a9699509497509295939492505050565b600080604083850312156140dd57600080fd5b6140e683613adc565b91506140f460208401613adc565b90509250929050565b60008060008060008060c0878903121561411657600080fd5b61411f87613adc565b9550602087013561412f81613af0565b945061413d60408801613adc565b9350606087013561414d81613af0565b9250608087013561415d81613af0565b915060a087013567ffffffffffffffff81111561417957600080fd5b8701601f8101891361418a57600080fd5b61419989823560208401613f4d565b9150509295509295509295565b60008060008061046085870312156141bd57600080fd5b843593506141ce8660208701613aca565b92506141dd6104208601613adc565b939692955092936104400135925050565b600181811c9082168061420257607f821691505b60208210810361422257634e487b7160e01b600052602260045260246000fd5b50919050565b634e487b7160e01b600052603260045260246000fd5b634e487b7160e01b600052601160045260246000fd5b6000600182016142665761426661423e565b5060010190565b6060815260006142806060830186613a84565b82810360208401526142928186613a84565b91505060ff83166040830152949350505050565b600083516142b8818460208801613a60565b8351908301906142cc818360208801613a60565b01949350505050565b80820281158282048414176108c4576108c461423e565b808201808211156108c4576108c461423e565b8183823760009101908152919050565b60008251614321818460208701613a60565b9190910192915050565b81835281816020850137506000828201602090810191909152601f909101601f19169091010190565b63ffffffff8616815260006001600160a01b038087166020840152808616604084015250608060608301526139b760808301848661432b565b60006020828403121561439f57600080fd5b5051919050565b818103818111156108c4576108c461423e565b600061010060ff8b16835263ffffffff808b1660208501526001600160a01b03808b166040860152818a1660608601528089166080860152508660a08501528160c085015261440a82850187613a84565b925080851660e085015250509998505050505050505050565b6001600160a01b038516815263ffffffff8416602082015260606040820152600061445260608301848661432b565b9695505050505050565b601f821115612f1157600081815260208120601f850160051c810160208610156144835750805b601f850160051c820191505b81811015610eac5782815560010161448f565b815167ffffffffffffffff8111156144bc576144bc613ede565b6144d0816144ca84546141ee565b8461445c565b602080601f83116001811461450557600084156144ed5750858301515b600019600386901b1c1916600185901b178555610eac565b600085815260208120601f198616915b8281101561453457888601518255948401946001909101908401614515565b50858210156145525787850151600019600388901b60f8161c191681555b5050505050600190811b01905550565b60008060006060848603121561457757600080fd5b833567ffffffffffffffff8082111561458f57600080fd5b61459b87838801613f8b565b945060208601359150808211156145b157600080fd5b6145bd87838801613f8b565b935060408601359150808211156145d357600080fd5b506145e086828701613f8b565b9150509250925092565b60008083546145f8816141ee565b60018281168015614610576001811461462557614654565b60ff1984168752821515830287019450614654565b8760005260208060002060005b8581101561464b5781548a820152908401908201614632565b50505082870194505b50929695505050505050565b6080815260006146736080830187613a84565b82810360208401526146858187613a84565b905084604084015282810360608401526139b78185613a84565b6000602082840312156146b157600080fd5b8151613ac381613c74565b600081546146c9816141ee565b8085526020600183811680156146e657600181146147005761472e565b60ff1985168884015283151560051b88018301955061472e565b866000528260002060005b858110156147265781548a820186015290830190840161470b565b890184019650505b505050505092915050565b60a08152600061474c60a0830187613a84565b828103602084015261475e81876146bc565b905082810360408401526147728186613a84565b905083606084015282810360808401526139b7816002815261060f60f31b602082015260400190565b600061010060ff8c16835263ffffffff808c1660208501526001600160a01b03808c166040860152818b166060860152808a166080860152508760a08501528160c08501526147ed828501878961432b565b925080851660e085015250509a9950505050505050505050565b60006020828403121561481957600080fd5b8151613ac381613d19565b60006020828403121561483657600080fd5b813567ffffffffffffffff81111561484d57600080fd5b610b0984828501613f8b565b60808152600061486c6080830186613a84565b828103602084015261487e8186613a84565b90508360408401528281036060840152614452816002815261060f60f31b602082015260400190565b600082601f8301126148b857600080fd5b81516148c6613f5b82613f25565b8181528460208386010111156148db57600080fd5b610b09826020830160208701613a60565b60008060008060008060008060006101208a8c03121561490b57600080fd5b895167ffffffffffffffff8082111561492357600080fd5b61492f8d838e016148a7565b9a5060208c015191508082111561494557600080fd5b6149518d838e016148a7565b995060408c015191508082111561496757600080fd5b6149738d838e016148a7565b985060608c0151975060808c0151965060a08c015191508082111561499757600080fd5b506149a48c828d016148a7565b94505060c08a0151925060e08a015191506101008a015190509295985092959850929598565b602081526000613ac360208301846146bc565b6060815260006149f06060830186613a84565b8281036020840152614a028186613a84565b905082810360408401526144528185613a84565b63ffffffff818116838216019080821115612fa457612fa461423e565b60008085851115614a4357600080fd5b83861115614a5057600080fd5b5050820193919092039150565b6001600160e01b03198135818116916004851015614a855780818660040360031b1b83161692505b505092915050565b600080600080600080600060e0888a031215614aa857600080fd5b8735614ab381613af0565b96506020880135614ac381613af0565b955060408801359450606088013593506080880135613d8a81613d19565b600080600080600080600080610100898b031215614afe57600080fd5b8835614b0981613af0565b97506020890135614b1981613af0565b965060408901359550606089013594506080890135614b3781613c74565b935060a0890135614b4781613d19565b979a969950949793969295929450505060c08201359160e0013590565b600181815b80851115614b9f578160001904821115614b8557614b8561423e565b80851615614b9257918102915b93841c9390800290614b69565b509250929050565b600082614bb6575060016108c4565b81614bc3575060006108c4565b8160018114614bd95760028114614be357614bff565b60019150506108c4565b60ff841115614bf457614bf461423e565b50506001821b6108c4565b5060208310610133831016604e8410600b8410161715614c22575081810a6108c4565b614c2c8383614b64565b8060001904821115614c4057614c4061423e565b029392505050565b6000613ac38383614ba7565b634e487b7160e01b600052600160045260246000fd5b600060208284031215614c7c57600080fd5b815167ffffffffffffffff811115614c9357600080fd5b610b09848285016148a756fe6101006040523480156200001257600080fd5b5060405162001b6638038062001b6683398101604081905262000035916200028d565b82826003620000458382620003a1565b506004620000548282620003a1565b50503360c0525060ff811660e052466080819052620000739062000080565b60a052506200046d915050565b60007f8b73c3c69bb8fe3d512ecc4cf759cc79239f7b179b0ffacaa9a75d522b39400f620000ad6200012e565b805160209182012060408051808201825260018152603160f81b90840152805192830193909352918101919091527fc89efdaa54c0f20c7adf612882df0950f5a951637e0307cdcb4c672f298b8bc66060820152608081018390523060a082015260c001604051602081830303815290604052805190602001209050919050565b6060600380546200013f9062000312565b80601f01602080910402602001604051908101604052809291908181526020018280546200016d9062000312565b8015620001be5780601f106200019257610100808354040283529160200191620001be565b820191906000526020600020905b815481529060010190602001808311620001a057829003601f168201915b5050505050905090565b634e487b7160e01b600052604160045260246000fd5b600082601f830112620001f057600080fd5b81516001600160401b03808211156200020d576200020d620001c8565b604051601f8301601f19908116603f01168101908282118183101715620002385762000238620001c8565b816040528381526020925086838588010111156200025557600080fd5b600091505b838210156200027957858201830151818301840152908201906200025a565b600093810190920192909252949350505050565b600080600060608486031215620002a357600080fd5b83516001600160401b0380821115620002bb57600080fd5b620002c987838801620001de565b94506020860151915080821115620002e057600080fd5b50620002ef86828701620001de565b925050604084015160ff811681146200030757600080fd5b809150509250925092565b600181811c908216806200032757607f821691505b6020821081036200034857634e487b7160e01b600052602260045260246000fd5b50919050565b601f8211156200039c57600081815260208120601f850160051c81016020861015620003775750805b601f850160051c820191505b81811015620003985782815560010162000383565b5050505b505050565b81516001600160401b03811115620003bd57620003bd620001c8565b620003d581620003ce845462000312565b846200034e565b602080601f8311600181146200040d5760008415620003f45750858301515b600019600386901b1c1916600185901b17855562000398565b600085815260208120601f198616915b828110156200043e578886015182559484019460019091019084016200041d565b50858210156200045d5787850151600019600388901b60f8161c191681555b5050505050600190811b01905550565b60805160a05160c05160e0516116aa620004bc6000396000610237015260008181610307015281816105c001526106a70152600061053a015260008181610379015261050401526116aa6000f3fe608060405234801561001057600080fd5b50600436106101775760003560e01c806370a08231116100d8578063a457c2d71161008c578063d505accf11610066578063d505accf1461039b578063dd62ed3e146103ae578063ffa1ad74146103f457600080fd5b8063a457c2d71461034e578063a9059cbb14610361578063cd0d00961461037457600080fd5b806395d89b41116100bd57806395d89b41146102e75780639dc29fac146102ef578063a3c573eb1461030257600080fd5b806370a08231146102915780637ecebe00146102c757600080fd5b806330adf81f1161012f5780633644e515116101145780633644e51514610261578063395093511461026957806340c10f191461027c57600080fd5b806330adf81f14610209578063313ce5671461023057600080fd5b806318160ddd1161016057806318160ddd146101bd57806320606b70146101cf57806323b872dd146101f657600080fd5b806306fdde031461017c578063095ea7b31461019a575b600080fd5b610184610430565b60405161019191906113e4565b60405180910390f35b6101ad6101a8366004611479565b6104c2565b6040519015158152602001610191565b6002545b604051908152602001610191565b6101c17f8b73c3c69bb8fe3d512ecc4cf759cc79239f7b179b0ffacaa9a75d522b39400f81565b6101ad6102043660046114a3565b6104dc565b6101c17f6e71edae12b1b97f4d1f60370fef10105fa2faae0126114a169c64845d6126c981565b60405160ff7f0000000000000000000000000000000000000000000000000000000000000000168152602001610191565b6101c1610500565b6101ad610277366004611479565b61055c565b61028f61028a366004611479565b6105a8565b005b6101c161029f3660046114df565b73ffffffffffffffffffffffffffffffffffffffff1660009081526020819052604090205490565b6101c16102d53660046114df565b60056020526000908152604090205481565b610184610680565b61028f6102fd366004611479565b61068f565b6103297f000000000000000000000000000000000000000000000000000000000000000081565b60405173ffffffffffffffffffffffffffffffffffffffff9091168152602001610191565b6101ad61035c366004611479565b61075e565b6101ad61036f366004611479565b61082f565b6101c17f000000000000000000000000000000000000000000000000000000000000000081565b61028f6103a9366004611501565b61083d565b6101c16103bc366004611574565b73ffffffffffffffffffffffffffffffffffffffff918216600090815260016020908152604080832093909416825291909152205490565b6101846040518060400160405280600181526020017f310000000000000000000000000000000000000000000000000000000000000081525081565b60606003805461043f906115a7565b80601f016020809104026020016040519081016040528092919081815260200182805461046b906115a7565b80156104b85780601f1061048d576101008083540402835291602001916104b8565b820191906000526020600020905b81548152906001019060200180831161049b57829003601f168201915b5050505050905090565b6000336104d0818585610b73565b60019150505b92915050565b6000336104ea858285610d27565b6104f5858585610dfe565b506001949350505050565b60007f00000000000000000000000000000000000000000000000000000000000000004614610537576105324661106d565b905090565b507f000000000000000000000000000000000000000000000000000000000000000090565b33600081815260016020908152604080832073ffffffffffffffffffffffffffffffffffffffff871684529091528120549091906104d090829086906105a3908790611629565b610b73565b3373ffffffffffffffffffffffffffffffffffffffff7f00000000000000000000000000000000000000000000000000000000000000001614610672576040517f08c379a000000000000000000000000000000000000000000000000000000000815260206004820152603060248201527f546f6b656e577261707065643a3a6f6e6c794272696467653a204e6f7420506f60448201527f6c79676f6e5a6b45564d4272696467650000000000000000000000000000000060648201526084015b60405180910390fd5b61067c8282611135565b5050565b60606004805461043f906115a7565b3373ffffffffffffffffffffffffffffffffffffffff7f00000000000000000000000000000000000000000000000000000000000000001614610754576040517f08c379a000000000000000000000000000000000000000000000000000000000815260206004820152603060248201527f546f6b656e577261707065643a3a6f6e6c794272696467653a204e6f7420506f60448201527f6c79676f6e5a6b45564d427269646765000000000000000000000000000000006064820152608401610669565b61067c8282611228565b33600081815260016020908152604080832073ffffffffffffffffffffffffffffffffffffffff8716845290915281205490919083811015610822576040517f08c379a000000000000000000000000000000000000000000000000000000000815260206004820152602560248201527f45524332303a2064656372656173656420616c6c6f77616e63652062656c6f7760448201527f207a65726f0000000000000000000000000000000000000000000000000000006064820152608401610669565b6104f58286868403610b73565b6000336104d0818585610dfe565b834211156108cc576040517f08c379a0000000000000000000000000000000000000000000000000000000008152602060048201526024808201527f546f6b656e577261707065643a3a7065726d69743a204578706972656420706560448201527f726d6974000000000000000000000000000000000000000000000000000000006064820152608401610669565b73ffffffffffffffffffffffffffffffffffffffff8716600090815260056020526040812080547f6e71edae12b1b97f4d1f60370fef10105fa2faae0126114a169c64845d6126c9918a918a918a9190866109268361163c565b9091555060408051602081019690965273ffffffffffffffffffffffffffffffffffffffff94851690860152929091166060840152608083015260a082015260c0810186905260e0016040516020818303038152906040528051906020012090506000610991610500565b6040517f19010000000000000000000000000000000000000000000000000000000000006020820152602281019190915260428101839052606201604080517fffffffffffffffffffffffffffffffffffffffffffffffffffffffffffffffe08184030181528282528051602091820120600080855291840180845281905260ff89169284019290925260608301879052608083018690529092509060019060a0016020604051602081039080840390855afa158015610a55573d6000803e3d6000fd5b50506040517fffffffffffffffffffffffffffffffffffffffffffffffffffffffffffffffe0015191505073ffffffffffffffffffffffffffffffffffffffff811615801590610ad057508973ffffffffffffffffffffffffffffffffffffffff168173ffffffffffffffffffffffffffffffffffffffff16145b610b5c576040517f08c379a000000000000000000000000000000000000000000000000000000000815260206004820152602760248201527f546f6b656e577261707065643a3a7065726d69743a20496e76616c696420736960448201527f676e6174757265000000000000000000000000000000000000000000000000006064820152608401610669565b610b678a8a8a610b73565b50505050505050505050565b73ffffffffffffffffffffffffffffffffffffffff8316610c15576040517f08c379a0000000000000000000000000000000000000000000000000000000008152602060048201526024808201527f45524332303a20617070726f76652066726f6d20746865207a65726f2061646460448201527f72657373000000000000000000000000000000000000000000000000000000006064820152608401610669565b73ffffffffffffffffffffffffffffffffffffffff8216610cb8576040517f08c379a000000000000000000000000000000000000000000000000000000000815260206004820152602260248201527f45524332303a20617070726f766520746f20746865207a65726f20616464726560448201527f73730000000000000000000000000000000000000000000000000000000000006064820152608401610669565b73ffffffffffffffffffffffffffffffffffffffff83811660008181526001602090815260408083209487168084529482529182902085905590518481527f8c5be1e5ebec7d5bd14f71427d1e84f3dd0314c0f7b2291e5b200ac8c7c3b92591015b60405180910390a3505050565b73ffffffffffffffffffffffffffffffffffffffff8381166000908152600160209081526040808320938616835292905220547fffffffffffffffffffffffffffffffffffffffffffffffffffffffffffffffff8114610df85781811015610deb576040517f08c379a000000000000000000000000000000000000000000000000000000000815260206004820152601d60248201527f45524332303a20696e73756666696369656e7420616c6c6f77616e63650000006044820152606401610669565b610df88484848403610b73565b50505050565b73ffffffffffffffffffffffffffffffffffffffff8316610ea1576040517f08c379a000000000000000000000000000000000000000000000000000000000815260206004820152602560248201527f45524332303a207472616e736665722066726f6d20746865207a65726f20616460448201527f64726573730000000000000000000000000000000000000000000000000000006064820152608401610669565b73ffffffffffffffffffffffffffffffffffffffff8216610f44576040517f08c379a000000000000000000000000000000000000000000000000000000000815260206004820152602360248201527f45524332303a207472616e7366657220746f20746865207a65726f206164647260448201527f65737300000000000000000000000000000000000000000000000000000000006064820152608401610669565b73ffffffffffffffffffffffffffffffffffffffff831660009081526020819052604090205481811015610ffa576040517f08c379a000000000000000000000000000000000000000000000000000000000815260206004820152602660248201527f45524332303a207472616e7366657220616d6f756e742065786365656473206260448201527f616c616e636500000000000000000000000000000000000000000000000000006064820152608401610669565b73ffffffffffffffffffffffffffffffffffffffff848116600081815260208181526040808320878703905593871680835291849020805487019055925185815290927fddf252ad1be2c89b69c2b068fc378daa952ba7f163c4a11628f55a4df523b3ef910160405180910390a3610df8565b60007f8b73c3c69bb8fe3d512ecc4cf759cc79239f7b179b0ffacaa9a75d522b39400f611098610430565b8051602091820120604080518082018252600181527f310000000000000000000000000000000000000000000000000000000000000090840152805192830193909352918101919091527fc89efdaa54c0f20c7adf612882df0950f5a951637e0307cdcb4c672f298b8bc66060820152608081018390523060a082015260c001604051602081830303815290604052805190602001209050919050565b73ffffffffffffffffffffffffffffffffffffffff82166111b2576040517f08c379a000000000000000000000000000000000000000000000000000000000815260206004820152601f60248201527f45524332303a206d696e7420746f20746865207a65726f2061646472657373006044820152606401610669565b80600260008282546111c49190611629565b909155505073ffffffffffffffffffffffffffffffffffffffff8216600081815260208181526040808320805486019055518481527fddf252ad1be2c89b69c2b068fc378daa952ba7f163c4a11628f55a4df523b3ef910160405180910390a35050565b73ffffffffffffffffffffffffffffffffffffffff82166112cb576040517f08c379a000000000000000000000000000000000000000000000000000000000815260206004820152602160248201527f45524332303a206275726e2066726f6d20746865207a65726f2061646472657360448201527f73000000000000000000000000000000000000000000000000000000000000006064820152608401610669565b73ffffffffffffffffffffffffffffffffffffffff821660009081526020819052604090205481811015611381576040517f08c379a000000000000000000000000000000000000000000000000000000000815260206004820152602260248201527f45524332303a206275726e20616d6f756e7420657863656564732062616c616e60448201527f63650000000000000000000000000000000000000000000000000000000000006064820152608401610669565b73ffffffffffffffffffffffffffffffffffffffff83166000818152602081815260408083208686039055600280548790039055518581529192917fddf252ad1be2c89b69c2b068fc378daa952ba7f163c4a11628f55a4df523b3ef9101610d1a565b600060208083528351808285015260005b81811015611411578581018301518582016040015282016113f5565b5060006040828601015260407fffffffffffffffffffffffffffffffffffffffffffffffffffffffffffffffe0601f8301168501019250505092915050565b803573ffffffffffffffffffffffffffffffffffffffff8116811461147457600080fd5b919050565b6000806040838503121561148c57600080fd5b61149583611450565b946020939093013593505050565b6000806000606084860312156114b857600080fd5b6114c184611450565b92506114cf60208501611450565b9150604084013590509250925092565b6000602082840312156114f157600080fd5b6114fa82611450565b9392505050565b600080600080600080600060e0888a03121561151c57600080fd5b61152588611450565b965061153360208901611450565b95506040880135945060608801359350608088013560ff8116811461155757600080fd5b9699959850939692959460a0840135945060c09093013592915050565b6000806040838503121561158757600080fd5b61159083611450565b915061159e60208401611450565b90509250929050565b600181811c908216806115bb57607f821691505b6020821081036115f4577f4e487b7100000000000000000000000000000000000000000000000000000000600052602260045260246000fd5b50919050565b7f4e487b7100000000000000000000000000000000000000000000000000000000600052601160045260246000fd5b808201808211156104d6576104d66115fa565b60007fffffffffffffffffffffffffffffffffffffffffffffffffffffffffffffffff820361166d5761166d6115fa565b506001019056fea26469706673582212208d88fee561cff7120d381c345cfc534cef8229a272dc5809d4bbb685ad67141164736f6c63430008110033a2646970667358221220eec506b7d676f5ec0bd54d6a673e67b040ccbeabc176999b88eeb3976bd4869964736f6c63430008140033",
  "linkReferences": {},
  "deployedLinkReferences": {}
}