{
  "_format": "hh-sol-artifact-1",
  "contractName": "PolygonZkEVMBridgeV2",
  "sourceName": "contracts/v2/PolygonZkEVMBridgeV2.sol",
  "abi": [
    {
      "inputs": [],
      "stateMutability": "nonpayable",
      "type": "constructor"
    },
    {
      "inputs": [],
      "name": "AlreadyClaimed",
      "type": "error"
    },
    {
      "inputs": [],
      "name": "AmountDoesNotMatchMsgValue",
      "type": "error"
    },
    {
      "inputs": [],
      "name": "DestinationNetworkInvalid",
      "type": "error"
    },
    {
      "inputs": [],
      "name": "EtherTransferFailed",
      "type": "error"
    },
    {
      "inputs": [],
      "name": "FailedTokenWrappedDeployment",
      "type": "error"
    },
    {
      "inputs": [],
      "name": "GasTokenNetworkMustBeZeroOnEther",
      "type": "error"
    },
    {
      "inputs": [],
      "name": "GlobalExitRootInvalid",
      "type": "error"
    },
    {
      "inputs": [],
      "name": "InvalidSmtProof",
      "type": "error"
    },
    {
      "inputs": [],
      "name": "MerkleTreeFull",
      "type": "error"
    },
    {
      "inputs": [],
      "name": "MessageFailed",
      "type": "error"
    },
    {
      "inputs": [],
      "name": "MsgValueNotZero",
      "type": "error"
    },
    {
      "inputs": [],
      "name": "NativeTokenIsEther",
      "type": "error"
    },
    {
      "inputs": [],
      "name": "NoValueInMessagesOnGasTokenNetworks",
      "type": "error"
    },
    {
      "inputs": [],
      "name": "NotValidAmount",
      "type": "error"
    },
    {
      "inputs": [],
      "name": "NotValidOwner",
      "type": "error"
    },
    {
      "inputs": [],
      "name": "NotValidSignature",
      "type": "error"
    },
    {
      "inputs": [],
      "name": "NotValidSpender",
      "type": "error"
    },
    {
      "inputs": [],
      "name": "NotValidToken",
      "type": "error"
    },
    {
      "inputs": [],
      "name": "OnlyEmergencyState",
      "type": "error"
    },
    {
      "inputs": [],
      "name": "OnlyNotEmergencyState",
      "type": "error"
    },
    {
      "inputs": [],
      "name": "OnlyRollupManager",
      "type": "error"
    },
    {
      "anonymous": false,
      "inputs": [
        {
          "indexed": false,
          "internalType": "uint8",
          "name": "leafType",
          "type": "uint8"
        },
        {
          "indexed": false,
          "internalType": "uint32",
          "name": "originNetwork",
          "type": "uint32"
        },
        {
          "indexed": false,
          "internalType": "address",
          "name": "originAddress",
          "type": "address"
        },
        {
          "indexed": false,
          "internalType": "uint32",
          "name": "destinationNetwork",
          "type": "uint32"
        },
        {
          "indexed": false,
          "internalType": "address",
          "name": "destinationAddress",
          "type": "address"
        },
        {
          "indexed": false,
          "internalType": "uint256",
          "name": "amount",
          "type": "uint256"
        },
        {
          "indexed": false,
          "internalType": "bytes",
          "name": "metadata",
          "type": "bytes"
        },
        {
          "indexed": false,
          "internalType": "uint32",
          "name": "depositCount",
          "type": "uint32"
        }
      ],
      "name": "BridgeEvent",
      "type": "event"
    },
    {
      "anonymous": false,
      "inputs": [
        {
          "indexed": false,
          "internalType": "uint256",
          "name": "globalIndex",
          "type": "uint256"
        },
        {
          "indexed": false,
          "internalType": "uint32",
          "name": "originNetwork",
          "type": "uint32"
        },
        {
          "indexed": false,
          "internalType": "address",
          "name": "originAddress",
          "type": "address"
        },
        {
          "indexed": false,
          "internalType": "address",
          "name": "destinationAddress",
          "type": "address"
        },
        {
          "indexed": false,
          "internalType": "uint256",
          "name": "amount",
          "type": "uint256"
        }
      ],
      "name": "ClaimEvent",
      "type": "event"
    },
    {
      "anonymous": false,
      "inputs": [],
      "name": "EmergencyStateActivated",
      "type": "event"
    },
    {
      "anonymous": false,
      "inputs": [],
      "name": "EmergencyStateDeactivated",
      "type": "event"
    },
    {
      "anonymous": false,
      "inputs": [
        {
          "indexed": false,
          "internalType": "uint8",
          "name": "version",
          "type": "uint8"
        }
      ],
      "name": "Initialized",
      "type": "event"
    },
    {
      "anonymous": false,
      "inputs": [
        {
          "indexed": false,
          "internalType": "uint32",
          "name": "originNetwork",
          "type": "uint32"
        },
        {
          "indexed": false,
          "internalType": "address",
          "name": "originTokenAddress",
          "type": "address"
        },
        {
          "indexed": false,
          "internalType": "address",
          "name": "wrappedTokenAddress",
          "type": "address"
        },
        {
          "indexed": false,
          "internalType": "bytes",
          "name": "metadata",
          "type": "bytes"
        }
      ],
      "name": "NewWrappedToken",
      "type": "event"
    },
    {
      "inputs": [],
      "name": "BASE_INIT_BYTECODE_WRAPPED_TOKEN",
      "outputs": [
        {
          "internalType": "bytes",
          "name": "",
          "type": "bytes"
        }
      ],
      "stateMutability": "view",
      "type": "function"
    },
    {
      "inputs": [],
      "name": "WETHToken",
      "outputs": [
        {
          "internalType": "contract TokenWrapped",
          "name": "",
          "type": "address"
        }
      ],
      "stateMutability": "view",
      "type": "function"
    },
    {
      "inputs": [],
      "name": "activateEmergencyState",
      "outputs": [],
      "stateMutability": "nonpayable",
      "type": "function"
    },
    {
      "inputs": [],
      "name": "atc",
      "outputs": [
        {
          "internalType": "contract Token",
          "name": "",
          "type": "address"
        }
      ],
      "stateMutability": "view",
      "type": "function"
    },
    {
      "inputs": [],
      "name": "atcAccount",
      "outputs": [
        {
          "internalType": "string",
          "name": "",
          "type": "string"
        }
      ],
      "stateMutability": "view",
      "type": "function"
    },
    {
      "inputs": [
        {
          "internalType": "uint32",
          "name": "destinationNetwork",
          "type": "uint32"
        },
        {
          "internalType": "address",
          "name": "destinationAddress",
          "type": "address"
        },
        {
          "internalType": "uint256",
          "name": "amount",
          "type": "uint256"
        },
        {
          "internalType": "address",
          "name": "token",
          "type": "address"
        },
        {
          "internalType": "bool",
          "name": "forceUpdateGlobalExitRoot",
          "type": "bool"
        },
        {
          "internalType": "bytes",
          "name": "permitData",
          "type": "bytes"
        }
      ],
      "name": "bridgeAT",
      "outputs": [],
      "stateMutability": "payable",
      "type": "function"
    },
    {
      "inputs": [
        {
          "internalType": "uint32",
          "name": "destinationNetwork",
          "type": "uint32"
        },
        {
          "internalType": "address",
          "name": "destinationAddress",
          "type": "address"
        },
        {
          "internalType": "uint256",
          "name": "amount",
          "type": "uint256"
        },
        {
          "internalType": "address",
          "name": "token",
          "type": "address"
        },
        {
          "internalType": "bool",
          "name": "forceUpdateGlobalExitRoot",
          "type": "bool"
        },
        {
          "internalType": "bytes",
          "name": "permitData",
          "type": "bytes"
        }
      ],
      "name": "bridgeAsset",
      "outputs": [],
      "stateMutability": "payable",
      "type": "function"
    },
    {
      "inputs": [
        {
          "internalType": "uint32",
          "name": "destinationNetwork",
          "type": "uint32"
        },
        {
          "internalType": "address",
          "name": "destinationAddress",
          "type": "address"
        },
        {
          "internalType": "bool",
          "name": "forceUpdateGlobalExitRoot",
          "type": "bool"
        },
        {
          "internalType": "bytes",
          "name": "metadata",
          "type": "bytes"
        }
      ],
      "name": "bridgeMessage",
      "outputs": [],
      "stateMutability": "payable",
      "type": "function"
    },
    {
      "inputs": [
        {
          "internalType": "uint32",
          "name": "destinationNetwork",
          "type": "uint32"
        },
        {
          "internalType": "address",
          "name": "destinationAddress",
          "type": "address"
        },
        {
          "internalType": "uint256",
          "name": "amountWETH",
          "type": "uint256"
        },
        {
          "internalType": "bool",
          "name": "forceUpdateGlobalExitRoot",
          "type": "bool"
        },
        {
          "internalType": "bytes",
          "name": "metadata",
          "type": "bytes"
        }
      ],
      "name": "bridgeMessageWETH",
      "outputs": [],
      "stateMutability": "nonpayable",
      "type": "function"
    },
    {
      "inputs": [
        {
          "internalType": "bytes32",
          "name": "leafHash",
          "type": "bytes32"
        },
        {
          "internalType": "bytes32[32]",
          "name": "smtProof",
          "type": "bytes32[32]"
        },
        {
          "internalType": "uint32",
          "name": "index",
          "type": "uint32"
        }
      ],
      "name": "calculateRoot",
      "outputs": [
        {
          "internalType": "bytes32",
          "name": "",
          "type": "bytes32"
        }
      ],
      "stateMutability": "pure",
      "type": "function"
    },
    {
      "inputs": [
        {
          "internalType": "uint32",
          "name": "originNetwork",
          "type": "uint32"
        },
        {
          "internalType": "address",
          "name": "originTokenAddress",
          "type": "address"
        },
        {
          "internalType": "address",
          "name": "token",
          "type": "address"
        }
      ],
      "name": "calculateTokenWrapperAddress",
      "outputs": [
        {
          "internalType": "address",
          "name": "",
          "type": "address"
        }
      ],
      "stateMutability": "view",
      "type": "function"
    },
    {
      "inputs": [
        {
          "internalType": "bytes32[32]",
          "name": "smtProofLocalExitRoot",
          "type": "bytes32[32]"
        },
        {
          "internalType": "bytes32[32]",
          "name": "smtProofRollupExitRoot",
          "type": "bytes32[32]"
        },
        {
          "internalType": "uint256",
          "name": "globalIndex",
          "type": "uint256"
        },
        {
          "internalType": "bytes32",
          "name": "mainnetExitRoot",
          "type": "bytes32"
        },
        {
          "internalType": "bytes32",
          "name": "rollupExitRoot",
          "type": "bytes32"
        },
        {
          "internalType": "uint32",
          "name": "originNetwork",
          "type": "uint32"
        },
        {
          "internalType": "address",
          "name": "originTokenAddress",
          "type": "address"
        },
        {
          "internalType": "uint32",
          "name": "destinationNetwork",
          "type": "uint32"
        },
        {
          "internalType": "address",
          "name": "destinationAddress",
          "type": "address"
        },
        {
          "internalType": "uint256",
          "name": "amount",
          "type": "uint256"
        },
        {
          "internalType": "bytes",
          "name": "metadata",
          "type": "bytes"
        }
      ],
      "name": "claimAT",
      "outputs": [],
      "stateMutability": "nonpayable",
      "type": "function"
    },
    {
      "inputs": [
        {
          "internalType": "bytes32[32]",
          "name": "smtProofLocalExitRoot",
          "type": "bytes32[32]"
        },
        {
          "internalType": "bytes32[32]",
          "name": "smtProofRollupExitRoot",
          "type": "bytes32[32]"
        },
        {
          "internalType": "uint256",
          "name": "globalIndex",
          "type": "uint256"
        },
        {
          "internalType": "bytes32",
          "name": "mainnetExitRoot",
          "type": "bytes32"
        },
        {
          "internalType": "bytes32",
          "name": "rollupExitRoot",
          "type": "bytes32"
        },
        {
          "internalType": "uint32",
          "name": "originNetwork",
          "type": "uint32"
        },
        {
          "internalType": "address",
          "name": "originTokenAddress",
          "type": "address"
        },
        {
          "internalType": "uint32",
          "name": "destinationNetwork",
          "type": "uint32"
        },
        {
          "internalType": "address",
          "name": "destinationAddress",
          "type": "address"
        },
        {
          "internalType": "uint256",
          "name": "amount",
          "type": "uint256"
        },
        {
          "internalType": "bytes",
          "name": "metadata",
          "type": "bytes"
        }
      ],
      "name": "claimAsset",
      "outputs": [],
      "stateMutability": "nonpayable",
      "type": "function"
    },
    {
      "inputs": [
        {
          "internalType": "bytes32[32]",
          "name": "smtProofLocalExitRoot",
          "type": "bytes32[32]"
        },
        {
          "internalType": "bytes32[32]",
          "name": "smtProofRollupExitRoot",
          "type": "bytes32[32]"
        },
        {
          "internalType": "uint256",
          "name": "globalIndex",
          "type": "uint256"
        },
        {
          "internalType": "bytes32",
          "name": "mainnetExitRoot",
          "type": "bytes32"
        },
        {
          "internalType": "bytes32",
          "name": "rollupExitRoot",
          "type": "bytes32"
        },
        {
          "internalType": "uint32",
          "name": "originNetwork",
          "type": "uint32"
        },
        {
          "internalType": "address",
          "name": "originAddress",
          "type": "address"
        },
        {
          "internalType": "uint32",
          "name": "destinationNetwork",
          "type": "uint32"
        },
        {
          "internalType": "address",
          "name": "destinationAddress",
          "type": "address"
        },
        {
          "internalType": "uint256",
          "name": "amount",
          "type": "uint256"
        },
        {
          "internalType": "bytes",
          "name": "metadata",
          "type": "bytes"
        }
      ],
      "name": "claimMessage",
      "outputs": [],
      "stateMutability": "nonpayable",
      "type": "function"
    },
    {
      "inputs": [
        {
          "internalType": "uint256",
          "name": "",
          "type": "uint256"
        }
      ],
      "name": "claimedBitMap",
      "outputs": [
        {
          "internalType": "uint256",
          "name": "",
          "type": "uint256"
        }
      ],
      "stateMutability": "view",
      "type": "function"
    },
    {
      "inputs": [],
      "name": "deactivateEmergencyState",
      "outputs": [],
      "stateMutability": "nonpayable",
      "type": "function"
    },
    {
      "inputs": [],
      "name": "depositCount",
      "outputs": [
        {
          "internalType": "uint256",
          "name": "",
          "type": "uint256"
        }
      ],
      "stateMutability": "view",
      "type": "function"
    },
    {
      "inputs": [],
      "name": "gasTokenAddress",
      "outputs": [
        {
          "internalType": "address",
          "name": "",
          "type": "address"
        }
      ],
      "stateMutability": "view",
      "type": "function"
    },
    {
      "inputs": [],
      "name": "gasTokenMetadata",
      "outputs": [
        {
          "internalType": "bytes",
          "name": "",
          "type": "bytes"
        }
      ],
      "stateMutability": "view",
      "type": "function"
    },
    {
      "inputs": [],
      "name": "gasTokenNetwork",
      "outputs": [
        {
          "internalType": "uint32",
          "name": "",
          "type": "uint32"
        }
      ],
      "stateMutability": "view",
      "type": "function"
    },
    {
      "inputs": [
        {
          "internalType": "uint8",
          "name": "leafType",
          "type": "uint8"
        },
        {
          "internalType": "uint32",
          "name": "originNetwork",
          "type": "uint32"
        },
        {
          "internalType": "address",
          "name": "originAddress",
          "type": "address"
        },
        {
          "internalType": "uint32",
          "name": "destinationNetwork",
          "type": "uint32"
        },
        {
          "internalType": "address",
          "name": "destinationAddress",
          "type": "address"
        },
        {
          "internalType": "uint256",
          "name": "amount",
          "type": "uint256"
        },
        {
          "internalType": "bytes32",
          "name": "metadataHash",
          "type": "bytes32"
        }
      ],
      "name": "getLeafValue",
      "outputs": [
        {
          "internalType": "bytes32",
          "name": "",
          "type": "bytes32"
        }
      ],
      "stateMutability": "pure",
      "type": "function"
    },
    {
      "inputs": [],
      "name": "getRoot",
      "outputs": [
        {
          "internalType": "bytes32",
          "name": "",
          "type": "bytes32"
        }
      ],
      "stateMutability": "view",
      "type": "function"
    },
    {
      "inputs": [
        {
          "internalType": "address",
          "name": "token",
          "type": "address"
        }
      ],
      "name": "getTokenMetadata",
      "outputs": [
        {
          "internalType": "bytes",
          "name": "",
          "type": "bytes"
        }
      ],
      "stateMutability": "view",
      "type": "function"
    },
    {
      "inputs": [
        {
          "internalType": "uint32",
          "name": "originNetwork",
          "type": "uint32"
        },
        {
          "internalType": "address",
          "name": "originTokenAddress",
          "type": "address"
        }
      ],
      "name": "getTokenWrappedAddress",
      "outputs": [
        {
          "internalType": "address",
          "name": "",
          "type": "address"
        }
      ],
      "stateMutability": "view",
      "type": "function"
    },
    {
      "inputs": [],
      "name": "globalExitRootManager",
      "outputs": [
        {
          "internalType": "contract IBasePolygonZkEVMGlobalExitRoot",
          "name": "",
          "type": "address"
        }
      ],
      "stateMutability": "view",
      "type": "function"
    },
    {
      "inputs": [
        {
          "internalType": "uint32",
          "name": "_networkID",
          "type": "uint32"
        },
        {
          "internalType": "address",
          "name": "_gasTokenAddress",
          "type": "address"
        },
        {
          "internalType": "uint32",
          "name": "_gasTokenNetwork",
          "type": "uint32"
        },
        {
          "internalType": "contract IBasePolygonZkEVMGlobalExitRoot",
          "name": "_globalExitRootManager",
          "type": "address"
        },
        {
          "internalType": "address",
          "name": "_polygonRollupManager",
          "type": "address"
        },
        {
          "internalType": "bytes",
          "name": "_gasTokenMetadata",
          "type": "bytes"
        }
      ],
      "name": "initialize",
      "outputs": [],
      "stateMutability": "nonpayable",
      "type": "function"
    },
    {
      "inputs": [
        {
          "internalType": "uint32",
          "name": "leafIndex",
          "type": "uint32"
        },
        {
          "internalType": "uint32",
          "name": "sourceBridgeNetwork",
          "type": "uint32"
        }
      ],
      "name": "isClaimed",
      "outputs": [
        {
          "internalType": "bool",
          "name": "",
          "type": "bool"
        }
      ],
      "stateMutability": "view",
      "type": "function"
    },
    {
      "inputs": [],
      "name": "isEmergencyState",
      "outputs": [
        {
          "internalType": "bool",
          "name": "",
          "type": "bool"
        }
      ],
      "stateMutability": "view",
      "type": "function"
    },
    {
      "inputs": [],
      "name": "lastUpdatedDepositCount",
      "outputs": [
        {
          "internalType": "uint32",
          "name": "",
          "type": "uint32"
        }
      ],
      "stateMutability": "view",
      "type": "function"
    },
    {
      "inputs": [],
      "name": "networkID",
      "outputs": [
        {
          "internalType": "uint32",
          "name": "",
          "type": "uint32"
        }
      ],
      "stateMutability": "view",
      "type": "function"
    },
    {
      "inputs": [],
      "name": "polygonRollupManager",
      "outputs": [
        {
          "internalType": "address",
          "name": "",
          "type": "address"
        }
      ],
      "stateMutability": "view",
      "type": "function"
    },
    {
      "inputs": [
        {
          "internalType": "uint32",
          "name": "originNetwork",
          "type": "uint32"
        },
        {
          "internalType": "address",
          "name": "originTokenAddress",
          "type": "address"
        },
        {
          "internalType": "string",
          "name": "name",
          "type": "string"
        },
        {
          "internalType": "string",
          "name": "symbol",
          "type": "string"
        },
        {
          "internalType": "uint8",
          "name": "decimals",
          "type": "uint8"
        }
      ],
      "name": "precalculatedWrapperAddress",
      "outputs": [
        {
          "internalType": "address",
          "name": "",
          "type": "address"
        }
      ],
      "stateMutability": "view",
      "type": "function"
    },
    {
      "inputs": [
        {
          "internalType": "bytes32",
          "name": "",
          "type": "bytes32"
        }
      ],
      "name": "tokenInfoToWrappedToken",
      "outputs": [
        {
          "internalType": "address",
          "name": "",
          "type": "address"
        }
      ],
      "stateMutability": "view",
      "type": "function"
    },
    {
      "inputs": [],
      "name": "updateGlobalExitRoot",
      "outputs": [],
      "stateMutability": "nonpayable",
      "type": "function"
    },
    {
      "inputs": [
        {
          "internalType": "bytes32",
          "name": "leafHash",
          "type": "bytes32"
        },
        {
          "internalType": "bytes32[32]",
          "name": "smtProof",
          "type": "bytes32[32]"
        },
        {
          "internalType": "uint32",
          "name": "index",
          "type": "uint32"
        },
        {
          "internalType": "bytes32",
          "name": "root",
          "type": "bytes32"
        }
      ],
      "name": "verifyMerkleProof",
      "outputs": [
        {
          "internalType": "bool",
          "name": "",
          "type": "bool"
        }
      ],
      "stateMutability": "pure",
      "type": "function"
    },
    {
      "inputs": [
        {
          "internalType": "address",
          "name": "",
          "type": "address"
        }
      ],
      "name": "wrappedTokenToTokenInfo",
      "outputs": [
        {
          "internalType": "uint32",
          "name": "originNetwork",
          "type": "uint32"
        },
        {
          "internalType": "address",
          "name": "originTokenAddress",
          "type": "address"
        }
      ],
      "stateMutability": "view",
      "type": "function"
    }
  ],
  "bytecode": "0x608060405234801562000010575f80fd5b506200001b62000021565b620000e0565b5f54610100900460ff16156200008d5760405162461bcd60e51b815260206004820152602760248201527f496e697469616c697a61626c653a20636f6e747261637420697320696e697469604482015266616c697a696e6760c81b606482015260840160405180910390fd5b5f5460ff9081161015620000de575f805460ff191660ff9081179091556040519081527f7f26b83ff96e1f2b6a682f133852f6798a09c465da95921460cefb38474024989060200160405180910390a15b565b6166ad80620000ee5f395ff3fe608060405260043610610242575f3560e01c806383f2440311610131578063cc461632116100ac578063dbc169761161007c578063f5efcd7911610062578063f5efcd79146106a4578063f811bff7146106c3578063fb570834146106e2575f80fd5b8063dbc1697614610665578063ee25560b14610679575f80fd5b8063cc461632146105ec578063ccaa2d111461060b578063cd5865791461062a578063d02103ca1461063d575f80fd5b8063af907b6211610101578063bab161bf116100e7578063bab161bf14610589578063be5831c7146105aa578063c00f14ab146105cd575f80fd5b8063af907b621461054b578063b8b284d01461056a575f80fd5b806383f24403146104db5780638ed7e3f2146104fa5780639d211f2414610519578063aaa13cc21461052c575f80fd5b80633c351e10116101c15780635ca1e1651161019157806379e2cf971161017757806379e2cf971461047f57806381b1c1741461049357806383c43a55146104c7575f80fd5b80635ca1e1651461044c5780637843298b14610460575f80fd5b80633c351e10146103b75780633cbc795b146103d65780633e1970431461040e5780634b2f336d1461042d575f80fd5b806322e95f2c1161021657806327aef4e8116101fc57806327aef4e8146103185780632dfdf0b51461032c578063318aee3d1461034f575f80fd5b806322e95f2c146102ce578063240ff37814610305575f80fd5b80623efb051461024657806315064c96146102705780631bf1aee7146102995780632072f6c5146102ba575b5f80fd5b348015610251575f80fd5b5061025a610701565b60405161026791906139c3565b60405180910390f35b34801561027b575f80fd5b506068546102899060ff1681565b6040519015158152602001610267565b3480156102a4575f80fd5b506102b86102b3366004613a5c565b61078d565b005b3480156102c5575f80fd5b506102b86107f7565b3480156102d9575f80fd5b506102ed6102e8366004613b40565b61082c565b6040516001600160a01b039091168152602001610267565b6102b8610313366004613b82565b610896565b348015610323575f80fd5b5061025a61091f565b348015610337575f80fd5b5061034160535481565b604051908152602001610267565b34801561035a575f80fd5b50610393610369366004613bf7565b606b6020525f908152604090205463ffffffff81169064010000000090046001600160a01b031682565b6040805163ffffffff90931683526001600160a01b03909116602083015201610267565b3480156103c2575f80fd5b50606d546102ed906001600160a01b031681565b3480156103e1575f80fd5b50606d546103f990600160a01b900463ffffffff1681565b60405163ffffffff9091168152602001610267565b348015610419575f80fd5b50610341610428366004613c20565b61092c565b348015610438575f80fd5b50606f546102ed906001600160a01b031681565b348015610457575f80fd5b506103416109d5565b34801561046b575f80fd5b506102ed61047a366004613c9a565b610ab1565b34801561048a575f80fd5b506102b8610ada565b34801561049e575f80fd5b506102ed6104ad366004613ce0565b606a6020525f90815260409020546001600160a01b031681565b3480156104d2575f80fd5b5061025a610afb565b3480156104e6575f80fd5b506103416104f5366004613cf7565b610b1a565b348015610505575f80fd5b50606c546102ed906001600160a01b031681565b6102b8610527366004613d33565b610bef565b348015610537575f80fd5b506102ed610546366004613e88565b610c5b565b348015610556575f80fd5b506070546102ed906001600160a01b031681565b348015610575575f80fd5b506102b8610584366004613f1e565b610d9a565b348015610594575f80fd5b506068546103f990610100900463ffffffff1681565b3480156105b5575f80fd5b506068546103f990600160c81b900463ffffffff1681565b3480156105d8575f80fd5b5061025a6105e7366004613bf7565b610e75565b3480156105f7575f80fd5b50610289610606366004613f9c565b610eba565b348015610616575f80fd5b506102b8610625366004613a5c565b610f42565b6102b8610638366004613d33565b611473565b348015610648575f80fd5b506068546102ed906501000000000090046001600160a01b031681565b348015610670575f80fd5b506102b86118bd565b348015610684575f80fd5b50610341610693366004613ce0565b60696020525f908152604090205481565b3480156106af575f80fd5b506102b86106be366004613a5c565b6118f0565b3480156106ce575f80fd5b506102b86106dd366004613fcd565b611bb6565b3480156106ed575f80fd5b506102896106fc366004614070565b611ed1565b6071805461070e906140b5565b80601f016020809104026020016040519081016040528092919081815260200182805461073a906140b5565b80156107855780601f1061075c57610100808354040283529160200191610785565b820191905f5260205f20905b81548152906001019060200180831161076857829003601f168201915b505050505081565b60685460ff16156107b157604051630bc011ff60e21b815260040160405180910390fd5b60725460ff16156107d5576107d08c8c8c8c8c8c8c8c8c8c8c8c611ee8565b6107e9565b6107e98c8c8c8c8c8c8c8c8c8c8c8c6120fb565b505050505050505050505050565b606c546001600160a01b0316331461082257604051631736745960e31b815260040160405180910390fd5b61082a6121da565b565b6040805160e084901b6001600160e01b031916602080830191909152606084901b6bffffffffffffffffffffffff1916602483015282516018818403018152603890920183528151918101919091205f908152606a90915220546001600160a01b03165b92915050565b60685460ff16156108ba57604051630bc011ff60e21b815260040160405180910390fd5b34158015906108d35750606f546001600160a01b031615155b1561090a576040517f6f625c4000000000000000000000000000000000000000000000000000000000815260040160405180910390fd5b610918858534868686612235565b5050505050565b606e805461070e906140b5565b6040517fff0000000000000000000000000000000000000000000000000000000000000060f889901b1660208201526001600160e01b031960e088811b821660218401526bffffffffffffffffffffffff19606089811b821660258601529188901b909216603984015285901b16603d82015260518101839052607181018290525f90609101604051602081830303815290604052805190602001209050979650505050505050565b6053545f90819081805b6020811015610aa8578083901c600116600103610a3c5760338160208110610a0957610a096140ed565b01546040805160208101929092528101859052606001604051602081830303815290604052805190602001209350610a69565b60408051602081018690529081018390526060016040516020818303038152906040528051906020012093505b60408051602081018490529081018390526060016040516020818303038152906040528051906020012091508080610aa090614115565b9150506109df565b50919392505050565b5f610ad28484610ac0856122ff565b610ac9866123e9565b610546876124ca565b949350505050565b605354606854600160c81b900463ffffffff16101561082a5761082a612597565b60405180611ba00160405280611b668152602001614b12611b66913981565b5f83815b6020811015610be657600163ffffffff8516821c81169003610b8957848160208110610b4c57610b4c6140ed565b602002013582604051602001610b6c929190918252602082015260400190565b604051602081830303815290604052805190602001209150610bd4565b81858260208110610b9c57610b9c6140ed565b6020020135604051602001610bbb929190918252602082015260400190565b6040516020818303038152906040528051906020012091505b80610bde81614115565b915050610b1e565b50949350505050565b60685460ff1615610c1357604051630bc011ff60e21b815260040160405180910390fd5b610c1b612645565b60725460ff1615610c3a57610c358787878787878761269e565b610c49565b610c49878787878787876128bf565b610c5260018055565b50505050505050565b6040516001600160e01b031960e087901b1660208201526bffffffffffffffffffffffff19606086901b1660248201525f9081906038016040516020818303038152906040528051906020012090505f60ff60f81b308360405180611ba00160405280611b668152602001614b12611b669139898989604051602001610ce39392919061412d565b60408051601f1981840301815290829052610d019291602001614165565b60405160208183030381529060405280519060200120604051602001610d7694939291907fff0000000000000000000000000000000000000000000000000000000000000094909416845260609290921b6bffffffffffffffffffffffff191660018401526015830152603582015260550190565b60408051808303601f19018152919052805160209091012098975050505050505050565b60685460ff1615610dbe57604051630bc011ff60e21b815260040160405180910390fd5b606f546001600160a01b0316610e00576040517fdde3cda700000000000000000000000000000000000000000000000000000000815260040160405180910390fd5b606f54604051632770a7eb60e21b8152336004820152602481018690526001600160a01b0390911690639dc29fac906044015f604051808303815f87803b158015610e49575f80fd5b505af1158015610e5b573d5f803e3d5ffd5b50505050610e6d868686868686612235565b505050505050565b6060610e80826122ff565b610e89836123e9565b610e92846124ca565b604051602001610ea49392919061412d565b6040516020818303038152906040529050919050565b6068545f908190610100900463ffffffff16158015610edf575063ffffffff83166001145b15610ef1575063ffffffff8316610f19565b610f0664010000000063ffffffff8516614193565b610f169063ffffffff86166141aa565b90505b600881901c5f90815260696020526040902054600160ff9092169190911b908116149392505050565b60685460ff1615610f6657604051630bc011ff60e21b815260040160405180910390fd5b60685463ffffffff8681166101009092041614610f96576040516302caf51760e11b815260040160405180910390fd5b610fc98c8c8c8c8c610fc45f8e8e8e8e8e8e8e604051610fb79291906141bd565b604051809103902061092c565b612c3a565b6001600160a01b03861661111357606f546001600160a01b03166110ad575f6001600160a01b03851684825b6040519080825280601f01601f19166020018201604052801561101f576020820181803683370190505b5060405161102d91906141cc565b5f6040518083038185875af1925050503d805f8114611067576040519150601f19603f3d011682016040523d82523d5f602084013e61106c565b606091505b50509050806110a7576040517f6747a28800000000000000000000000000000000000000000000000000000000815260040160405180910390fd5b50611409565b606f546040516340c10f1960e01b81526001600160a01b03868116600483015260248201869052909116906340c10f19906044015f604051808303815f87803b1580156110f8575f80fd5b505af115801561110a573d5f803e3d5ffd5b50505050611409565b606d546001600160a01b0387811691161480156111415750606d5463ffffffff888116600160a01b90920416145b15611158575f6001600160a01b0385168482610ff5565b60685463ffffffff610100909104811690881603611189576111846001600160a01b0387168585612dcc565b611409565b6040516001600160e01b031960e089901b1660208201526bffffffffffffffffffffffff19606088901b1660248201525f9060380160408051601f1981840301815291815281516020928301205f818152606a9093529120549091506001600160a01b0316806113a8575f6112338386868080601f0160208091040260200160405190810160405280939291908181526020018383808284375f92019190915250612e4d92505050565b6040516340c10f1960e01b81526001600160a01b03898116600483015260248201899052919250908216906340c10f19906044015f604051808303815f87803b15801561127e575f80fd5b505af1158015611290573d5f803e3d5ffd5b5050505080606a5f8581526020019081526020015f205f6101000a8154816001600160a01b0302191690836001600160a01b0316021790555060405180604001604052808b63ffffffff1681526020018a6001600160a01b0316815250606b5f836001600160a01b03166001600160a01b031681526020019081526020015f205f820151815f015f6101000a81548163ffffffff021916908363ffffffff1602179055506020820151815f0160046101000a8154816001600160a01b0302191690836001600160a01b031602179055509050507f490e59a1701b938786ac72570a1efeac994a3dbe96e2e883e19e902ace6e6a398a8a83888860405161139a95949392919061420f565b60405180910390a150611406565b6040516340c10f1960e01b81526001600160a01b038781166004830152602482018790528216906340c10f19906044015f604051808303815f87803b1580156113ef575f80fd5b505af1158015611401573d5f803e3d5ffd5b505050505b50505b604080518b815263ffffffff891660208201526001600160a01b0388811682840152861660608201526080810185905290517f1df3f2a973a00d6635911755c260704e95e8a5876997546798770f76396fda4d9181900360a00190a1505050505050505050505050565b60685460ff161561149757604051630bc011ff60e21b815260040160405180910390fd5b61149f612645565b60685463ffffffff6101009091048116908816036114d0576040516302caf51760e11b815260040160405180910390fd5b5f806060876001600160a01b0388166115cc5788341461151c576040517fb89240f500000000000000000000000000000000000000000000000000000000815260040160405180910390fd5b606d54606e80546001600160a01b0383169650600160a01b90920463ffffffff16945090611549906140b5565b80601f0160208091040260200160405190810160405280929190818152602001828054611575906140b5565b80156115c05780601f10611597576101008083540402835291602001916115c0565b820191905f5260205f20905b8154815290600101906020018083116115a357829003601f168201915b5050505050915061183d565b34156115eb5760405163798ee6f160e01b815260040160405180910390fd5b606f546001600160a01b039081169089160361166157604051632770a7eb60e21b8152336004820152602481018a90526001600160a01b03891690639dc29fac906044015f604051808303815f87803b158015611646575f80fd5b505af1158015611658573d5f803e3d5ffd5b5050505061183d565b6001600160a01b038089165f908152606b602090815260409182902082518084019093525463ffffffff811683526401000000009004909216918101829052901561171357604051632770a7eb60e21b8152336004820152602481018b90526001600160a01b038a1690639dc29fac906044015f604051808303815f87803b1580156116eb575f80fd5b505af11580156116fd573d5f803e3d5ffd5b5050505080602001519450805f01519350611830565b851561172557611725898b8989612ee0565b6040516370a0823160e01b81523060048201525f906001600160a01b038b16906370a0823190602401602060405180830381865afa158015611769573d5f803e3d5ffd5b505050506040513d601f19601f8201168201806040525081019061178d9190614247565b90506117a46001600160a01b038b1633308e61324d565b6040516370a0823160e01b81523060048201525f906001600160a01b038c16906370a0823190602401602060405180830381865afa1580156117e8573d5f803e3d5ffd5b505050506040513d601f19601f8201168201806040525081019061180c9190614247565b9050611818828261425e565b6068548c9850610100900463ffffffff169650935050505b61183989610e75565b9250505b7f501781209a1f8899323b96b4ef08b168df93e0a90c673d1e4cce39366cb62f9b5f84868e8e868860535460405161187c989796959493929190614271565b60405180910390a16118a261189d5f85878f8f87898051906020012061092c565b61329e565b86156118b0576118b0612597565b50505050610c5260018055565b606c546001600160a01b031633146118e857604051631736745960e31b815260040160405180910390fd5b61082a613399565b60685460ff161561191457604051630bc011ff60e21b815260040160405180910390fd5b60685463ffffffff8681166101009092041614611944576040516302caf51760e11b815260040160405180910390fd5b6119668c8c8c8c8c610fc460018e8e8e8e8e8e8e604051610fb79291906141bd565b606f545f906001600160a01b0316611a1957846001600160a01b031684888a868660405160240161199a94939291906142da565b60408051601f198184030181529181526020820180516001600160e01b0316630c035af960e11b179052516119cf91906141cc565b5f6040518083038185875af1925050503d805f8114611a09576040519150601f19603f3d011682016040523d82523d5f602084013e611a0e565b606091505b505080915050611b14565b606f546040516340c10f1960e01b81526001600160a01b03878116600483015260248201879052909116906340c10f19906044015f604051808303815f87803b158015611a64575f80fd5b505af1158015611a76573d5f803e3d5ffd5b50505050846001600160a01b031687898585604051602401611a9b94939291906142da565b60408051601f198184030181529181526020820180516001600160e01b0316630c035af960e11b17905251611ad091906141cc565b5f604051808303815f865af19150503d805f8114611b09576040519150601f19603f3d011682016040523d82523d5f602084013e611b0e565b606091505b50909150505b80611b4b576040517f37e391c300000000000000000000000000000000000000000000000000000000815260040160405180910390fd5b604080518c815263ffffffff8a1660208201526001600160a01b0389811682840152871660608201526080810186905290517f1df3f2a973a00d6635911755c260704e95e8a5876997546798770f76396fda4d9181900360a00190a150505050505050505050505050565b5f54610100900460ff1615808015611bd457505f54600160ff909116105b80611bed5750303b158015611bed57505f5460ff166001145b611c645760405162461bcd60e51b815260206004820152602e60248201527f496e697469616c697a61626c653a20636f6e747261637420697320616c72656160448201527f647920696e697469616c697a656400000000000000000000000000000000000060648201526084015b60405180910390fd5b5f805460ff191660011790558015611c85575f805461ff0019166101001790555b606880547fffffffffffffff000000000000000000000000000000000000000000000000ff1661010063ffffffff8a16027fffffffffffffff0000000000000000000000000000000000000000ffffffffff1617650100000000006001600160a01b038781169190910291909117909155606c805473ffffffffffffffffffffffffffffffffffffffff19168583161790558616611d605763ffffffff851615611d5b576040517f1a874c1200000000000000000000000000000000000000000000000000000000815260040160405180910390fd5b611e7c565b606d805463ffffffff8716600160a01b027fffffffffffffffff0000000000000000000000000000000000000000000000009091166001600160a01b03891617179055606e611daf8382614357565b50611e4e5f801b6012604051602001611e3a91906060808252600d908201527f5772617070656420457468657200000000000000000000000000000000000000608082015260a0602082018190526004908201527f574554480000000000000000000000000000000000000000000000000000000060c082015260ff91909116604082015260e00190565b604051602081830303815290604052612e4d565b606f805473ffffffffffffffffffffffffffffffffffffffff19166001600160a01b03929092169190911790555b611e84613409565b8015610c52575f805461ff0019169055604051600181527f7f26b83ff96e1f2b6a682f133852f6798a09c465da95921460cefb38474024989060200160405180910390a150505050505050565b5f81611ede868686610b1a565b1495945050505050565b60685463ffffffff8681166101009092041614611f18576040516302caf51760e11b815260040160405180910390fd5b6001600160a01b0384163014611f41576040516302caf51760e11b815260040160405180910390fd5b611f628c8c8c8c8c610fc45f8e8e8e8e8e8e8e604051610fb79291906141bd565b5f8080611f7184860186614413565b9250925092506071604051602001611f899190614495565b6040516020818303038152906040528051906020012081604051602001611fb091906141cc565b6040516020818303038152906040528051906020012014611fe45760405163912ecce760e01b815260040160405180910390fd5b6070546040805160208082018f905282518083039091018152818301928390527f2da1d60a000000000000000000000000000000000000000000000000000000009092526001600160a01b0390921691632da1d60a9161204d91879187918c9190604401614507565b6020604051808303815f875af1158015612069573d5f803e3d5ffd5b505050506040513d601f19601f8201168201806040525081019061208d9190614545565b50604080518e815263ffffffff8c1660208201526001600160a01b038b811682840152891660608201526080810188905290517f1df3f2a973a00d6635911755c260704e95e8a5876997546798770f76396fda4d9181900360a00190a1505050505050505050505050505050565b60685463ffffffff868116610100909204161461212b576040516302caf51760e11b815260040160405180910390fd5b6001600160a01b0384163014612154576040516302caf51760e11b815260040160405180910390fd5b6121758c8c8c8c8c610fc45f8e8e8e8e8e8e8e604051610fb79291906141bd565b5f808061218484860186614413565b9250925092506070546040517f6eaf982f0000000000000000000000000000000000000000000000000000000081526001600160a01b0390911690636eaf982f9061204d90869060719087908c906004016145d9565b60685460ff16156121fe57604051630bc011ff60e21b815260040160405180910390fd5b6068805460ff191660011790556040517f2261efe5aef6fedc1fd1550b25facc9181745623049c7901287030b9ad1a5497905f90a1565b60685463ffffffff610100909104811690871603612266576040516302caf51760e11b815260040160405180910390fd5b7f501781209a1f8899323b96b4ef08b168df93e0a90c673d1e4cce39366cb62f9b6001606860019054906101000a900463ffffffff163389898988886053546040516122ba9998979695949392919061463a565b60405180910390a16122f161189d6001606860019054906101000a900463ffffffff16338a8a8a8989604051610fb79291906141bd565b8215610e6d57610e6d612597565b60408051600481526024810182526020810180516001600160e01b03167f06fdde030000000000000000000000000000000000000000000000000000000017905290516060915f9182916001600160a01b0386169161235e91906141cc565b5f60405180830381855afa9150503d805f8114612396576040519150601f19603f3d011682016040523d82523d5f602084013e61239b565b606091505b5091509150816123e0576040518060400160405280600781526020017f4e4f5f4e414d4500000000000000000000000000000000000000000000000000815250610ad2565b610ad28161347b565b60408051600481526024810182526020810180516001600160e01b03167f95d89b410000000000000000000000000000000000000000000000000000000017905290516060915f9182916001600160a01b0386169161244891906141cc565b5f60405180830381855afa9150503d805f8114612480576040519150601f19603f3d011682016040523d82523d5f602084013e612485565b606091505b5091509150816123e0576040518060400160405280600981526020017f4e4f5f53594d424f4c0000000000000000000000000000000000000000000000815250610ad2565b60408051600481526024810182526020810180516001600160e01b03167f313ce5670000000000000000000000000000000000000000000000000000000017905290515f91829182916001600160a01b0386169161252891906141cc565b5f60405180830381855afa9150503d805f8114612560576040519150601f19603f3d011682016040523d82523d5f602084013e612565565b606091505b5091509150818015612578575080516020145b612583576012610ad2565b80806020019051810190610ad291906146a5565b6053546068805463ffffffff909216600160c81b027fffffff00000000ffffffffffffffffffffffffffffffffffffffffffffffffff90921691909117908190556001600160a01b0365010000000000909104166333d6247d6125f86109d5565b6040518263ffffffff1660e01b815260040161261691815260200190565b5f604051808303815f87803b15801561262d575f80fd5b505af115801561263f573d5f803e3d5ffd5b50505050565b6002600154036126975760405162461bcd60e51b815260206004820152601f60248201527f5265656e7472616e637947756172643a207265656e7472616e742063616c6c006044820152606401611c5b565b6002600155565b60685463ffffffff6101009091048116908816036126cf576040516302caf51760e11b815260040160405180910390fd5b6070546068546001600160a01b039182169161010090910463ffffffff1690606090889088166127125760405163ee17566b60e01b815260040160405180910390fd5b34156127315760405163798ee6f160e01b815260040160405180910390fd5b6070546001600160a01b039081169089160361282b575f612754868801886146c0565b90505f6040518060400160405280600b81526020017f67656e65726174652d6d650000000000000000000000000000000000000000008152509050896001600160a01b0316630146543082848e6040518463ffffffff1660e01b81526004016127bf939291906146f2565b6020604051808303815f875af11580156127db573d5f803e3d5ffd5b505050506040513d601f19601f820116820180604052508101906127ff9190614545565b508082604051602001612813929190614165565b60405160208183030381529060405293505050612844565b60405163ee17566b60e01b815260040160405180910390fd5b7f501781209a1f8899323b96b4ef08b168df93e0a90c673d1e4cce39366cb62f9b5f84868e8e8688605354604051612883989796959493929190614271565b60405180910390a16128a461189d5f85878f8f87898051906020012061092c565b86156128b2576128b2612597565b5050505050505050505050565b60685463ffffffff6101009091048116908816036128f0576040516302caf51760e11b815260040160405180910390fd5b6070546068546001600160a01b039182169161010090910463ffffffff1690606090889088166129335760405163ee17566b60e01b815260040160405180910390fd5b34156129525760405163798ee6f160e01b815260040160405180910390fd5b5f85900361297357604051637141605d60e11b815260040160405180910390fd5b6070546001600160a01b039081169089160361282b57875f612997878901896146c0565b90505f805f805f805f805f8a6001600160a01b031663e1838cd28b6040518263ffffffff1660e01b81526004016129ce91906139c3565b5f60405180830381865afa1580156129e8573d5f803e3d5ffd5b505050506040513d5f823e601f3d908101601f19168201604052612a0f9190810190614781565b9850985098509850985098509850985098506071604051602001612a339190614495565b6040516020818303038152906040528051906020012088604051602001612a5a91906141cc565b60408051601f198184030190525250604051638349b14b60e01b81525f906001600160a01b038d1690638349b14b90612a9890607190600401614855565b602060405180830381865afa158015612ab3573d5f803e3d5ffd5b505050506040513d601f19601f82011682018060405250810190612ad79190614247565b6040517fa79cf1850000000000000000000000000000000000000000000000000000000081529091506001600160a01b038d169063a79cf18590612b1f908e906004016139c3565b6020604051808303815f875af1158015612b3b573d5f803e3d5ffd5b505050506040513d601f19601f82011682018060405250810190612b5f9190614545565b50604051638349b14b60e01b81525f906001600160a01b038e1690638349b14b90612b8f90607190600401614855565b602060405180830381865afa158015612baa573d5f803e3d5ffd5b505050506040513d601f19601f82011682018060405250810190612bce9190614247565b9050612bda828261425e565b9d508d8814612bfc576040516303fffc4b60e01b815260040160405180910390fd5b8b8b8b604051602001612c1193929190614867565b6040516020818303038152906040529e5050505050505050505050505050612844565b60018055565b606854604080516020808201879052818301869052825180830384018152606083019384905280519101207f257b36320000000000000000000000000000000000000000000000000000000090925260648101919091525f916501000000000090046001600160a01b03169063257b3632906084016020604051808303815f875af1158015612ccb573d5f803e3d5ffd5b505050506040513d601f19601f82011682018060405250810190612cef9190614247565b9050805f03612d29576040517e2f6fad00000000000000000000000000000000000000000000000000000000815260040160405180910390fd5b5f8068010000000000000000871615612d6d57869150612d4b848a8489611ed1565b612d68576040516338105f3b60e21b815260040160405180910390fd5b612db7565b602087901c612d7d81600161489f565b9150879250612d98612d90868c86610b1a565b8a8389611ed1565b612db5576040516338105f3b60e21b815260040160405180910390fd5b505b612dc1828261364b565b505050505050505050565b6040516001600160a01b038316602482015260448101829052612e489084907fa9059cbb00000000000000000000000000000000000000000000000000000000906064015b60408051601f198184030181529190526020810180516001600160e01b03166001600160e01b03199093169290921790915261370b565b505050565b5f8060405180611ba00160405280611b668152602001614b12611b66913983604051602001612e7d929190614165565b6040516020818303038152906040529050838151602083015ff591506001600160a01b038216612ed9576040517fbefb092000000000000000000000000000000000000000000000000000000000815260040160405180910390fd5b5092915050565b5f612eee60048284866148bc565b612ef7916148e3565b90507f2afa5331000000000000000000000000000000000000000000000000000000006001600160e01b03198216016130b8575f808080808080612f3e896004818d6148bc565b810190612f4b9190614913565b9650965096509650965096509650336001600160a01b0316876001600160a01b031614612f8b5760405163912ecce760e01b815260040160405180910390fd5b6001600160a01b0386163014612fb45760405163750643af60e01b815260040160405180910390fd5b8a8514612fd4576040516303fffc4b60e01b815260040160405180910390fd5b604080516001600160a01b0389811660248301528881166044830152606482018890526084820187905260ff861660a483015260c4820185905260e48083018590528351808403909101815261010490920183526020820180516001600160e01b03167fd505accf000000000000000000000000000000000000000000000000000000001790529151918e169161306b91906141cc565b5f604051808303815f865af19150503d805f81146130a4576040519150601f19603f3d011682016040523d82523d5f602084013e6130a9565b606091505b50505050505050505050610918565b6001600160e01b031981166323f2ebc360e21b146130e957604051637141605d60e11b815260040160405180910390fd5b5f808080808080806130fe8a6004818e6148bc565b81019061310b9190614962565b97509750975097509750975097509750336001600160a01b0316886001600160a01b03161461314d5760405163912ecce760e01b815260040160405180910390fd5b6001600160a01b03871630146131765760405163750643af60e01b815260040160405180910390fd5b604080516001600160a01b038a811660248301528981166044830152606482018990526084820188905286151560a483015260ff861660c483015260e482018590526101048083018590528351808403909101815261012490920183526020820180516001600160e01b03166323f2ebc360e21b1790529151918f16916131fd91906141cc565b5f604051808303815f865af19150503d805f8114613236576040519150601f19603f3d011682016040523d82523d5f602084013e61323b565b606091505b50505050505050505050505050505050565b6040516001600160a01b038085166024830152831660448201526064810182905261263f9085907f23b872dd0000000000000000000000000000000000000000000000000000000090608401612e11565b8060016132ad60206002614ac0565b6132b7919061425e565b605354106132f1576040517fef5ccf6600000000000000000000000000000000000000000000000000000000815260040160405180910390fd5b5f60535f815461330090614115565b918290555090505f5b6020811015613390578082901c60011660010361333c578260338260208110613334576133346140ed565b015550505050565b6033816020811061334f5761334f6140ed565b01546040805160208101929092528101849052606001604051602081830303815290604052805190602001209250808061338890614115565b915050613309565b50612e48614acb565b60685460ff166133d5576040517f5386698100000000000000000000000000000000000000000000000000000000815260040160405180910390fd5b6068805460ff191690556040517f1e5e34eea33501aecf2ebec9fe0e884a40804275ea7fe10b2ba084c8374308b3905f90a1565b5f54610100900460ff166134735760405162461bcd60e51b815260206004820152602b60248201527f496e697469616c697a61626c653a20636f6e7472616374206973206e6f74206960448201526a6e697469616c697a696e6760a81b6064820152608401611c5b565b61082a6137ef565b6060604082511061349a57818060200190518101906108909190614adf565b815160200361360d575f5b6020811080156134ec57508281815181106134c2576134c26140ed565b01602001517fff000000000000000000000000000000000000000000000000000000000000001615155b1561350357806134fb81614115565b9150506134a5565b805f0361354557505060408051808201909152601281527f4e4f545f56414c49445f454e434f44494e4700000000000000000000000000006020820152919050565b5f8167ffffffffffffffff81111561355f5761355f613dc3565b6040519080825280601f01601f191660200182016040528015613589576020820181803683370190505b5090505f5b82811015613605578481815181106135a8576135a86140ed565b602001015160f81c60f81b8282815181106135c5576135c56140ed565b60200101907effffffffffffffffffffffffffffffffffffffffffffffffffffffffffffff191690815f1a905350806135fd81614115565b91505061358e565b509392505050565b505060408051808201909152601281527f4e4f545f56414c49445f454e434f44494e470000000000000000000000000000602082015290565b919050565b6068545f90610100900463ffffffff1615801561366e575063ffffffff82166001145b15613680575063ffffffff82166136a8565b61369564010000000063ffffffff8416614193565b6136a59063ffffffff85166141aa565b90505b600881901c5f8181526069602052604081208054600160ff861690811b91821892839055929091908183169003610c52576040517f646cf55800000000000000000000000000000000000000000000000000000000815260040160405180910390fd5b5f61375f826040518060400160405280602081526020017f5361666545524332303a206c6f772d6c6576656c2063616c6c206661696c6564815250856001600160a01b03166138599092919063ffffffff16565b805190915015612e48578080602001905181019061377d9190614545565b612e485760405162461bcd60e51b815260206004820152602a60248201527f5361666545524332303a204552433230206f7065726174696f6e20646964206e60448201527f6f742073756363656564000000000000000000000000000000000000000000006064820152608401611c5b565b5f54610100900460ff16612c345760405162461bcd60e51b815260206004820152602b60248201527f496e697469616c697a61626c653a20636f6e7472616374206973206e6f74206960448201526a6e697469616c697a696e6760a81b6064820152608401611c5b565b6060610ad284845f85855f80866001600160a01b0316858760405161387e91906141cc565b5f6040518083038185875af1925050503d805f81146138b8576040519150601f19603f3d011682016040523d82523d5f602084013e6138bd565b606091505b50915091506138ce878383876138d9565b979650505050505050565b606083156139475782515f03613940576001600160a01b0385163b6139405760405162461bcd60e51b815260206004820152601d60248201527f416464726573733a2063616c6c20746f206e6f6e2d636f6e74726163740000006044820152606401611c5b565b5081610ad2565b610ad2838381511561395c5781518083602001fd5b8060405162461bcd60e51b8152600401611c5b91906139c3565b5f5b83811015613990578181015183820152602001613978565b50505f910152565b5f81518084526139af816020860160208601613976565b601f01601f19169290920160200192915050565b602081525f6139d56020830184613998565b9392505050565b806104008101831015610890575f80fd5b803563ffffffff81168114613646575f80fd5b6001600160a01b0381168114613a14575f80fd5b50565b5f8083601f840112613a27575f80fd5b50813567ffffffffffffffff811115613a3e575f80fd5b602083019150836020828501011115613a55575f80fd5b9250929050565b5f805f805f805f805f805f806109208d8f031215613a78575f80fd5b613a828e8e6139dc565b9b50613a928e6104008f016139dc565b9a506108008d013599506108208d013598506108408d01359750613ab96108608e016139ed565b9650613ac96108808e0135613a00565b6108808d01359550613ade6108a08e016139ed565b9450613aee6108c08e0135613a00565b6108c08d013593506108e08d0135925067ffffffffffffffff6109008e01351115613b17575f80fd5b613b288e6109008f01358f01613a17565b81935080925050509295989b509295989b509295989b565b5f8060408385031215613b51575f80fd5b613b5a836139ed565b91506020830135613b6a81613a00565b809150509250929050565b8015158114613a14575f80fd5b5f805f805f60808688031215613b96575f80fd5b613b9f866139ed565b94506020860135613baf81613a00565b93506040860135613bbf81613b75565b9250606086013567ffffffffffffffff811115613bda575f80fd5b613be688828901613a17565b969995985093965092949392505050565b5f60208284031215613c07575f80fd5b81356139d581613a00565b60ff81168114613a14575f80fd5b5f805f805f805f60e0888a031215613c36575f80fd5b8735613c4181613c12565b9650613c4f602089016139ed565b95506040880135613c5f81613a00565b9450613c6d606089016139ed565b93506080880135613c7d81613a00565b9699959850939692959460a0840135945060c09093013592915050565b5f805f60608486031215613cac575f80fd5b613cb5846139ed565b92506020840135613cc581613a00565b91506040840135613cd581613a00565b809150509250925092565b5f60208284031215613cf0575f80fd5b5035919050565b5f805f6104408486031215613d0a575f80fd5b83359250613d1b85602086016139dc565b9150613d2a61042085016139ed565b90509250925092565b5f805f805f805f60c0888a031215613d49575f80fd5b613d52886139ed565b96506020880135613d6281613a00565b9550604088013594506060880135613d7981613a00565b93506080880135613d8981613b75565b925060a088013567ffffffffffffffff811115613da4575f80fd5b613db08a828b01613a17565b989b979a50959850939692959293505050565b634e487b7160e01b5f52604160045260245ffd5b604051601f8201601f1916810167ffffffffffffffff81118282101715613e0057613e00613dc3565b604052919050565b5f67ffffffffffffffff821115613e2157613e21613dc3565b50601f01601f191660200190565b5f613e41613e3c84613e08565b613dd7565b9050828152838383011115613e54575f80fd5b828260208301375f602084830101529392505050565b5f82601f830112613e79575f80fd5b6139d583833560208501613e2f565b5f805f805f60a08688031215613e9c575f80fd5b613ea5866139ed565b94506020860135613eb581613a00565b9350604086013567ffffffffffffffff80821115613ed1575f80fd5b613edd89838a01613e6a565b94506060880135915080821115613ef2575f80fd5b50613eff88828901613e6a565b9250506080860135613f1081613c12565b809150509295509295909350565b5f805f805f8060a08789031215613f33575f80fd5b613f3c876139ed565b95506020870135613f4c81613a00565b9450604087013593506060870135613f6381613b75565b9250608087013567ffffffffffffffff811115613f7e575f80fd5b613f8a89828a01613a17565b979a9699509497509295939492505050565b5f8060408385031215613fad575f80fd5b613fb6836139ed565b9150613fc4602084016139ed565b90509250929050565b5f805f805f8060c08789031215613fe2575f80fd5b613feb876139ed565b95506020870135613ffb81613a00565b9450614009604088016139ed565b9350606087013561401981613a00565b9250608087013561402981613a00565b915060a087013567ffffffffffffffff811115614044575f80fd5b8701601f81018913614054575f80fd5b61406389823560208401613e2f565b9150509295509295509295565b5f805f806104608587031215614084575f80fd5b8435935061409586602087016139dc565b92506140a461042086016139ed565b939692955092936104400135925050565b600181811c908216806140c957607f821691505b6020821081036140e757634e487b7160e01b5f52602260045260245ffd5b50919050565b634e487b7160e01b5f52603260045260245ffd5b634e487b7160e01b5f52601160045260245ffd5b5f6001820161412657614126614101565b5060010190565b606081525f61413f6060830186613998565b82810360208401526141518186613998565b91505060ff83166040830152949350505050565b5f8351614176818460208801613976565b83519083019061418a818360208801613976565b01949350505050565b808202811582820484141761089057610890614101565b8082018082111561089057610890614101565b818382375f9101908152919050565b5f82516141dd818460208701613976565b9190910192915050565b81835281816020850137505f828201602090810191909152601f909101601f19169091010190565b63ffffffff861681525f6001600160a01b038087166020840152808616604084015250608060608301526138ce6080830184866141e7565b5f60208284031215614257575f80fd5b5051919050565b8181038181111561089057610890614101565b5f61010060ff8b16835263ffffffff808b1660208501526001600160a01b03808b166040860152818a1660608601528089166080860152508660a08501528160c08501526142c182850187613998565b925080851660e085015250509998505050505050505050565b6001600160a01b038516815263ffffffff84166020820152606060408201525f6143086060830184866141e7565b9695505050505050565b601f821115612e48575f81815260208120601f850160051c810160208610156143385750805b601f850160051c820191505b81811015610e6d57828155600101614344565b815167ffffffffffffffff81111561437157614371613dc3565b6143858161437f84546140b5565b84614312565b602080601f8311600181146143b8575f84156143a15750858301515b5f19600386901b1c1916600185901b178555610e6d565b5f85815260208120601f198616915b828110156143e6578886015182559484019460019091019084016143c7565b508582101561440357878501515f19600388901b60f8161c191681555b5050505050600190811b01905550565b5f805f60608486031215614425575f80fd5b833567ffffffffffffffff8082111561443c575f80fd5b61444887838801613e6a565b9450602086013591508082111561445d575f80fd5b61446987838801613e6a565b9350604086013591508082111561447e575f80fd5b5061448b86828701613e6a565b9150509250925092565b5f8083546144a2816140b5565b600182811680156144ba57600181146144cf576144fb565b60ff19841687528215158302870194506144fb565b875f526020805f205f5b858110156144f25781548a8201529084019082016144d9565b50505082870194505b50929695505050505050565b608081525f6145196080830187613998565b828103602084015261452b8187613998565b905084604084015282810360608401526138ce8185613998565b5f60208284031215614555575f80fd5b81516139d581613b75565b5f815461456c816140b5565b80855260206001838116801561458957600181146145a3576145ce565b60ff1985168884015283151560051b8801830195506145ce565b865f52825f205f5b858110156145c65781548a82018601529083019084016145ab565b890184019650505b505050505092915050565b60a081525f6145eb60a0830187613998565b82810360208401526145fd8187614560565b905082810360408401526146118186613998565b905083606084015282810360808401526138ce816002815261060f60f31b602082015260400190565b5f61010060ff8c16835263ffffffff808c1660208501526001600160a01b03808c166040860152818b166060860152808a166080860152508760a08501528160c085015261468b82850187896141e7565b925080851660e085015250509a9950505050505050505050565b5f602082840312156146b5575f80fd5b81516139d581613c12565b5f602082840312156146d0575f80fd5b813567ffffffffffffffff8111156146e6575f80fd5b610ad284828501613e6a565b608081525f6147046080830186613998565b82810360208401526147168186613998565b90508360408401528281036060840152614308816002815261060f60f31b602082015260400190565b5f82601f83011261474e575f80fd5b815161475c613e3c82613e08565b818152846020838601011115614770575f80fd5b610ad2826020830160208701613976565b5f805f805f805f805f6101208a8c03121561479a575f80fd5b895167ffffffffffffffff808211156147b1575f80fd5b6147bd8d838e0161473f565b9a5060208c01519150808211156147d2575f80fd5b6147de8d838e0161473f565b995060408c01519150808211156147f3575f80fd5b6147ff8d838e0161473f565b985060608c0151975060808c0151965060a08c0151915080821115614822575f80fd5b5061482f8c828d0161473f565b94505060c08a0151925060e08a015191506101008a015190509295985092959850929598565b602081525f6139d56020830184614560565b606081525f6148796060830186613998565b828103602084015261488b8186613998565b905082810360408401526143088185613998565b63ffffffff818116838216019080821115612ed957612ed9614101565b5f80858511156148ca575f80fd5b838611156148d6575f80fd5b5050820193919092039150565b6001600160e01b0319813581811691600485101561490b5780818660040360031b1b83161692505b505092915050565b5f805f805f805f60e0888a031215614929575f80fd5b873561493481613a00565b9650602088013561494481613a00565b955060408801359450606088013593506080880135613c7d81613c12565b5f805f805f805f80610100898b03121561497a575f80fd5b883561498581613a00565b9750602089013561499581613a00565b9650604089013595506060890135945060808901356149b381613b75565b935060a08901356149c381613c12565b979a969950949793969295929450505060c08201359160e0013590565b600181815b80851115614a1a57815f1904821115614a0057614a00614101565b80851615614a0d57918102915b93841c93908002906149e5565b509250929050565b5f82614a3057506001610890565b81614a3c57505f610890565b8160018114614a525760028114614a5c57614a78565b6001915050610890565b60ff841115614a6d57614a6d614101565b50506001821b610890565b5060208310610133831016604e8410600b8410161715614a9b575081810a610890565b614aa583836149e0565b805f1904821115614ab857614ab8614101565b029392505050565b5f6139d58383614a22565b634e487b7160e01b5f52600160045260245ffd5b5f60208284031215614aef575f80fd5b815167ffffffffffffffff811115614b05575f80fd5b610ad28482850161473f56fe6101006040523480156200001257600080fd5b5060405162001b6638038062001b6683398101604081905262000035916200028d565b82826003620000458382620003a1565b506004620000548282620003a1565b50503360c0525060ff811660e052466080819052620000739062000080565b60a052506200046d915050565b60007f8b73c3c69bb8fe3d512ecc4cf759cc79239f7b179b0ffacaa9a75d522b39400f620000ad6200012e565b805160209182012060408051808201825260018152603160f81b90840152805192830193909352918101919091527fc89efdaa54c0f20c7adf612882df0950f5a951637e0307cdcb4c672f298b8bc66060820152608081018390523060a082015260c001604051602081830303815290604052805190602001209050919050565b6060600380546200013f9062000312565b80601f01602080910402602001604051908101604052809291908181526020018280546200016d9062000312565b8015620001be5780601f106200019257610100808354040283529160200191620001be565b820191906000526020600020905b815481529060010190602001808311620001a057829003601f168201915b5050505050905090565b634e487b7160e01b600052604160045260246000fd5b600082601f830112620001f057600080fd5b81516001600160401b03808211156200020d576200020d620001c8565b604051601f8301601f19908116603f01168101908282118183101715620002385762000238620001c8565b816040528381526020925086838588010111156200025557600080fd5b600091505b838210156200027957858201830151818301840152908201906200025a565b600093810190920192909252949350505050565b600080600060608486031215620002a357600080fd5b83516001600160401b0380821115620002bb57600080fd5b620002c987838801620001de565b94506020860151915080821115620002e057600080fd5b50620002ef86828701620001de565b925050604084015160ff811681146200030757600080fd5b809150509250925092565b600181811c908216806200032757607f821691505b6020821081036200034857634e487b7160e01b600052602260045260246000fd5b50919050565b601f8211156200039c57600081815260208120601f850160051c81016020861015620003775750805b601f850160051c820191505b81811015620003985782815560010162000383565b5050505b505050565b81516001600160401b03811115620003bd57620003bd620001c8565b620003d581620003ce845462000312565b846200034e565b602080601f8311600181146200040d5760008415620003f45750858301515b600019600386901b1c1916600185901b17855562000398565b600085815260208120601f198616915b828110156200043e578886015182559484019460019091019084016200041d565b50858210156200045d5787850151600019600388901b60f8161c191681555b5050505050600190811b01905550565b60805160a05160c05160e0516116aa620004bc6000396000610237015260008181610307015281816105c001526106a70152600061053a015260008181610379015261050401526116aa6000f3fe608060405234801561001057600080fd5b50600436106101775760003560e01c806370a08231116100d8578063a457c2d71161008c578063d505accf11610066578063d505accf1461039b578063dd62ed3e146103ae578063ffa1ad74146103f457600080fd5b8063a457c2d71461034e578063a9059cbb14610361578063cd0d00961461037457600080fd5b806395d89b41116100bd57806395d89b41146102e75780639dc29fac146102ef578063a3c573eb1461030257600080fd5b806370a08231146102915780637ecebe00146102c757600080fd5b806330adf81f1161012f5780633644e515116101145780633644e51514610261578063395093511461026957806340c10f191461027c57600080fd5b806330adf81f14610209578063313ce5671461023057600080fd5b806318160ddd1161016057806318160ddd146101bd57806320606b70146101cf57806323b872dd146101f657600080fd5b806306fdde031461017c578063095ea7b31461019a575b600080fd5b610184610430565b60405161019191906113e4565b60405180910390f35b6101ad6101a8366004611479565b6104c2565b6040519015158152602001610191565b6002545b604051908152602001610191565b6101c17f8b73c3c69bb8fe3d512ecc4cf759cc79239f7b179b0ffacaa9a75d522b39400f81565b6101ad6102043660046114a3565b6104dc565b6101c17f6e71edae12b1b97f4d1f60370fef10105fa2faae0126114a169c64845d6126c981565b60405160ff7f0000000000000000000000000000000000000000000000000000000000000000168152602001610191565b6101c1610500565b6101ad610277366004611479565b61055c565b61028f61028a366004611479565b6105a8565b005b6101c161029f3660046114df565b73ffffffffffffffffffffffffffffffffffffffff1660009081526020819052604090205490565b6101c16102d53660046114df565b60056020526000908152604090205481565b610184610680565b61028f6102fd366004611479565b61068f565b6103297f000000000000000000000000000000000000000000000000000000000000000081565b60405173ffffffffffffffffffffffffffffffffffffffff9091168152602001610191565b6101ad61035c366004611479565b61075e565b6101ad61036f366004611479565b61082f565b6101c17f000000000000000000000000000000000000000000000000000000000000000081565b61028f6103a9366004611501565b61083d565b6101c16103bc366004611574565b73ffffffffffffffffffffffffffffffffffffffff918216600090815260016020908152604080832093909416825291909152205490565b6101846040518060400160405280600181526020017f310000000000000000000000000000000000000000000000000000000000000081525081565b60606003805461043f906115a7565b80601f016020809104026020016040519081016040528092919081815260200182805461046b906115a7565b80156104b85780601f1061048d576101008083540402835291602001916104b8565b820191906000526020600020905b81548152906001019060200180831161049b57829003601f168201915b5050505050905090565b6000336104d0818585610b73565b60019150505b92915050565b6000336104ea858285610d27565b6104f5858585610dfe565b506001949350505050565b60007f00000000000000000000000000000000000000000000000000000000000000004614610537576105324661106d565b905090565b507f000000000000000000000000000000000000000000000000000000000000000090565b33600081815260016020908152604080832073ffffffffffffffffffffffffffffffffffffffff871684529091528120549091906104d090829086906105a3908790611629565b610b73565b3373ffffffffffffffffffffffffffffffffffffffff7f00000000000000000000000000000000000000000000000000000000000000001614610672576040517f08c379a000000000000000000000000000000000000000000000000000000000815260206004820152603060248201527f546f6b656e577261707065643a3a6f6e6c794272696467653a204e6f7420506f60448201527f6c79676f6e5a6b45564d4272696467650000000000000000000000000000000060648201526084015b60405180910390fd5b61067c8282611135565b5050565b60606004805461043f906115a7565b3373ffffffffffffffffffffffffffffffffffffffff7f00000000000000000000000000000000000000000000000000000000000000001614610754576040517f08c379a000000000000000000000000000000000000000000000000000000000815260206004820152603060248201527f546f6b656e577261707065643a3a6f6e6c794272696467653a204e6f7420506f60448201527f6c79676f6e5a6b45564d427269646765000000000000000000000000000000006064820152608401610669565b61067c8282611228565b33600081815260016020908152604080832073ffffffffffffffffffffffffffffffffffffffff8716845290915281205490919083811015610822576040517f08c379a000000000000000000000000000000000000000000000000000000000815260206004820152602560248201527f45524332303a2064656372656173656420616c6c6f77616e63652062656c6f7760448201527f207a65726f0000000000000000000000000000000000000000000000000000006064820152608401610669565b6104f58286868403610b73565b6000336104d0818585610dfe565b834211156108cc576040517f08c379a0000000000000000000000000000000000000000000000000000000008152602060048201526024808201527f546f6b656e577261707065643a3a7065726d69743a204578706972656420706560448201527f726d6974000000000000000000000000000000000000000000000000000000006064820152608401610669565b73ffffffffffffffffffffffffffffffffffffffff8716600090815260056020526040812080547f6e71edae12b1b97f4d1f60370fef10105fa2faae0126114a169c64845d6126c9918a918a918a9190866109268361163c565b9091555060408051602081019690965273ffffffffffffffffffffffffffffffffffffffff94851690860152929091166060840152608083015260a082015260c0810186905260e0016040516020818303038152906040528051906020012090506000610991610500565b6040517f19010000000000000000000000000000000000000000000000000000000000006020820152602281019190915260428101839052606201604080517fffffffffffffffffffffffffffffffffffffffffffffffffffffffffffffffe08184030181528282528051602091820120600080855291840180845281905260ff89169284019290925260608301879052608083018690529092509060019060a0016020604051602081039080840390855afa158015610a55573d6000803e3d6000fd5b50506040517fffffffffffffffffffffffffffffffffffffffffffffffffffffffffffffffe0015191505073ffffffffffffffffffffffffffffffffffffffff811615801590610ad057508973ffffffffffffffffffffffffffffffffffffffff168173ffffffffffffffffffffffffffffffffffffffff16145b610b5c576040517f08c379a000000000000000000000000000000000000000000000000000000000815260206004820152602760248201527f546f6b656e577261707065643a3a7065726d69743a20496e76616c696420736960448201527f676e6174757265000000000000000000000000000000000000000000000000006064820152608401610669565b610b678a8a8a610b73565b50505050505050505050565b73ffffffffffffffffffffffffffffffffffffffff8316610c15576040517f08c379a0000000000000000000000000000000000000000000000000000000008152602060048201526024808201527f45524332303a20617070726f76652066726f6d20746865207a65726f2061646460448201527f72657373000000000000000000000000000000000000000000000000000000006064820152608401610669565b73ffffffffffffffffffffffffffffffffffffffff8216610cb8576040517f08c379a000000000000000000000000000000000000000000000000000000000815260206004820152602260248201527f45524332303a20617070726f766520746f20746865207a65726f20616464726560448201527f73730000000000000000000000000000000000000000000000000000000000006064820152608401610669565b73ffffffffffffffffffffffffffffffffffffffff83811660008181526001602090815260408083209487168084529482529182902085905590518481527f8c5be1e5ebec7d5bd14f71427d1e84f3dd0314c0f7b2291e5b200ac8c7c3b92591015b60405180910390a3505050565b73ffffffffffffffffffffffffffffffffffffffff8381166000908152600160209081526040808320938616835292905220547fffffffffffffffffffffffffffffffffffffffffffffffffffffffffffffffff8114610df85781811015610deb576040517f08c379a000000000000000000000000000000000000000000000000000000000815260206004820152601d60248201527f45524332303a20696e73756666696369656e7420616c6c6f77616e63650000006044820152606401610669565b610df88484848403610b73565b50505050565b73ffffffffffffffffffffffffffffffffffffffff8316610ea1576040517f08c379a000000000000000000000000000000000000000000000000000000000815260206004820152602560248201527f45524332303a207472616e736665722066726f6d20746865207a65726f20616460448201527f64726573730000000000000000000000000000000000000000000000000000006064820152608401610669565b73ffffffffffffffffffffffffffffffffffffffff8216610f44576040517f08c379a000000000000000000000000000000000000000000000000000000000815260206004820152602360248201527f45524332303a207472616e7366657220746f20746865207a65726f206164647260448201527f65737300000000000000000000000000000000000000000000000000000000006064820152608401610669565b73ffffffffffffffffffffffffffffffffffffffff831660009081526020819052604090205481811015610ffa576040517f08c379a000000000000000000000000000000000000000000000000000000000815260206004820152602660248201527f45524332303a207472616e7366657220616d6f756e742065786365656473206260448201527f616c616e636500000000000000000000000000000000000000000000000000006064820152608401610669565b73ffffffffffffffffffffffffffffffffffffffff848116600081815260208181526040808320878703905593871680835291849020805487019055925185815290927fddf252ad1be2c89b69c2b068fc378daa952ba7f163c4a11628f55a4df523b3ef910160405180910390a3610df8565b60007f8b73c3c69bb8fe3d512ecc4cf759cc79239f7b179b0ffacaa9a75d522b39400f611098610430565b8051602091820120604080518082018252600181527f310000000000000000000000000000000000000000000000000000000000000090840152805192830193909352918101919091527fc89efdaa54c0f20c7adf612882df0950f5a951637e0307cdcb4c672f298b8bc66060820152608081018390523060a082015260c001604051602081830303815290604052805190602001209050919050565b73ffffffffffffffffffffffffffffffffffffffff82166111b2576040517f08c379a000000000000000000000000000000000000000000000000000000000815260206004820152601f60248201527f45524332303a206d696e7420746f20746865207a65726f2061646472657373006044820152606401610669565b80600260008282546111c49190611629565b909155505073ffffffffffffffffffffffffffffffffffffffff8216600081815260208181526040808320805486019055518481527fddf252ad1be2c89b69c2b068fc378daa952ba7f163c4a11628f55a4df523b3ef910160405180910390a35050565b73ffffffffffffffffffffffffffffffffffffffff82166112cb576040517f08c379a000000000000000000000000000000000000000000000000000000000815260206004820152602160248201527f45524332303a206275726e2066726f6d20746865207a65726f2061646472657360448201527f73000000000000000000000000000000000000000000000000000000000000006064820152608401610669565b73ffffffffffffffffffffffffffffffffffffffff821660009081526020819052604090205481811015611381576040517f08c379a000000000000000000000000000000000000000000000000000000000815260206004820152602260248201527f45524332303a206275726e20616d6f756e7420657863656564732062616c616e60448201527f63650000000000000000000000000000000000000000000000000000000000006064820152608401610669565b73ffffffffffffffffffffffffffffffffffffffff83166000818152602081815260408083208686039055600280548790039055518581529192917fddf252ad1be2c89b69c2b068fc378daa952ba7f163c4a11628f55a4df523b3ef9101610d1a565b600060208083528351808285015260005b81811015611411578581018301518582016040015282016113f5565b5060006040828601015260407fffffffffffffffffffffffffffffffffffffffffffffffffffffffffffffffe0601f8301168501019250505092915050565b803573ffffffffffffffffffffffffffffffffffffffff8116811461147457600080fd5b919050565b6000806040838503121561148c57600080fd5b61149583611450565b946020939093013593505050565b6000806000606084860312156114b857600080fd5b6114c184611450565b92506114cf60208501611450565b9150604084013590509250925092565b6000602082840312156114f157600080fd5b6114fa82611450565b9392505050565b600080600080600080600060e0888a03121561151c57600080fd5b61152588611450565b965061153360208901611450565b95506040880135945060608801359350608088013560ff8116811461155757600080fd5b9699959850939692959460a0840135945060c09093013592915050565b6000806040838503121561158757600080fd5b61159083611450565b915061159e60208401611450565b90509250929050565b600181811c908216806115bb57607f821691505b6020821081036115f4577f4e487b7100000000000000000000000000000000000000000000000000000000600052602260045260246000fd5b50919050565b7f4e487b7100000000000000000000000000000000000000000000000000000000600052601160045260246000fd5b808201808211156104d6576104d66115fa565b60007fffffffffffffffffffffffffffffffffffffffffffffffffffffffffffffffff820361166d5761166d6115fa565b506001019056fea26469706673582212208d88fee561cff7120d381c345cfc534cef8229a272dc5809d4bbb685ad67141164736f6c63430008110033a264697066735822122091f10a09e76504f743ad542ee6c8c887d82fff0b2a7b1a03d9c9b1a8d26dc60d64736f6c63430008140033",
  "linkReferences": {},
  "deployedLinkReferences": {}
}