{
  "_format": "hh-sol-artifact-1",
  "contractName": "Token",
  "sourceName": "contracts/lib/Token.sol",
  "abi": [
    {
      "inputs": [],
      "stateMutability": "nonpayable",
      "type": "constructor"
    },
    {
      "anonymous": false,
      "inputs": [
        {
          "indexed": false,
          "internalType": "string",
          "name": "operationId",
          "type": "string"
        }
      ],
      "name": "CancelHoldExecuted",
      "type": "event"
    },
    {
      "anonymous": false,
      "inputs": [
        {
          "indexed": false,
          "internalType": "string",
          "name": "operationId",
          "type": "string"
        },
        {
          "indexed": false,
          "internalType": "string",
          "name": "fromAccount",
          "type": "string"
        },
        {
          "indexed": false,
          "internalType": "string",
          "name": "toAccount",
          "type": "string"
        },
        {
          "indexed": false,
          "internalType": "string",
          "name": "notaryId",
          "type": "string"
        },
        {
          "indexed": false,
          "internalType": "uint256",
          "name": "amount",
          "type": "uint256"
        },
        {
          "indexed": false,
          "internalType": "string",
          "name": "metaData",
          "type": "string"
        }
      ],
      "name": "CreateHoldExecuted",
      "type": "event"
    },
    {
      "anonymous": false,
      "inputs": [
        {
          "indexed": false,
          "internalType": "string",
          "name": "operationId",
          "type": "string"
        }
      ],
      "name": "ExecuteHoldExecuted",
      "type": "event"
    },
    {
      "anonymous": false,
      "inputs": [
        {
          "indexed": false,
          "internalType": "string",
          "name": "operationId",
          "type": "string"
        }
      ],
      "name": "MakeHoldPerpetualExecuted",
      "type": "event"
    },
    {
      "inputs": [],
      "name": "_HOLD_STATUS_CANCELLED",
      "outputs": [
        {
          "internalType": "bytes32",
          "name": "",
          "type": "bytes32"
        }
      ],
      "stateMutability": "view",
      "type": "function"
    },
    {
      "inputs": [],
      "name": "_HOLD_STATUS_EXECUTED",
      "outputs": [
        {
          "internalType": "bytes32",
          "name": "",
          "type": "bytes32"
        }
      ],
      "stateMutability": "view",
      "type": "function"
    },
    {
      "inputs": [],
      "name": "_HOLD_STATUS_NEW",
      "outputs": [
        {
          "internalType": "bytes32",
          "name": "",
          "type": "bytes32"
        }
      ],
      "stateMutability": "view",
      "type": "function"
    },
    {
      "inputs": [],
      "name": "_HOLD_STATUS_NON_EXISTENT",
      "outputs": [
        {
          "internalType": "bytes32",
          "name": "",
          "type": "bytes32"
        }
      ],
      "stateMutability": "view",
      "type": "function"
    },
    {
      "inputs": [],
      "name": "_HOLD_STATUS_PERPETUAL",
      "outputs": [
        {
          "internalType": "bytes32",
          "name": "",
          "type": "bytes32"
        }
      ],
      "stateMutability": "view",
      "type": "function"
    },
    {
      "inputs": [],
      "name": "_HOLD_TYPE_DESTROY",
      "outputs": [
        {
          "internalType": "bytes32",
          "name": "",
          "type": "bytes32"
        }
      ],
      "stateMutability": "view",
      "type": "function"
    },
    {
      "inputs": [],
      "name": "_HOLD_TYPE_NORMAL",
      "outputs": [
        {
          "internalType": "bytes32",
          "name": "",
          "type": "bytes32"
        }
      ],
      "stateMutability": "view",
      "type": "function"
    },
    {
      "inputs": [
        {
          "internalType": "string",
          "name": "notaryId",
          "type": "string"
        },
        {
          "internalType": "address",
          "name": "holdNotaryAdminAddress",
          "type": "address"
        }
      ],
      "name": "addHoldNotary",
      "outputs": [
        {
          "internalType": "bool",
          "name": "",
          "type": "bool"
        }
      ],
      "stateMutability": "nonpayable",
      "type": "function"
    },
    {
      "inputs": [
        {
          "internalType": "string",
          "name": "operationId",
          "type": "string"
        }
      ],
      "name": "cancelHold",
      "outputs": [
        {
          "internalType": "bool",
          "name": "",
          "type": "bool"
        }
      ],
      "stateMutability": "nonpayable",
      "type": "function"
    },
    {
      "inputs": [
        {
          "internalType": "string",
          "name": "operationId",
          "type": "string"
        },
        {
          "internalType": "string",
          "name": "toAccount",
          "type": "string"
        },
        {
          "internalType": "uint256",
          "name": "amount",
          "type": "uint256"
        },
        {
          "internalType": "string",
          "name": "metaData",
          "type": "string"
        }
      ],
      "name": "create",
      "outputs": [
        {
          "internalType": "bool",
          "name": "",
          "type": "bool"
        }
      ],
      "stateMutability": "nonpayable",
      "type": "function"
    },
    {
      "inputs": [
        {
          "internalType": "string",
          "name": "operationId",
          "type": "string"
        },
        {
          "internalType": "string",
          "name": "fromAccount",
          "type": "string"
        },
        {
          "internalType": "string",
          "name": "toAccount",
          "type": "string"
        },
        {
          "internalType": "string",
          "name": "notaryId",
          "type": "string"
        },
        {
          "internalType": "uint256",
          "name": "amount",
          "type": "uint256"
        },
        {
          "internalType": "uint256",
          "name": "duration",
          "type": "uint256"
        },
        {
          "internalType": "string",
          "name": "metaData",
          "type": "string"
        }
      ],
      "name": "createHold",
      "outputs": [
        {
          "internalType": "bool",
          "name": "",
          "type": "bool"
        }
      ],
      "stateMutability": "nonpayable",
      "type": "function"
    },
    {
      "inputs": [
        {
          "internalType": "string",
          "name": "operationId",
          "type": "string"
        },
        {
          "internalType": "string",
          "name": "fromAccount",
          "type": "string"
        },
        {
          "internalType": "uint256",
          "name": "amount",
          "type": "uint256"
        },
        {
          "internalType": "string",
          "name": "metaData",
          "type": "string"
        }
      ],
      "name": "destroy",
      "outputs": [
        {
          "internalType": "bool",
          "name": "",
          "type": "bool"
        }
      ],
      "stateMutability": "nonpayable",
      "type": "function"
    },
    {
      "inputs": [
        {
          "internalType": "string",
          "name": "operationId",
          "type": "string"
        }
      ],
      "name": "executeHold",
      "outputs": [
        {
          "internalType": "bool",
          "name": "",
          "type": "bool"
        }
      ],
      "stateMutability": "nonpayable",
      "type": "function"
    },
    {
      "inputs": [
        {
          "internalType": "string",
          "name": "account",
          "type": "string"
        }
      ],
      "name": "getAvailableBalanceOf",
      "outputs": [
        {
          "internalType": "uint256",
          "name": "",
          "type": "uint256"
        }
      ],
      "stateMutability": "view",
      "type": "function"
    },
    {
      "inputs": [
        {
          "internalType": "string",
          "name": "operationId",
          "type": "string"
        }
      ],
      "name": "getHoldData",
      "outputs": [
        {
          "internalType": "string",
          "name": "fromAccount",
          "type": "string"
        },
        {
          "internalType": "string",
          "name": "toAccount",
          "type": "string"
        },
        {
          "internalType": "string",
          "name": "notaryId",
          "type": "string"
        },
        {
          "internalType": "uint256",
          "name": "amount",
          "type": "uint256"
        },
        {
          "internalType": "uint256",
          "name": "expiryTimestamp",
          "type": "uint256"
        },
        {
          "internalType": "string",
          "name": "metaData",
          "type": "string"
        },
        {
          "internalType": "bytes32",
          "name": "holdStatus",
          "type": "bytes32"
        },
        {
          "internalType": "bytes32",
          "name": "holdType",
          "type": "bytes32"
        },
        {
          "internalType": "bytes32",
          "name": "signer",
          "type": "bytes32"
        }
      ],
      "stateMutability": "view",
      "type": "function"
    },
    {
      "inputs": [
        {
          "internalType": "string",
          "name": "notaryId",
          "type": "string"
        }
      ],
      "name": "isHoldNotary",
      "outputs": [
        {
          "internalType": "bool",
          "name": "",
          "type": "bool"
        }
      ],
      "stateMutability": "view",
      "type": "function"
    },
    {
      "inputs": [
        {
          "internalType": "string",
          "name": "operationId",
          "type": "string"
        }
      ],
      "name": "makeHoldPerpetual",
      "outputs": [
        {
          "internalType": "bool",
          "name": "",
          "type": "bool"
        }
      ],
      "stateMutability": "nonpayable",
      "type": "function"
    },
    {
      "inputs": [],
      "name": "owner",
      "outputs": [
        {
          "internalType": "address",
          "name": "",
          "type": "address"
        }
      ],
      "stateMutability": "view",
      "type": "function"
    },
    {
      "inputs": [
        {
          "internalType": "string",
          "name": "operationId",
          "type": "string"
        },
        {
          "internalType": "string",
          "name": "fromAccount",
          "type": "string"
        },
        {
          "internalType": "string",
          "name": "toAccount",
          "type": "string"
        },
        {
          "internalType": "uint256",
          "name": "amount",
          "type": "uint256"
        },
        {
          "internalType": "string",
          "name": "metaData",
          "type": "string"
        }
      ],
      "name": "transfer",
      "outputs": [
        {
          "internalType": "bool",
          "name": "",
          "type": "bool"
        }
      ],
      "stateMutability": "nonpayable",
      "type": "function"
    }
  ],
  "bytecode": "0x608060405234801561001057600080fd5b50600080546001600160a01b03191633179055612417806100326000396000f3fe608060405234801561001057600080fd5b50600436106101515760003560e01c80638da5cb5b116100cd578063d58980ce11610081578063e1838cd211610066578063e1838cd214610353578063e5de2a4c1461037b578063f6f42bac1461038e57600080fd5b8063d58980ce14610305578063d72d97911461032c57600080fd5b8063a79cf185116100b2578063a79cf185146102b8578063b9ce1969146102cb578063bcdf53d3146102de57600080fd5b80638da5cb5b14610260578063a3ce31a0146102a557600080fd5b8063410d470f116101245780636eaf982f116101095780636eaf982f146102135780638349b14b146102265780638c74badf1461023957600080fd5b8063410d470f146101d95780635a4b3249146101ec57600080fd5b80630146543014610156578063164b59651461017e5780632beac9c2146101b35780632da1d60a146101c6575b600080fd5b610169610164366004611c5c565b6103b5565b60405190151581526020015b60405180910390f35b6101a57f64657374726f790000000000000000000000000000000000000000000000000081565b604051908152602001610175565b6101696101c1366004611d00565b610555565b6101696101d4366004611c5c565b61086f565b6101696101e7366004611d00565b610946565b6101a57f63616e63656c6c6564000000000000000000000000000000000000000000000081565b610169610221366004611d42565b6109a1565b6101a5610234366004611d00565b610b75565b6101a57f6e6577000000000000000000000000000000000000000000000000000000000081565b6000546102809073ffffffffffffffffffffffffffffffffffffffff1681565b60405173ffffffffffffffffffffffffffffffffffffffff9091168152602001610175565b6101696102b3366004611e12565b610ba0565b6101696102c6366004611d00565b610ef4565b6101696102d9366004611f35565b611357565b6101a57f6e6f6e4578697374656e7400000000000000000000000000000000000000000081565b6101a57f6e6f726d616c000000000000000000000000000000000000000000000000000081565b6101a57f657865637574656400000000000000000000000000000000000000000000000081565b610366610361366004611d00565b6113ca565b60405161017599989796959493929190612013565b610169610389366004611d00565b61175d565b6101a57f70657270657475616c000000000000000000000000000000000000000000000081565b6000805473ffffffffffffffffffffffffffffffffffffffff163314610462576040517f08c379a000000000000000000000000000000000000000000000000000000000815260206004820152602a60248201527f4f6e6c7920746865206f776e65722063616e2064657374726f7920657869737460448201527f696e6720746f6b656e730000000000000000000000000000000000000000000060648201526084015b60405180910390fd5b8360018787604051610475929190612092565b9081526020016040518091039020541015610512576040517f08c379a000000000000000000000000000000000000000000000000000000000815260206004820152602960248201527f4e6f7420656e6f75676820746f6b656e7320696e206578697374656e6365207460448201527f6f2064657374726f7900000000000000000000000000000000000000000000006064820152608401610459565b8360018787604051610525929190612092565b9081526020016040518091039020600082825461054291906120d1565b9091555060019998505050505050505050565b6000806002848460405161056a929190612092565b908152602001604051809103902060405180610120016040529081600082018054610594906120e4565b80601f01602080910402602001604051908101604052809291908181526020018280546105c0906120e4565b801561060d5780601f106105e25761010080835404028352916020019161060d565b820191906000526020600020905b8154815290600101906020018083116105f057829003601f168201915b50505050508152602001600182018054610626906120e4565b80601f0160208091040260200160405190810160405280929190818152602001828054610652906120e4565b801561069f5780601f106106745761010080835404028352916020019161069f565b820191906000526020600020905b81548152906001019060200180831161068257829003601f168201915b505050505081526020016002820180546106b8906120e4565b80601f01602080910402602001604051908101604052809291908181526020018280546106e4906120e4565b80156107315780601f1061070657610100808354040283529160200191610731565b820191906000526020600020905b81548152906001019060200180831161071457829003601f168201915b50505050508152602001600382015481526020016004820154815260200160058201805461075e906120e4565b80601f016020809104026020016040519081016040528092919081815260200182805461078a906120e4565b80156107d75780601f106107ac576101008083540402835291602001916107d7565b820191906000526020600020905b8154815290600101906020018083116107ba57829003601f168201915b50505050508152602001600682015481526020016007820154815260200160088201548152505090507f70657270657475616c00000000000000000000000000000000000000000000008160c00181815250507f29f65542e034340f9d7d57b9770a8dd7cee6668f1066458bf50739d90ec1a8e8848460405161085b929190612180565b60405180910390a160019150505b92915050565b6000805473ffffffffffffffffffffffffffffffffffffffff163314610916576040517f08c379a0000000000000000000000000000000000000000000000000000000008152602060048201526024808201527f4f6e6c7920746865206f776e65722063616e20637265617465206e657720746f60448201527f6b656e73000000000000000000000000000000000000000000000000000000006064820152608401610459565b8360018787604051610929929190612092565b90815260200160405180910390206000828254610542919061219c565b60008073ffffffffffffffffffffffffffffffffffffffff1660038484604051610971929190612092565b9081526040519081900360200190205473ffffffffffffffffffffffffffffffffffffffff161415905092915050565b6000805473ffffffffffffffffffffffffffffffffffffffff163314610a49576040517f08c379a000000000000000000000000000000000000000000000000000000000815260206004820152602260248201527f4f6e6c7920746865206f776e65722063616e207472616e7366657220746f6b6560448201527f6e730000000000000000000000000000000000000000000000000000000000006064820152608401610459565b8360018989604051610a5c929190612092565b9081526020016040518091039020541015610af9576040517f08c379a000000000000000000000000000000000000000000000000000000000815260206004820152602a60248201527f4e6f7420656e6f75676820746f6b656e7320696e206578697374656e6365207460448201527f6f207472616e73666572000000000000000000000000000000000000000000006064820152608401610459565b8360018989604051610b0c929190612092565b90815260200160405180910390206000828254610b2991906120d1565b925050819055508360018787604051610b43929190612092565b90815260200160405180910390206000828254610b60919061219c565b9091555060019b9a5050505050505050505050565b600060018383604051610b89929190612092565b908152602001604051809103902054905092915050565b60008460018c8c604051610bb5929190612092565b9081526020016040518091039020541015610c52576040517f08c379a000000000000000000000000000000000000000000000000000000000815260206004820152602260248201527f496e73756666696369656e742062616c616e636520746f20706c61636520686f60448201527f6c640000000000000000000000000000000000000000000000000000000000006064820152608401610459565b8460018c8c604051610c65929190612092565b90815260200160405180910390206000828254610c8291906120d1565b9091555050604080516101406020601f8e01819004028201810190925261012081018c81526000928291908f908f9081908501838280828437600092019190915250505090825250604080516020601f8e018190048102820181019092528c815291810191908d908d9081908401838280828437600092019190915250505090825250604080516020601f8c018190048102820181019092528a815291810191908b908b9081908401838280828437600092018290525093855250505060208083018a90526040808401929092528151601f88018290048202810182019092528682526060909201918790879081908401838280828437600081840152601f19601f8201169050808301925050505050505081526020017f70657270657475616c000000000000000000000000000000000000000000000081526020017f6e6f726d616c00000000000000000000000000000000000000000000000000008152602001600080191681525090508060028f8f604051610e02929190612092565b90815260405190819003602001902081518190610e1f908261222d565b5060208201516001820190610e34908261222d565b5060408201516002820190610e49908261222d565b50606082015160038201556080820151600482015560a08201516005820190610e72908261222d565b5060c0820151816006015560e0820151816007015561010082015181600801559050507fa79465fa56b93c970496d17ca443f50488391afbeb5d02ac99f7f73f0adfb55f8e8e8e8e8e8e8e8e8e8d8d604051610ed89b9a99989796959493929190612347565b60405180910390a15060019d9c50505050505050505050505050565b60008060028484604051610f09929190612092565b908152602001604051809103902060405180610120016040529081600082018054610f33906120e4565b80601f0160208091040260200160405190810160405280929190818152602001828054610f5f906120e4565b8015610fac5780601f10610f8157610100808354040283529160200191610fac565b820191906000526020600020905b815481529060010190602001808311610f8f57829003601f168201915b50505050508152602001600182018054610fc5906120e4565b80601f0160208091040260200160405190810160405280929190818152602001828054610ff1906120e4565b801561103e5780601f106110135761010080835404028352916020019161103e565b820191906000526020600020905b81548152906001019060200180831161102157829003601f168201915b50505050508152602001600282018054611057906120e4565b80601f0160208091040260200160405190810160405280929190818152602001828054611083906120e4565b80156110d05780601f106110a5576101008083540402835291602001916110d0565b820191906000526020600020905b8154815290600101906020018083116110b357829003601f168201915b5050505050815260200160038201548152602001600482015481526020016005820180546110fd906120e4565b80601f0160208091040260200160405190810160405280929190818152602001828054611129906120e4565b80156111765780601f1061114b57610100808354040283529160200191611176565b820191906000526020600020905b81548152906001019060200180831161115957829003601f168201915b5050505050815260200160068201548152602001600782015481526020016008820154815250509050604051602001604080517fffffffffffffffffffffffffffffffffffffffffffffffffffffffffffffffe0818403018152908290528051602091820120835190926111ea92016123c5565b6040516020818303038152906040528051906020012003611267576040517f08c379a000000000000000000000000000000000000000000000000000000000815260206004820152601360248201527f486f6c6420646f6573206e6f74206578697374000000000000000000000000006044820152606401610459565b80606001516001826020015160405161128091906123c5565b9081526020016040518091039020600082825461129d919061219c565b90915550506040516002906112b59086908690612092565b90815260405190819003602001902060006112d08282611bbd565b6112de600183016000611bbd565b6112ec600283016000611bbd565b6003820160009055600482016000905560058201600061130c9190611bbd565b60068201600090556007820160009055600882016000905550507ff0e25c63981e9a617375c8244c8ac144e4e520acc2cb08e2d4c3781b1a02c067848460405161085b929190612180565b6000816003858560405161136c929190612092565b908152604051908190036020019020805473ffffffffffffffffffffffffffffffffffffffff929092167fffffffffffffffffffffffff00000000000000000000000000000000000000009092169190911790555060019392505050565b6060806060600080606060008060008060028c8c6040516113ec929190612092565b908152602001604051809103902060405180610120016040529081600082018054611416906120e4565b80601f0160208091040260200160405190810160405280929190818152602001828054611442906120e4565b801561148f5780601f106114645761010080835404028352916020019161148f565b820191906000526020600020905b81548152906001019060200180831161147257829003601f168201915b505050505081526020016001820180546114a8906120e4565b80601f01602080910402602001604051908101604052809291908181526020018280546114d4906120e4565b80156115215780601f106114f657610100808354040283529160200191611521565b820191906000526020600020905b81548152906001019060200180831161150457829003601f168201915b5050505050815260200160028201805461153a906120e4565b80601f0160208091040260200160405190810160405280929190818152602001828054611566906120e4565b80156115b35780601f10611588576101008083540402835291602001916115b3565b820191906000526020600020905b81548152906001019060200180831161159657829003601f168201915b5050505050815260200160038201548152602001600482015481526020016005820180546115e0906120e4565b80601f016020809104026020016040519081016040528092919081815260200182805461160c906120e4565b80156116595780601f1061162e57610100808354040283529160200191611659565b820191906000526020600020905b81548152906001019060200180831161163c57829003601f168201915b5050505050815260200160068201548152602001600782015481526020016008820154815250509050604051602001604080517fffffffffffffffffffffffffffffffffffffffffffffffffffffffffffffffe0818403018152908290528051602091820120835190926116cd92016123c5565b604051602081830303815290604052805190602001200361170f577f6e6f6e4578697374656e7400000000000000000000000000000000000000000060c08201525b806000015181602001518260400151836060015184608001518560a001518660c001518760e00151886101000151995099509950995099509950995099509950509295985092959850929598565b60008060028484604051611772929190612092565b90815260200160405180910390206040518061012001604052908160008201805461179c906120e4565b80601f01602080910402602001604051908101604052809291908181526020018280546117c8906120e4565b80156118155780601f106117ea57610100808354040283529160200191611815565b820191906000526020600020905b8154815290600101906020018083116117f857829003601f168201915b5050505050815260200160018201805461182e906120e4565b80601f016020809104026020016040519081016040528092919081815260200182805461185a906120e4565b80156118a75780601f1061187c576101008083540402835291602001916118a7565b820191906000526020600020905b81548152906001019060200180831161188a57829003601f168201915b505050505081526020016002820180546118c0906120e4565b80601f01602080910402602001604051908101604052809291908181526020018280546118ec906120e4565b80156119395780601f1061190e57610100808354040283529160200191611939565b820191906000526020600020905b81548152906001019060200180831161191c57829003601f168201915b505050505081526020016003820154815260200160048201548152602001600582018054611966906120e4565b80601f0160208091040260200160405190810160405280929190818152602001828054611992906120e4565b80156119df5780601f106119b4576101008083540402835291602001916119df565b820191906000526020600020905b8154815290600101906020018083116119c257829003601f168201915b5050505050815260200160068201548152602001600782015481526020016008820154815250509050604051602001604080517fffffffffffffffffffffffffffffffffffffffffffffffffffffffffffffffe081840301815290829052805160209182012083519092611a5392016123c5565b6040516020818303038152906040528051906020012003611ad0576040517f08c379a000000000000000000000000000000000000000000000000000000000815260206004820152601360248201527f486f6c6420646f6573206e6f74206578697374000000000000000000000000006044820152606401610459565b60608101518151604051600191611ae6916123c5565b90815260200160405180910390206000828254611b03919061219c565b9091555050604051600290611b1b9086908690612092565b9081526040519081900360200190206000611b368282611bbd565b611b44600183016000611bbd565b611b52600283016000611bbd565b60038201600090556004820160009055600582016000611b729190611bbd565b60068201600090556007820160009055600882016000905550507f2cdc403326e07fd97057d4ee4757d944364d5504c905571212a32b6f1abee40f848460405161085b929190612180565b508054611bc9906120e4565b6000825580601f10611bd9575050565b601f016020900490600052602060002090810190611bf79190611bfa565b50565b5b80821115611c0f5760008155600101611bfb565b5090565b60008083601f840112611c2557600080fd5b50813567ffffffffffffffff811115611c3d57600080fd5b602083019150836020828501011115611c5557600080fd5b9250929050565b60008060008060008060006080888a031215611c7757600080fd5b873567ffffffffffffffff80821115611c8f57600080fd5b611c9b8b838c01611c13565b909950975060208a0135915080821115611cb457600080fd5b611cc08b838c01611c13565b909750955060408a0135945060608a0135915080821115611ce057600080fd5b50611ced8a828b01611c13565b989b979a50959850939692959293505050565b60008060208385031215611d1357600080fd5b823567ffffffffffffffff811115611d2a57600080fd5b611d3685828601611c13565b90969095509350505050565b600080600080600080600080600060a08a8c031215611d6057600080fd5b893567ffffffffffffffff80821115611d7857600080fd5b611d848d838e01611c13565b909b50995060208c0135915080821115611d9d57600080fd5b611da98d838e01611c13565b909950975060408c0135915080821115611dc257600080fd5b611dce8d838e01611c13565b909750955060608c0135945060808c0135915080821115611dee57600080fd5b50611dfb8c828d01611c13565b915080935050809150509295985092959850929598565b60008060008060008060008060008060008060e08d8f031215611e3457600080fd5b67ffffffffffffffff8d351115611e4a57600080fd5b611e578e8e358f01611c13565b909c509a5067ffffffffffffffff60208e01351115611e7557600080fd5b611e858e60208f01358f01611c13565b909a50985067ffffffffffffffff60408e01351115611ea357600080fd5b611eb38e60408f01358f01611c13565b909850965067ffffffffffffffff60608e01351115611ed157600080fd5b611ee18e60608f01358f01611c13565b909650945060808d0135935060a08d0135925067ffffffffffffffff60c08e01351115611f0d57600080fd5b611f1d8e60c08f01358f01611c13565b81935080925050509295989b509295989b509295989b565b600080600060408486031215611f4a57600080fd5b833567ffffffffffffffff811115611f6157600080fd5b611f6d86828701611c13565b909450925050602084013573ffffffffffffffffffffffffffffffffffffffff81168114611f9a57600080fd5b809150509250925092565b60005b83811015611fc0578181015183820152602001611fa8565b50506000910152565b60008151808452611fe1816020860160208601611fa5565b601f017fffffffffffffffffffffffffffffffffffffffffffffffffffffffffffffffe0169290920160200192915050565b60006101208083526120278184018d611fc9565b9050828103602084015261203b818c611fc9565b9050828103604084015261204f818b611fc9565b905088606084015287608084015282810360a084015261206f8188611fc9565b60c0840196909652505060e0810192909252610100909101529695505050505050565b8183823760009101908152919050565b7f4e487b7100000000000000000000000000000000000000000000000000000000600052601160045260246000fd5b81810381811115610869576108696120a2565b600181811c908216806120f857607f821691505b602082108103612131577f4e487b7100000000000000000000000000000000000000000000000000000000600052602260045260246000fd5b50919050565b8183528181602085013750600060208284010152600060207fffffffffffffffffffffffffffffffffffffffffffffffffffffffffffffffe0601f840116840101905092915050565b602081526000612194602083018486612137565b949350505050565b80820180821115610869576108696120a2565b7f4e487b7100000000000000000000000000000000000000000000000000000000600052604160045260246000fd5b601f82111561222857600081815260208120601f850160051c810160208610156122055750805b601f850160051c820191505b8181101561222457828155600101612211565b5050505b505050565b815167ffffffffffffffff811115612247576122476121af565b61225b8161225584546120e4565b846121de565b602080601f8311600181146122ae57600084156122785750858301515b7fffffffffffffffffffffffffffffffffffffffffffffffffffffffffffffffff600386901b1c1916600185901b178555612224565b6000858152602081207fffffffffffffffffffffffffffffffffffffffffffffffffffffffffffffffe08616915b828110156122fb578886015182559484019460019091019084016122dc565b508582101561233757878501517fffffffffffffffffffffffffffffffffffffffffffffffffffffffffffffffff600388901b60f8161c191681555b5050505050600190811b01905550565b60c08152600061235b60c083018d8f612137565b828103602084015261236e818c8e612137565b90508281036040840152612383818a8c612137565b9050828103606084015261239881888a612137565b905085608084015282810360a08401526123b3818587612137565b9e9d5050505050505050505050505050565b600082516123d7818460208701611fa5565b919091019291505056fea26469706673582212205fd865104d05db0511dd0ffdc7e08f105f19d6fc6618e307fe2023075151e2de64736f6c63430008140033",
  "linkReferences": {},
  "deployedLinkReferences": {}
}