{
  "_format": "hh-sol-artifact-1",
  "contractName": "Token",
  "sourceName": "contracts/lib/Token.sol",
  "abi": [
    {
      "inputs": [],
      "stateMutability": "nonpayable",
      "type": "constructor"
    },
    {
      "anonymous": false,
      "inputs": [
        {
          "indexed": false,
          "internalType": "string",
          "name": "operationId",
          "type": "string"
        }
      ],
      "name": "CancelHoldExecuted",
      "type": "event"
    },
    {
      "anonymous": false,
      "inputs": [
        {
          "indexed": false,
          "internalType": "string",
          "name": "operationId",
          "type": "string"
        },
        {
          "indexed": false,
          "internalType": "string",
          "name": "fromAccount",
          "type": "string"
        },
        {
          "indexed": false,
          "internalType": "string",
          "name": "toAccount",
          "type": "string"
        },
        {
          "indexed": false,
          "internalType": "string",
          "name": "notaryId",
          "type": "string"
        },
        {
          "indexed": false,
          "internalType": "uint256",
          "name": "amount",
          "type": "uint256"
        },
        {
          "indexed": false,
          "internalType": "string",
          "name": "metaData",
          "type": "string"
        }
      ],
      "name": "CreateHoldExecuted",
      "type": "event"
    },
    {
      "anonymous": false,
      "inputs": [
        {
          "indexed": false,
          "internalType": "string",
          "name": "operationId",
          "type": "string"
        }
      ],
      "name": "ExecuteHoldExecuted",
      "type": "event"
    },
    {
      "anonymous": false,
      "inputs": [
        {
          "indexed": false,
          "internalType": "string",
          "name": "operationId",
          "type": "string"
        }
      ],
      "name": "MakeHoldPerpetualExecuted",
      "type": "event"
    },
    {
      "inputs": [],
      "name": "_HOLD_STATUS_CANCELLED",
      "outputs": [
        {
          "internalType": "bytes32",
          "name": "",
          "type": "bytes32"
        }
      ],
      "stateMutability": "view",
      "type": "function"
    },
    {
      "inputs": [],
      "name": "_HOLD_STATUS_EXECUTED",
      "outputs": [
        {
          "internalType": "bytes32",
          "name": "",
          "type": "bytes32"
        }
      ],
      "stateMutability": "view",
      "type": "function"
    },
    {
      "inputs": [],
      "name": "_HOLD_STATUS_NEW",
      "outputs": [
        {
          "internalType": "bytes32",
          "name": "",
          "type": "bytes32"
        }
      ],
      "stateMutability": "view",
      "type": "function"
    },
    {
      "inputs": [],
      "name": "_HOLD_STATUS_NON_EXISTENT",
      "outputs": [
        {
          "internalType": "bytes32",
          "name": "",
          "type": "bytes32"
        }
      ],
      "stateMutability": "view",
      "type": "function"
    },
    {
      "inputs": [],
      "name": "_HOLD_STATUS_PERPETUAL",
      "outputs": [
        {
          "internalType": "bytes32",
          "name": "",
          "type": "bytes32"
        }
      ],
      "stateMutability": "view",
      "type": "function"
    },
    {
      "inputs": [],
      "name": "_HOLD_TYPE_DESTROY",
      "outputs": [
        {
          "internalType": "bytes32",
          "name": "",
          "type": "bytes32"
        }
      ],
      "stateMutability": "view",
      "type": "function"
    },
    {
      "inputs": [],
      "name": "_HOLD_TYPE_NORMAL",
      "outputs": [
        {
          "internalType": "bytes32",
          "name": "",
          "type": "bytes32"
        }
      ],
      "stateMutability": "view",
      "type": "function"
    },
    {
      "inputs": [
        {
          "internalType": "string",
          "name": "notaryId",
          "type": "string"
        },
        {
          "internalType": "address",
          "name": "holdNotaryAdminAddress",
          "type": "address"
        }
      ],
      "name": "addHoldNotary",
      "outputs": [
        {
          "internalType": "bool",
          "name": "",
          "type": "bool"
        }
      ],
      "stateMutability": "nonpayable",
      "type": "function"
    },
    {
      "inputs": [
        {
          "internalType": "string",
          "name": "operationId",
          "type": "string"
        }
      ],
      "name": "cancelHold",
      "outputs": [
        {
          "internalType": "bool",
          "name": "",
          "type": "bool"
        }
      ],
      "stateMutability": "nonpayable",
      "type": "function"
    },
    {
      "inputs": [
        {
          "internalType": "string",
          "name": "operationId",
          "type": "string"
        },
        {
          "internalType": "string",
          "name": "toAccount",
          "type": "string"
        },
        {
          "internalType": "uint256",
          "name": "amount",
          "type": "uint256"
        },
        {
          "internalType": "string",
          "name": "metaData",
          "type": "string"
        }
      ],
      "name": "create",
      "outputs": [
        {
          "internalType": "bool",
          "name": "",
          "type": "bool"
        }
      ],
      "stateMutability": "nonpayable",
      "type": "function"
    },
    {
      "inputs": [
        {
          "internalType": "string",
          "name": "operationId",
          "type": "string"
        },
        {
          "internalType": "string",
          "name": "fromAccount",
          "type": "string"
        },
        {
          "internalType": "string",
          "name": "toAccount",
          "type": "string"
        },
        {
          "internalType": "string",
          "name": "notaryId",
          "type": "string"
        },
        {
          "internalType": "uint256",
          "name": "amount",
          "type": "uint256"
        },
        {
          "internalType": "uint256",
          "name": "duration",
          "type": "uint256"
        },
        {
          "internalType": "string",
          "name": "metaData",
          "type": "string"
        }
      ],
      "name": "createHold",
      "outputs": [
        {
          "internalType": "bool",
          "name": "",
          "type": "bool"
        }
      ],
      "stateMutability": "nonpayable",
      "type": "function"
    },
    {
      "inputs": [
        {
          "internalType": "string",
          "name": "operationId",
          "type": "string"
        },
        {
          "internalType": "string",
          "name": "fromAccount",
          "type": "string"
        },
        {
          "internalType": "uint256",
          "name": "amount",
          "type": "uint256"
        },
        {
          "internalType": "string",
          "name": "metaData",
          "type": "string"
        }
      ],
      "name": "destroy",
      "outputs": [
        {
          "internalType": "bool",
          "name": "",
          "type": "bool"
        }
      ],
      "stateMutability": "nonpayable",
      "type": "function"
    },
    {
      "inputs": [
        {
          "internalType": "string",
          "name": "operationId",
          "type": "string"
        }
      ],
      "name": "executeHold",
      "outputs": [
        {
          "internalType": "bool",
          "name": "",
          "type": "bool"
        }
      ],
      "stateMutability": "nonpayable",
      "type": "function"
    },
    {
      "inputs": [
        {
          "internalType": "string",
          "name": "account",
          "type": "string"
        }
      ],
      "name": "getAvailableBalanceOf",
      "outputs": [
        {
          "internalType": "uint256",
          "name": "",
          "type": "uint256"
        }
      ],
      "stateMutability": "view",
      "type": "function"
    },
    {
      "inputs": [
        {
          "internalType": "string",
          "name": "operationId",
          "type": "string"
        }
      ],
      "name": "getHoldData",
      "outputs": [
        {
          "internalType": "string",
          "name": "fromAccount",
          "type": "string"
        },
        {
          "internalType": "string",
          "name": "toAccount",
          "type": "string"
        },
        {
          "internalType": "string",
          "name": "notaryId",
          "type": "string"
        },
        {
          "internalType": "uint256",
          "name": "amount",
          "type": "uint256"
        },
        {
          "internalType": "uint256",
          "name": "expiryTimestamp",
          "type": "uint256"
        },
        {
          "internalType": "string",
          "name": "metaData",
          "type": "string"
        },
        {
          "internalType": "bytes32",
          "name": "holdStatus",
          "type": "bytes32"
        },
        {
          "internalType": "bytes32",
          "name": "holdType",
          "type": "bytes32"
        },
        {
          "internalType": "bytes32",
          "name": "signer",
          "type": "bytes32"
        }
      ],
      "stateMutability": "view",
      "type": "function"
    },
    {
      "inputs": [
        {
          "internalType": "string",
          "name": "notaryId",
          "type": "string"
        }
      ],
      "name": "isHoldNotary",
      "outputs": [
        {
          "internalType": "bool",
          "name": "",
          "type": "bool"
        }
      ],
      "stateMutability": "view",
      "type": "function"
    },
    {
      "inputs": [
        {
          "internalType": "string",
          "name": "operationId",
          "type": "string"
        }
      ],
      "name": "makeHoldPerpetual",
      "outputs": [
        {
          "internalType": "bool",
          "name": "",
          "type": "bool"
        }
      ],
      "stateMutability": "nonpayable",
      "type": "function"
    },
    {
      "inputs": [],
      "name": "owner",
      "outputs": [
        {
          "internalType": "address",
          "name": "",
          "type": "address"
        }
      ],
      "stateMutability": "view",
      "type": "function"
    },
    {
      "inputs": [
        {
          "internalType": "string",
          "name": "operationId",
          "type": "string"
        },
        {
          "internalType": "string",
          "name": "fromAccount",
          "type": "string"
        },
        {
          "internalType": "string",
          "name": "toAccount",
          "type": "string"
        },
        {
          "internalType": "uint256",
          "name": "amount",
          "type": "uint256"
        },
        {
          "internalType": "string",
          "name": "metaData",
          "type": "string"
        }
      ],
      "name": "transfer",
      "outputs": [
        {
          "internalType": "bool",
          "name": "",
          "type": "bool"
        }
      ],
      "stateMutability": "nonpayable",
      "type": "function"
    }
  ],
  "bytecode": "0x608060405234801561000f575f80fd5b505f80546001600160a01b0319163317905561237b8061002e5f395ff3fe608060405234801561000f575f80fd5b5060043610610149575f3560e01c80638da5cb5b116100c7578063d58980ce1161007d578063e1838cd211610063578063e1838cd214610349578063e5de2a4c14610371578063f6f42bac14610384575f80fd5b8063d58980ce146102fb578063d72d979114610322575f80fd5b8063a79cf185116100ad578063a79cf185146102ae578063b9ce1969146102c1578063bcdf53d3146102d4575f80fd5b80638da5cb5b14610257578063a3ce31a01461029b575f80fd5b8063410d470f1161011c5780636eaf982f116101025780636eaf982f1461020a5780638349b14b1461021d5780638c74badf14610230575f80fd5b8063410d470f146101d05780635a4b3249146101e3575f80fd5b8063014654301461014d578063164b5965146101755780632beac9c2146101aa5780632da1d60a146101bd575b5f80fd5b61016061015b366004611bf9565b6103ab565b60405190151581526020015b60405180910390f35b61019c7f64657374726f790000000000000000000000000000000000000000000000000081565b60405190815260200161016c565b6101606101b8366004611c95565b610549565b6101606101cb366004611bf9565b610859565b6101606101de366004611c95565b61092e565b61019c7f63616e63656c6c6564000000000000000000000000000000000000000000000081565b610160610218366004611cd4565b610988565b61019c61022b366004611c95565b610b59565b61019c7f6e6577000000000000000000000000000000000000000000000000000000000081565b5f546102769073ffffffffffffffffffffffffffffffffffffffff1681565b60405173ffffffffffffffffffffffffffffffffffffffff909116815260200161016c565b6101606102a9366004611d9a565b610b83565b6101606102bc366004611c95565b610ecf565b6101606102cf366004611eb1565b61131e565b61019c7f6e6f6e4578697374656e7400000000000000000000000000000000000000000081565b61019c7f6e6f726d616c000000000000000000000000000000000000000000000000000081565b61019c7f657865637574656400000000000000000000000000000000000000000000000081565b61035c610357366004611c95565b611390565b60405161016c99989796959493929190611f87565b61016061037f366004611c95565b611716565b61019c7f70657270657475616c000000000000000000000000000000000000000000000081565b5f805473ffffffffffffffffffffffffffffffffffffffff163314610457576040517f08c379a000000000000000000000000000000000000000000000000000000000815260206004820152602a60248201527f4f6e6c7920746865206f776e65722063616e2064657374726f7920657869737460448201527f696e6720746f6b656e730000000000000000000000000000000000000000000060648201526084015b60405180910390fd5b836001878760405161046a929190612005565b9081526020016040518091039020541015610507576040517f08c379a000000000000000000000000000000000000000000000000000000000815260206004820152602960248201527f4e6f7420656e6f75676820746f6b656e7320696e206578697374656e6365207460448201527f6f2064657374726f790000000000000000000000000000000000000000000000606482015260840161044e565b836001878760405161051a929190612005565b90815260200160405180910390205f8282546105369190612041565b9091555060019998505050505050505050565b5f806002848460405161055d929190612005565b9081526020016040518091039020604051806101200160405290815f8201805461058690612054565b80601f01602080910402602001604051908101604052809291908181526020018280546105b290612054565b80156105fd5780601f106105d4576101008083540402835291602001916105fd565b820191905f5260205f20905b8154815290600101906020018083116105e057829003601f168201915b5050505050815260200160018201805461061690612054565b80601f016020809104026020016040519081016040528092919081815260200182805461064290612054565b801561068d5780601f106106645761010080835404028352916020019161068d565b820191905f5260205f20905b81548152906001019060200180831161067057829003601f168201915b505050505081526020016002820180546106a690612054565b80601f01602080910402602001604051908101604052809291908181526020018280546106d290612054565b801561071d5780601f106106f45761010080835404028352916020019161071d565b820191905f5260205f20905b81548152906001019060200180831161070057829003601f168201915b50505050508152602001600382015481526020016004820154815260200160058201805461074a90612054565b80601f016020809104026020016040519081016040528092919081815260200182805461077690612054565b80156107c15780601f10610798576101008083540402835291602001916107c1565b820191905f5260205f20905b8154815290600101906020018083116107a457829003601f168201915b50505050508152602001600682015481526020016007820154815260200160088201548152505090507f70657270657475616c00000000000000000000000000000000000000000000008160c00181815250507f29f65542e034340f9d7d57b9770a8dd7cee6668f1066458bf50739d90ec1a8e884846040516108459291906120ec565b60405180910390a160019150505b92915050565b5f805473ffffffffffffffffffffffffffffffffffffffff1633146108ff576040517f08c379a0000000000000000000000000000000000000000000000000000000008152602060048201526024808201527f4f6e6c7920746865206f776e65722063616e20637265617465206e657720746f60448201527f6b656e7300000000000000000000000000000000000000000000000000000000606482015260840161044e565b8360018787604051610912929190612005565b90815260200160405180910390205f8282546105369190612107565b5f8073ffffffffffffffffffffffffffffffffffffffff1660038484604051610958929190612005565b9081526040519081900360200190205473ffffffffffffffffffffffffffffffffffffffff161415905092915050565b5f805473ffffffffffffffffffffffffffffffffffffffff163314610a2f576040517f08c379a000000000000000000000000000000000000000000000000000000000815260206004820152602260248201527f4f6e6c7920746865206f776e65722063616e207472616e7366657220746f6b6560448201527f6e73000000000000000000000000000000000000000000000000000000000000606482015260840161044e565b8360018989604051610a42929190612005565b9081526020016040518091039020541015610adf576040517f08c379a000000000000000000000000000000000000000000000000000000000815260206004820152602a60248201527f4e6f7420656e6f75676820746f6b656e7320696e206578697374656e6365207460448201527f6f207472616e7366657200000000000000000000000000000000000000000000606482015260840161044e565b8360018989604051610af2929190612005565b90815260200160405180910390205f828254610b0e9190612041565b925050819055508360018787604051610b28929190612005565b90815260200160405180910390205f828254610b449190612107565b9091555060019b9a5050505050505050505050565b5f60018383604051610b6c929190612005565b908152602001604051809103902054905092915050565b5f8460018c8c604051610b97929190612005565b9081526020016040518091039020541015610c34576040517f08c379a000000000000000000000000000000000000000000000000000000000815260206004820152602260248201527f496e73756666696369656e742062616c616e636520746f20706c61636520686f60448201527f6c64000000000000000000000000000000000000000000000000000000000000606482015260840161044e565b8460018c8c604051610c47929190612005565b90815260200160405180910390205f828254610c639190612041565b9091555050604080516101406020601f8e01819004028201810190925261012081018c81525f928291908f908f90819085018382808284375f92019190915250505090825250604080516020601f8e018190048102820181019092528c815291810191908d908d90819084018382808284375f92019190915250505090825250604080516020601f8c018190048102820181019092528a815291810191908b908b90819084018382808284375f92018290525093855250505060208083018a90526040808401929092528151601f880182900482028101820190925286825260609092019187908790819084018382808284375f81840152601f19601f8201169050808301925050505050505081526020017f70657270657475616c000000000000000000000000000000000000000000000081526020017f6e6f726d616c000000000000000000000000000000000000000000000000000081526020015f80191681525090508060028f8f604051610ddd929190612005565b90815260405190819003602001902081518190610dfa9082612195565b5060208201516001820190610e0f9082612195565b5060408201516002820190610e249082612195565b50606082015160038201556080820151600482015560a08201516005820190610e4d9082612195565b5060c0820151816006015560e0820151816007015561010082015181600801559050507fa79465fa56b93c970496d17ca443f50488391afbeb5d02ac99f7f73f0adfb55f8e8e8e8e8e8e8e8e8e8d8d604051610eb39b9a999897969594939291906122ad565b60405180910390a15060019d9c50505050505050505050505050565b5f8060028484604051610ee3929190612005565b9081526020016040518091039020604051806101200160405290815f82018054610f0c90612054565b80601f0160208091040260200160405190810160405280929190818152602001828054610f3890612054565b8015610f835780601f10610f5a57610100808354040283529160200191610f83565b820191905f5260205f20905b815481529060010190602001808311610f6657829003601f168201915b50505050508152602001600182018054610f9c90612054565b80601f0160208091040260200160405190810160405280929190818152602001828054610fc890612054565b80156110135780601f10610fea57610100808354040283529160200191611013565b820191905f5260205f20905b815481529060010190602001808311610ff657829003601f168201915b5050505050815260200160028201805461102c90612054565b80601f016020809104026020016040519081016040528092919081815260200182805461105890612054565b80156110a35780601f1061107a576101008083540402835291602001916110a3565b820191905f5260205f20905b81548152906001019060200180831161108657829003601f168201915b5050505050815260200160038201548152602001600482015481526020016005820180546110d090612054565b80601f01602080910402602001604051908101604052809291908181526020018280546110fc90612054565b80156111475780601f1061111e57610100808354040283529160200191611147565b820191905f5260205f20905b81548152906001019060200180831161112a57829003601f168201915b5050505050815260200160068201548152602001600782015481526020016008820154815250509050604051602001604080517fffffffffffffffffffffffffffffffffffffffffffffffffffffffffffffffe0818403018152908290528051602091820120835190926111bb920161232a565b6040516020818303038152906040528051906020012003611238576040517f08c379a000000000000000000000000000000000000000000000000000000000815260206004820152601360248201527f486f6c6420646f6573206e6f7420657869737400000000000000000000000000604482015260640161044e565b806060015160018260200151604051611251919061232a565b90815260200160405180910390205f82825461126d9190612107565b90915550506040516002906112859086908690612005565b9081526040519081900360200190205f61129f8282611b62565b6112ac600183015f611b62565b6112b9600283015f611b62565b600382015f9055600482015f9055600582015f6112d69190611b62565b600682015f9055600782015f9055600882015f905550507ff0e25c63981e9a617375c8244c8ac144e4e520acc2cb08e2d4c3781b1a02c06784846040516108459291906120ec565b5f8160038585604051611332929190612005565b908152604051908190036020019020805473ffffffffffffffffffffffffffffffffffffffff929092167fffffffffffffffffffffffff00000000000000000000000000000000000000009092169190911790555060019392505050565b60608060605f8060605f805f8060028c8c6040516113af929190612005565b9081526020016040518091039020604051806101200160405290815f820180546113d890612054565b80601f016020809104026020016040519081016040528092919081815260200182805461140490612054565b801561144f5780601f106114265761010080835404028352916020019161144f565b820191905f5260205f20905b81548152906001019060200180831161143257829003601f168201915b5050505050815260200160018201805461146890612054565b80601f016020809104026020016040519081016040528092919081815260200182805461149490612054565b80156114df5780601f106114b6576101008083540402835291602001916114df565b820191905f5260205f20905b8154815290600101906020018083116114c257829003601f168201915b505050505081526020016002820180546114f890612054565b80601f016020809104026020016040519081016040528092919081815260200182805461152490612054565b801561156f5780601f106115465761010080835404028352916020019161156f565b820191905f5260205f20905b81548152906001019060200180831161155257829003601f168201915b50505050508152602001600382015481526020016004820154815260200160058201805461159c90612054565b80601f01602080910402602001604051908101604052809291908181526020018280546115c890612054565b80156116135780601f106115ea57610100808354040283529160200191611613565b820191905f5260205f20905b8154815290600101906020018083116115f657829003601f168201915b5050505050815260200160068201548152602001600782015481526020016008820154815250509050604051602001604080517fffffffffffffffffffffffffffffffffffffffffffffffffffffffffffffffe081840301815290829052805160209182012083519092611687920161232a565b60405160208183030381529060405280519060200120036116c9577f6e6f6e4578697374656e7400000000000000000000000000000000000000000060c08201525b805f015181602001518260400151836060015184608001518560a001518660c001518760e00151886101000151995099509950995099509950995099509950509295985092959850929598565b5f806002848460405161172a929190612005565b9081526020016040518091039020604051806101200160405290815f8201805461175390612054565b80601f016020809104026020016040519081016040528092919081815260200182805461177f90612054565b80156117ca5780601f106117a1576101008083540402835291602001916117ca565b820191905f5260205f20905b8154815290600101906020018083116117ad57829003601f168201915b505050505081526020016001820180546117e390612054565b80601f016020809104026020016040519081016040528092919081815260200182805461180f90612054565b801561185a5780601f106118315761010080835404028352916020019161185a565b820191905f5260205f20905b81548152906001019060200180831161183d57829003601f168201915b5050505050815260200160028201805461187390612054565b80601f016020809104026020016040519081016040528092919081815260200182805461189f90612054565b80156118ea5780601f106118c1576101008083540402835291602001916118ea565b820191905f5260205f20905b8154815290600101906020018083116118cd57829003601f168201915b50505050508152602001600382015481526020016004820154815260200160058201805461191790612054565b80601f016020809104026020016040519081016040528092919081815260200182805461194390612054565b801561198e5780601f106119655761010080835404028352916020019161198e565b820191905f5260205f20905b81548152906001019060200180831161197157829003601f168201915b5050505050815260200160068201548152602001600782015481526020016008820154815250509050604051602001604080517fffffffffffffffffffffffffffffffffffffffffffffffffffffffffffffffe081840301815290829052805160209182012083519092611a02920161232a565b6040516020818303038152906040528051906020012003611a7f576040517f08c379a000000000000000000000000000000000000000000000000000000000815260206004820152601360248201527f486f6c6420646f6573206e6f7420657869737400000000000000000000000000604482015260640161044e565b60608101518151604051600191611a959161232a565b90815260200160405180910390205f828254611ab19190612107565b9091555050604051600290611ac99086908690612005565b9081526040519081900360200190205f611ae38282611b62565b611af0600183015f611b62565b611afd600283015f611b62565b600382015f9055600482015f9055600582015f611b1a9190611b62565b600682015f9055600782015f9055600882015f905550507f2cdc403326e07fd97057d4ee4757d944364d5504c905571212a32b6f1abee40f84846040516108459291906120ec565b508054611b6e90612054565b5f825580601f10611b7d575050565b601f0160209004905f5260205f2090810190611b999190611b9c565b50565b5b80821115611bb0575f8155600101611b9d565b5090565b5f8083601f840112611bc4575f80fd5b50813567ffffffffffffffff811115611bdb575f80fd5b602083019150836020828501011115611bf2575f80fd5b9250929050565b5f805f805f805f6080888a031215611c0f575f80fd5b873567ffffffffffffffff80821115611c26575f80fd5b611c328b838c01611bb4565b909950975060208a0135915080821115611c4a575f80fd5b611c568b838c01611bb4565b909750955060408a0135945060608a0135915080821115611c75575f80fd5b50611c828a828b01611bb4565b989b979a50959850939692959293505050565b5f8060208385031215611ca6575f80fd5b823567ffffffffffffffff811115611cbc575f80fd5b611cc885828601611bb4565b90969095509350505050565b5f805f805f805f805f60a08a8c031215611cec575f80fd5b893567ffffffffffffffff80821115611d03575f80fd5b611d0f8d838e01611bb4565b909b50995060208c0135915080821115611d27575f80fd5b611d338d838e01611bb4565b909950975060408c0135915080821115611d4b575f80fd5b611d578d838e01611bb4565b909750955060608c0135945060808c0135915080821115611d76575f80fd5b50611d838c828d01611bb4565b915080935050809150509295985092959850929598565b5f805f805f805f805f805f8060e08d8f031215611db5575f80fd5b67ffffffffffffffff8d351115611dca575f80fd5b611dd78e8e358f01611bb4565b909c509a5067ffffffffffffffff60208e01351115611df4575f80fd5b611e048e60208f01358f01611bb4565b909a50985067ffffffffffffffff60408e01351115611e21575f80fd5b611e318e60408f01358f01611bb4565b909850965067ffffffffffffffff60608e01351115611e4e575f80fd5b611e5e8e60608f01358f01611bb4565b909650945060808d0135935060a08d0135925067ffffffffffffffff60c08e01351115611e89575f80fd5b611e998e60c08f01358f01611bb4565b81935080925050509295989b509295989b509295989b565b5f805f60408486031215611ec3575f80fd5b833567ffffffffffffffff811115611ed9575f80fd5b611ee586828701611bb4565b909450925050602084013573ffffffffffffffffffffffffffffffffffffffff81168114611f11575f80fd5b809150509250925092565b5f5b83811015611f36578181015183820152602001611f1e565b50505f910152565b5f8151808452611f55816020860160208601611f1c565b601f017fffffffffffffffffffffffffffffffffffffffffffffffffffffffffffffffe0169290920160200192915050565b5f610120808352611f9a8184018d611f3e565b90508281036020840152611fae818c611f3e565b90508281036040840152611fc2818b611f3e565b905088606084015287608084015282810360a0840152611fe28188611f3e565b60c0840196909652505060e0810192909252610100909101529695505050505050565b818382375f9101908152919050565b7f4e487b71000000000000000000000000000000000000000000000000000000005f52601160045260245ffd5b8181038181111561085357610853612014565b600181811c9082168061206857607f821691505b60208210810361209f577f4e487b71000000000000000000000000000000000000000000000000000000005f52602260045260245ffd5b50919050565b81835281816020850137505f602082840101525f60207fffffffffffffffffffffffffffffffffffffffffffffffffffffffffffffffe0601f840116840101905092915050565b602081525f6120ff6020830184866120a5565b949350505050565b8082018082111561085357610853612014565b7f4e487b71000000000000000000000000000000000000000000000000000000005f52604160045260245ffd5b601f821115612190575f81815260208120601f850160051c8101602086101561216d5750805b601f850160051c820191505b8181101561218c57828155600101612179565b5050505b505050565b815167ffffffffffffffff8111156121af576121af61211a565b6121c3816121bd8454612054565b84612147565b602080601f831160018114612215575f84156121df5750858301515b7fffffffffffffffffffffffffffffffffffffffffffffffffffffffffffffffff600386901b1c1916600185901b17855561218c565b5f858152602081207fffffffffffffffffffffffffffffffffffffffffffffffffffffffffffffffe08616915b8281101561226157888601518255948401946001909101908401612242565b508582101561229d57878501517fffffffffffffffffffffffffffffffffffffffffffffffffffffffffffffffff600388901b60f8161c191681555b5050505050600190811b01905550565b60c081525f6122c060c083018d8f6120a5565b82810360208401526122d3818c8e6120a5565b905082810360408401526122e8818a8c6120a5565b905082810360608401526122fd81888a6120a5565b905085608084015282810360a08401526123188185876120a5565b9e9d5050505050505050505050505050565b5f825161233b818460208701611f1c565b919091019291505056fea2646970667358221220ede71c696fe7ffd73b31b73df41cb1ea3897a1c9df26d59b3abf33920e59687264736f6c63430008140033",
  "linkReferences": {},
  "deployedLinkReferences": {}
}