{
    "contractName": "GlobalExitRootManagerL2SovereignChain",
    "abi": [
        {
            "inputs": [
                {
                    "internalType": "address",
                    "name": "_bridgeAddress",
                    "type": "address"
                }
            ],
            "stateMutability": "nonpayable",
            "type": "constructor"
        },
        {
            "inputs": [],
            "name": "GlobalExitRootAlreadySet",
            "type": "error"
        },
        {
            "inputs": [],
            "name": "GlobalExitRootNotFound",
            "type": "error"
        },
        {
            "inputs": [],
            "name": "OnlyAllowedContracts",
            "type": "error"
        },
        {
            "inputs": [],
            "name": "OnlyGlobalExitRootRemover",
            "type": "error"
        },
        {
            "inputs": [],
            "name": "OnlyGlobalExitRootUpdater",
            "type": "error"
        },
        {
            "anonymous": false,
            "inputs": [
                {
                    "indexed": false,
                    "internalType": "uint8",
                    "name": "version",
                    "type": "uint8"
                }
            ],
            "name": "Initialized",
            "type": "event"
        },
        {
            "anonymous": false,
            "inputs": [
                {
                    "indexed": true,
                    "internalType": "address",
                    "name": "newGlobalExitRootRemover",
                    "type": "address"
                }
            ],
            "name": "SetGlobalExitRootRemover",
            "type": "event"
        },
        {
            "anonymous": false,
            "inputs": [
                {
                    "indexed": true,
                    "internalType": "address",
                    "name": "newGlobalExitRootUpdater",
                    "type": "address"
                }
            ],
            "name": "SetGlobalExitRootUpdater",
            "type": "event"
        },
        {
            "anonymous": false,
            "inputs": [
                {
                    "indexed": true,
                    "internalType": "bytes32",
                    "name": "newGlobalExitRoot",
                    "type": "bytes32"
                },
                {
                    "indexed": true,
                    "internalType": "bytes32",
                    "name": "newHashChainValue",
                    "type": "bytes32"
                }
            ],
            "name": "UpdateHashChainValue",
            "type": "event"
        },
        {
            "anonymous": false,
            "inputs": [
                {
                    "indexed": true,
                    "internalType": "bytes32",
                    "name": "removedGlobalExitRoot",
                    "type": "bytes32"
                },
                {
                    "indexed": true,
                    "internalType": "bytes32",
                    "name": "newRemovalHashChainValue",
                    "type": "bytes32"
                }
            ],
            "name": "UpdateRemovalHashChainValue",
            "type": "event"
        },
        {
            "inputs": [],
            "name": "bridgeAddress",
            "outputs": [
                {
                    "internalType": "address",
                    "name": "",
                    "type": "address"
                }
            ],
            "stateMutability": "view",
            "type": "function"
        },
        {
            "inputs": [
                {
                    "internalType": "bytes32",
                    "name": "",
                    "type": "bytes32"
                }
            ],
            "name": "globalExitRootMap",
            "outputs": [
                {
                    "internalType": "uint256",
                    "name": "",
                    "type": "uint256"
                }
            ],
            "stateMutability": "view",
            "type": "function"
        },
        {
            "inputs": [],
            "name": "globalExitRootRemover",
            "outputs": [
                {
                    "internalType": "address",
                    "name": "",
                    "type": "address"
                }
            ],
            "stateMutability": "view",
            "type": "function"
        },
        {
            "inputs": [],
            "name": "globalExitRootUpdater",
            "outputs": [
                {
                    "internalType": "address",
                    "name": "",
                    "type": "address"
                }
            ],
            "stateMutability": "view",
            "type": "function"
        },
        {
            "inputs": [
                {
                    "internalType": "address",
                    "name": "_globalExitRootUpdater",
                    "type": "address"
                },
                {
                    "internalType": "address",
                    "name": "_globalExitRootRemover",
                    "type": "address"
                }
            ],
            "name": "initialize",
            "outputs": [],
            "stateMutability": "nonpayable",
            "type": "function"
        },
        {
            "inputs": [
                {
                    "internalType": "bytes32",
                    "name": "_newRoot",
                    "type": "bytes32"
                }
            ],
            "name": "insertGlobalExitRoot",
            "outputs": [],
            "stateMutability": "nonpayable",
            "type": "function"
        },
        {
            "inputs": [],
            "name": "insertedGERHashChain",
            "outputs": [
                {
                    "internalType": "bytes32",
                    "name": "",
                    "type": "bytes32"
                }
            ],
            "stateMutability": "view",
            "type": "function"
        },
        {
            "inputs": [],
            "name": "lastRollupExitRoot",
            "outputs": [
                {
                    "internalType": "bytes32",
                    "name": "",
                    "type": "bytes32"
                }
            ],
            "stateMutability": "view",
            "type": "function"
        },
        {
            "inputs": [
                {
                    "internalType": "bytes32[]",
                    "name": "gersToRemove",
                    "type": "bytes32[]"
                }
            ],
            "name": "removeGlobalExitRoots",
            "outputs": [],
            "stateMutability": "nonpayable",
            "type": "function"
        },
        {
            "inputs": [],
            "name": "removedGERHashChain",
            "outputs": [
                {
                    "internalType": "bytes32",
                    "name": "",
                    "type": "bytes32"
                }
            ],
            "stateMutability": "view",
            "type": "function"
        },
        {
            "inputs": [
                {
                    "internalType": "address",
                    "name": "_globalExitRootRemover",
                    "type": "address"
                }
            ],
            "name": "setGlobalExitRootRemover",
            "outputs": [],
            "stateMutability": "nonpayable",
            "type": "function"
        },
        {
            "inputs": [
                {
                    "internalType": "address",
                    "name": "_globalExitRootUpdater",
                    "type": "address"
                }
            ],
            "name": "setGlobalExitRootUpdater",
            "outputs": [],
            "stateMutability": "nonpayable",
            "type": "function"
        },
        {
            "inputs": [
                {
                    "internalType": "bytes32",
                    "name": "newRoot",
                    "type": "bytes32"
                }
            ],
            "name": "updateExitRoot",
            "outputs": [],
            "stateMutability": "nonpayable",
            "type": "function"
        }
    ],
    "bytecode": "60a03461011a57601f6107cf38819003918201601f19168301916001600160401b0383118484101761011e5780849260209460405283398101031261011a57516001600160a01b038116810361011a5760805260345460ff8160081c166100c55760ff8082160361008a575b60405161069c9081610133823960805181818161015d01526104fd0152f35b60ff90811916176034557f7f26b83ff96e1f2b6a682f133852f6798a09c465da95921460cefb3847402498602060405160ff8152a15f61006b565b60405162461bcd60e51b815260206004820152602760248201527f496e697469616c697a61626c653a20636f6e747261637420697320696e697469604482015266616c697a696e6760c81b6064820152608490fd5b5f80fd5b634e487b7160e01b5f52604160045260245ffdfe6080806040526004361015610012575f80fd5b5f3560e01c90816301fd9044146106365750806312da06b214610588578063163bbb461461056b578063257b36321461054257806333d6247d146104ea578063485cc9551461037457806365f0e3471461028b5780636da0e4ab146101e05780637c314ce3146101b457806391eb796d1461018c578063a3c573eb14610148578063d0267f39146100cc5763f5d2f04b146100ab575f80fd5b346100c8575f3660031901126100c8576020603854604051908152f35b5f80fd5b346100c85760203660031901126100c8576100e5610650565b60355490336001600160a01b03831603610139576001600160a01b03166001600160a01b03199190911681176035557eb4672b6135d1dfbd4e9520e01abb14ea5eac645990b0d24dfda00ae999b7585f80a2005b63a34ddeb160e01b5f5260045ffd5b346100c8575f3660031901126100c8576040517f00000000000000000000000000000000000000000000000000000000000000006001600160a01b03168152602090f35b346100c8575f3660031901126100c8576035546040516001600160a01b039091168152602090f35b346100c8575f3660031901126100c85760345460405160109190911c6001600160a01b03168152602090f35b346100c85760203660031901126100c8576101f9610650565b603454601081901c6001600160a01b0316806102765750334103610267575b62010000600160b01b031916601082901b62010000600160b01b0316176034556001600160a01b03167f992b80814dbc3fba903486d81daddb07d1d5b20483742458c8b0540e3a37e37c5f80a2005b6363ac7e0d60e11b5f5260045ffd5b3314610218576363ac7e0d60e11b5f5260045ffd5b346100c85760203660031901126100c85760043567ffffffffffffffff81116100c857366023820112156100c857806004013567ffffffffffffffff81116100c8573660248260051b840101116100c8576035546001600160a01b0316330361013957603854915f925b8284101561036f5760248460051b8301013593845f525f60205260405f205415610360576001915f528460205260405f208581965f525f6020525f60408120557faafec9380147d2b2b14fe23b1343cbaa1b07f86c5adb060bd28cdf1af4c6f0d45f80a301926102f5565b63f4a66f9d60e01b5f5260045ffd5b603855005b346100c85760403660031901126100c85761038d610650565b6024356001600160a01b03811691908290036100c85760345460ff8160081c1615908180926104dd575b80156104c6575b1561046a5760ff19811660011760345581610458575b506034805462010000600160b01b0319811660109490941b62010000600160b01b0316938417909155603580546001600160a01b03191690941790935590919061041a57005b610100600160b01b03191617603455604051600181527f7f26b83ff96e1f2b6a682f133852f6798a09c465da95921460cefb384740249890602090a1005b61ffff191661010117603455836103d4565b60405162461bcd60e51b815260206004820152602e60248201527f496e697469616c697a61626c653a20636f6e747261637420697320616c72656160448201526d191e481a5b9a5d1a585b1a5e995960921b6064820152608490fd5b50303b1580156103be5750600160ff8216146103be565b50600160ff8216106103b7565b346100c85760203660031901126100c8577f00000000000000000000000000000000000000000000000000000000000000006001600160a01b0316330361053357600435600155005b63b49365dd60e01b5f5260045ffd5b346100c85760203660031901126100c8576004355f525f602052602060405f2054604051908152f35b346100c8575f3660031901126100c8576020603754604051908152f35b346100c85760203660031901126100c8576034546004359060101c6001600160a01b0316806106215750334103610267575b805f525f60205260405f2054155f1461061257805f525f6020524260405f20556037545f528060205260405f2090816037557f65d3bf36615f1f02a134d12dfa9ea6b1d4a52386e825973cd27ddb70895c23195f80a3005b630fcbd2c160e11b5f5260045ffd5b33146105ba576363ac7e0d60e11b5f5260045ffd5b346100c8575f3660031901126100c8576020906001548152f35b600435906001600160a01b03821682036100c85756fea26469706673582212203e32e34c238d65e9b00d4a9cd618b3102e661bd5d21f3cc1b880d21d551ace4864736f6c634300081c0033",
    "sourcePath": "/home/jihwankim/agg-contracts-internal/contracts/v2/sovereignChains/GlobalExitRootManagerL2SovereignChain.sol",
    "compiler": {
        "name": "solc",
        "version": "0.8.28+commit.7893614a"
    },
    "functionHashes": {
        "bridgeAddress()": "a3c573eb",
        "globalExitRootMap(bytes32)": "257b3632",
        "globalExitRootRemover()": "91eb796d",
        "globalExitRootUpdater()": "7c314ce3",
        "initialize(address,address)": "485cc955",
        "insertGlobalExitRoot(bytes32)": "12da06b2",
        "insertedGERHashChain()": "163bbb46",
        "lastRollupExitRoot()": "01fd9044",
        "removeGlobalExitRoots(bytes32[])": "65f0e347",
        "removedGERHashChain()": "f5d2f04b",
        "setGlobalExitRootRemover(address)": "d0267f39",
        "setGlobalExitRootUpdater(address)": "6da0e4ab",
        "updateExitRoot(bytes32)": "33d6247d"
    },
    "gasEstimates": {
        "creation": {
            "codeDepositCost": "338400",
            "executionCost": "infinite",
            "totalCost": "infinite"
        },
        "external": {
            "bridgeAddress()": "infinite",
            "globalExitRootMap(bytes32)": "2386",
            "globalExitRootRemover()": "2478",
            "globalExitRootUpdater()": "2465",
            "initialize(address,address)": "121217",
            "insertGlobalExitRoot(bytes32)": "52457",
            "insertedGERHashChain()": "2300",
            "lastRollupExitRoot()": "2248",
            "removeGlobalExitRoots(bytes32[])": "infinite",
            "removedGERHashChain()": "2517",
            "setGlobalExitRootRemover(address)": "25880",
            "setGlobalExitRootUpdater(address)": "25837",
            "updateExitRoot(bytes32)": "infinite"
        }
    }
}